{
  "address": "0x8C66314e67855139261f7E81865ed210D1Dd9C43",
  "abi": [
    {
      "anonymous": false,
      "inputs": [
        {
          "indexed": true,
          "internalType": "address",
          "name": "owner",
          "type": "address"
        },
        {
          "indexed": true,
          "internalType": "address",
          "name": "approved",
          "type": "address"
        },
        {
          "indexed": true,
          "internalType": "uint256",
          "name": "tokenId",
          "type": "uint256"
        }
      ],
      "name": "Approval",
      "type": "event"
    },
    {
      "anonymous": false,
      "inputs": [
        {
          "indexed": true,
          "internalType": "address",
          "name": "owner",
          "type": "address"
        },
        {
          "indexed": true,
          "internalType": "address",
          "name": "operator",
          "type": "address"
        },
        {
          "indexed": false,
          "internalType": "bool",
          "name": "approved",
          "type": "bool"
        }
      ],
      "name": "ApprovalForAll",
      "type": "event"
    },
    {
      "anonymous": false,
      "inputs": [
        {
          "indexed": false,
          "internalType": "uint8",
          "name": "version",
          "type": "uint8"
        }
      ],
      "name": "Initialized",
      "type": "event"
    },
    {
      "anonymous": false,
      "inputs": [
        {
          "indexed": true,
          "internalType": "address",
          "name": "previousOwner",
          "type": "address"
        },
        {
          "indexed": true,
          "internalType": "address",
          "name": "newOwner",
          "type": "address"
        }
      ],
      "name": "OwnershipTransferred",
      "type": "event"
    },
    {
      "anonymous": false,
      "inputs": [
        {
          "indexed": true,
          "internalType": "address",
          "name": "from",
          "type": "address"
        },
        {
          "indexed": true,
          "internalType": "address",
          "name": "to",
          "type": "address"
        },
        {
          "indexed": true,
          "internalType": "uint256",
          "name": "tokenId",
          "type": "uint256"
        }
      ],
      "name": "Transfer",
      "type": "event"
    },
    {
      "stateMutability": "payable",
      "type": "fallback"
    },
    {
      "inputs": [
        {
          "internalType": "address",
          "name": "to",
          "type": "address"
        },
        {
          "internalType": "uint256",
          "name": "tokenId",
          "type": "uint256"
        }
      ],
      "name": "approve",
      "outputs": [],
      "stateMutability": "nonpayable",
      "type": "function"
    },
    {
      "inputs": [
        {
          "internalType": "address",
          "name": "owner",
          "type": "address"
        }
      ],
      "name": "balanceOf",
      "outputs": [
        {
          "internalType": "uint256",
          "name": "",
          "type": "uint256"
        }
      ],
      "stateMutability": "view",
      "type": "function"
    },
    {
      "inputs": [
        {
          "internalType": "uint256",
          "name": "tokenId",
          "type": "uint256"
        }
      ],
      "name": "getApproved",
      "outputs": [
        {
          "internalType": "address",
          "name": "",
          "type": "address"
        }
      ],
      "stateMutability": "view",
      "type": "function"
    },
    {
      "inputs": [],
      "name": "initialize",
      "outputs": [],
      "stateMutability": "nonpayable",
      "type": "function"
    },
    {
      "inputs": [
        {
          "internalType": "address",
          "name": "owner",
          "type": "address"
        },
        {
          "internalType": "address",
          "name": "operator",
          "type": "address"
        }
      ],
      "name": "isApprovedForAll",
      "outputs": [
        {
          "internalType": "bool",
          "name": "",
          "type": "bool"
        }
      ],
      "stateMutability": "view",
      "type": "function"
    },
    {
      "inputs": [
        {
          "internalType": "address",
          "name": "to",
          "type": "address"
        },
        {
          "internalType": "uint256",
          "name": "tokenId",
          "type": "uint256"
        }
      ],
      "name": "mint",
      "outputs": [],
      "stateMutability": "payable",
      "type": "function"
    },
    {
      "inputs": [],
      "name": "name",
      "outputs": [
        {
          "internalType": "string",
          "name": "",
          "type": "string"
        }
      ],
      "stateMutability": "pure",
      "type": "function"
    },
    {
      "inputs": [],
      "name": "owner",
      "outputs": [
        {
          "internalType": "address",
          "name": "",
          "type": "address"
        }
      ],
      "stateMutability": "view",
      "type": "function"
    },
    {
      "inputs": [
        {
          "internalType": "uint256",
          "name": "tokenId",
          "type": "uint256"
        }
      ],
      "name": "ownerOf",
      "outputs": [
        {
          "internalType": "address",
          "name": "",
          "type": "address"
        }
      ],
      "stateMutability": "view",
      "type": "function"
    },
    {
      "inputs": [],
      "name": "renounceOwnership",
      "outputs": [],
      "stateMutability": "nonpayable",
      "type": "function"
    },
    {
      "inputs": [
        {
          "internalType": "address",
          "name": "from",
          "type": "address"
        },
        {
          "internalType": "address",
          "name": "to",
          "type": "address"
        },
        {
          "internalType": "uint256",
          "name": "tokenId",
          "type": "uint256"
        }
      ],
      "name": "safeTransferFrom",
      "outputs": [],
      "stateMutability": "nonpayable",
      "type": "function"
    },
    {
      "inputs": [
        {
          "internalType": "address",
          "name": "from",
          "type": "address"
        },
        {
          "internalType": "address",
          "name": "to",
          "type": "address"
        },
        {
          "internalType": "uint256",
          "name": "tokenId",
          "type": "uint256"
        },
        {
          "internalType": "bytes",
          "name": "data",
          "type": "bytes"
        }
      ],
      "name": "safeTransferFrom",
      "outputs": [],
      "stateMutability": "nonpayable",
      "type": "function"
    },
    {
      "inputs": [
        {
          "internalType": "address",
          "name": "operator",
          "type": "address"
        },
        {
          "internalType": "bool",
          "name": "approved",
          "type": "bool"
        }
      ],
      "name": "setApprovalForAll",
      "outputs": [],
      "stateMutability": "nonpayable",
      "type": "function"
    },
    {
      "inputs": [
        {
          "internalType": "bytes4",
          "name": "interfaceId",
          "type": "bytes4"
        }
      ],
      "name": "supportsInterface",
      "outputs": [
        {
          "internalType": "bool",
          "name": "",
          "type": "bool"
        }
      ],
      "stateMutability": "view",
      "type": "function"
    },
    {
      "inputs": [],
      "name": "symbol",
      "outputs": [
        {
          "internalType": "string",
          "name": "",
          "type": "string"
        }
      ],
      "stateMutability": "view",
      "type": "function"
    },
    {
      "inputs": [],
      "name": "temp",
      "outputs": [
        {
          "internalType": "bytes",
          "name": "",
          "type": "bytes"
        }
      ],
      "stateMutability": "view",
      "type": "function"
    },
    {
      "inputs": [
        {
          "internalType": "uint256",
          "name": "tokenId",
          "type": "uint256"
        }
      ],
      "name": "tokenURI",
      "outputs": [
        {
          "internalType": "string",
          "name": "",
          "type": "string"
        }
      ],
      "stateMutability": "view",
      "type": "function"
    },
    {
      "inputs": [
        {
          "internalType": "address",
          "name": "from",
          "type": "address"
        },
        {
          "internalType": "address",
          "name": "to",
          "type": "address"
        },
        {
          "internalType": "uint256",
          "name": "tokenId",
          "type": "uint256"
        }
      ],
      "name": "transferFrom",
      "outputs": [],
      "stateMutability": "nonpayable",
      "type": "function"
    },
    {
      "inputs": [
        {
          "internalType": "address",
          "name": "newOwner",
          "type": "address"
        }
      ],
      "name": "transferOwnership",
      "outputs": [],
      "stateMutability": "nonpayable",
      "type": "function"
    },
    {
      "stateMutability": "payable",
      "type": "receive"
    }
  ],
  "transactionHash": "0xb472c1a0374fc0ad023d3ed176f21183dee1ee05c1ee78f53b1717ea9864c616",
  "args": [],
  "numDeployments": 1,
  "solcInputHash": "956de1bc107b8a7baf206f44c84801df",
  "bytecode": "0x608060405234801561001057600080fd5b50612ddf806100206000396000f3fe6080604052600436106101085760003560e01c806370a08231116100a0578063a22cb46511610064578063a22cb4651461058b578063b88d4fde146105ab578063c87b56dd146105cb578063e985e9c5146105eb578063f2fde38b1461060b57610128565b806370a0823114610500578063715018a61461052e5780638129fc1c146105435780638da5cb5b1461055857806395d89b411461057657610128565b806301ffc9a7146103ae57806306fdde03146103e3578063081812fc14610420578063095ea7b31461045857806323b872dd1461047857806340c10f191461049857806342842e0e146104ab5780636352211e146104cb578063673402e5146104eb57610128565b366101285761011a60c96000366125b0565b5061012633600161062b565b005b600036606061013960c984846125b0565b5060006040518060800160405280605b8152602001612d4f605b913990506000606060006101688460146106ce565b8151929550909350915060009083906002908110610188576101886126f4565b6020026020010151905060006101a78683602001518460600151610ed6565b90506000846004815181106101be576101be6126f4565b6020026020010151905060006101dd8883602001518460600151610ed6565b90506000866008815181106101f4576101f46126f4565b6020026020010151905060006102138a83602001518460600151610ed6565b9050600088600a8151811061022a5761022a6126f4565b6020026020010151905060006102498c83602001518460600151610ed6565b905061028460405180604001604052806017815260200176021b430b733b4b7339037bbb732b910333937b69012b99604d1b8152508c610fa5565b6102bd60405180604001604052806017815260200176021b430b733b4b7339037bbb732b910333937b69012b99604d1b8152508a610fa5565b6102f260405180604001604052806013815260200172021b430b733b4b733903790333937b69012b99606d1b81525088610fea565b61032a60405180604001604052806016815260200175021b430b733b4b733903a34b1b590333937b69012b9960551b81525086610fea565b61036060405180604001604052806014815260200173021b430b733b4b7339037b810333937b69012b9960651b81525084610fea565b61039760405180604001604052806015815260200174021b430b733b4b7339030b6ba10333937b69012b99605d1b81525082610fea565b505050505050505050505050915050805190602001f35b3480156103ba57600080fd5b506103ce6103c9366004612720565b61102f565b60405190151581526020015b60405180910390f35b3480156103ef57600080fd5b5060408051808201909152600b81526a4f7665726475654241594360a81b60208201525b6040516103da9190612795565b34801561042c57600080fd5b5061044061043b3660046127a8565b611081565b6040516001600160a01b0390911681526020016103da565b34801561046457600080fd5b506101266104733660046127dd565b6110a8565b34801561048457600080fd5b50610126610493366004612807565b6111be565b6101266104a63660046127dd565b61062b565b3480156104b757600080fd5b506101266104c6366004612807565b6111ef565b3480156104d757600080fd5b506104406104e63660046127a8565b61120a565b3480156104f757600080fd5b5061041361123f565b34801561050c57600080fd5b5061052061051b366004612843565b6112cd565b6040519081526020016103da565b34801561053a57600080fd5b50610126611353565b34801561054f57600080fd5b50610126611367565b34801561056457600080fd5b506033546001600160a01b0316610440565b34801561058257600080fd5b506104136114c7565b34801561059757600080fd5b506101266105a636600461285e565b611559565b3480156105b757600080fd5b506101266105c63660046128b0565b611564565b3480156105d757600080fd5b506104136105e63660046127a8565b61159c565b3480156105f757600080fd5b506103ce61060636600461298c565b611602565b34801561061757600080fd5b50610126610626366004612843565b611630565b3467016345785d8a00001461067b5760405162461bcd60e51b815260206004820152601160248201527009aeae6e840e6cadcc840605c62408aa89607b1b60448201526064015b60405180910390fd5b610684816116a6565b156106c05760405162461bcd60e51b815260206004820152600c60248201526b1d1bdad95b881b5a5b9d195960a21b6044820152606401610672565b6106ca82826116c3565b5050565b6000606060008085905060006106fe60405180606001604052806000815260200160008152602001600081525090565b610707876116dd565b60208201519096509091506000908161071e612634565b865185511015610ebe57600087866000015181518110610740576107406126f4565b01602001516001600160f81b0319169050607b60f81b8114806107705750605b60f81b6001600160f81b03198216145b15610864578361077f816129d5565b94505061078c868b611787565b9097509150866107ac57506003995060009750610ecf9650505050505050565b8560400151600019146107ef57898660400151815181106107cf576107cf6126f4565b602002602001015160a00180518091906107e8906129f0565b60ff169052505b607b60f81b6001600160f81b031982161461080b57600261080e565b60015b8290600481111561082157610821612a10565b9081600481111561083457610834612a10565b9052508551602080840191909152600160408401819052908701516108599190612a26565b604087015250610eaa565b607d60f81b6001600160f81b03198216148061088d5750605d60f81b6001600160f81b03198216145b15610a7b576000607d60f81b6001600160f81b03198316146108b05760026108b3565b60015b90506000600188602001516108c89190612a26565b94505b8b85815181106108dd576108dd6126f4565b60200260200101519350836040015180156108fa57508360800151155b156109a85781600481111561091157610911612a10565b8451600481111561092457610924612a10565b14610941575060019b5060009950610ecf98505050505050505050565b60001960408901528751610956906001612a3d565b8c8681518110610968576109686126f4565b6020026020010151606001818152505060018c868151811061098c5761098c6126f4565b60209081029190910101519015156080909101525060016109ba565b846109b281612a55565b9550506108cb565b806109d7575060019b5060009950610ecf98505050505050505050565b8415610a2f578b85815181106109ef576109ef6126f4565b6020026020010151935083604001518015610a0c57508360800151155b15610a1d5760408801859052610a2f565b84610a2781612a55565b9550506109d7565b84610a73578b8581518110610a4657610a466126f4565b6020026020010151935083604001518015610a6357508360800151155b15610a7357600f85900b60408901525b505050610eaa565b601160f91b6001600160f81b031982161415610b0e57610a9c868b8a611845565b94508415610ab8575092985060009650610ecf95505050505050565b83610ac2816129d5565b945050856040015160001914610b085789866040015181518110610ae857610ae86126f4565b602002602001015160a0018051809190610b01906129f0565b60ff169052505b50610eaa565b600160fd1b6001600160f81b031982161480610b375750601160f81b6001600160f81b03198216145b80610b4f5750600960f91b6001600160f81b03198216145b80610b675750600560fa1b6001600160f81b03198216145b15610b725750610eaa565b601d60f91b6001600160f81b031982161415610b9957600186602001516108599190612a26565b600b60fa1b6001600160f81b031982161415610d2857856040015160001914158015610bf8575060028a876040015181518110610bd857610bd86126f4565b6020026020010151600001516004811115610bf557610bf5612a10565b14155b8015610c37575060018a876040015181518110610c1757610c176126f4565b6020026020010151600001516004811115610c3457610c34612a10565b14155b15610b085760018660200151610c4d9190612a26565b92505b60028a8481518110610c6457610c646126f4565b6020026020010151600001516004811115610c8157610c81612a10565b1480610cbb575060018a8481518110610c9c57610c9c6126f4565b6020026020010151600001516004811115610cb957610cb9612a10565b145b15610d1657898381518110610cd257610cd26126f4565b6020026020010151604001518015610d055750898381518110610cf757610cf76126f4565b602002602001015160800151155b15610d165760408601839052610b08565b82610d2081612a55565b935050610c50565b600360fc1b6001600160f81b0319821610801590610d545750603960f81b6001600160f81b0319821611155b80610d6c5750602d60f81b6001600160f81b03198216145b80610d845750603360f91b6001600160f81b03198216145b80610d9c5750601d60fa1b6001600160f81b03198216145b80610db45750603760f91b6001600160f81b03198216145b15610e6157856040015160001914610e565789866040015181518110610ddc57610ddc6126f4565b6020026020010151915060016004811115610df957610df9612a10565b82516004811115610e0c57610e0c612a10565b1480610e3b5750600382516004811115610e2857610e28612a10565b148015610e3b575060a082015160ff1615155b15610e5657506001995060009750610ecf9650505050505050565b610a9c868b8a611ae8565b600160fd1b6001600160f81b0319821610801590610e8d5750603f60f91b6001600160f81b0319821611155b15610ea857506001995060009750610ecf9650505050505050565b505b845185610eb6826129d5565b90525061071e565b505050506020015160009550925050505b9250925092565b6060836000610ee58585612a26565b67ffffffffffffffff811115610efd57610efd61289a565b6040519080825280601f01601f191660200182016040528015610f27576020820181803683370190505b509050845b84811015610f9957828181518110610f4657610f466126f4565b01602001516001600160f81b03191682610f608884612a26565b81518110610f7057610f706126f4565b60200101906001600160f81b031916908160001a90535080610f91816129d5565b915050610f2c565b509150505b9392505050565b6106ca8282604051602401610fbb929190612a6c565b60408051601f198184030181529190526020810180516001600160e01b0316632d839cb360e21b179052611c74565b6106ca8282604051602401611000929190612a8e565b60408051601f198184030181529190526020810180516001600160e01b0316634b5c427760e01b179052611c74565b60006001600160e01b031982166380ac58cd60e01b148061106057506001600160e01b03198216635b5e139f60e01b145b8061107b57506301ffc9a760e01b6001600160e01b03198316145b92915050565b600061108c82611c7d565b506000908152609b60205260409020546001600160a01b031690565b60006110b38261120a565b9050806001600160a01b0316836001600160a01b031614156111215760405162461bcd60e51b815260206004820152602160248201527f4552433732313a20617070726f76616c20746f2063757272656e74206f776e656044820152603960f91b6064820152608401610672565b336001600160a01b038216148061113d575061113d8133611602565b6111af5760405162461bcd60e51b815260206004820152603d60248201527f4552433732313a20617070726f76652063616c6c6572206973206e6f7420746f60448201527f6b656e206f776e6572206f7220617070726f76656420666f7220616c6c0000006064820152608401610672565b6111b98383611ca2565b505050565b6111c83382611d10565b6111e45760405162461bcd60e51b815260040161067290612abc565b6111b9838383611d6f565b6111b983838360405180602001604052806000815250611564565b6000818152609960205260408120546001600160a01b03168061107b5760405162461bcd60e51b815260040161067290612b09565b60c9805461124c90612b3b565b80601f016020809104026020016040519081016040528092919081815260200182805461127890612b3b565b80156112c55780601f1061129a576101008083540402835291602001916112c5565b820191906000526020600020905b8154815290600101906020018083116112a857829003601f168201915b505050505081565b60006001600160a01b0382166113375760405162461bcd60e51b815260206004820152602960248201527f4552433732313a2061646472657373207a65726f206973206e6f7420612076616044820152683634b21037bbb732b960b91b6064820152608401610672565b506001600160a01b03166000908152609a602052604090205490565b61135b611ed3565b6113656000611f2d565b565b600054610100900460ff16158080156113875750600054600160ff909116105b806113a15750303b1580156113a1575060005460ff166001145b6114045760405162461bcd60e51b815260206004820152602e60248201527f496e697469616c697a61626c653a20636f6e747261637420697320616c72656160448201526d191e481a5b9a5d1a585b1a5e995960921b6064820152608401610672565b6000805460ff191660011790558015611427576000805461ff0019166101001790555b61142f611f7f565b61147e604051806040016040528060118152602001702137b932b220b832acb0b1b43a21b63ab160791b815250604051806040016040528060048152602001634241594360e01b815250611fae565b80156114c4576000805461ff0019169055604051600181527f7f26b83ff96e1f2b6a682f133852f6798a09c465da95921460cefb38474024989060200160405180910390a15b50565b6060609880546114d690612b3b565b80601f016020809104026020016040519081016040528092919081815260200182805461150290612b3b565b801561154f5780601f106115245761010080835404028352916020019161154f565b820191906000526020600020905b81548152906001019060200180831161153257829003601f168201915b5050505050905090565b6106ca338383611fdf565b61156e3383611d10565b61158a5760405162461bcd60e51b815260040161067290612abc565b611596848484846120aa565b50505050565b60606115a782611c7d565b60006115b16120dd565b905060008151116115d15760405180602001604052806000815250610f9e565b806115db846120fd565b6040516020016115ec929190612b76565b6040516020818303038152906040529392505050565b6001600160a01b039182166000908152609c6020908152604080832093909416825291909152205460ff1690565b611638611ed3565b6001600160a01b03811661169d5760405162461bcd60e51b815260206004820152602660248201527f4f776e61626c653a206e6577206f776e657220697320746865207a65726f206160448201526564647265737360d01b6064820152608401610672565b6114c481611f2d565b6000908152609960205260409020546001600160a01b0316151590565b6106ca82826040518060200160405280600081525061219a565b61170160405180606001604052806000815260200160008152602001600081525090565b6060600060405180606001604052806000815260200160008152602001600019815250905060008467ffffffffffffffff8111156117415761174161289a565b60405190808252806020026020018201604052801561177a57816020015b611767612634565b81526020019060019003908161175f5790505b5091959194509092505050565b6000611791612634565b82518460200151106117cf57600083600185516117ae9190612a26565b815181106117be576117be6126f4565b60200260200101519150915061183e565b6040805160c08101825260008082526020808301829052928201819052606082018190526080820181905260a0820152908501518451829186918110611817576118176126f4565b6020026020010181905250846020018051809190611834906129d5565b9052506001925090505b9250929050565b825160009081611853612634565b86518761185f826129d5565b9052505b845187511015611ada57600085886000015181518110611885576118856126f4565b01602001516001600160f81b0319169050601160f91b8114156118e8576118ac8888611787565b9093509150826118c3575050508452506003610f9e565b6118db8260036118d4876001612a3d565b8b516121cd565b6000945050505050610f9e565b605c60f882901c148015611908575085518851611906906001612a3d565b105b15611ac457875188611919826129d5565b905250875186518791908110611931576119316126f4565b6020910101516001600160f81b031916601160f91b148061197a575085886000015181518110611963576119636126f4565b6020910101516001600160f81b031916602f60f81b145b806119ad575085886000015181518110611996576119966126f4565b6020910101516001600160f81b031916601760fa1b145b806119e05750858860000151815181106119c9576119c96126f4565b6020910101516001600160f81b031916603360f91b145b80611a135750858860000151815181106119fc576119fc6126f4565b6020910101516001600160f81b031916603960f91b145b80611a46575085886000015181518110611a2f57611a2f6126f4565b6020910101516001600160f81b031916603760f91b145b80611a79575085886000015181518110611a6257611a626126f4565b6020910101516001600160f81b031916603160f91b145b80611aac575085886000015181518110611a9557611a956126f4565b6020910101516001600160f81b031916601d60fa1b145b15611ab75750611ac6565b5050508452506001610f9e565b505b865187611ad2826129d5565b905250611863565b505084525060029392505050565b825160009081908180611af9612634565b865189511015611c0e5786896000015181518110611b1957611b196126f4565b01602001516001600160f81b0319169250600160fd1b831480611b495750600960f81b6001600160f81b03198416145b80611b615750600560f91b6001600160f81b03198416145b80611b795750600d60f81b6001600160f81b03198416145b80611b915750600b60fa1b6001600160f81b03198416145b80611ba95750607d60f81b6001600160f81b03198416145b80611bc15750605d60f81b6001600160f81b03198416145b15611bcf5760019450611c0e565b602060f884901c1080611be65750607f60f884901c115b15611bfa5750505085525060019050610f9e565b885189611c06826129d5565b905250611af9565b84611c225750505085525060029050610f9e565b611c2c8989611787565b909250905081611c455750505085525060039050610f9e565b611c56816004868c600001516121cd565b885189611c6282612a55565b90525060009998505050505050505050565b6114c48161221f565b611c86816116a6565b6114c45760405162461bcd60e51b815260040161067290612b09565b6000818152609b6020526040902080546001600160a01b0319166001600160a01b0384169081179091558190611cd78261120a565b6001600160a01b03167f8c5be1e5ebec7d5bd14f71427d1e84f3dd0314c0f7b2291e5b200ac8c7c3b92560405160405180910390a45050565b600080611d1c8361120a565b9050806001600160a01b0316846001600160a01b03161480611d435750611d438185611602565b80611d675750836001600160a01b0316611d5c84611081565b6001600160a01b0316145b949350505050565b826001600160a01b0316611d828261120a565b6001600160a01b031614611da85760405162461bcd60e51b815260040161067290612ba5565b6001600160a01b038216611e0a5760405162461bcd60e51b8152602060048201526024808201527f4552433732313a207472616e7366657220746f20746865207a65726f206164646044820152637265737360e01b6064820152608401610672565b826001600160a01b0316611e1d8261120a565b6001600160a01b031614611e435760405162461bcd60e51b815260040161067290612ba5565b6000818152609b6020908152604080832080546001600160a01b03199081169091556001600160a01b03878116808652609a8552838620805460001901905590871680865283862080546001019055868652609990945282852080549092168417909155905184937fddf252ad1be2c89b69c2b068fc378daa952ba7f163c4a11628f55a4df523b3ef91a4505050565b6033546001600160a01b031633146113655760405162461bcd60e51b815260206004820181905260248201527f4f776e61626c653a2063616c6c6572206973206e6f7420746865206f776e65726044820152606401610672565b603380546001600160a01b038381166001600160a01b0319831681179093556040519116919082907f8be0079c531659141344cd1fd0a4f28419497f9722a3daafe3b4186f6b6457e090600090a35050565b600054610100900460ff16611fa65760405162461bcd60e51b815260040161067290612bea565b611365612240565b600054610100900460ff16611fd55760405162461bcd60e51b815260040161067290612bea565b6106ca8282612270565b816001600160a01b0316836001600160a01b0316141561203d5760405162461bcd60e51b815260206004820152601960248201527822a9219b99189d1030b8383937bb32903a379031b0b63632b960391b6044820152606401610672565b6001600160a01b038381166000818152609c6020908152604080832094871680845294825291829020805460ff191686151590811790915591519182527f17307eab39ab6107e8899845ad3d59bd9653f200f220920489ca2b5937696c31910160405180910390a3505050565b6120b5848484611d6f565b6120c1848484846122be565b6115965760405162461bcd60e51b815260040161067290612c35565b6060604051806060016040528060368152602001612d1960369139905090565b6060600061210a836123cb565b600101905060008167ffffffffffffffff81111561212a5761212a61289a565b6040519080825280601f01601f191660200182016040528015612154576020820181803683370190505b5090508181016020015b600019016f181899199a1a9b1b9c1cb0b131b232b360811b600a86061a8153600a850494508461218d57612192565b61215e565b509392505050565b6121a483836124a3565b6121b160008484846122be565b6111b95760405162461bcd60e51b815260040161067290612c35565b838360048111156121e0576121e0612a10565b908160048111156121f3576121f3612a10565b90525060208401919091526001604084018190526060840191909152608083015250600060a090910152565b60006a636f6e736f6c652e6c6f679050600080835160208501845afa505050565b600054610100900460ff166122675760405162461bcd60e51b815260040161067290612bea565b61136533611f2d565b600054610100900460ff166122975760405162461bcd60e51b815260040161067290612bea565b81516122aa90609790602085019061266b565b5080516111b990609890602084019061266b565b60006001600160a01b0384163b156123c057604051630a85bd0160e11b81526001600160a01b0385169063150b7a0290612302903390899088908890600401612c87565b602060405180830381600087803b15801561231c57600080fd5b505af192505050801561234c575060408051601f3d908101601f1916820190925261234991810190612cc4565b60015b6123a6573d80801561237a576040519150601f19603f3d011682016040523d82523d6000602084013e61237f565b606091505b50805161239e5760405162461bcd60e51b815260040161067290612c35565b805181602001fd5b6001600160e01b031916630a85bd0160e11b149050611d67565b506001949350505050565b60008072184f03e93ff9f4daa797ed6e38ed64bf6a1f0160401b831061240a5772184f03e93ff9f4daa797ed6e38ed64bf6a1f0160401b830492506040015b6d04ee2d6d415b85acef81000000008310612436576d04ee2d6d415b85acef8100000000830492506020015b662386f26fc10000831061245457662386f26fc10000830492506010015b6305f5e100831061246c576305f5e100830492506008015b612710831061248057612710830492506004015b60648310612492576064830492506002015b600a831061107b5760010192915050565b6001600160a01b0382166124f95760405162461bcd60e51b815260206004820181905260248201527f4552433732313a206d696e7420746f20746865207a65726f20616464726573736044820152606401610672565b612502816116a6565b1561251f5760405162461bcd60e51b815260040161067290612ce1565b612528816116a6565b156125455760405162461bcd60e51b815260040161067290612ce1565b6001600160a01b0382166000818152609a6020908152604080832080546001019055848352609990915280822080546001600160a01b0319168417905551839291907fddf252ad1be2c89b69c2b068fc378daa952ba7f163c4a11628f55a4df523b3ef908290a45050565b8280546125bc90612b3b565b90600052602060002090601f0160209004810192826125de5760008555612624565b82601f106125f75782800160ff19823516178555612624565b82800160010185558215612624579182015b82811115612624578235825591602001919060010190612609565b506126309291506126df565b5090565b6040805160c08101909152806000815260006020820181905260408201819052606082018190526080820181905260a09091015290565b82805461267790612b3b565b90600052602060002090601f0160209004810192826126995760008555612624565b82601f106126b257805160ff1916838001178555612624565b82800160010185558215612624579182015b828111156126245782518255916020019190600101906126c4565b5b8082111561263057600081556001016126e0565b634e487b7160e01b600052603260045260246000fd5b6001600160e01b0319811681146114c457600080fd5b60006020828403121561273257600080fd5b8135610f9e8161270a565b60005b83811015612758578181015183820152602001612740565b838111156115965750506000910152565b6000815180845261278181602086016020860161273d565b601f01601f19169290920160200192915050565b602081526000610f9e6020830184612769565b6000602082840312156127ba57600080fd5b5035919050565b80356001600160a01b03811681146127d857600080fd5b919050565b600080604083850312156127f057600080fd5b6127f9836127c1565b946020939093013593505050565b60008060006060848603121561281c57600080fd5b612825846127c1565b9250612833602085016127c1565b9150604084013590509250925092565b60006020828403121561285557600080fd5b610f9e826127c1565b6000806040838503121561287157600080fd5b61287a836127c1565b91506020830135801515811461288f57600080fd5b809150509250929050565b634e487b7160e01b600052604160045260246000fd5b600080600080608085870312156128c657600080fd5b6128cf856127c1565b93506128dd602086016127c1565b925060408501359150606085013567ffffffffffffffff8082111561290157600080fd5b818701915087601f83011261291557600080fd5b8135818111156129275761292761289a565b604051601f8201601f19908116603f0116810190838211818310171561294f5761294f61289a565b816040528281528a602084870101111561296857600080fd5b82602086016020830137600060208483010152809550505050505092959194509250565b6000806040838503121561299f57600080fd5b6129a8836127c1565b91506129b6602084016127c1565b90509250929050565b634e487b7160e01b600052601160045260246000fd5b60006000198214156129e9576129e96129bf565b5060010190565b600060ff821660ff811415612a0757612a076129bf565b60010192915050565b634e487b7160e01b600052602160045260246000fd5b600082821015612a3857612a386129bf565b500390565b60008219821115612a5057612a506129bf565b500190565b600081612a6457612a646129bf565b506000190190565b604081526000612a7f6040830185612769565b90508260208301529392505050565b604081526000612aa16040830185612769565b8281036020840152612ab38185612769565b95945050505050565b6020808252602d908201527f4552433732313a2063616c6c6572206973206e6f7420746f6b656e206f776e6560408201526c1c881bdc88185c1c1c9bdd9959609a1b606082015260800190565b602080825260189082015277115490cdcc8c4e881a5b9d985b1a59081d1bdad95b88125160421b604082015260600190565b600181811c90821680612b4f57607f821691505b60208210811415612b7057634e487b7160e01b600052602260045260246000fd5b50919050565b60008351612b8881846020880161273d565b835190830190612b9c81836020880161273d565b01949350505050565b60208082526025908201527f4552433732313a207472616e736665722066726f6d20696e636f72726563742060408201526437bbb732b960d91b606082015260800190565b6020808252602b908201527f496e697469616c697a61626c653a20636f6e7472616374206973206e6f74206960408201526a6e697469616c697a696e6760a81b606082015260800190565b60208082526032908201527f4552433732313a207472616e7366657220746f206e6f6e20455243373231526560408201527131b2b4bb32b91034b6b83632b6b2b73a32b960711b606082015260800190565b6001600160a01b0385811682528416602082015260408101839052608060608201819052600090612cba90830184612769565b9695505050505050565b600060208284031215612cd657600080fd5b8151610f9e8161270a565b6020808252601c908201527f4552433732313a20746f6b656e20616c7265616479206d696e7465640000000060408201526060019056fe697066733a2f2f516d65536a53696e4870506e6d586d73704d6a776958794e367a533445397a63636172694752336a7863615774712f7b20202270223a20226f62732d32302d66616972222c2020227469636b223a20226f726469222c20202261726776223a207b20202020226f70223a20227472616e73666572222c2020202022616d74223a20223130302220207d7da2646970667358221220692019d34596996968046e6bd36f5add60a63ed4cca2294ee393335bf764d7a364736f6c63430008090033",
  "devdoc": {
    "kind": "dev",
    "methods": {
      "approve(address,uint256)": {
        "details": "See {IERC721-approve}."
      },
      "balanceOf(address)": {
        "details": "See {IERC721-balanceOf}."
      },
      "getApproved(uint256)": {
        "details": "See {IERC721-getApproved}."
      },
      "isApprovedForAll(address,address)": {
        "details": "See {IERC721-isApprovedForAll}."
      },
      "name()": {
        "details": "See {IERC721Metadata-name}."
      },
      "owner()": {
        "details": "Returns the address of the current owner."
      },
      "ownerOf(uint256)": {
        "details": "See {IERC721-ownerOf}."
      },
      "renounceOwnership()": {
        "details": "Leaves the contract without owner. It will not be possible to call `onlyOwner` functions. Can only be called by the current owner. NOTE: Renouncing ownership will leave the contract without an owner, thereby disabling any functionality that is only available to the owner."
      },
      "safeTransferFrom(address,address,uint256)": {
        "details": "See {IERC721-safeTransferFrom}."
      },
      "safeTransferFrom(address,address,uint256,bytes)": {
        "details": "See {IERC721-safeTransferFrom}."
      },
      "setApprovalForAll(address,bool)": {
        "details": "See {IERC721-setApprovalForAll}."
      },
      "supportsInterface(bytes4)": {
        "details": "See {IERC165-supportsInterface}."
      },
      "symbol()": {
        "details": "See {IERC721Metadata-symbol}."
      },
      "tokenURI(uint256)": {
        "details": "See {IERC721Metadata-tokenURI}."
      },
      "transferFrom(address,address,uint256)": {
        "details": "See {IERC721-transferFrom}."
      },
      "transferOwnership(address)": {
        "details": "Transfers ownership of the contract to a new account (`newOwner`). Can only be called by the current owner."
      }
    },
    "version": 1
  },
  "userdoc": {
    "kind": "user",
    "methods": {},
    "version": 1
  },
  "storageLayout": {
    "storage": [
      {
        "astId": 139,
        "contract": "contracts/fakes/BoredApeYachtClub.sol:BoredApeYachtClub",
        "label": "_initialized",
        "offset": 0,
        "slot": "0",
        "type": "t_uint8"
      },
      {
        "astId": 142,
        "contract": "contracts/fakes/BoredApeYachtClub.sol:BoredApeYachtClub",
        "label": "_initializing",
        "offset": 1,
        "slot": "0",
        "type": "t_bool"
      },
      {
        "astId": 1795,
        "contract": "contracts/fakes/BoredApeYachtClub.sol:BoredApeYachtClub",
        "label": "__gap",
        "offset": 0,
        "slot": "1",
        "type": "t_array(t_uint256)50_storage"
      },
      {
        "astId": 11,
        "contract": "contracts/fakes/BoredApeYachtClub.sol:BoredApeYachtClub",
        "label": "_owner",
        "offset": 0,
        "slot": "51",
        "type": "t_address"
      },
      {
        "astId": 131,
        "contract": "contracts/fakes/BoredApeYachtClub.sol:BoredApeYachtClub",
        "label": "__gap",
        "offset": 0,
        "slot": "52",
        "type": "t_array(t_uint256)49_storage"
      },
      {
        "astId": 2069,
        "contract": "contracts/fakes/BoredApeYachtClub.sol:BoredApeYachtClub",
        "label": "__gap",
        "offset": 0,
        "slot": "101",
        "type": "t_array(t_uint256)50_storage"
      },
      {
        "astId": 331,
        "contract": "contracts/fakes/BoredApeYachtClub.sol:BoredApeYachtClub",
        "label": "_name",
        "offset": 0,
        "slot": "151",
        "type": "t_string_storage"
      },
      {
        "astId": 333,
        "contract": "contracts/fakes/BoredApeYachtClub.sol:BoredApeYachtClub",
        "label": "_symbol",
        "offset": 0,
        "slot": "152",
        "type": "t_string_storage"
      },
      {
        "astId": 337,
        "contract": "contracts/fakes/BoredApeYachtClub.sol:BoredApeYachtClub",
        "label": "_owners",
        "offset": 0,
        "slot": "153",
        "type": "t_mapping(t_uint256,t_address)"
      },
      {
        "astId": 341,
        "contract": "contracts/fakes/BoredApeYachtClub.sol:BoredApeYachtClub",
        "label": "_balances",
        "offset": 0,
        "slot": "154",
        "type": "t_mapping(t_address,t_uint256)"
      },
      {
        "astId": 345,
        "contract": "contracts/fakes/BoredApeYachtClub.sol:BoredApeYachtClub",
        "label": "_tokenApprovals",
        "offset": 0,
        "slot": "155",
        "type": "t_mapping(t_uint256,t_address)"
      },
      {
        "astId": 351,
        "contract": "contracts/fakes/BoredApeYachtClub.sol:BoredApeYachtClub",
        "label": "_operatorApprovals",
        "offset": 0,
        "slot": "156",
        "type": "t_mapping(t_address,t_mapping(t_address,t_bool))"
      },
      {
        "astId": 1253,
        "contract": "contracts/fakes/BoredApeYachtClub.sol:BoredApeYachtClub",
        "label": "__gap",
        "offset": 0,
        "slot": "157",
        "type": "t_array(t_uint256)44_storage"
      },
      {
        "astId": 3065,
        "contract": "contracts/fakes/BoredApeYachtClub.sol:BoredApeYachtClub",
        "label": "temp",
        "offset": 0,
        "slot": "201",
        "type": "t_bytes_storage"
      }
    ],
    "types": {
      "t_address": {
        "encoding": "inplace",
        "label": "address",
        "numberOfBytes": "20"
      },
      "t_array(t_uint256)44_storage": {
        "base": "t_uint256",
        "encoding": "inplace",
        "label": "uint256[44]",
        "numberOfBytes": "1408"
      },
      "t_array(t_uint256)49_storage": {
        "base": "t_uint256",
        "encoding": "inplace",
        "label": "uint256[49]",
        "numberOfBytes": "1568"
      },
      "t_array(t_uint256)50_storage": {
        "base": "t_uint256",
        "encoding": "inplace",
        "label": "uint256[50]",
        "numberOfBytes": "1600"
      },
      "t_bool": {
        "encoding": "inplace",
        "label": "bool",
        "numberOfBytes": "1"
      },
      "t_bytes_storage": {
        "encoding": "bytes",
        "label": "bytes",
        "numberOfBytes": "32"
      },
      "t_mapping(t_address,t_bool)": {
        "encoding": "mapping",
        "key": "t_address",
        "label": "mapping(address => bool)",
        "numberOfBytes": "32",
        "value": "t_bool"
      },
      "t_mapping(t_address,t_mapping(t_address,t_bool))": {
        "encoding": "mapping",
        "key": "t_address",
        "label": "mapping(address => mapping(address => bool))",
        "numberOfBytes": "32",
        "value": "t_mapping(t_address,t_bool)"
      },
      "t_mapping(t_address,t_uint256)": {
        "encoding": "mapping",
        "key": "t_address",
        "label": "mapping(address => uint256)",
        "numberOfBytes": "32",
        "value": "t_uint256"
      },
      "t_mapping(t_uint256,t_address)": {
        "encoding": "mapping",
        "key": "t_uint256",
        "label": "mapping(uint256 => address)",
        "numberOfBytes": "32",
        "value": "t_address"
      },
      "t_string_storage": {
        "encoding": "bytes",
        "label": "string",
        "numberOfBytes": "32"
      },
      "t_uint256": {
        "encoding": "inplace",
        "label": "uint256",
        "numberOfBytes": "32"
      },
      "t_uint8": {
        "encoding": "inplace",
        "label": "uint8",
        "numberOfBytes": "1"
      }
    }
  }
}