{
  "address": "0xD9E23607665084E82613d031522A874513739f2C",
  "abi": [
    {
      "anonymous": false,
      "inputs": [
        {
          "indexed": true,
          "internalType": "address",
          "name": "owner",
          "type": "address"
        },
        {
          "indexed": true,
          "internalType": "address",
          "name": "approved",
          "type": "address"
        },
        {
          "indexed": true,
          "internalType": "uint256",
          "name": "tokenId",
          "type": "uint256"
        }
      ],
      "name": "Approval",
      "type": "event"
    },
    {
      "anonymous": false,
      "inputs": [
        {
          "indexed": true,
          "internalType": "address",
          "name": "owner",
          "type": "address"
        },
        {
          "indexed": true,
          "internalType": "address",
          "name": "operator",
          "type": "address"
        },
        {
          "indexed": false,
          "internalType": "bool",
          "name": "approved",
          "type": "bool"
        }
      ],
      "name": "ApprovalForAll",
      "type": "event"
    },
    {
      "anonymous": false,
      "inputs": [
        {
          "indexed": false,
          "internalType": "bytes32",
          "name": "_hashedPayload",
          "type": "bytes32"
        }
      ],
      "name": "CreditCleared",
      "type": "event"
    },
    {
      "anonymous": false,
      "inputs": [
        {
          "indexed": false,
          "internalType": "bytes32",
          "name": "_hashedPayload",
          "type": "bytes32"
        },
        {
          "indexed": false,
          "internalType": "bytes",
          "name": "_payload",
          "type": "bytes"
        }
      ],
      "name": "CreditStored",
      "type": "event"
    },
    {
      "anonymous": false,
      "inputs": [
        {
          "indexed": true,
          "internalType": "address",
          "name": "from",
          "type": "address"
        },
        {
          "indexed": true,
          "internalType": "string",
          "name": "to",
          "type": "string"
        },
        {
          "indexed": true,
          "internalType": "uint256",
          "name": "tokenId",
          "type": "uint256"
        }
      ],
      "name": "CrossToOrd",
      "type": "event"
    },
    {
      "anonymous": false,
      "inputs": [
        {
          "indexed": false,
          "internalType": "uint8",
          "name": "version",
          "type": "uint8"
        }
      ],
      "name": "Initialized",
      "type": "event"
    },
    {
      "anonymous": false,
      "inputs": [
        {
          "indexed": false,
          "internalType": "uint16",
          "name": "_srcChainId",
          "type": "uint16"
        },
        {
          "indexed": false,
          "internalType": "bytes",
          "name": "_srcAddress",
          "type": "bytes"
        },
        {
          "indexed": false,
          "internalType": "uint64",
          "name": "_nonce",
          "type": "uint64"
        },
        {
          "indexed": false,
          "internalType": "bytes",
          "name": "_payload",
          "type": "bytes"
        },
        {
          "indexed": false,
          "internalType": "bytes",
          "name": "_reason",
          "type": "bytes"
        }
      ],
      "name": "MessageFailed",
      "type": "event"
    },
    {
      "anonymous": false,
      "inputs": [
        {
          "indexed": true,
          "internalType": "address",
          "name": "previousOwner",
          "type": "address"
        },
        {
          "indexed": true,
          "internalType": "address",
          "name": "newOwner",
          "type": "address"
        }
      ],
      "name": "OwnershipTransferred",
      "type": "event"
    },
    {
      "anonymous": false,
      "inputs": [
        {
          "indexed": false,
          "internalType": "address",
          "name": "account",
          "type": "address"
        }
      ],
      "name": "Paused",
      "type": "event"
    },
    {
      "anonymous": false,
      "inputs": [
        {
          "indexed": true,
          "internalType": "uint16",
          "name": "_srcChainId",
          "type": "uint16"
        },
        {
          "indexed": true,
          "internalType": "bytes",
          "name": "_srcAddress",
          "type": "bytes"
        },
        {
          "indexed": true,
          "internalType": "address",
          "name": "_toAddress",
          "type": "address"
        },
        {
          "indexed": false,
          "internalType": "uint256[]",
          "name": "_tokenIds",
          "type": "uint256[]"
        }
      ],
      "name": "ReceiveFromChain",
      "type": "event"
    },
    {
      "anonymous": false,
      "inputs": [
        {
          "indexed": false,
          "internalType": "uint16",
          "name": "_srcChainId",
          "type": "uint16"
        },
        {
          "indexed": false,
          "internalType": "bytes",
          "name": "_srcAddress",
          "type": "bytes"
        },
        {
          "indexed": false,
          "internalType": "uint64",
          "name": "_nonce",
          "type": "uint64"
        },
        {
          "indexed": false,
          "internalType": "bytes32",
          "name": "_payloadHash",
          "type": "bytes32"
        }
      ],
      "name": "RetryMessageSuccess",
      "type": "event"
    },
    {
      "anonymous": false,
      "inputs": [
        {
          "indexed": true,
          "internalType": "uint16",
          "name": "_dstChainId",
          "type": "uint16"
        },
        {
          "indexed": true,
          "internalType": "address",
          "name": "_from",
          "type": "address"
        },
        {
          "indexed": true,
          "internalType": "bytes",
          "name": "_toAddress",
          "type": "bytes"
        },
        {
          "indexed": false,
          "internalType": "uint256[]",
          "name": "_tokenIds",
          "type": "uint256[]"
        }
      ],
      "name": "SendToChain",
      "type": "event"
    },
    {
      "anonymous": false,
      "inputs": [
        {
          "indexed": false,
          "internalType": "uint16",
          "name": "_dstChainId",
          "type": "uint16"
        },
        {
          "indexed": false,
          "internalType": "uint256",
          "name": "_dstChainIdToBatchLimit",
          "type": "uint256"
        }
      ],
      "name": "SetDstChainIdToBatchLimit",
      "type": "event"
    },
    {
      "anonymous": false,
      "inputs": [
        {
          "indexed": false,
          "internalType": "uint16",
          "name": "_dstChainId",
          "type": "uint16"
        },
        {
          "indexed": false,
          "internalType": "uint256",
          "name": "_dstChainIdToTransferGas",
          "type": "uint256"
        }
      ],
      "name": "SetDstChainIdToTransferGas",
      "type": "event"
    },
    {
      "anonymous": false,
      "inputs": [
        {
          "indexed": false,
          "internalType": "uint16",
          "name": "_dstChainId",
          "type": "uint16"
        },
        {
          "indexed": false,
          "internalType": "uint16",
          "name": "_type",
          "type": "uint16"
        },
        {
          "indexed": false,
          "internalType": "uint256",
          "name": "_minDstGas",
          "type": "uint256"
        }
      ],
      "name": "SetMinDstGas",
      "type": "event"
    },
    {
      "anonymous": false,
      "inputs": [
        {
          "indexed": false,
          "internalType": "uint256",
          "name": "_minGasToTransferAndStore",
          "type": "uint256"
        }
      ],
      "name": "SetMinGasToTransferAndStore",
      "type": "event"
    },
    {
      "anonymous": false,
      "inputs": [
        {
          "indexed": false,
          "internalType": "address",
          "name": "precrime",
          "type": "address"
        }
      ],
      "name": "SetPrecrime",
      "type": "event"
    },
    {
      "anonymous": false,
      "inputs": [
        {
          "indexed": false,
          "internalType": "uint16",
          "name": "_remoteChainId",
          "type": "uint16"
        },
        {
          "indexed": false,
          "internalType": "bytes",
          "name": "_path",
          "type": "bytes"
        }
      ],
      "name": "SetTrustedRemote",
      "type": "event"
    },
    {
      "anonymous": false,
      "inputs": [
        {
          "indexed": false,
          "internalType": "uint16",
          "name": "_remoteChainId",
          "type": "uint16"
        },
        {
          "indexed": false,
          "internalType": "bytes",
          "name": "_remoteAddress",
          "type": "bytes"
        }
      ],
      "name": "SetTrustedRemoteAddress",
      "type": "event"
    },
    {
      "anonymous": false,
      "inputs": [
        {
          "indexed": true,
          "internalType": "address",
          "name": "from",
          "type": "address"
        },
        {
          "indexed": true,
          "internalType": "address",
          "name": "to",
          "type": "address"
        },
        {
          "indexed": true,
          "internalType": "uint256",
          "name": "tokenId",
          "type": "uint256"
        }
      ],
      "name": "Transfer",
      "type": "event"
    },
    {
      "anonymous": false,
      "inputs": [
        {
          "indexed": false,
          "internalType": "address",
          "name": "account",
          "type": "address"
        }
      ],
      "name": "Unpaused",
      "type": "event"
    },
    {
      "inputs": [],
      "name": "DEFAULT_PAYLOAD_SIZE_LIMIT",
      "outputs": [
        {
          "internalType": "uint256",
          "name": "",
          "type": "uint256"
        }
      ],
      "stateMutability": "view",
      "type": "function"
    },
    {
      "inputs": [],
      "name": "FUNCTION_TYPE_SEND",
      "outputs": [
        {
          "internalType": "uint16",
          "name": "",
          "type": "uint16"
        }
      ],
      "stateMutability": "view",
      "type": "function"
    },
    {
      "inputs": [],
      "name": "Pause",
      "outputs": [],
      "stateMutability": "nonpayable",
      "type": "function"
    },
    {
      "inputs": [],
      "name": "Resume",
      "outputs": [],
      "stateMutability": "nonpayable",
      "type": "function"
    },
    {
      "inputs": [
        {
          "internalType": "address",
          "name": "to",
          "type": "address"
        },
        {
          "internalType": "uint256",
          "name": "tokenId",
          "type": "uint256"
        }
      ],
      "name": "approve",
      "outputs": [],
      "stateMutability": "nonpayable",
      "type": "function"
    },
    {
      "inputs": [
        {
          "internalType": "address",
          "name": "owner",
          "type": "address"
        }
      ],
      "name": "balanceOf",
      "outputs": [
        {
          "internalType": "uint256",
          "name": "",
          "type": "uint256"
        }
      ],
      "stateMutability": "view",
      "type": "function"
    },
    {
      "inputs": [
        {
          "internalType": "bytes",
          "name": "_payload",
          "type": "bytes"
        }
      ],
      "name": "clearCredits",
      "outputs": [],
      "stateMutability": "nonpayable",
      "type": "function"
    },
    {
      "inputs": [
        {
          "internalType": "address",
          "name": "to",
          "type": "address"
        },
        {
          "internalType": "uint256",
          "name": "tokenId",
          "type": "uint256"
        }
      ],
      "name": "crossFromOrd",
      "outputs": [],
      "stateMutability": "nonpayable",
      "type": "function"
    },
    {
      "inputs": [
        {
          "internalType": "uint256",
          "name": "tokenId",
          "type": "uint256"
        },
        {
          "internalType": "uint16",
          "name": "targetChain",
          "type": "uint16"
        },
        {
          "internalType": "bytes",
          "name": "adapterParams",
          "type": "bytes"
        }
      ],
      "name": "crossTo",
      "outputs": [],
      "stateMutability": "payable",
      "type": "function"
    },
    {
      "inputs": [
        {
          "internalType": "string",
          "name": "to",
          "type": "string"
        },
        {
          "internalType": "uint256[]",
          "name": "tokenIds",
          "type": "uint256[]"
        }
      ],
      "name": "crossToOrd",
      "outputs": [],
      "stateMutability": "payable",
      "type": "function"
    },
    {
      "inputs": [
        {
          "internalType": "uint16",
          "name": "",
          "type": "uint16"
        }
      ],
      "name": "dstChainIdToBatchLimit",
      "outputs": [
        {
          "internalType": "uint256",
          "name": "",
          "type": "uint256"
        }
      ],
      "stateMutability": "view",
      "type": "function"
    },
    {
      "inputs": [
        {
          "internalType": "uint16",
          "name": "",
          "type": "uint16"
        }
      ],
      "name": "dstChainIdToTransferGas",
      "outputs": [
        {
          "internalType": "uint256",
          "name": "",
          "type": "uint256"
        }
      ],
      "stateMutability": "view",
      "type": "function"
    },
    {
      "inputs": [
        {
          "internalType": "uint16",
          "name": "_dstChainId",
          "type": "uint16"
        },
        {
          "internalType": "bytes",
          "name": "_toAddress",
          "type": "bytes"
        },
        {
          "internalType": "uint256[]",
          "name": "_tokenIds",
          "type": "uint256[]"
        },
        {
          "internalType": "bool",
          "name": "_useZro",
          "type": "bool"
        },
        {
          "internalType": "bytes",
          "name": "_adapterParams",
          "type": "bytes"
        }
      ],
      "name": "estimateSendBatchFee",
      "outputs": [
        {
          "internalType": "uint256",
          "name": "nativeFee",
          "type": "uint256"
        },
        {
          "internalType": "uint256",
          "name": "zroFee",
          "type": "uint256"
        }
      ],
      "stateMutability": "view",
      "type": "function"
    },
    {
      "inputs": [
        {
          "internalType": "uint16",
          "name": "_dstChainId",
          "type": "uint16"
        },
        {
          "internalType": "bytes",
          "name": "_toAddress",
          "type": "bytes"
        },
        {
          "internalType": "uint256",
          "name": "_tokenId",
          "type": "uint256"
        },
        {
          "internalType": "bool",
          "name": "_useZro",
          "type": "bool"
        },
        {
          "internalType": "bytes",
          "name": "_adapterParams",
          "type": "bytes"
        }
      ],
      "name": "estimateSendFee",
      "outputs": [
        {
          "internalType": "uint256",
          "name": "nativeFee",
          "type": "uint256"
        },
        {
          "internalType": "uint256",
          "name": "zroFee",
          "type": "uint256"
        }
      ],
      "stateMutability": "view",
      "type": "function"
    },
    {
      "inputs": [],
      "name": "executor",
      "outputs": [
        {
          "internalType": "address",
          "name": "",
          "type": "address"
        }
      ],
      "stateMutability": "view",
      "type": "function"
    },
    {
      "inputs": [
        {
          "internalType": "uint16",
          "name": "",
          "type": "uint16"
        },
        {
          "internalType": "bytes",
          "name": "",
          "type": "bytes"
        },
        {
          "internalType": "uint64",
          "name": "",
          "type": "uint64"
        }
      ],
      "name": "failedMessages",
      "outputs": [
        {
          "internalType": "bytes32",
          "name": "",
          "type": "bytes32"
        }
      ],
      "stateMutability": "view",
      "type": "function"
    },
    {
      "inputs": [
        {
          "internalType": "uint16",
          "name": "_srcChainId",
          "type": "uint16"
        },
        {
          "internalType": "bytes",
          "name": "_srcAddress",
          "type": "bytes"
        }
      ],
      "name": "forceResumeReceive",
      "outputs": [],
      "stateMutability": "nonpayable",
      "type": "function"
    },
    {
      "inputs": [
        {
          "internalType": "uint256",
          "name": "tokenId",
          "type": "uint256"
        }
      ],
      "name": "getApproved",
      "outputs": [
        {
          "internalType": "address",
          "name": "",
          "type": "address"
        }
      ],
      "stateMutability": "view",
      "type": "function"
    },
    {
      "inputs": [
        {
          "internalType": "uint16",
          "name": "_version",
          "type": "uint16"
        },
        {
          "internalType": "uint16",
          "name": "_chainId",
          "type": "uint16"
        },
        {
          "internalType": "address",
          "name": "",
          "type": "address"
        },
        {
          "internalType": "uint256",
          "name": "_configType",
          "type": "uint256"
        }
      ],
      "name": "getConfig",
      "outputs": [
        {
          "internalType": "bytes",
          "name": "",
          "type": "bytes"
        }
      ],
      "stateMutability": "view",
      "type": "function"
    },
    {
      "inputs": [
        {
          "internalType": "address",
          "name": "sender",
          "type": "address"
        },
        {
          "internalType": "address",
          "name": "to",
          "type": "address"
        },
        {
          "internalType": "uint256",
          "name": "tokenId",
          "type": "uint256"
        },
        {
          "internalType": "uint256",
          "name": "price",
          "type": "uint256"
        }
      ],
      "name": "getMintHash",
      "outputs": [
        {
          "internalType": "bytes32",
          "name": "",
          "type": "bytes32"
        }
      ],
      "stateMutability": "pure",
      "type": "function"
    },
    {
      "inputs": [
        {
          "internalType": "uint16",
          "name": "_remoteChainId",
          "type": "uint16"
        }
      ],
      "name": "getTrustedRemoteAddress",
      "outputs": [
        {
          "internalType": "bytes",
          "name": "",
          "type": "bytes"
        }
      ],
      "stateMutability": "view",
      "type": "function"
    },
    {
      "inputs": [
        {
          "internalType": "uint256",
          "name": "_assetChainId",
          "type": "uint256"
        },
        {
          "internalType": "address",
          "name": "_lzEndpoint",
          "type": "address"
        },
        {
          "internalType": "address",
          "name": "_executor",
          "type": "address"
        }
      ],
      "name": "initialize",
      "outputs": [],
      "stateMutability": "nonpayable",
      "type": "function"
    },
    {
      "inputs": [
        {
          "internalType": "address",
          "name": "owner",
          "type": "address"
        },
        {
          "internalType": "address",
          "name": "operator",
          "type": "address"
        }
      ],
      "name": "isApprovedForAll",
      "outputs": [
        {
          "internalType": "bool",
          "name": "",
          "type": "bool"
        }
      ],
      "stateMutability": "view",
      "type": "function"
    },
    {
      "inputs": [
        {
          "internalType": "uint256",
          "name": "tokenId",
          "type": "uint256"
        }
      ],
      "name": "isEthAsset",
      "outputs": [
        {
          "internalType": "bool",
          "name": "",
          "type": "bool"
        }
      ],
      "stateMutability": "pure",
      "type": "function"
    },
    {
      "inputs": [
        {
          "internalType": "uint16",
          "name": "_srcChainId",
          "type": "uint16"
        },
        {
          "internalType": "bytes",
          "name": "_srcAddress",
          "type": "bytes"
        }
      ],
      "name": "isTrustedRemote",
      "outputs": [
        {
          "internalType": "bool",
          "name": "",
          "type": "bool"
        }
      ],
      "stateMutability": "view",
      "type": "function"
    },
    {
      "inputs": [],
      "name": "lzEndpoint",
      "outputs": [
        {
          "internalType": "contract ILayerZeroEndpoint",
          "name": "",
          "type": "address"
        }
      ],
      "stateMutability": "view",
      "type": "function"
    },
    {
      "inputs": [
        {
          "internalType": "uint16",
          "name": "_srcChainId",
          "type": "uint16"
        },
        {
          "internalType": "bytes",
          "name": "_srcAddress",
          "type": "bytes"
        },
        {
          "internalType": "uint64",
          "name": "_nonce",
          "type": "uint64"
        },
        {
          "internalType": "bytes",
          "name": "_payload",
          "type": "bytes"
        }
      ],
      "name": "lzReceive",
      "outputs": [],
      "stateMutability": "nonpayable",
      "type": "function"
    },
    {
      "inputs": [
        {
          "internalType": "uint16",
          "name": "",
          "type": "uint16"
        },
        {
          "internalType": "uint16",
          "name": "",
          "type": "uint16"
        }
      ],
      "name": "minDstGasLookup",
      "outputs": [
        {
          "internalType": "uint256",
          "name": "",
          "type": "uint256"
        }
      ],
      "stateMutability": "view",
      "type": "function"
    },
    {
      "inputs": [],
      "name": "minGasToTransferAndStore",
      "outputs": [
        {
          "internalType": "uint256",
          "name": "",
          "type": "uint256"
        }
      ],
      "stateMutability": "view",
      "type": "function"
    },
    {
      "inputs": [
        {
          "internalType": "address",
          "name": "to",
          "type": "address"
        },
        {
          "internalType": "uint256",
          "name": "tokenId",
          "type": "uint256"
        },
        {
          "internalType": "uint256",
          "name": "price",
          "type": "uint256"
        },
        {
          "internalType": "bytes",
          "name": "signature",
          "type": "bytes"
        }
      ],
      "name": "mint",
      "outputs": [],
      "stateMutability": "payable",
      "type": "function"
    },
    {
      "inputs": [],
      "name": "name",
      "outputs": [
        {
          "internalType": "string",
          "name": "",
          "type": "string"
        }
      ],
      "stateMutability": "view",
      "type": "function"
    },
    {
      "inputs": [
        {
          "internalType": "uint16",
          "name": "_srcChainId",
          "type": "uint16"
        },
        {
          "internalType": "bytes",
          "name": "_srcAddress",
          "type": "bytes"
        },
        {
          "internalType": "uint64",
          "name": "_nonce",
          "type": "uint64"
        },
        {
          "internalType": "bytes",
          "name": "_payload",
          "type": "bytes"
        }
      ],
      "name": "nonblockingLzReceive",
      "outputs": [],
      "stateMutability": "nonpayable",
      "type": "function"
    },
    {
      "inputs": [
        {
          "internalType": "address",
          "name": "",
          "type": "address"
        },
        {
          "internalType": "address",
          "name": "",
          "type": "address"
        },
        {
          "internalType": "uint256",
          "name": "",
          "type": "uint256"
        },
        {
          "internalType": "bytes",
          "name": "",
          "type": "bytes"
        }
      ],
      "name": "onERC721Received",
      "outputs": [
        {
          "internalType": "bytes4",
          "name": "",
          "type": "bytes4"
        }
      ],
      "stateMutability": "nonpayable",
      "type": "function"
    },
    {
      "inputs": [],
      "name": "owner",
      "outputs": [
        {
          "internalType": "address",
          "name": "",
          "type": "address"
        }
      ],
      "stateMutability": "view",
      "type": "function"
    },
    {
      "inputs": [
        {
          "internalType": "uint256",
          "name": "tokenId",
          "type": "uint256"
        }
      ],
      "name": "ownerOf",
      "outputs": [
        {
          "internalType": "address",
          "name": "",
          "type": "address"
        }
      ],
      "stateMutability": "view",
      "type": "function"
    },
    {
      "inputs": [],
      "name": "paused",
      "outputs": [
        {
          "internalType": "bool",
          "name": "",
          "type": "bool"
        }
      ],
      "stateMutability": "view",
      "type": "function"
    },
    {
      "inputs": [
        {
          "internalType": "uint16",
          "name": "",
          "type": "uint16"
        }
      ],
      "name": "payloadSizeLimitLookup",
      "outputs": [
        {
          "internalType": "uint256",
          "name": "",
          "type": "uint256"
        }
      ],
      "stateMutability": "view",
      "type": "function"
    },
    {
      "inputs": [],
      "name": "precrime",
      "outputs": [
        {
          "internalType": "address",
          "name": "",
          "type": "address"
        }
      ],
      "stateMutability": "view",
      "type": "function"
    },
    {
      "inputs": [],
      "name": "renounceOwnership",
      "outputs": [],
      "stateMutability": "nonpayable",
      "type": "function"
    },
    {
      "inputs": [
        {
          "internalType": "uint16",
          "name": "_srcChainId",
          "type": "uint16"
        },
        {
          "internalType": "bytes",
          "name": "_srcAddress",
          "type": "bytes"
        },
        {
          "internalType": "uint64",
          "name": "_nonce",
          "type": "uint64"
        },
        {
          "internalType": "bytes",
          "name": "_payload",
          "type": "bytes"
        }
      ],
      "name": "retryMessage",
      "outputs": [],
      "stateMutability": "payable",
      "type": "function"
    },
    {
      "inputs": [
        {
          "internalType": "address",
          "name": "from",
          "type": "address"
        },
        {
          "internalType": "address",
          "name": "to",
          "type": "address"
        },
        {
          "internalType": "uint256",
          "name": "tokenId",
          "type": "uint256"
        }
      ],
      "name": "safeTransferFrom",
      "outputs": [],
      "stateMutability": "nonpayable",
      "type": "function"
    },
    {
      "inputs": [
        {
          "internalType": "address",
          "name": "from",
          "type": "address"
        },
        {
          "internalType": "address",
          "name": "to",
          "type": "address"
        },
        {
          "internalType": "uint256",
          "name": "tokenId",
          "type": "uint256"
        },
        {
          "internalType": "bytes",
          "name": "data",
          "type": "bytes"
        }
      ],
      "name": "safeTransferFrom",
      "outputs": [],
      "stateMutability": "nonpayable",
      "type": "function"
    },
    {
      "inputs": [
        {
          "internalType": "address",
          "name": "_from",
          "type": "address"
        },
        {
          "internalType": "uint16",
          "name": "_dstChainId",
          "type": "uint16"
        },
        {
          "internalType": "bytes",
          "name": "_toAddress",
          "type": "bytes"
        },
        {
          "internalType": "uint256[]",
          "name": "_tokenIds",
          "type": "uint256[]"
        },
        {
          "internalType": "address payable",
          "name": "_refundAddress",
          "type": "address"
        },
        {
          "internalType": "address",
          "name": "_zroPaymentAddress",
          "type": "address"
        },
        {
          "internalType": "bytes",
          "name": "_adapterParams",
          "type": "bytes"
        }
      ],
      "name": "sendBatchFrom",
      "outputs": [],
      "stateMutability": "payable",
      "type": "function"
    },
    {
      "inputs": [
        {
          "internalType": "address",
          "name": "_from",
          "type": "address"
        },
        {
          "internalType": "uint16",
          "name": "_dstChainId",
          "type": "uint16"
        },
        {
          "internalType": "bytes",
          "name": "_toAddress",
          "type": "bytes"
        },
        {
          "internalType": "uint256",
          "name": "_tokenId",
          "type": "uint256"
        },
        {
          "internalType": "address payable",
          "name": "_refundAddress",
          "type": "address"
        },
        {
          "internalType": "address",
          "name": "_zroPaymentAddress",
          "type": "address"
        },
        {
          "internalType": "bytes",
          "name": "_adapterParams",
          "type": "bytes"
        }
      ],
      "name": "sendFrom",
      "outputs": [],
      "stateMutability": "payable",
      "type": "function"
    },
    {
      "inputs": [
        {
          "internalType": "address",
          "name": "operator",
          "type": "address"
        },
        {
          "internalType": "bool",
          "name": "approved",
          "type": "bool"
        }
      ],
      "name": "setApprovalForAll",
      "outputs": [],
      "stateMutability": "nonpayable",
      "type": "function"
    },
    {
      "inputs": [
        {
          "internalType": "uint16",
          "name": "_version",
          "type": "uint16"
        },
        {
          "internalType": "uint16",
          "name": "_chainId",
          "type": "uint16"
        },
        {
          "internalType": "uint256",
          "name": "_configType",
          "type": "uint256"
        },
        {
          "internalType": "bytes",
          "name": "_config",
          "type": "bytes"
        }
      ],
      "name": "setConfig",
      "outputs": [],
      "stateMutability": "nonpayable",
      "type": "function"
    },
    {
      "inputs": [
        {
          "internalType": "uint16",
          "name": "_dstChainId",
          "type": "uint16"
        },
        {
          "internalType": "uint256",
          "name": "_dstChainIdToBatchLimit",
          "type": "uint256"
        }
      ],
      "name": "setDstChainIdToBatchLimit",
      "outputs": [],
      "stateMutability": "nonpayable",
      "type": "function"
    },
    {
      "inputs": [
        {
          "internalType": "uint16",
          "name": "_dstChainId",
          "type": "uint16"
        },
        {
          "internalType": "uint256",
          "name": "_dstChainIdToTransferGas",
          "type": "uint256"
        }
      ],
      "name": "setDstChainIdToTransferGas",
      "outputs": [],
      "stateMutability": "nonpayable",
      "type": "function"
    },
    {
      "inputs": [
        {
          "internalType": "address",
          "name": "_executor",
          "type": "address"
        }
      ],
      "name": "setExecutor",
      "outputs": [],
      "stateMutability": "nonpayable",
      "type": "function"
    },
    {
      "inputs": [
        {
          "internalType": "uint16",
          "name": "_dstChainId",
          "type": "uint16"
        },
        {
          "internalType": "uint16",
          "name": "_packetType",
          "type": "uint16"
        },
        {
          "internalType": "uint256",
          "name": "_minGas",
          "type": "uint256"
        }
      ],
      "name": "setMinDstGas",
      "outputs": [],
      "stateMutability": "nonpayable",
      "type": "function"
    },
    {
      "inputs": [
        {
          "internalType": "uint256",
          "name": "_minGasToTransferAndStore",
          "type": "uint256"
        }
      ],
      "name": "setMinGasToTransferAndStore",
      "outputs": [],
      "stateMutability": "nonpayable",
      "type": "function"
    },
    {
      "inputs": [
        {
          "internalType": "uint16",
          "name": "_dstChainId",
          "type": "uint16"
        },
        {
          "internalType": "uint256",
          "name": "_size",
          "type": "uint256"
        }
      ],
      "name": "setPayloadSizeLimit",
      "outputs": [],
      "stateMutability": "nonpayable",
      "type": "function"
    },
    {
      "inputs": [
        {
          "internalType": "address",
          "name": "_precrime",
          "type": "address"
        }
      ],
      "name": "setPrecrime",
      "outputs": [],
      "stateMutability": "nonpayable",
      "type": "function"
    },
    {
      "inputs": [
        {
          "internalType": "uint16",
          "name": "_version",
          "type": "uint16"
        }
      ],
      "name": "setReceiveVersion",
      "outputs": [],
      "stateMutability": "nonpayable",
      "type": "function"
    },
    {
      "inputs": [
        {
          "internalType": "uint16",
          "name": "_version",
          "type": "uint16"
        }
      ],
      "name": "setSendVersion",
      "outputs": [],
      "stateMutability": "nonpayable",
      "type": "function"
    },
    {
      "inputs": [
        {
          "internalType": "uint16",
          "name": "_remoteChainId",
          "type": "uint16"
        },
        {
          "internalType": "bytes",
          "name": "_path",
          "type": "bytes"
        }
      ],
      "name": "setTrustedRemote",
      "outputs": [],
      "stateMutability": "nonpayable",
      "type": "function"
    },
    {
      "inputs": [
        {
          "internalType": "uint16",
          "name": "_remoteChainId",
          "type": "uint16"
        },
        {
          "internalType": "bytes",
          "name": "_remoteAddress",
          "type": "bytes"
        }
      ],
      "name": "setTrustedRemoteAddress",
      "outputs": [],
      "stateMutability": "nonpayable",
      "type": "function"
    },
    {
      "inputs": [
        {
          "internalType": "bytes32",
          "name": "",
          "type": "bytes32"
        }
      ],
      "name": "storedCredits",
      "outputs": [
        {
          "internalType": "uint16",
          "name": "srcChainId",
          "type": "uint16"
        },
        {
          "internalType": "address",
          "name": "toAddress",
          "type": "address"
        },
        {
          "internalType": "uint256",
          "name": "index",
          "type": "uint256"
        },
        {
          "internalType": "bool",
          "name": "creditsRemain",
          "type": "bool"
        }
      ],
      "stateMutability": "view",
      "type": "function"
    },
    {
      "inputs": [
        {
          "internalType": "bytes4",
          "name": "interfaceId",
          "type": "bytes4"
        }
      ],
      "name": "supportsInterface",
      "outputs": [
        {
          "internalType": "bool",
          "name": "",
          "type": "bool"
        }
      ],
      "stateMutability": "view",
      "type": "function"
    },
    {
      "inputs": [],
      "name": "symbol",
      "outputs": [
        {
          "internalType": "string",
          "name": "",
          "type": "string"
        }
      ],
      "stateMutability": "view",
      "type": "function"
    },
    {
      "inputs": [
        {
          "internalType": "uint256",
          "name": "tokenId",
          "type": "uint256"
        }
      ],
      "name": "tokenURI",
      "outputs": [
        {
          "internalType": "string",
          "name": "",
          "type": "string"
        }
      ],
      "stateMutability": "view",
      "type": "function"
    },
    {
      "inputs": [
        {
          "internalType": "address",
          "name": "from",
          "type": "address"
        },
        {
          "internalType": "address",
          "name": "to",
          "type": "address"
        },
        {
          "internalType": "uint256",
          "name": "tokenId",
          "type": "uint256"
        }
      ],
      "name": "transferFrom",
      "outputs": [],
      "stateMutability": "nonpayable",
      "type": "function"
    },
    {
      "inputs": [
        {
          "internalType": "address",
          "name": "newOwner",
          "type": "address"
        }
      ],
      "name": "transferOwnership",
      "outputs": [],
      "stateMutability": "nonpayable",
      "type": "function"
    },
    {
      "inputs": [
        {
          "internalType": "uint16",
          "name": "",
          "type": "uint16"
        }
      ],
      "name": "trustedRemoteLookup",
      "outputs": [
        {
          "internalType": "bytes",
          "name": "",
          "type": "bytes"
        }
      ],
      "stateMutability": "view",
      "type": "function"
    },
    {
      "inputs": [
        {
          "internalType": "address",
          "name": "to",
          "type": "address"
        },
        {
          "internalType": "uint256",
          "name": "amount",
          "type": "uint256"
        }
      ],
      "name": "withdrawFee",
      "outputs": [],
      "stateMutability": "nonpayable",
      "type": "function"
    }
  ],
  "transactionHash": "0xafc7463514a4c58ca3e477eb5884cd6704f506cd036469373ce029aed6a85630",
  "args": [],
  "numDeployments": 2,
  "solcInputHash": "55430eb265d68d1609f145f8005d1c96",
  "bytecode": "0x608060405234801561001057600080fd5b506158e780620000216000396000f3fe60806040526004361061034d5760003560e01c8063898ad6b0116101bd578063baf3292d116100f8578063d48efd691161009b578063d48efd6914610aec578063df2a5b3b14610b0c578063e985e9c514610b2c578063eb8d72b714610b4c578063f235364114610b6c578063f2fde38b14610b8c578063f5ecbdbc14610bac578063fa25f9b614610bcc578063fd9be52214610bfa57600080fd5b8063baf3292d14610a02578063c34c08e514610a22578063c446183414610a43578063c87b56dd14610a59578063cbed8b9c14610a79578063cd1b093214610a99578063d12473a514610ab9578063d1deba1f14610ad957600080fd5b8063a22cb46511610160578063a22cb46514610907578063a6c3d16514610927578063ab3ffb9314610947578063ac55d2fc1461095a578063af3fb21c1461097a578063b353aaa7146109a2578063b4988fd0146109c2578063b88d4fde146109e257600080fd5b8063898ad6b0146108095780638cfd8f5c1461081c5780638da5cb5b146108545780638ffa1f2a14610872578063950c8a741461089257806395d89b41146108b25780639ea5d6b1146108c75780639f38369a146108e757600080fd5b806342842e0e1161028d5780636352211e116102305780636352211e1461073957806366ad5c8a146107595780636985a0221461077957806370a082311461078e578063715018a6146107ae578063731133e9146107c35780637533d788146107d65780637f68e534146107f657600080fd5b806342842e0e1461062557806342d65a8d146106455780634828819014610665578063490d6d111461067c5780634ac3f4ff1461069157806351905636146106bf5780635b8c41e6146106d25780635c975abb1461072157600080fd5b806310ddb137116102f557806310ddb13714610478578063150b7a02146104985780631c3c0ea8146104d157806322a3ecf9146104f157806323b872dd146105755780632a205e3d146105955780633d8b38f6146105ca5780633f1f4fa4146105ea57600080fd5b80621d35671461035257806301ffc9a71461037457806306fdde03146103a957806307e0db17146103cb578063081812fc146103eb578063095ea7b3146104185780630b4cad4c146104385780630df3748314610458575b600080fd5b34801561035e57600080fd5b5061037261036d36600461459d565b610c1a565b005b34801561038057600080fd5b5061039461038f366004614646565b610e36565b60405190151581526020015b60405180910390f35b3480156103b557600080fd5b506103be610e59565b6040516103a091906146bb565b3480156103d757600080fd5b506103726103e63660046146ce565b610eec565b3480156103f757600080fd5b5061040b6104063660046146e9565b610f59565b6040516103a09190614702565b34801561042457600080fd5b50610372610433366004614736565b610f81565b34801561044457600080fd5b506103726104533660046146e9565b611097565b34801561046457600080fd5b50610372610473366004614762565b6110fc565b34801561048457600080fd5b506103726104933660046146ce565b61111b565b3480156104a457600080fd5b506104b86104b3366004614841565b611157565b6040516001600160e01b031990911681526020016103a0565b3480156104dd57600080fd5b506103726104ec3660046148ac565b611168565b3480156104fd57600080fd5b5061054661050c3660046146e9565b6101046020526000908152604090208054600182015460029092015461ffff821692620100009092046001600160a01b0316919060ff1684565b6040805161ffff90951685526001600160a01b03909316602085015291830152151560608201526080016103a0565b34801561058157600080fd5b506103726105903660046148c9565b611193565b3480156105a157600080fd5b506105b56105b036600461491a565b6111c5565b604080519283526020830191909152016103a0565b3480156105d657600080fd5b506103946105e53660046149a8565b6111eb565b3480156105f657600080fd5b506106176106053660046146ce565b609a6020526000908152604090205481565b6040519081526020016103a0565b34801561063157600080fd5b506103726106403660046148c9565b6112b7565b34801561065157600080fd5b506103726106603660046149a8565b6112d2565b34801561067157600080fd5b506106176101015481565b34801561068857600080fd5b5061037261133c565b34801561069d57600080fd5b506106176106ac3660046146ce565b6101026020526000908152604090205481565b6103726106cd3660046149fa565b611356565b3480156106de57600080fd5b506106176106ed366004614ab3565b609c602090815260009384526040808520845180860184018051928152908401958401959095209452929052825290205481565b34801561072d57600080fd5b5060335460ff16610394565b34801561074557600080fd5b5061040b6107543660046146e9565b61136d565b34801561076557600080fd5b5061037261077436600461459d565b6113a3565b34801561078557600080fd5b5061037261147f565b34801561079a57600080fd5b506106176107a93660046148ac565b611497565b3480156107ba57600080fd5b5061037261151e565b6103726107d1366004614b10565b611530565b3480156107e257600080fd5b506103be6107f13660046146ce565b6116ec565b610372610804366004614b79565b611786565b610372610817366004614bd2565b611845565b34801561082857600080fd5b50610617610837366004614c6b565b609960209081526000928352604080842090915290825290205481565b34801561086057600080fd5b506065546001600160a01b031661040b565b34801561087e57600080fd5b5061037261088d366004614c9e565b611991565b34801561089e57600080fd5b50609b5461040b906001600160a01b031681565b3480156108be57600080fd5b506103be611be2565b3480156108d357600080fd5b506103726108e2366004614762565b611bf2565b3480156108f357600080fd5b506103be6109023660046146ce565b611caa565b34801561091357600080fd5b50610372610922366004614cd2565b611dc1565b34801561093357600080fd5b506103726109423660046149a8565b611dd0565b610372610955366004614d87565b611e63565b34801561096657600080fd5b50610617610975366004614e3c565b611e72565b34801561098657600080fd5b5061098f600181565b60405161ffff90911681526020016103a0565b3480156109ae57600080fd5b5060975461040b906001600160a01b031681565b3480156109ce57600080fd5b506103726109dd366004614e82565b611ec7565b3480156109ee57600080fd5b506103726109fd366004614841565b61201f565b348015610a0e57600080fd5b50610372610a1d3660046148ac565b612051565b348015610a2e57600080fd5b5061016a5461040b906001600160a01b031681565b348015610a4f57600080fd5b5061061761271081565b348015610a6557600080fd5b506103be610a743660046146e9565b6120a4565b348015610a8557600080fd5b50610372610a94366004614ec4565b61210a565b348015610aa557600080fd5b50610394610ab43660046146e9565b612183565b348015610ac557600080fd5b50610372610ad4366004614762565b61219b565b610372610ae736600461459d565b61224c565b348015610af857600080fd5b50610372610b07366004614736565b612462565b348015610b1857600080fd5b50610372610b27366004614f15565b612548565b348015610b3857600080fd5b50610394610b47366004614f51565b6125b2565b348015610b5857600080fd5b50610372610b673660046149a8565b6125e1565b348015610b7857600080fd5b506105b5610b87366004614f8a565b61263b565b348015610b9857600080fd5b50610372610ba73660046148ac565b6126f8565b348015610bb857600080fd5b506103be610bc7366004615003565b61276e565b348015610bd857600080fd5b50610617610be73660046146ce565b6101036020526000908152604090205481565b348015610c0657600080fd5b50610372610c15366004614736565b612810565b6097546001600160a01b0316336001600160a01b031614610c825760405162461bcd60e51b815260206004820152601e60248201527f4c7a4170703a20696e76616c696420656e64706f696e742063616c6c6572000060448201526064015b60405180910390fd5b61ffff861660009081526098602052604081208054610ca090615050565b80601f0160208091040260200160405190810160405280929190818152602001828054610ccc90615050565b8015610d195780601f10610cee57610100808354040283529160200191610d19565b820191906000526020600020905b815481529060010190602001808311610cfc57829003601f168201915b50505050509050805186869050148015610d34575060008151115b8015610d5c575080516020820120604051610d52908890889061508b565b6040518091039020145b610db75760405162461bcd60e51b815260206004820152602660248201527f4c7a4170703a20696e76616c696420736f757263652073656e64696e6720636f6044820152651b9d1c9858dd60d21b6064820152608401610c79565b610e2d8787878080601f01602080910402602001604051908101604052809392919081815260200183838082843760009201919091525050604080516020601f8a018190048102820181019092528881528a93509150889088908190840183828082843760009201919091525061286792505050565b50505050505050565b60006001600160e01b031982161580610e535750610e53826128e0565b92915050565b60606101058054610e6990615050565b80601f0160208091040260200160405190810160405280929190818152602001828054610e9590615050565b8015610ee25780601f10610eb757610100808354040283529160200191610ee2565b820191906000526020600020905b815481529060010190602001808311610ec557829003601f168201915b5050505050905090565b610ef4612920565b6097546040516307e0db1760e01b815261ffff831660048201526001600160a01b03909116906307e0db17906024015b600060405180830381600087803b158015610f3e57600080fd5b505af1158015610f52573d6000803e3d6000fd5b5050505050565b6000610f648261297a565b50600090815261010960205260409020546001600160a01b031690565b6000610f8c8261136d565b9050806001600160a01b0316836001600160a01b03161415610ffa5760405162461bcd60e51b815260206004820152602160248201527f4552433732313a20617070726f76616c20746f2063757272656e74206f776e656044820152603960f91b6064820152608401610c79565b336001600160a01b0382161480611016575061101681336125b2565b6110885760405162461bcd60e51b815260206004820152603d60248201527f4552433732313a20617070726f76652063616c6c6572206973206e6f7420746f60448201527f6b656e206f776e6572206f7220617070726f76656420666f7220616c6c0000006064820152608401610c79565b611092838361299f565b505050565b61109f612920565b600081116110bf5760405162461bcd60e51b8152600401610c799061509b565b6101018190556040518181527ffebbc4f8bb9ec2313950c718d43123124b15778efda4c1f1d529de2995b4f34d906020015b60405180910390a150565b611104612920565b61ffff9091166000908152609a6020526040902055565b611123612920565b6097546040516310ddb13760e01b815261ffff831660048201526001600160a01b03909116906310ddb13790602401610f24565b630a85bd0160e11b5b949350505050565b611170612920565b61016a80546001600160a01b0319166001600160a01b0392909216919091179055565b61119e335b82612a0e565b6111ba5760405162461bcd60e51b8152600401610c79906150df565b611092838383612a6c565b6000806111dd87876111d688612bd3565b878761263b565b915091509550959350505050565b61ffff83166000908152609860205260408120805482919061120c90615050565b80601f016020809104026020016040519081016040528092919081815260200182805461123890615050565b80156112855780601f1061125a57610100808354040283529160200191611285565b820191906000526020600020905b81548152906001019060200180831161126857829003601f168201915b50505050509050838360405161129c92919061508b565b60405180910390208180519060200120149150509392505050565b6110928383836040518060200160405280600081525061201f565b6112da612920565b6097546040516342d65a8d60e01b81526001600160a01b03909116906342d65a8d9061130e90869086908690600401615155565b600060405180830381600087803b15801561132857600080fd5b505af1158015610e2d573d6000803e3d6000fd5b611344612920565b61134c612c1e565b611354612c67565b565b610e2d87878761136588612bd3565b878787612cb3565b600081815261010760205260408120546001600160a01b031680610e535760405162461bcd60e51b8152600401610c7990615173565b3330146114015760405162461bcd60e51b815260206004820152602660248201527f4e6f6e626c6f636b696e674c7a4170703a2063616c6c6572206d7573742062656044820152650204c7a4170760d41b6064820152608401610c79565b6114778686868080601f01602080910402602001604051908101604052809392919081815260200183838082843760009201919091525050604080516020601f890181900481028201810190925287815289935091508790879081908401838280828437600092019190915250612e8992505050565b505050505050565b611487612920565b61148f612fe1565b611354613027565b60006001600160a01b0382166115015760405162461bcd60e51b815260206004820152602960248201527f4552433732313a2061646472657373207a65726f206973206e6f7420612076616044820152683634b21037bbb732b960b91b6064820152608401610c79565b506001600160a01b03166000908152610108602052604090205490565b611526612920565b6113546000613064565b6115386130b6565b611540612fe1565b46610169541461157e5760405162461bcd60e51b815260206004820152600960248201526831b430b4b71032b93960b91b6044820152606401610c79565b61158784612183565b6115a35760405162461bcd60e51b8152600401610c79906151a5565b8234101580156115ba575066e35fa931a000003410155b6115f25760405162461bcd60e51b81526020600482015260096024820152683b30b63ab29032b93960b91b6044820152606401610c79565b600061160033878787611e72565b6040517f19457468657265756d205369676e6564204d6573736167653a0a3332000000006020820152603c810182905290915061169b90605c016040516020818303038152906040528051906020012084848080601f0160208091040260200160405190810160405280939291908181526020018383808284376000920191909152505061016a546001600160a01b03169392915050613110565b6116d75760405162461bcd60e51b815260206004820152600d60248201526c39b4b3b730ba3ab9329032b93960991b6044820152606401610c79565b6116e18686613171565b50610f52600160cf55565b6098602052600090815260409020805461170590615050565b80601f016020809104026020016040519081016040528092919081815260200182805461173190615050565b801561177e5780601f106117535761010080835404028352916020019161177e565b820191906000526020600020905b81548152906001019060200180831161176157829003601f168201915b505050505081565b61178e6130b6565b611796612fe1565b61179f84612183565b6117bb5760405162461bcd60e51b8152600401610c79906151a5565b6040516001600160601b03193360601b16602082015260009060340160405160208183030381529060405290506118346117f23390565b85838833600089898080601f01602080910402602001604051908101604052809392919081815260200183838082843760009201919091525061135692505050565b5061183f600160cf55565b50505050565b61184d612fe1565b6118556130b6565b6118668166071afd498d00006151db565b3410156118a65760405162461bcd60e51b815260206004820152600e60248201526d6e6565642063726f73732067617360901b6044820152606401610c79565b60005b81811015611834576118d28383838181106118c6576118c66151fa565b90506020020135612183565b156118ef5760405162461bcd60e51b8152600401610c79906151a5565b6119123330858585818110611906576119066151fa565b905060200201356112b7565b828282818110611924576119246151fa565b90506020020135858560405161193b92919061508b565b604051809103902061194a3390565b6001600160a01b03167fbdbd6b0e0c64ed3c93b68dad128effd14b54b8af3e56c070e3a7af1f7e02613f60405160405180910390a48061198981615210565b9150506118a9565b6119996130b6565b8051602080830191909120600081815261010490925260409091206002015460ff166119fb5760405162461bcd60e51b81526020600482015260116024820152701b9bc818dc99591a5d1cc81cdd1bdc9959607a1b6044820152606401610c79565b600082806020019051810190611a119190615270565b6000848152610104602052604081208054600190910154929450909250611a4e9161ffff8216916201000090046001600160a01b0316908561318b565b600084815261010460205260409020600101549091508111611ac45760405162461bcd60e51b815260206004820152602960248201527f6e6f7420656e6f7567682067617320746f2070726f6365737320637265646974604482015268103a3930b739b332b960b91b6064820152608401610c79565b8151811415611b3d576000838152610104602052604080822080546001600160b01b031916815560018101929092556002909101805460ff19169055517fd7be02b8dd0d27bd0517a9cb4d7469ce27df4313821ae5ec1ff69acc594ba23390611b309085815260200190565b60405180910390a1611bd2565b6040805160808101825260008581526101046020818152848320805461ffff80821687526001600160a01b03620100008084048216868a019081529989018b8152600160608b01818152998f90529790965297519851169096026001600160b01b03199091169690951695909517939093178455915191830191909155516002909101805491151560ff199092169190911790555b505050611bdf600160cf55565b50565b60606101068054610e6990615050565b611bfa612920565b60008111611c555760405162461bcd60e51b815260206004820152602260248201527f647374436861696e4964546f42617463684c696d6974206d757374206265203e604482015261020360f41b6064820152608401610c79565b61ffff821660008181526101026020908152604091829020849055815192835282018390527f7315f7654d594ead24a30160ed9ba2d23247f543016b918343591e93d7afdb6d91015b60405180910390a15050565b61ffff8116600090815260986020526040812080546060929190611ccd90615050565b80601f0160208091040260200160405190810160405280929190818152602001828054611cf990615050565b8015611d465780601f10611d1b57610100808354040283529160200191611d46565b820191906000526020600020905b815481529060010190602001808311611d2957829003601f168201915b50505050509050805160001415611d9f5760405162461bcd60e51b815260206004820152601d60248201527f4c7a4170703a206e6f20747275737465642070617468207265636f72640000006044820152606401610c79565b611dba600060148351611db2919061532a565b8391906131de565b9392505050565b611dcc3383836132eb565b5050565b611dd8612920565b818130604051602001611ded93929190615341565b60408051601f1981840301815291815261ffff85166000908152609860209081529190208251611e2293919290910190614421565b507f8c0400cfe2d1199b1a725c78960bcc2a344d869b80590d0f2bd005db15a572ce838383604051611e5693929190615155565b60405180910390a1505050565b610e2d87878787878787612cb3565b6040516001600160601b0319606086811b8216602084015285901b1660348201526048810183905260688101829052600090608801604051602081830303815290604052805190602001209050949350505050565b600054610100900460ff1615808015611ee75750600054600160ff909116105b80611f085750611ef6306133b7565b158015611f08575060005460ff166001145b611f245760405162461bcd60e51b8152600401610c7990615362565b6000805460ff191660011790558015611f47576000805461ff0019166101001790555b611f4f6133c6565b611f9d6040518060400160405280600e81526020016d476f6c64656e436869706d756e6b60901b8152506040518060400160405280600381526020016247434d60e81b8152506001866133f5565b6001600160a01b038216611fc35761016a80546001600160a01b03191633179055611fe0565b61016a80546001600160a01b0319166001600160a01b0384161790555b610169849055801561183f576000805461ff00191690556040516001815260008051602061584f8339815191529060200160405180910390a150505050565b6120293383612a0e565b6120455760405162461bcd60e51b8152600401610c79906150df565b61183f848484846134c4565b612059612920565b609b80546001600160a01b0319166001600160a01b0383161790556040517f5db758e995a17ec1ad84bdef7e8c3293a0bd6179bcce400dff5d4c3d87db726b906110f1908390614702565b60606120af8261297a565b60006120b96134f7565b905060008151116120d95760405180602001604052806000815250611dba565b806120e384613517565b6040516020016120f49291906153b0565b6040516020818303038152906040529392505050565b612112612920565b6097546040516332fb62e760e21b81526001600160a01b039091169063cbed8b9c9061214a90889088908890889088906004016153df565b600060405180830381600087803b15801561216457600080fd5b505af1158015612178573d6000803e3d6000fd5b505050505050505050565b6000610f9f8211158015610e535750506107d0111590565b6121a3612920565b600081116121ff5760405162461bcd60e51b815260206004820152602360248201527f647374436861696e4964546f5472616e73666572476173206d7573742062652060448201526203e20360ec1b6064820152608401610c79565b61ffff821660008181526101036020908152604091829020849055815192835282018390527fc46df2983228ac2d9754e94a0d565e6671665dc8ad38602bc8e544f0685a29fb9101611c9e565b61ffff86166000908152609c6020526040808220905161226f908890889061508b565b90815260408051602092819003830190206001600160401b038716600090815292529020549050806122ef5760405162461bcd60e51b815260206004820152602360248201527f4e6f6e626c6f636b696e674c7a4170703a206e6f2073746f726564206d65737360448201526261676560e81b6064820152608401610c79565b80838360405161230092919061508b565b60405180910390201461235f5760405162461bcd60e51b815260206004820152602160248201527f4e6f6e626c6f636b696e674c7a4170703a20696e76616c6964207061796c6f616044820152601960fa1b6064820152608401610c79565b61ffff87166000908152609c60205260408082209051612382908990899061508b565b90815260408051602092819003830181206001600160401b038916600090815290845282902093909355601f8801829004820283018201905286825261241a918991899089908190840183828082843760009201919091525050604080516020601f8a018190048102820181019092528881528a935091508890889081908401838280828437600092019190915250612e8992505050565b7fc264d91f3adc5588250e1551f547752ca0cfa8f6b530d243b9f9f4cab10ea8e58787878785604051612451959493929190615418565b60405180910390a150505050505050565b61016a546001600160a01b0316336001600160a01b03161461248357600080fd5b61248b612fe1565b6124936130b6565b61249c81612183565b156124b95760405162461bcd60e51b8152600401610c79906151a5565b6124c2816135b3565b6124d5576124d08282613171565b61253e565b306124df8261136d565b6001600160a01b0316146125235760405162461bcd60e51b815260206004820152600b60248201526a1b9bdd081c1b195919d95960aa1b6044820152606401610c79565b61253e308383604051806020016040528060008152506134c4565b611dcc600160cf55565b612550612920565b61ffff83811660008181526099602090815260408083209487168084529482529182902085905581519283528201929092529081018290527f9d5c7c0b934da8fefa9c7760c98383778a12dfbfc0c3b3106518f43fb9508ac090606001611e56565b6001600160a01b03918216600090815261010a6020908152604080832093909416825291909152205460ff1690565b6125e9612920565b61ffff831660009081526098602052604090206126079083836144a5565b507ffa41487ad5d6728f0b19276fa1eddc16558578f5109fc39d2dc33c3230470dab838383604051611e5693929190615155565b6000806000868660405160200161265392919061548e565b60408051601f198184030181529082905260975463040a7bb160e41b83529092506001600160a01b0316906340a7bb109061269a908b90309086908b908b906004016154b3565b604080518083038186803b1580156126b157600080fd5b505afa1580156126c5573d6000803e3d6000fd5b505050506040513d601f19601f820116820180604052508101906126e99190615507565b92509250509550959350505050565b612700612920565b6001600160a01b0381166127655760405162461bcd60e51b815260206004820152602660248201527f4f776e61626c653a206e6577206f776e657220697320746865207a65726f206160448201526564647265737360d01b6064820152608401610c79565b611bdf81613064565b609754604051633d7b2f6f60e21b815261ffff808716600483015285166024820152306044820152606481018390526060916001600160a01b03169063f5ecbdbc9060840160006040518083038186803b1580156127cb57600080fd5b505afa1580156127df573d6000803e3d6000fd5b505050506040513d6000823e601f3d908101601f19168201604052612807919081019061552b565b95945050505050565b61016a546001600160a01b0316336001600160a01b03161461283157600080fd5b6040516001600160a01b0383169082156108fc029083906000818181858888f19350505050158015611092573d6000803e3d6000fd5b6000806128ca5a60966366ad5c8a60e01b8989898960405160240161288f949392919061555f565b60408051601f198184030181529190526020810180516001600160e01b03166001600160e01b031990931692909217909152309291906135d1565b915091508161147757611477868686868561365d565b60006001600160e01b031982166380ac58cd60e01b148061291157506001600160e01b03198216635b5e139f60e01b145b80610e535750610e53826136eb565b6065546001600160a01b031633146113545760405162461bcd60e51b815260206004820181905260248201527f4f776e61626c653a2063616c6c6572206973206e6f7420746865206f776e65726044820152606401610c79565b612983816135b3565b611bdf5760405162461bcd60e51b8152600401610c7990615173565b60008181526101096020526040902080546001600160a01b0319166001600160a01b03841690811790915581906129d58261136d565b6001600160a01b03167f8c5be1e5ebec7d5bd14f71427d1e84f3dd0314c0f7b2291e5b200ac8c7c3b92560405160405180910390a45050565b600080612a1a8361136d565b9050806001600160a01b0316846001600160a01b03161480612a415750612a4181856125b2565b806111605750836001600160a01b0316612a5a84610f59565b6001600160a01b031614949350505050565b826001600160a01b0316612a7f8261136d565b6001600160a01b031614612aa55760405162461bcd60e51b8152600401610c799061559d565b6001600160a01b038216612b075760405162461bcd60e51b8152602060048201526024808201527f4552433732313a207472616e7366657220746f20746865207a65726f206164646044820152637265737360e01b6064820152608401610c79565b826001600160a01b0316612b1a8261136d565b6001600160a01b031614612b405760405162461bcd60e51b8152600401610c799061559d565b60008181526101096020908152604080832080546001600160a01b03199081169091556001600160a01b03878116808652610108855283862080546000190190559087168086528386208054600101905586865261010790945282852080549092168417909155905184937fddf252ad1be2c89b69c2b068fc378daa952ba7f163c4a11628f55a4df523b3ef91a4505050565b60408051600180825281830190925260609160009190602080830190803683370190505090508281600081518110612c0d57612c0d6151fa565b602090810291909101015292915050565b60335460ff166113545760405162461bcd60e51b815260206004820152601460248201527314185d5cd8589b194e881b9bdd081c185d5cd95960621b6044820152606401610c79565b612c6f612c1e565b6033805460ff191690557f5db9ee0a495bf2e6ff9c91a7834c1ba4fdd244a5e8aa4e537bd38aeae4b073aa335b604051612ca99190614702565b60405180910390a1565b6000845111612cfa5760405162461bcd60e51b8152602060048201526013602482015272746f6b656e4964735b5d20697320656d70747960681b6044820152606401610c79565b835160011480612d1f575061ffff861660009081526101026020526040902054845111155b612d765760405162461bcd60e51b815260206004820152602260248201527f62617463682073697a65206578636565647320647374206261746368206c696d6044820152611a5d60f21b6064820152608401610c79565b60005b8451811015612db957612da7888888888581518110612d9a57612d9a6151fa565b6020026020010151613720565b80612db181615210565b915050612d79565b5060008585604051602001612dcf92919061548e565b6040516020818303038152906040529050612e1587600184885161010360008d61ffff1661ffff16815260200190815260200160002054612e1091906151db565b61380b565b612e238782868686346138e0565b85604051612e3191906155e2565b6040518091039020886001600160a01b03168861ffff167fe1b87c47fdeb4f9cbadbca9df3af7aba453bb6e501075d0440d88125b711522a88604051612e7791906155fe565b60405180910390a45050505050505050565b60008082806020019051810190612ea09190615270565b601482015191935091506000612eb88883838661318b565b90508251811015612f8d5784516020808701919091206040805160808101825261ffff808d1682526001600160a01b038088168387019081528385018881526001606086018181526000898152610104909a529887902095518654935190941662010000026001600160b01b03199093169390941692909217178355519082015592516002909301805493151560ff199094169390931790925590517f10e0b70d256bccc84b7027506978bd8b68984a870788b93b479def144c839ad790612f839083908990615611565b60405180910390a1505b816001600160a01b031687604051612fa591906155e2565b60405180910390208961ffff167f5b821db8a46f8ecbe1941ba2f51cfeea9643268b56631f70d45e2a745d99026586604051612e7791906155fe565b60335460ff16156113545760405162461bcd60e51b815260206004820152601060248201526f14185d5cd8589b194e881c185d5cd95960821b6044820152606401610c79565b61302f612fe1565b6033805460ff191660011790557f62e78cea01bee320cd4e420270b5ea74000d11b0c9f74754ebdbfc544b05a258612c9c3390565b606580546001600160a01b038381166001600160a01b0319831681179093556040519116919082907f8be0079c531659141344cd1fd0a4f28419497f9722a3daafe3b4186f6b6457e090600090a35050565b600260cf5414156131095760405162461bcd60e51b815260206004820152601f60248201527f5265656e7472616e637947756172643a207265656e7472616e742063616c6c006044820152606401610c79565b600260cf55565b600080600061311f8585613a6a565b909250905060008160048111156131385761313861562a565b1480156131565750856001600160a01b0316826001600160a01b0316145b806131675750613167868686613ab0565b9695505050505050565b611dcc828260405180602001604052806000815250613b9c565b6000825b825181101561280757610101545a10156131a857612807565b6131cc86868584815181106131bf576131bf6151fa565b6020026020010151613bcf565b806131d681615210565b91505061318f565b6060816131ec81601f615640565b101561322b5760405162461bcd60e51b815260206004820152600e60248201526d736c6963655f6f766572666c6f7760901b6044820152606401610c79565b6132358284615640565b845110156132795760405162461bcd60e51b8152602060048201526011602482015270736c6963655f6f75744f66426f756e647360781b6044820152606401610c79565b60608215801561329857604051915060008252602082016040526132e2565b6040519150601f8416801560200281840101858101878315602002848b0101015b818310156132d15780518352602092830192016132b9565b5050858452601f01601f1916604052505b50949350505050565b816001600160a01b0316836001600160a01b031614156133495760405162461bcd60e51b815260206004820152601960248201527822a9219b99189d1030b8383937bb32903a379031b0b63632b960391b6044820152606401610c79565b6001600160a01b03838116600081815261010a6020908152604080832094871680845294825291829020805460ff191686151590811790915591519182527f17307eab39ab6107e8899845ad3d59bd9653f200f220920489ca2b5937696c31910160405180910390a3505050565b6001600160a01b03163b151590565b600054610100900460ff166133ed5760405162461bcd60e51b8152600401610c7990615658565b611354613c2f565b600054610100900460ff16158080156134155750600054600160ff909116105b806134365750613424306133b7565b158015613436575060005460ff166001145b6134525760405162461bcd60e51b8152600401610c7990615362565b6000805460ff191660011790558015613475576000805461ff0019166101001790555b61347f8585613c62565b6134898383613c93565b8015610f52576000805461ff00191690556040516001815260008051602061584f833981519152906020015b60405180910390a15050505050565b6134cf848484612a6c565b6134db84848484613d72565b61183f5760405162461bcd60e51b8152600401610c79906156a3565b606060405180608001604052806043815260200161586f60439139905090565b6060600061352483613e83565b60010190506000816001600160401b038111156135435761354361477e565b6040519080825280601f01601f19166020018201604052801561356d576020820181803683370190505b5090508181016020015b600019016f181899199a1a9b1b9c1cb0b131b232b360811b600a86061a8153600a85049450846135a6576135ab565b613577565b509392505050565b600090815261010760205260409020546001600160a01b0316151590565b6000606060008060008661ffff166001600160401b038111156135f6576135f661477e565b6040519080825280601f01601f191660200182016040528015613620576020820181803683370190505b50905060008087516020890160008d8df191503d925086831115613642578692505b828152826000602083013e9093509150505b94509492505050565b8180519060200120609c60008761ffff1661ffff1681526020019081526020016000208560405161368e91906155e2565b9081526040805191829003602090810183206001600160401b0388166000908152915220919091557fe183f33de2837795525b4792ca4cd60535bd77c53b7e7030060bfcf5734d6b0c906134b590879087908790879087906156f5565b60006001600160e01b031982166322bac5d960e01b1480610e5357506301ffc9a760e01b6001600160e01b0319831614610e53565b61372933611198565b61378c5760405162461bcd60e51b815260206004820152602e60248201527f4f4e46543732313a2073656e642063616c6c6572206973206e6f74206f776e6560448201526d1c881b9bdc88185c1c1c9bdd995960921b6064820152608401610c79565b836001600160a01b031661379f8261136d565b6001600160a01b0316146138005760405162461bcd60e51b815260206004820152602260248201527f4f4e46543732313a2073656e642066726f6d20696e636f7272656374206f776e60448201526132b960f11b6064820152608401610c79565b61183f843083612a6c565b600061381683613f5b565b61ffff808716600090815260996020908152604080832093891683529290522054909150806138875760405162461bcd60e51b815260206004820152601a60248201527f4c7a4170703a206d696e4761734c696d6974206e6f74207365740000000000006044820152606401610c79565b6138918382615640565b8210156114775760405162461bcd60e51b815260206004820152601b60248201527f4c7a4170703a20676173206c696d697420697320746f6f206c6f7700000000006044820152606401610c79565b61ffff8616600090815260986020526040812080546138fe90615050565b80601f016020809104026020016040519081016040528092919081815260200182805461392a90615050565b80156139775780601f1061394c57610100808354040283529160200191613977565b820191906000526020600020905b81548152906001019060200180831161395a57829003601f168201915b505050505090508051600014156139e95760405162461bcd60e51b815260206004820152603060248201527f4c7a4170703a2064657374696e6174696f6e20636861696e206973206e6f742060448201526f61207472757374656420736f7572636560801b6064820152608401610c79565b6139f4878751613fb7565b60975460405162c5803160e81b81526001600160a01b039091169063c5803100908490613a2f908b9086908c908c908c908c90600401615747565b6000604051808303818588803b158015613a4857600080fd5b505af1158015613a5c573d6000803e3d6000fd5b505050505050505050505050565b600080825160411415613aa15760208301516040840151606085015160001a613a9587828585614025565b94509450505050613aa9565b506000905060025b9250929050565b6000806000856001600160a01b0316631626ba7e60e01b8686604051602401613ada929190615611565b60408051601f198184030181529181526020820180516001600160e01b03166001600160e01b0319909416939093179092529051613b1891906155e2565b600060405180830381855afa9150503d8060008114613b53576040519150601f19603f3d011682016040523d82523d6000602084013e613b58565b606091505b5091509150818015613b6c57506020815110155b801561316757508051630b135d3f60e11b90613b9190830160209081019084016157ae565b149695505050505050565b613ba683836140dc565b613bb36000848484613d72565b6110925760405162461bcd60e51b8152600401610c79906156a3565b613bd8816135b3565b1580613c045750613be8816135b3565b8015613c04575030613bf98261136d565b6001600160a01b0316145b613c0d57600080fd5b613c16816135b3565b613c24576110928282613171565b611092308383612a6c565b600054610100900460ff16613c565760405162461bcd60e51b8152600401610c7990615658565b6033805460ff19169055565b600054610100900460ff16613c895760405162461bcd60e51b8152600401610c7990615658565b611dcc82826141eb565b600054610100900460ff1615808015613cb35750600054600160ff909116105b80613cd45750613cc2306133b7565b158015613cd4575060005460ff166001145b613cf05760405162461bcd60e51b8152600401610c7990615362565b6000805460ff191660011790558015613d13576000805461ff0019166101001790555b60008311613d335760405162461bcd60e51b8152600401610c799061509b565b610101839055613d428261423b565b8015611092576000805461ff00191690556040516001815260008051602061584f83398151915290602001611e56565b6000613d86846001600160a01b03166133b7565b15613e7b57604051630a85bd0160e11b81526001600160a01b0385169063150b7a0290613dbd9033908990889088906004016157c7565b602060405180830381600087803b158015613dd757600080fd5b505af1925050508015613e07575060408051601f3d908101601f19168201909252613e04918101906157fa565b60015b613e61573d808015613e35576040519150601f19603f3d011682016040523d82523d6000602084013e613e3a565b606091505b508051613e595760405162461bcd60e51b8152600401610c79906156a3565b805181602001fd5b6001600160e01b031916630a85bd0160e11b149050611160565b506001611160565b60008072184f03e93ff9f4daa797ed6e38ed64bf6a1f0160401b8310613ec25772184f03e93ff9f4daa797ed6e38ed64bf6a1f0160401b830492506040015b6d04ee2d6d415b85acef81000000008310613eee576d04ee2d6d415b85acef8100000000830492506020015b662386f26fc100008310613f0c57662386f26fc10000830492506010015b6305f5e1008310613f24576305f5e100830492506008015b6127108310613f3857612710830492506004015b60648310613f4a576064830492506002015b600a8310610e535760010192915050565b6000602282511015613faf5760405162461bcd60e51b815260206004820152601c60248201527f4c7a4170703a20696e76616c69642061646170746572506172616d73000000006044820152606401610c79565b506022015190565b61ffff82166000908152609a602052604090205480613fd557506127105b808211156110925760405162461bcd60e51b815260206004820181905260248201527f4c7a4170703a207061796c6f61642073697a6520697320746f6f206c617267656044820152606401610c79565b6000806fa2a8918ca85bafe22016d0b997e4df60600160ff1b038311156140525750600090506003613654565b6040805160008082526020820180845289905260ff881692820192909252606081018690526080810185905260019060a0016020604051602081039080840390855afa1580156140a6573d6000803e3d6000fd5b5050604051601f1901519150506001600160a01b0381166140cf57600060019250925050613654565b9660009650945050505050565b6001600160a01b0382166141325760405162461bcd60e51b815260206004820181905260248201527f4552433732313a206d696e7420746f20746865207a65726f20616464726573736044820152606401610c79565b61413b816135b3565b156141585760405162461bcd60e51b8152600401610c7990615817565b614161816135b3565b1561417e5760405162461bcd60e51b8152600401610c7990615817565b6001600160a01b0382166000818152610108602090815260408083208054600101905584835261010790915280822080546001600160a01b0319168417905551839291907fddf252ad1be2c89b69c2b068fc378daa952ba7f163c4a11628f55a4df523b3ef908290a45050565b600054610100900460ff166142125760405162461bcd60e51b8152600401610c7990615658565b815161422690610105906020850190614421565b50805161109290610106906020840190614421565b600054610100900460ff161580801561425b5750600054600160ff909116105b8061427c575061426a306133b7565b15801561427c575060005460ff166001145b6142985760405162461bcd60e51b8152600401610c7990615362565b6000805460ff1916600117905580156142bb576000805461ff0019166101001790555b6142c4826142f4565b8015611dcc576000805461ff00191690556040516001815260008051602061584f83398151915290602001611c9e565b600054610100900460ff16158080156143145750600054600160ff909116105b806143355750614323306133b7565b158015614335575060005460ff166001145b6143515760405162461bcd60e51b8152600401610c7990615362565b6000805460ff191660011790558015614374576000805461ff0019166101001790555b61437c6143c7565b609780546001600160a01b0319166001600160a01b0384161790558015611dcc576000805461ff00191690556040516001815260008051602061584f83398151915290602001611c9e565b600054610100900460ff166143ee5760405162461bcd60e51b8152600401610c7990615658565b611354600054610100900460ff166144185760405162461bcd60e51b8152600401610c7990615658565b61135433613064565b82805461442d90615050565b90600052602060002090601f01602090048101928261444f5760008555614495565b82601f1061446857805160ff1916838001178555614495565b82800160010185558215614495579182015b8281111561449557825182559160200191906001019061447a565b506144a1929150614519565b5090565b8280546144b190615050565b90600052602060002090601f0160209004810192826144d35760008555614495565b82601f106144ec5782800160ff19823516178555614495565b82800160010185558215614495579182015b828111156144955782358255916020019190600101906144fe565b5b808211156144a1576000815560010161451a565b803561ffff8116811461454057600080fd5b919050565b60008083601f84011261455757600080fd5b5081356001600160401b0381111561456e57600080fd5b602083019150836020828501011115613aa957600080fd5b80356001600160401b038116811461454057600080fd5b600080600080600080608087890312156145b657600080fd5b6145bf8761452e565b955060208701356001600160401b03808211156145db57600080fd5b6145e78a838b01614545565b90975095508591506145fb60408a01614586565b9450606089013591508082111561461157600080fd5b5061461e89828a01614545565b979a9699509497509295939492505050565b6001600160e01b031981168114611bdf57600080fd5b60006020828403121561465857600080fd5b8135611dba81614630565b60005b8381101561467e578181015183820152602001614666565b8381111561183f5750506000910152565b600081518084526146a7816020860160208601614663565b601f01601f19169290920160200192915050565b602081526000611dba602083018461468f565b6000602082840312156146e057600080fd5b611dba8261452e565b6000602082840312156146fb57600080fd5b5035919050565b6001600160a01b0391909116815260200190565b6001600160a01b0381168114611bdf57600080fd5b803561454081614716565b6000806040838503121561474957600080fd5b823561475481614716565b946020939093013593505050565b6000806040838503121561477557600080fd5b6147548361452e565b634e487b7160e01b600052604160045260246000fd5b604051601f8201601f191681016001600160401b03811182821017156147bc576147bc61477e565b604052919050565b60006001600160401b038211156147dd576147dd61477e565b50601f01601f191660200190565b600082601f8301126147fc57600080fd5b813561480f61480a826147c4565b614794565b81815284602083860101111561482457600080fd5b816020850160208301376000918101602001919091529392505050565b6000806000806080858703121561485757600080fd5b843561486281614716565b9350602085013561487281614716565b92506040850135915060608501356001600160401b0381111561489457600080fd5b6148a0878288016147eb565b91505092959194509250565b6000602082840312156148be57600080fd5b8135611dba81614716565b6000806000606084860312156148de57600080fd5b83356148e981614716565b925060208401356148f981614716565b929592945050506040919091013590565b8035801515811461454057600080fd5b600080600080600060a0868803121561493257600080fd5b61493b8661452e565b945060208601356001600160401b038082111561495757600080fd5b61496389838a016147eb565b9550604088013594506149786060890161490a565b9350608088013591508082111561498e57600080fd5b5061499b888289016147eb565b9150509295509295909350565b6000806000604084860312156149bd57600080fd5b6149c68461452e565b925060208401356001600160401b038111156149e157600080fd5b6149ed86828701614545565b9497909650939450505050565b600080600080600080600060e0888a031215614a1557600080fd5b8735614a2081614716565b9650614a2e6020890161452e565b955060408801356001600160401b0380821115614a4a57600080fd5b614a568b838c016147eb565b965060608a0135955060808a01359150614a6f82614716565b90935060a089013590614a8182614716565b90925060c08901359080821115614a9757600080fd5b50614aa48a828b016147eb565b91505092959891949750929550565b600080600060608486031215614ac857600080fd5b614ad18461452e565b925060208401356001600160401b03811115614aec57600080fd5b614af8868287016147eb565b925050614b0760408501614586565b90509250925092565b600080600080600060808688031215614b2857600080fd5b8535614b3381614716565b9450602086013593506040860135925060608601356001600160401b03811115614b5c57600080fd5b614b6888828901614545565b969995985093965092949392505050565b60008060008060608587031215614b8f57600080fd5b84359350614b9f6020860161452e565b925060408501356001600160401b03811115614bba57600080fd5b614bc687828801614545565b95989497509550505050565b60008060008060408587031215614be857600080fd5b84356001600160401b0380821115614bff57600080fd5b614c0b88838901614545565b90965094506020870135915080821115614c2457600080fd5b818701915087601f830112614c3857600080fd5b813581811115614c4757600080fd5b8860208260051b8501011115614c5c57600080fd5b95989497505060200194505050565b60008060408385031215614c7e57600080fd5b614c878361452e565b9150614c956020840161452e565b90509250929050565b600060208284031215614cb057600080fd5b81356001600160401b03811115614cc657600080fd5b611160848285016147eb565b60008060408385031215614ce557600080fd5b8235614cf081614716565b9150614c956020840161490a565b60006001600160401b03821115614d1757614d1761477e565b5060051b60200190565b600082601f830112614d3257600080fd5b81356020614d4261480a83614cfe565b82815260059290921b84018101918181019086841115614d6157600080fd5b8286015b84811015614d7c5780358352918301918301614d65565b509695505050505050565b600080600080600080600060e0888a031215614da257600080fd5b8735614dad81614716565b9650614dbb6020890161452e565b955060408801356001600160401b0380821115614dd757600080fd5b614de38b838c016147eb565b965060608a0135915080821115614df957600080fd5b614e058b838c01614d21565b955060808a01359150614e1782614716565b819450614e2660a08b0161472b565b935060c08a0135915080821115614a9757600080fd5b60008060008060808587031215614e5257600080fd5b8435614e5d81614716565b93506020850135614e6d81614716565b93969395505050506040820135916060013590565b600080600060608486031215614e9757600080fd5b833592506020840135614ea981614716565b91506040840135614eb981614716565b809150509250925092565b600080600080600060808688031215614edc57600080fd5b614ee58661452e565b9450614ef36020870161452e565b93506040860135925060608601356001600160401b03811115614b5c57600080fd5b600080600060608486031215614f2a57600080fd5b614f338461452e565b9250614f416020850161452e565b9150604084013590509250925092565b60008060408385031215614f6457600080fd5b8235614f6f81614716565b91506020830135614f7f81614716565b809150509250929050565b600080600080600060a08688031215614fa257600080fd5b614fab8661452e565b945060208601356001600160401b0380821115614fc757600080fd5b614fd389838a016147eb565b95506040880135915080821115614fe957600080fd5b614ff589838a01614d21565b94506149786060890161490a565b6000806000806080858703121561501957600080fd5b6150228561452e565b93506150306020860161452e565b9250604085013561504081614716565b9396929550929360600135925050565b600181811c9082168061506457607f821691505b6020821081141561508557634e487b7160e01b600052602260045260246000fd5b50919050565b8183823760009101908152919050565b60208082526024908201527f6d696e476173546f5472616e73666572416e6453746f7265206d7573742062656040820152630203e20360e41b606082015260800190565b6020808252602d908201527f4552433732313a2063616c6c6572206973206e6f7420746f6b656e206f776e6560408201526c1c881bdc88185c1c1c9bdd9959609a1b606082015260800190565b81835281816020850137506000828201602090810191909152601f909101601f19169091010190565b61ffff8416815260406020820152600061280760408301848661512c565b602080825260189082015277115490cdcc8c4e881a5b9d985b1a59081d1bdad95b88125160421b604082015260600190565b60208082526006908201526534b21032b93960d11b604082015260600190565b634e487b7160e01b600052601160045260246000fd5b60008160001904831182151516156151f5576151f56151c5565b500290565b634e487b7160e01b600052603260045260246000fd5b6000600019821415615224576152246151c5565b5060010190565b600082601f83011261523c57600080fd5b815161524a61480a826147c4565b81815284602083860101111561525f57600080fd5b611160826020830160208701614663565b6000806040838503121561528357600080fd5b82516001600160401b038082111561529a57600080fd5b6152a68683870161522b565b93506020915081850151818111156152bd57600080fd5b85019050601f810186136152d057600080fd5b80516152de61480a82614cfe565b81815260059190911b820183019083810190888311156152fd57600080fd5b928401925b8284101561531b57835182529284019290840190615302565b80955050505050509250929050565b60008282101561533c5761533c6151c5565b500390565b8284823760609190911b6001600160601b0319169101908152601401919050565b6020808252602e908201527f496e697469616c697a61626c653a20636f6e747261637420697320616c72656160408201526d191e481a5b9a5d1a585b1a5e995960921b606082015260800190565b600083516153c2818460208801614663565b8351908301906153d6818360208801614663565b01949350505050565b600061ffff80881683528087166020840152508460408301526080606083015261540d60808301848661512c565b979650505050505050565b61ffff8616815260806020820152600061543660808301868861512c565b6001600160401b0394909416604083015250606001529392505050565b600081518084526020808501945080840160005b8381101561548357815187529582019590820190600101615467565b509495945050505050565b6040815260006154a1604083018561468f565b82810360208401526128078185615453565b61ffff861681526001600160a01b038516602082015260a0604082018190526000906154e19083018661468f565b841515606084015282810360808401526154fb818561468f565b98975050505050505050565b6000806040838503121561551a57600080fd5b505080516020909101519092909150565b60006020828403121561553d57600080fd5b81516001600160401b0381111561555357600080fd5b6111608482850161522b565b61ffff8516815260806020820152600061557c608083018661468f565b6001600160401b0385166040840152828103606084015261540d818561468f565b60208082526025908201527f4552433732313a207472616e736665722066726f6d20696e636f72726563742060408201526437bbb732b960d91b606082015260800190565b600082516155f4818460208701614663565b9190910192915050565b602081526000611dba6020830184615453565b828152604060208201526000611160604083018461468f565b634e487b7160e01b600052602160045260246000fd5b60008219821115615653576156536151c5565b500190565b6020808252602b908201527f496e697469616c697a61626c653a20636f6e7472616374206973206e6f74206960408201526a6e697469616c697a696e6760a81b606082015260800190565b60208082526032908201527f4552433732313a207472616e7366657220746f206e6f6e20455243373231526560408201527131b2b4bb32b91034b6b83632b6b2b73a32b960711b606082015260800190565b61ffff8616815260a06020820152600061571260a083018761468f565b6001600160401b03861660408401528281036060840152615733818661468f565b905082810360808401526154fb818561468f565b61ffff8716815260c06020820152600061576460c083018861468f565b8281036040840152615776818861468f565b6001600160a01b0387811660608601528616608085015283810360a085015290506157a1818561468f565b9998505050505050505050565b6000602082840312156157c057600080fd5b5051919050565b6001600160a01b03858116825284166020820152604081018390526080606082018190526000906131679083018461468f565b60006020828403121561580c57600080fd5b8151611dba81614630565b6020808252601c908201527f4552433732313a20746f6b656e20616c7265616479206d696e7465640000000060408201526060019056fe7f26b83ff96e1f2b6a682f133852f6798a09c465da95921460cefb3847402498697066733a2f2f6261667962656965637a736e69336e6f78646562776e7937746332766972706e783636766b773473756967716d677237766935796634366b6532712fa2646970667358221220091490bd33699fad70484621f3135593da844bd5403b0cc3d7926c52cdcf967a64736f6c63430008090033",
  "devdoc": {
    "kind": "dev",
    "methods": {
      "approve(address,uint256)": {
        "details": "See {IERC721-approve}."
      },
      "balanceOf(address)": {
        "details": "See {IERC721-balanceOf}."
      },
      "estimateSendBatchFee(uint16,bytes,uint256[],bool,bytes)": {
        "details": "estimate send token `_tokenId` to (`_dstChainId`, `_toAddress`) _dstChainId - L0 defined chain id to send tokens too _toAddress - dynamic bytes array which contains the address to whom you are sending tokens to on the dstChain _tokenIds[] - token Ids to transfer _useZro - indicates to use zro to pay L0 fees _adapterParams - flexible bytes array to indicate messaging adapter services in L0"
      },
      "estimateSendFee(uint16,bytes,uint256,bool,bytes)": {
        "details": "estimate send token `_tokenId` to (`_dstChainId`, `_toAddress`) _dstChainId - L0 defined chain id to send tokens too _toAddress - dynamic bytes array which contains the address to whom you are sending tokens to on the dstChain _tokenId - token Id to transfer _useZro - indicates to use zro to pay L0 fees _adapterParams - flexible bytes array to indicate messaging adapter services in L0"
      },
      "getApproved(uint256)": {
        "details": "See {IERC721-getApproved}."
      },
      "isApprovedForAll(address,address)": {
        "details": "See {IERC721-isApprovedForAll}."
      },
      "name()": {
        "details": "See {IERC721Metadata-name}."
      },
      "onERC721Received(address,address,uint256,bytes)": {
        "details": "See {IERC721Receiver-onERC721Received}. Always returns `IERC721Receiver.onERC721Received.selector`."
      },
      "owner()": {
        "details": "Returns the address of the current owner."
      },
      "ownerOf(uint256)": {
        "details": "See {IERC721-ownerOf}."
      },
      "paused()": {
        "details": "Returns true if the contract is paused, and false otherwise."
      },
      "renounceOwnership()": {
        "details": "Leaves the contract without owner. It will not be possible to call `onlyOwner` functions. Can only be called by the current owner. NOTE: Renouncing ownership will leave the contract without an owner, thereby disabling any functionality that is only available to the owner."
      },
      "safeTransferFrom(address,address,uint256)": {
        "details": "See {IERC721-safeTransferFrom}."
      },
      "safeTransferFrom(address,address,uint256,bytes)": {
        "details": "See {IERC721-safeTransferFrom}."
      },
      "sendBatchFrom(address,uint16,bytes,uint256[],address,address,bytes)": {
        "details": "send tokens `_tokenIds[]` to (`_dstChainId`, `_toAddress`) from `_from` `_toAddress` can be any size depending on the `dstChainId`. `_zroPaymentAddress` set to address(0x0) if not paying in ZRO (LayerZero Token) `_adapterParams` is a flexible bytes array to indicate messaging adapter services"
      },
      "sendFrom(address,uint16,bytes,uint256,address,address,bytes)": {
        "details": "send token `_tokenId` to (`_dstChainId`, `_toAddress`) from `_from` `_toAddress` can be any size depending on the `dstChainId`. `_zroPaymentAddress` set to address(0x0) if not paying in ZRO (LayerZero Token) `_adapterParams` is a flexible bytes array to indicate messaging adapter services"
      },
      "setApprovalForAll(address,bool)": {
        "details": "See {IERC721-setApprovalForAll}."
      },
      "symbol()": {
        "details": "See {IERC721Metadata-symbol}."
      },
      "tokenURI(uint256)": {
        "details": "See {IERC721Metadata-tokenURI}."
      },
      "transferFrom(address,address,uint256)": {
        "details": "See {IERC721-transferFrom}."
      },
      "transferOwnership(address)": {
        "details": "Transfers ownership of the contract to a new account (`newOwner`). Can only be called by the current owner."
      }
    },
    "version": 1
  },
  "userdoc": {
    "kind": "user",
    "methods": {},
    "version": 1
  },
  "storageLayout": {
    "storage": [
      {
        "astId": 139,
        "contract": "contracts/officialNfts/GoldenChipmunk.sol:GoldenChipmunk",
        "label": "_initialized",
        "offset": 0,
        "slot": "0",
        "type": "t_uint8"
      },
      {
        "astId": 142,
        "contract": "contracts/officialNfts/GoldenChipmunk.sol:GoldenChipmunk",
        "label": "_initializing",
        "offset": 1,
        "slot": "0",
        "type": "t_bool"
      },
      {
        "astId": 2056,
        "contract": "contracts/officialNfts/GoldenChipmunk.sol:GoldenChipmunk",
        "label": "__gap",
        "offset": 0,
        "slot": "1",
        "type": "t_array(t_uint256)50_storage"
      },
      {
        "astId": 323,
        "contract": "contracts/officialNfts/GoldenChipmunk.sol:GoldenChipmunk",
        "label": "_paused",
        "offset": 0,
        "slot": "51",
        "type": "t_bool"
      },
      {
        "astId": 428,
        "contract": "contracts/officialNfts/GoldenChipmunk.sol:GoldenChipmunk",
        "label": "__gap",
        "offset": 0,
        "slot": "52",
        "type": "t_array(t_uint256)49_storage"
      },
      {
        "astId": 11,
        "contract": "contracts/officialNfts/GoldenChipmunk.sol:GoldenChipmunk",
        "label": "_owner",
        "offset": 0,
        "slot": "101",
        "type": "t_address"
      },
      {
        "astId": 131,
        "contract": "contracts/officialNfts/GoldenChipmunk.sol:GoldenChipmunk",
        "label": "__gap",
        "offset": 0,
        "slot": "102",
        "type": "t_array(t_uint256)49_storage"
      },
      {
        "astId": 5601,
        "contract": "contracts/officialNfts/GoldenChipmunk.sol:GoldenChipmunk",
        "label": "lzEndpoint",
        "offset": 0,
        "slot": "151",
        "type": "t_contract(ILayerZeroEndpoint)6516"
      },
      {
        "astId": 5605,
        "contract": "contracts/officialNfts/GoldenChipmunk.sol:GoldenChipmunk",
        "label": "trustedRemoteLookup",
        "offset": 0,
        "slot": "152",
        "type": "t_mapping(t_uint16,t_bytes_storage)"
      },
      {
        "astId": 5611,
        "contract": "contracts/officialNfts/GoldenChipmunk.sol:GoldenChipmunk",
        "label": "minDstGasLookup",
        "offset": 0,
        "slot": "153",
        "type": "t_mapping(t_uint16,t_mapping(t_uint16,t_uint256))"
      },
      {
        "astId": 5615,
        "contract": "contracts/officialNfts/GoldenChipmunk.sol:GoldenChipmunk",
        "label": "payloadSizeLimitLookup",
        "offset": 0,
        "slot": "154",
        "type": "t_mapping(t_uint16,t_uint256)"
      },
      {
        "astId": 5617,
        "contract": "contracts/officialNfts/GoldenChipmunk.sol:GoldenChipmunk",
        "label": "precrime",
        "offset": 0,
        "slot": "155",
        "type": "t_address"
      },
      {
        "astId": 6156,
        "contract": "contracts/officialNfts/GoldenChipmunk.sol:GoldenChipmunk",
        "label": "failedMessages",
        "offset": 0,
        "slot": "156",
        "type": "t_mapping(t_uint16,t_mapping(t_bytes_memory_ptr,t_mapping(t_uint64,t_bytes32)))"
      },
      {
        "astId": 2330,
        "contract": "contracts/officialNfts/GoldenChipmunk.sol:GoldenChipmunk",
        "label": "__gap",
        "offset": 0,
        "slot": "157",
        "type": "t_array(t_uint256)50_storage"
      },
      {
        "astId": 444,
        "contract": "contracts/officialNfts/GoldenChipmunk.sol:GoldenChipmunk",
        "label": "_status",
        "offset": 0,
        "slot": "207",
        "type": "t_uint256"
      },
      {
        "astId": 513,
        "contract": "contracts/officialNfts/GoldenChipmunk.sol:GoldenChipmunk",
        "label": "__gap",
        "offset": 0,
        "slot": "208",
        "type": "t_array(t_uint256)49_storage"
      },
      {
        "astId": 6744,
        "contract": "contracts/officialNfts/GoldenChipmunk.sol:GoldenChipmunk",
        "label": "minGasToTransferAndStore",
        "offset": 0,
        "slot": "257",
        "type": "t_uint256"
      },
      {
        "astId": 6748,
        "contract": "contracts/officialNfts/GoldenChipmunk.sol:GoldenChipmunk",
        "label": "dstChainIdToBatchLimit",
        "offset": 0,
        "slot": "258",
        "type": "t_mapping(t_uint16,t_uint256)"
      },
      {
        "astId": 6752,
        "contract": "contracts/officialNfts/GoldenChipmunk.sol:GoldenChipmunk",
        "label": "dstChainIdToTransferGas",
        "offset": 0,
        "slot": "259",
        "type": "t_mapping(t_uint16,t_uint256)"
      },
      {
        "astId": 6757,
        "contract": "contracts/officialNfts/GoldenChipmunk.sol:GoldenChipmunk",
        "label": "storedCredits",
        "offset": 0,
        "slot": "260",
        "type": "t_mapping(t_bytes32,t_struct(StoredCredit)6742_storage)"
      },
      {
        "astId": 544,
        "contract": "contracts/officialNfts/GoldenChipmunk.sol:GoldenChipmunk",
        "label": "_name",
        "offset": 0,
        "slot": "261",
        "type": "t_string_storage"
      },
      {
        "astId": 546,
        "contract": "contracts/officialNfts/GoldenChipmunk.sol:GoldenChipmunk",
        "label": "_symbol",
        "offset": 0,
        "slot": "262",
        "type": "t_string_storage"
      },
      {
        "astId": 550,
        "contract": "contracts/officialNfts/GoldenChipmunk.sol:GoldenChipmunk",
        "label": "_owners",
        "offset": 0,
        "slot": "263",
        "type": "t_mapping(t_uint256,t_address)"
      },
      {
        "astId": 554,
        "contract": "contracts/officialNfts/GoldenChipmunk.sol:GoldenChipmunk",
        "label": "_balances",
        "offset": 0,
        "slot": "264",
        "type": "t_mapping(t_address,t_uint256)"
      },
      {
        "astId": 558,
        "contract": "contracts/officialNfts/GoldenChipmunk.sol:GoldenChipmunk",
        "label": "_tokenApprovals",
        "offset": 0,
        "slot": "265",
        "type": "t_mapping(t_uint256,t_address)"
      },
      {
        "astId": 564,
        "contract": "contracts/officialNfts/GoldenChipmunk.sol:GoldenChipmunk",
        "label": "_operatorApprovals",
        "offset": 0,
        "slot": "266",
        "type": "t_mapping(t_address,t_mapping(t_address,t_bool))"
      },
      {
        "astId": 1466,
        "contract": "contracts/officialNfts/GoldenChipmunk.sol:GoldenChipmunk",
        "label": "__gap",
        "offset": 0,
        "slot": "267",
        "type": "t_array(t_uint256)44_storage"
      },
      {
        "astId": 1675,
        "contract": "contracts/officialNfts/GoldenChipmunk.sol:GoldenChipmunk",
        "label": "__gap",
        "offset": 0,
        "slot": "311",
        "type": "t_array(t_uint256)50_storage"
      },
      {
        "astId": 7553,
        "contract": "contracts/officialNfts/GoldenChipmunk.sol:GoldenChipmunk",
        "label": "assetChainId",
        "offset": 0,
        "slot": "361",
        "type": "t_uint256"
      },
      {
        "astId": 7555,
        "contract": "contracts/officialNfts/GoldenChipmunk.sol:GoldenChipmunk",
        "label": "executor",
        "offset": 0,
        "slot": "362",
        "type": "t_address"
      }
    ],
    "types": {
      "t_address": {
        "encoding": "inplace",
        "label": "address",
        "numberOfBytes": "20"
      },
      "t_array(t_uint256)44_storage": {
        "base": "t_uint256",
        "encoding": "inplace",
        "label": "uint256[44]",
        "numberOfBytes": "1408"
      },
      "t_array(t_uint256)49_storage": {
        "base": "t_uint256",
        "encoding": "inplace",
        "label": "uint256[49]",
        "numberOfBytes": "1568"
      },
      "t_array(t_uint256)50_storage": {
        "base": "t_uint256",
        "encoding": "inplace",
        "label": "uint256[50]",
        "numberOfBytes": "1600"
      },
      "t_bool": {
        "encoding": "inplace",
        "label": "bool",
        "numberOfBytes": "1"
      },
      "t_bytes32": {
        "encoding": "inplace",
        "label": "bytes32",
        "numberOfBytes": "32"
      },
      "t_bytes_memory_ptr": {
        "encoding": "bytes",
        "label": "bytes",
        "numberOfBytes": "32"
      },
      "t_bytes_storage": {
        "encoding": "bytes",
        "label": "bytes",
        "numberOfBytes": "32"
      },
      "t_contract(ILayerZeroEndpoint)6516": {
        "encoding": "inplace",
        "label": "contract ILayerZeroEndpoint",
        "numberOfBytes": "20"
      },
      "t_mapping(t_address,t_bool)": {
        "encoding": "mapping",
        "key": "t_address",
        "label": "mapping(address => bool)",
        "numberOfBytes": "32",
        "value": "t_bool"
      },
      "t_mapping(t_address,t_mapping(t_address,t_bool))": {
        "encoding": "mapping",
        "key": "t_address",
        "label": "mapping(address => mapping(address => bool))",
        "numberOfBytes": "32",
        "value": "t_mapping(t_address,t_bool)"
      },
      "t_mapping(t_address,t_uint256)": {
        "encoding": "mapping",
        "key": "t_address",
        "label": "mapping(address => uint256)",
        "numberOfBytes": "32",
        "value": "t_uint256"
      },
      "t_mapping(t_bytes32,t_struct(StoredCredit)6742_storage)": {
        "encoding": "mapping",
        "key": "t_bytes32",
        "label": "mapping(bytes32 => struct ONFT721Core.StoredCredit)",
        "numberOfBytes": "32",
        "value": "t_struct(StoredCredit)6742_storage"
      },
      "t_mapping(t_bytes_memory_ptr,t_mapping(t_uint64,t_bytes32))": {
        "encoding": "mapping",
        "key": "t_bytes_memory_ptr",
        "label": "mapping(bytes => mapping(uint64 => bytes32))",
        "numberOfBytes": "32",
        "value": "t_mapping(t_uint64,t_bytes32)"
      },
      "t_mapping(t_uint16,t_bytes_storage)": {
        "encoding": "mapping",
        "key": "t_uint16",
        "label": "mapping(uint16 => bytes)",
        "numberOfBytes": "32",
        "value": "t_bytes_storage"
      },
      "t_mapping(t_uint16,t_mapping(t_bytes_memory_ptr,t_mapping(t_uint64,t_bytes32)))": {
        "encoding": "mapping",
        "key": "t_uint16",
        "label": "mapping(uint16 => mapping(bytes => mapping(uint64 => bytes32)))",
        "numberOfBytes": "32",
        "value": "t_mapping(t_bytes_memory_ptr,t_mapping(t_uint64,t_bytes32))"
      },
      "t_mapping(t_uint16,t_mapping(t_uint16,t_uint256))": {
        "encoding": "mapping",
        "key": "t_uint16",
        "label": "mapping(uint16 => mapping(uint16 => uint256))",
        "numberOfBytes": "32",
        "value": "t_mapping(t_uint16,t_uint256)"
      },
      "t_mapping(t_uint16,t_uint256)": {
        "encoding": "mapping",
        "key": "t_uint16",
        "label": "mapping(uint16 => uint256)",
        "numberOfBytes": "32",
        "value": "t_uint256"
      },
      "t_mapping(t_uint256,t_address)": {
        "encoding": "mapping",
        "key": "t_uint256",
        "label": "mapping(uint256 => address)",
        "numberOfBytes": "32",
        "value": "t_address"
      },
      "t_mapping(t_uint64,t_bytes32)": {
        "encoding": "mapping",
        "key": "t_uint64",
        "label": "mapping(uint64 => bytes32)",
        "numberOfBytes": "32",
        "value": "t_bytes32"
      },
      "t_string_storage": {
        "encoding": "bytes",
        "label": "string",
        "numberOfBytes": "32"
      },
      "t_struct(StoredCredit)6742_storage": {
        "encoding": "inplace",
        "label": "struct ONFT721Core.StoredCredit",
        "members": [
          {
            "astId": 6735,
            "contract": "contracts/officialNfts/GoldenChipmunk.sol:GoldenChipmunk",
            "label": "srcChainId",
            "offset": 0,
            "slot": "0",
            "type": "t_uint16"
          },
          {
            "astId": 6737,
            "contract": "contracts/officialNfts/GoldenChipmunk.sol:GoldenChipmunk",
            "label": "toAddress",
            "offset": 2,
            "slot": "0",
            "type": "t_address"
          },
          {
            "astId": 6739,
            "contract": "contracts/officialNfts/GoldenChipmunk.sol:GoldenChipmunk",
            "label": "index",
            "offset": 0,
            "slot": "1",
            "type": "t_uint256"
          },
          {
            "astId": 6741,
            "contract": "contracts/officialNfts/GoldenChipmunk.sol:GoldenChipmunk",
            "label": "creditsRemain",
            "offset": 0,
            "slot": "2",
            "type": "t_bool"
          }
        ],
        "numberOfBytes": "96"
      },
      "t_uint16": {
        "encoding": "inplace",
        "label": "uint16",
        "numberOfBytes": "2"
      },
      "t_uint256": {
        "encoding": "inplace",
        "label": "uint256",
        "numberOfBytes": "32"
      },
      "t_uint64": {
        "encoding": "inplace",
        "label": "uint64",
        "numberOfBytes": "8"
      },
      "t_uint8": {
        "encoding": "inplace",
        "label": "uint8",
        "numberOfBytes": "1"
      }
    }
  }
}