{
  "address": "0x62d154eA6A9F386d3461A2b2B5e34a415CaAdA07",
  "abi": [
    {
      "anonymous": false,
      "inputs": [
        {
          "indexed": true,
          "internalType": "address",
          "name": "owner",
          "type": "address"
        },
        {
          "indexed": true,
          "internalType": "address",
          "name": "approved",
          "type": "address"
        },
        {
          "indexed": true,
          "internalType": "uint256",
          "name": "tokenId",
          "type": "uint256"
        }
      ],
      "name": "Approval",
      "type": "event"
    },
    {
      "anonymous": false,
      "inputs": [
        {
          "indexed": true,
          "internalType": "address",
          "name": "owner",
          "type": "address"
        },
        {
          "indexed": true,
          "internalType": "address",
          "name": "operator",
          "type": "address"
        },
        {
          "indexed": false,
          "internalType": "bool",
          "name": "approved",
          "type": "bool"
        }
      ],
      "name": "ApprovalForAll",
      "type": "event"
    },
    {
      "anonymous": false,
      "inputs": [
        {
          "indexed": true,
          "internalType": "address",
          "name": "from",
          "type": "address"
        },
        {
          "indexed": true,
          "internalType": "string",
          "name": "to",
          "type": "string"
        },
        {
          "indexed": true,
          "internalType": "uint256",
          "name": "tokenId",
          "type": "uint256"
        }
      ],
      "name": "CrossToOrd",
      "type": "event"
    },
    {
      "anonymous": false,
      "inputs": [
        {
          "indexed": false,
          "internalType": "uint8",
          "name": "version",
          "type": "uint8"
        }
      ],
      "name": "Initialized",
      "type": "event"
    },
    {
      "anonymous": false,
      "inputs": [
        {
          "indexed": true,
          "internalType": "address",
          "name": "previousOwner",
          "type": "address"
        },
        {
          "indexed": true,
          "internalType": "address",
          "name": "newOwner",
          "type": "address"
        }
      ],
      "name": "OwnershipTransferred",
      "type": "event"
    },
    {
      "anonymous": false,
      "inputs": [
        {
          "indexed": false,
          "internalType": "address",
          "name": "account",
          "type": "address"
        }
      ],
      "name": "Paused",
      "type": "event"
    },
    {
      "anonymous": false,
      "inputs": [
        {
          "indexed": true,
          "internalType": "address",
          "name": "from",
          "type": "address"
        },
        {
          "indexed": true,
          "internalType": "address",
          "name": "to",
          "type": "address"
        },
        {
          "indexed": true,
          "internalType": "uint256",
          "name": "tokenId",
          "type": "uint256"
        }
      ],
      "name": "Transfer",
      "type": "event"
    },
    {
      "anonymous": false,
      "inputs": [
        {
          "indexed": false,
          "internalType": "address",
          "name": "account",
          "type": "address"
        }
      ],
      "name": "Unpaused",
      "type": "event"
    },
    {
      "inputs": [
        {
          "internalType": "string",
          "name": "_name",
          "type": "string"
        },
        {
          "internalType": "string",
          "name": "_symbol",
          "type": "string"
        },
        {
          "internalType": "address",
          "name": "_executor",
          "type": "address"
        }
      ],
      "name": "__OrdAssetWrapBase_init",
      "outputs": [],
      "stateMutability": "nonpayable",
      "type": "function"
    },
    {
      "inputs": [
        {
          "internalType": "address",
          "name": "to",
          "type": "address"
        },
        {
          "internalType": "uint256",
          "name": "tokenId",
          "type": "uint256"
        }
      ],
      "name": "approve",
      "outputs": [],
      "stateMutability": "nonpayable",
      "type": "function"
    },
    {
      "inputs": [
        {
          "internalType": "address",
          "name": "owner",
          "type": "address"
        }
      ],
      "name": "balanceOf",
      "outputs": [
        {
          "internalType": "uint256",
          "name": "",
          "type": "uint256"
        }
      ],
      "stateMutability": "view",
      "type": "function"
    },
    {
      "inputs": [
        {
          "internalType": "address",
          "name": "to",
          "type": "address"
        },
        {
          "internalType": "uint256",
          "name": "tokenId",
          "type": "uint256"
        }
      ],
      "name": "crossFromOrd",
      "outputs": [],
      "stateMutability": "nonpayable",
      "type": "function"
    },
    {
      "inputs": [
        {
          "internalType": "string",
          "name": "to",
          "type": "string"
        },
        {
          "internalType": "uint256[]",
          "name": "tokenIds",
          "type": "uint256[]"
        }
      ],
      "name": "crossToOrd",
      "outputs": [],
      "stateMutability": "payable",
      "type": "function"
    },
    {
      "inputs": [],
      "name": "executor",
      "outputs": [
        {
          "internalType": "address",
          "name": "",
          "type": "address"
        }
      ],
      "stateMutability": "view",
      "type": "function"
    },
    {
      "inputs": [
        {
          "internalType": "uint256",
          "name": "tokenId",
          "type": "uint256"
        }
      ],
      "name": "getApproved",
      "outputs": [
        {
          "internalType": "address",
          "name": "",
          "type": "address"
        }
      ],
      "stateMutability": "view",
      "type": "function"
    },
    {
      "inputs": [
        {
          "internalType": "address",
          "name": "_executor",
          "type": "address"
        }
      ],
      "name": "initialize",
      "outputs": [],
      "stateMutability": "nonpayable",
      "type": "function"
    },
    {
      "inputs": [
        {
          "internalType": "address",
          "name": "owner",
          "type": "address"
        },
        {
          "internalType": "address",
          "name": "operator",
          "type": "address"
        }
      ],
      "name": "isApprovedForAll",
      "outputs": [
        {
          "internalType": "bool",
          "name": "",
          "type": "bool"
        }
      ],
      "stateMutability": "view",
      "type": "function"
    },
    {
      "inputs": [],
      "name": "name",
      "outputs": [
        {
          "internalType": "string",
          "name": "",
          "type": "string"
        }
      ],
      "stateMutability": "view",
      "type": "function"
    },
    {
      "inputs": [
        {
          "internalType": "address",
          "name": "",
          "type": "address"
        },
        {
          "internalType": "address",
          "name": "",
          "type": "address"
        },
        {
          "internalType": "uint256",
          "name": "",
          "type": "uint256"
        },
        {
          "internalType": "bytes",
          "name": "",
          "type": "bytes"
        }
      ],
      "name": "onERC721Received",
      "outputs": [
        {
          "internalType": "bytes4",
          "name": "",
          "type": "bytes4"
        }
      ],
      "stateMutability": "nonpayable",
      "type": "function"
    },
    {
      "inputs": [],
      "name": "owner",
      "outputs": [
        {
          "internalType": "address",
          "name": "",
          "type": "address"
        }
      ],
      "stateMutability": "view",
      "type": "function"
    },
    {
      "inputs": [
        {
          "internalType": "uint256",
          "name": "tokenId",
          "type": "uint256"
        }
      ],
      "name": "ownerOf",
      "outputs": [
        {
          "internalType": "address",
          "name": "",
          "type": "address"
        }
      ],
      "stateMutability": "view",
      "type": "function"
    },
    {
      "inputs": [],
      "name": "paused",
      "outputs": [
        {
          "internalType": "bool",
          "name": "",
          "type": "bool"
        }
      ],
      "stateMutability": "view",
      "type": "function"
    },
    {
      "inputs": [],
      "name": "renounceOwnership",
      "outputs": [],
      "stateMutability": "nonpayable",
      "type": "function"
    },
    {
      "inputs": [
        {
          "internalType": "address",
          "name": "from",
          "type": "address"
        },
        {
          "internalType": "address",
          "name": "to",
          "type": "address"
        },
        {
          "internalType": "uint256",
          "name": "tokenId",
          "type": "uint256"
        }
      ],
      "name": "safeTransferFrom",
      "outputs": [],
      "stateMutability": "nonpayable",
      "type": "function"
    },
    {
      "inputs": [
        {
          "internalType": "address",
          "name": "from",
          "type": "address"
        },
        {
          "internalType": "address",
          "name": "to",
          "type": "address"
        },
        {
          "internalType": "uint256",
          "name": "tokenId",
          "type": "uint256"
        },
        {
          "internalType": "bytes",
          "name": "data",
          "type": "bytes"
        }
      ],
      "name": "safeTransferFrom",
      "outputs": [],
      "stateMutability": "nonpayable",
      "type": "function"
    },
    {
      "inputs": [
        {
          "internalType": "address",
          "name": "operator",
          "type": "address"
        },
        {
          "internalType": "bool",
          "name": "approved",
          "type": "bool"
        }
      ],
      "name": "setApprovalForAll",
      "outputs": [],
      "stateMutability": "nonpayable",
      "type": "function"
    },
    {
      "inputs": [
        {
          "internalType": "address",
          "name": "_executor",
          "type": "address"
        }
      ],
      "name": "setExecutor",
      "outputs": [],
      "stateMutability": "nonpayable",
      "type": "function"
    },
    {
      "inputs": [
        {
          "internalType": "bytes4",
          "name": "interfaceId",
          "type": "bytes4"
        }
      ],
      "name": "supportsInterface",
      "outputs": [
        {
          "internalType": "bool",
          "name": "",
          "type": "bool"
        }
      ],
      "stateMutability": "view",
      "type": "function"
    },
    {
      "inputs": [],
      "name": "symbol",
      "outputs": [
        {
          "internalType": "string",
          "name": "",
          "type": "string"
        }
      ],
      "stateMutability": "view",
      "type": "function"
    },
    {
      "inputs": [
        {
          "internalType": "uint256",
          "name": "index",
          "type": "uint256"
        }
      ],
      "name": "tokenByIndex",
      "outputs": [
        {
          "internalType": "uint256",
          "name": "",
          "type": "uint256"
        }
      ],
      "stateMutability": "view",
      "type": "function"
    },
    {
      "inputs": [
        {
          "internalType": "address",
          "name": "owner",
          "type": "address"
        },
        {
          "internalType": "uint256",
          "name": "index",
          "type": "uint256"
        }
      ],
      "name": "tokenOfOwnerByIndex",
      "outputs": [
        {
          "internalType": "uint256",
          "name": "",
          "type": "uint256"
        }
      ],
      "stateMutability": "view",
      "type": "function"
    },
    {
      "inputs": [
        {
          "internalType": "uint256",
          "name": "tokenId",
          "type": "uint256"
        }
      ],
      "name": "tokenURI",
      "outputs": [
        {
          "internalType": "string",
          "name": "",
          "type": "string"
        }
      ],
      "stateMutability": "view",
      "type": "function"
    },
    {
      "inputs": [],
      "name": "totalSupply",
      "outputs": [
        {
          "internalType": "uint256",
          "name": "",
          "type": "uint256"
        }
      ],
      "stateMutability": "view",
      "type": "function"
    },
    {
      "inputs": [
        {
          "internalType": "address",
          "name": "from",
          "type": "address"
        },
        {
          "internalType": "address",
          "name": "to",
          "type": "address"
        },
        {
          "internalType": "uint256",
          "name": "tokenId",
          "type": "uint256"
        }
      ],
      "name": "transferFrom",
      "outputs": [],
      "stateMutability": "nonpayable",
      "type": "function"
    },
    {
      "inputs": [
        {
          "internalType": "address",
          "name": "newOwner",
          "type": "address"
        }
      ],
      "name": "transferOwnership",
      "outputs": [],
      "stateMutability": "nonpayable",
      "type": "function"
    },
    {
      "inputs": [
        {
          "internalType": "address",
          "name": "to",
          "type": "address"
        },
        {
          "internalType": "uint256",
          "name": "amount",
          "type": "uint256"
        }
      ],
      "name": "withdrawFee",
      "outputs": [],
      "stateMutability": "nonpayable",
      "type": "function"
    }
  ],
  "transactionHash": "0x20769f4435addb7fdff7e5c7abb19324c59b69a7f1a5f028f5c81d86dabda352",
  "args": [],
  "numDeployments": 2,
  "solcInputHash": "8d8eb3fd6d1abc3692a38cdc950e1676",
  "bytecode": "0x608060405234801561001057600080fd5b50612515806100206000396000f3fe6080604052600436106101775760003560e01c806370a08231116100cc578063c34c08e51161007a578063c34c08e514610439578063c4d66de81461045a578063c87b56dd1461047a578063d48efd691461049a578063e985e9c5146104ba578063f2fde38b146104da578063fd9be522146104fa57600080fd5b806370a082311461037e578063715018a61461039e578063898ad6b0146103b35780638da5cb5b146103c657806395d89b41146103e4578063a22cb465146103f9578063b88d4fde1461041957600080fd5b80631c3c0ea8116101295780631c3c0ea8146102a657806323b872dd146102c65780632f745c59146102e657806342842e0e146103065780634f6ccce7146103265780635c975abb146103465780636352211e1461035e57600080fd5b806301ffc9a71461017c57806306fdde03146101b1578063081812fc146101d3578063095ea7b31461020b578063150b7a021461022d578063176a72811461026657806318160ddd14610286575b600080fd5b34801561018857600080fd5b5061019c610197366004611d41565b61051a565b60405190151581526020015b60405180910390f35b3480156101bd57600080fd5b506101c6610545565b6040516101a89190611db6565b3480156101df57600080fd5b506101f36101ee366004611dc9565b6105d7565b6040516001600160a01b0390911681526020016101a8565b34801561021757600080fd5b5061022b610226366004611dfe565b6105fe565b005b34801561023957600080fd5b5061024d610248366004611eb4565b610719565b6040516001600160e01b031990911681526020016101a8565b34801561027257600080fd5b5061022b610281366004611f50565b61072a565b34801561029257600080fd5b5061012f545b6040519081526020016101a8565b3480156102b257600080fd5b5061022b6102c1366004611fc4565b61084c565b3480156102d257600080fd5b5061022b6102e1366004611fdf565b610877565b3480156102f257600080fd5b50610298610301366004611dfe565b6108a8565b34801561031257600080fd5b5061022b610321366004611fdf565b61093f565b34801561033257600080fd5b50610298610341366004611dc9565b61095a565b34801561035257600080fd5b5060655460ff1661019c565b34801561036a57600080fd5b506101f3610379366004611dc9565b6109ef565b34801561038a57600080fd5b50610298610399366004611fc4565b610a24565b3480156103aa57600080fd5b5061022b610aaa565b61022b6103c136600461201b565b610abe565b3480156103d257600080fd5b506033546001600160a01b03166101f3565b3480156103f057600080fd5b506101c6610bd7565b34801561040557600080fd5b5061022b6104143660046120e0565b610be6565b34801561042557600080fd5b5061022b610434366004611eb4565b610bf5565b34801561044557600080fd5b50610191546101f3906001600160a01b031681565b34801561046657600080fd5b5061022b610475366004611fc4565b610c27565b34801561048657600080fd5b506101c6610495366004611dc9565b610d38565b3480156104a657600080fd5b5061022b6104b5366004611dfe565b610d9f565b3480156104c657600080fd5b5061019c6104d536600461211c565b610e5f565b3480156104e657600080fd5b5061022b6104f5366004611fc4565b610e8e565b34801561050657600080fd5b5061022b610515366004611dfe565b610f07565b60006001600160e01b0319821663780e9d6360e01b148061053f575061053f82610f5e565b92915050565b606060fb80546105549061214f565b80601f01602080910402602001604051908101604052809291908181526020018280546105809061214f565b80156105cd5780601f106105a2576101008083540402835291602001916105cd565b820191906000526020600020905b8154815290600101906020018083116105b057829003601f168201915b5050505050905090565b60006105e282610fae565b50600090815260ff60205260409020546001600160a01b031690565b6000610609826109ef565b9050806001600160a01b0316836001600160a01b0316141561067c5760405162461bcd60e51b815260206004820152602160248201527f4552433732313a20617070726f76616c20746f2063757272656e74206f776e656044820152603960f91b60648201526084015b60405180910390fd5b336001600160a01b038216148061069857506106988133610e5f565b61070a5760405162461bcd60e51b815260206004820152603d60248201527f4552433732313a20617070726f76652063616c6c6572206973206e6f7420746f60448201527f6b656e206f776e6572206f7220617070726f76656420666f7220616c6c0000006064820152608401610673565b6107148383610fd3565b505050565b630a85bd0160e11b5b949350505050565b600054610100900460ff161580801561074a5750600054600160ff909116105b806107645750303b158015610764575060005460ff166001145b6107805760405162461bcd60e51b81526004016106739061218a565b6000805460ff1916600117905580156107a3576000805461ff0019166101001790555b6107ab611041565b6107b3611070565b6107bd848461109f565b6001600160a01b0382166107e35761019180546001600160a01b03191633179055610800565b61019180546001600160a01b0319166001600160a01b0384161790555b8015610846576000805461ff0019169055604051600181527f7f26b83ff96e1f2b6a682f133852f6798a09c465da95921460cefb38474024989060200160405180910390a15b50505050565b6108546110d0565b61019180546001600160a01b0319166001600160a01b0392909216919091179055565b610881338261112a565b61089d5760405162461bcd60e51b8152600401610673906121d8565b610714838383611188565b60006108b383610a24565b82106109155760405162461bcd60e51b815260206004820152602b60248201527f455243373231456e756d657261626c653a206f776e657220696e646578206f7560448201526a74206f6620626f756e647360a81b6064820152608401610673565b506001600160a01b0391909116600090815261012d60209081526040808320938352929052205490565b61071483838360405180602001604052806000815250610bf5565b600061096661012f5490565b82106109c95760405162461bcd60e51b815260206004820152602c60248201527f455243373231456e756d657261626c653a20676c6f62616c20696e646578206f60448201526b7574206f6620626f756e647360a01b6064820152608401610673565b61012f82815481106109dd576109dd612225565b90600052602060002001549050919050565b600081815260fd60205260408120546001600160a01b03168061053f5760405162461bcd60e51b81526004016106739061223b565b60006001600160a01b038216610a8e5760405162461bcd60e51b815260206004820152602960248201527f4552433732313a2061646472657373207a65726f206973206e6f7420612076616044820152683634b21037bbb732b960b91b6064820152608401610673565b506001600160a01b0316600090815260fe602052604090205490565b610ab26110d0565b610abc60006112f9565b565b610ac661134b565b610ace611391565b610adf8166071afd498d0000612283565b341015610b1f5760405162461bcd60e51b815260206004820152600e60248201526d6e6565642063726f73732067617360901b6044820152606401610673565b60005b81811015610bcc57610b4d3330858585818110610b4157610b41612225565b9050602002013561093f565b828282818110610b5f57610b5f612225565b905060200201358585604051610b769291906122a2565b6040518091039020610b853390565b6001600160a01b03167fbdbd6b0e0c64ed3c93b68dad128effd14b54b8af3e56c070e3a7af1f7e02613f60405160405180910390a480610bc4816122b2565b915050610b22565b506108466001609755565b606060fc80546105549061214f565b610bf13383836113eb565b5050565b610bff338361112a565b610c1b5760405162461bcd60e51b8152600401610673906121d8565b610846848484846114b7565b600054610100900460ff1615808015610c475750600054600160ff909116105b80610c615750303b158015610c61575060005460ff166001145b610c7d5760405162461bcd60e51b81526004016106739061218a565b6000805460ff191660011790558015610ca0576000805461ff0019166101001790555b610cef6040518060400160405280600f81526020016e57726170426974636f696e46726f6760881b815250604051806040016040528060058152602001645746524f4760d81b8152508461072a565b8015610bf1576000805461ff0019169055604051600181527f7f26b83ff96e1f2b6a682f133852f6798a09c465da95921460cefb38474024989060200160405180910390a15050565b6060610d4382610fae565b6000610d4d6114ea565b90506000815111610d6d5760405180602001604052806000815250610d98565b80610d778461150a565b604051602001610d889291906122cd565b6040516020818303038152906040525b9392505050565b610191546001600160a01b0316336001600160a01b031614610dc057600080fd5b610dc861134b565b610dd0611391565b610dd9816115a7565b610dec57610de782826115c4565b610e55565b30610df6826109ef565b6001600160a01b031614610e3a5760405162461bcd60e51b815260206004820152600b60248201526a1b9bdd081c1b195919d95960aa1b6044820152606401610673565b610e55308383604051806020016040528060008152506114b7565b610bf16001609755565b6001600160a01b0391821660009081526101006020908152604080832093909416825291909152205460ff1690565b610e966110d0565b6001600160a01b038116610efb5760405162461bcd60e51b815260206004820152602660248201527f4f776e61626c653a206e6577206f776e657220697320746865207a65726f206160448201526564647265737360d01b6064820152608401610673565b610f04816112f9565b50565b610191546001600160a01b0316336001600160a01b031614610f2857600080fd5b6040516001600160a01b0383169082156108fc029083906000818181858888f19350505050158015610714573d6000803e3d6000fd5b60006001600160e01b031982166380ac58cd60e01b1480610f8f57506001600160e01b03198216635b5e139f60e01b145b8061053f57506301ffc9a760e01b6001600160e01b031983161461053f565b610fb7816115a7565b610f045760405162461bcd60e51b81526004016106739061223b565b600081815260ff6020526040902080546001600160a01b0319166001600160a01b0384169081179091558190611008826109ef565b6001600160a01b03167f8c5be1e5ebec7d5bd14f71427d1e84f3dd0314c0f7b2291e5b200ac8c7c3b92560405160405180910390a45050565b600054610100900460ff166110685760405162461bcd60e51b8152600401610673906122fc565b610abc6115de565b600054610100900460ff166110975760405162461bcd60e51b8152600401610673906122fc565b610abc61160e565b600054610100900460ff166110c65760405162461bcd60e51b8152600401610673906122fc565b610bf18282611641565b6033546001600160a01b03163314610abc5760405162461bcd60e51b815260206004820181905260248201527f4f776e61626c653a2063616c6c6572206973206e6f7420746865206f776e65726044820152606401610673565b600080611136836109ef565b9050806001600160a01b0316846001600160a01b0316148061115d575061115d8185610e5f565b806107225750836001600160a01b0316611176846105d7565b6001600160a01b031614949350505050565b826001600160a01b031661119b826109ef565b6001600160a01b0316146111c15760405162461bcd60e51b815260040161067390612347565b6001600160a01b0382166112235760405162461bcd60e51b8152602060048201526024808201527f4552433732313a207472616e7366657220746f20746865207a65726f206164646044820152637265737360e01b6064820152608401610673565b611230838383600161168f565b826001600160a01b0316611243826109ef565b6001600160a01b0316146112695760405162461bcd60e51b815260040161067390612347565b600081815260ff6020908152604080832080546001600160a01b03199081169091556001600160a01b0387811680865260fe855283862080546000190190559087168086528386208054600101905586865260fd90945282852080549092168417909155905184937fddf252ad1be2c89b69c2b068fc378daa952ba7f163c4a11628f55a4df523b3ef91a4505050565b603380546001600160a01b038381166001600160a01b0319831681179093556040519116919082907f8be0079c531659141344cd1fd0a4f28419497f9722a3daafe3b4186f6b6457e090600090a35050565b60655460ff1615610abc5760405162461bcd60e51b815260206004820152601060248201526f14185d5cd8589b194e881c185d5cd95960821b6044820152606401610673565b600260975414156113e45760405162461bcd60e51b815260206004820152601f60248201527f5265656e7472616e637947756172643a207265656e7472616e742063616c6c006044820152606401610673565b6002609755565b816001600160a01b0316836001600160a01b031614156114495760405162461bcd60e51b815260206004820152601960248201527822a9219b99189d1030b8383937bb32903a379031b0b63632b960391b6044820152606401610673565b6001600160a01b0383811660008181526101006020908152604080832094871680845294825291829020805460ff191686151590811790915591519182527f17307eab39ab6107e8899845ad3d59bd9653f200f220920489ca2b5937696c31910160405180910390a3505050565b6114c2848484611188565b6114ce848484846117c5565b6108465760405162461bcd60e51b81526004016106739061238c565b606060405180608001604052806043815260200161249d60439139905090565b60606000611517836118cf565b600101905060008167ffffffffffffffff81111561153757611537611e28565b6040519080825280601f01601f191660200182016040528015611561576020820181803683370190505b5090508181016020015b600019016f181899199a1a9b1b9c1cb0b131b232b360811b600a86061a8153600a850494508461159a5761159f565b61156b565b509392505050565b600090815260fd60205260409020546001600160a01b0316151590565b610bf18282604051806020016040528060008152506119a7565b600054610100900460ff166116055760405162461bcd60e51b8152600401610673906122fc565b610abc336112f9565b600054610100900460ff166116355760405162461bcd60e51b8152600401610673906122fc565b6065805460ff19169055565b600054610100900460ff166116685760405162461bcd60e51b8152600401610673906122fc565b815161167b9060fb906020850190611c92565b5080516107149060fc906020840190611c92565b60018111156116fe5760405162461bcd60e51b815260206004820152603560248201527f455243373231456e756d657261626c653a20636f6e7365637574697665207472604482015274185b9cd9995c9cc81b9bdd081cdd5c1c1bdc9d1959605a1b6064820152608401610673565b816001600160a01b03851661175c576117578161012f8054600083815261013060205260408120829055600182018355919091527f232da9e50dad2971456a78fb5cd6ff6b75019984d6e918139ce990999420f9790155565b61177f565b836001600160a01b0316856001600160a01b03161461177f5761177f85826119da565b6001600160a01b03841661179b5761179681611a7c565b6117be565b846001600160a01b0316846001600160a01b0316146117be576117be8482611b31565b5050505050565b60006001600160a01b0384163b156118c757604051630a85bd0160e11b81526001600160a01b0385169063150b7a02906118099033908990889088906004016123de565b602060405180830381600087803b15801561182357600080fd5b505af1925050508015611853575060408051601f3d908101601f191682019092526118509181019061241b565b60015b6118ad573d808015611881576040519150601f19603f3d011682016040523d82523d6000602084013e611886565b606091505b5080516118a55760405162461bcd60e51b81526004016106739061238c565b805181602001fd5b6001600160e01b031916630a85bd0160e11b149050610722565b506001610722565b60008072184f03e93ff9f4daa797ed6e38ed64bf6a1f0160401b831061190e5772184f03e93ff9f4daa797ed6e38ed64bf6a1f0160401b830492506040015b6d04ee2d6d415b85acef8100000000831061193a576d04ee2d6d415b85acef8100000000830492506020015b662386f26fc10000831061195857662386f26fc10000830492506010015b6305f5e1008310611970576305f5e100830492506008015b612710831061198457612710830492506004015b60648310611996576064830492506002015b600a831061053f5760010192915050565b6119b18383611b77565b6119be60008484846117c5565b6107145760405162461bcd60e51b81526004016106739061238c565b600060016119e784610a24565b6119f19190612438565b600083815261012e6020526040902054909150808214611a47576001600160a01b038416600090815261012d60209081526040808320858452825280832054848452818420819055835261012e90915290208190555b50600091825261012e602090815260408084208490556001600160a01b03909416835261012d81528383209183525290812055565b61012f54600090611a8f90600190612438565b6000838152610130602052604081205461012f8054939450909284908110611ab957611ab9612225565b906000526020600020015490508061012f8381548110611adb57611adb612225565b6000918252602080832090910192909255828152610130909152604080822084905585825281205561012f805480611b1557611b1561244f565b6001900381819060005260206000200160009055905550505050565b6000611b3c83610a24565b6001600160a01b03909316600090815261012d60209081526040808320868452825280832085905593825261012e9052919091209190915550565b6001600160a01b038216611bcd5760405162461bcd60e51b815260206004820181905260248201527f4552433732313a206d696e7420746f20746865207a65726f20616464726573736044820152606401610673565b611bd6816115a7565b15611bf35760405162461bcd60e51b815260040161067390612465565b611c0160008383600161168f565b611c0a816115a7565b15611c275760405162461bcd60e51b815260040161067390612465565b6001600160a01b038216600081815260fe602090815260408083208054600101905584835260fd90915280822080546001600160a01b0319168417905551839291907fddf252ad1be2c89b69c2b068fc378daa952ba7f163c4a11628f55a4df523b3ef908290a45050565b828054611c9e9061214f565b90600052602060002090601f016020900481019282611cc05760008555611d06565b82601f10611cd957805160ff1916838001178555611d06565b82800160010185558215611d06579182015b82811115611d06578251825591602001919060010190611ceb565b50611d12929150611d16565b5090565b5b80821115611d125760008155600101611d17565b6001600160e01b031981168114610f0457600080fd5b600060208284031215611d5357600080fd5b8135610d9881611d2b565b60005b83811015611d79578181015183820152602001611d61565b838111156108465750506000910152565b60008151808452611da2816020860160208601611d5e565b601f01601f19169290920160200192915050565b602081526000610d986020830184611d8a565b600060208284031215611ddb57600080fd5b5035919050565b80356001600160a01b0381168114611df957600080fd5b919050565b60008060408385031215611e1157600080fd5b611e1a83611de2565b946020939093013593505050565b634e487b7160e01b600052604160045260246000fd5b600067ffffffffffffffff80841115611e5957611e59611e28565b604051601f8501601f19908116603f01168101908282118183101715611e8157611e81611e28565b81604052809350858152868686011115611e9a57600080fd5b858560208301376000602087830101525050509392505050565b60008060008060808587031215611eca57600080fd5b611ed385611de2565b9350611ee160208601611de2565b925060408501359150606085013567ffffffffffffffff811115611f0457600080fd5b8501601f81018713611f1557600080fd5b611f2487823560208401611e3e565b91505092959194509250565b600082601f830112611f4157600080fd5b610d9883833560208501611e3e565b600080600060608486031215611f6557600080fd5b833567ffffffffffffffff80821115611f7d57600080fd5b611f8987838801611f30565b94506020860135915080821115611f9f57600080fd5b50611fac86828701611f30565b925050611fbb60408501611de2565b90509250925092565b600060208284031215611fd657600080fd5b610d9882611de2565b600080600060608486031215611ff457600080fd5b611ffd84611de2565b925061200b60208501611de2565b9150604084013590509250925092565b6000806000806040858703121561203157600080fd5b843567ffffffffffffffff8082111561204957600080fd5b818701915087601f83011261205d57600080fd5b81358181111561206c57600080fd5b88602082850101111561207e57600080fd5b60209283019650945090860135908082111561209957600080fd5b818701915087601f8301126120ad57600080fd5b8135818111156120bc57600080fd5b8860208260051b85010111156120d157600080fd5b95989497505060200194505050565b600080604083850312156120f357600080fd5b6120fc83611de2565b91506020830135801515811461211157600080fd5b809150509250929050565b6000806040838503121561212f57600080fd5b61213883611de2565b915061214660208401611de2565b90509250929050565b600181811c9082168061216357607f821691505b6020821081141561218457634e487b7160e01b600052602260045260246000fd5b50919050565b6020808252602e908201527f496e697469616c697a61626c653a20636f6e747261637420697320616c72656160408201526d191e481a5b9a5d1a585b1a5e995960921b606082015260800190565b6020808252602d908201527f4552433732313a2063616c6c6572206973206e6f7420746f6b656e206f776e6560408201526c1c881bdc88185c1c1c9bdd9959609a1b606082015260800190565b634e487b7160e01b600052603260045260246000fd5b602080825260189082015277115490cdcc8c4e881a5b9d985b1a59081d1bdad95b88125160421b604082015260600190565b634e487b7160e01b600052601160045260246000fd5b600081600019048311821515161561229d5761229d61226d565b500290565b8183823760009101908152919050565b60006000198214156122c6576122c661226d565b5060010190565b600083516122df818460208801611d5e565b8351908301906122f3818360208801611d5e565b01949350505050565b6020808252602b908201527f496e697469616c697a61626c653a20636f6e7472616374206973206e6f74206960408201526a6e697469616c697a696e6760a81b606082015260800190565b60208082526025908201527f4552433732313a207472616e736665722066726f6d20696e636f72726563742060408201526437bbb732b960d91b606082015260800190565b60208082526032908201527f4552433732313a207472616e7366657220746f206e6f6e20455243373231526560408201527131b2b4bb32b91034b6b83632b6b2b73a32b960711b606082015260800190565b6001600160a01b038581168252841660208201526040810183905260806060820181905260009061241190830184611d8a565b9695505050505050565b60006020828403121561242d57600080fd5b8151610d9881611d2b565b60008282101561244a5761244a61226d565b500390565b634e487b7160e01b600052603160045260246000fd5b6020808252601c908201527f4552433732313a20746f6b656e20616c7265616479206d696e7465640000000060408201526060019056fe697066733a2f2f626166796265696679627735756279657034783463647963716e6277756275686b756170696d6f72346d346e3732366b34676f616a63627866776d2fa2646970667358221220071bbbab76b264cbc7a33ac3f0a7f2b63d7cf1a108f80c17390ae9e098ee915c64736f6c63430008090033",
  "devdoc": {
    "kind": "dev",
    "methods": {
      "approve(address,uint256)": {
        "details": "See {IERC721-approve}."
      },
      "balanceOf(address)": {
        "details": "See {IERC721-balanceOf}."
      },
      "getApproved(uint256)": {
        "details": "See {IERC721-getApproved}."
      },
      "isApprovedForAll(address,address)": {
        "details": "See {IERC721-isApprovedForAll}."
      },
      "name()": {
        "details": "See {IERC721Metadata-name}."
      },
      "onERC721Received(address,address,uint256,bytes)": {
        "details": "See {IERC721Receiver-onERC721Received}. Always returns `IERC721Receiver.onERC721Received.selector`."
      },
      "owner()": {
        "details": "Returns the address of the current owner."
      },
      "ownerOf(uint256)": {
        "details": "See {IERC721-ownerOf}."
      },
      "paused()": {
        "details": "Returns true if the contract is paused, and false otherwise."
      },
      "renounceOwnership()": {
        "details": "Leaves the contract without owner. It will not be possible to call `onlyOwner` functions. Can only be called by the current owner. NOTE: Renouncing ownership will leave the contract without an owner, thereby disabling any functionality that is only available to the owner."
      },
      "safeTransferFrom(address,address,uint256)": {
        "details": "See {IERC721-safeTransferFrom}."
      },
      "safeTransferFrom(address,address,uint256,bytes)": {
        "details": "See {IERC721-safeTransferFrom}."
      },
      "setApprovalForAll(address,bool)": {
        "details": "See {IERC721-setApprovalForAll}."
      },
      "supportsInterface(bytes4)": {
        "details": "See {IERC165-supportsInterface}."
      },
      "symbol()": {
        "details": "See {IERC721Metadata-symbol}."
      },
      "tokenByIndex(uint256)": {
        "details": "See {IERC721Enumerable-tokenByIndex}."
      },
      "tokenOfOwnerByIndex(address,uint256)": {
        "details": "See {IERC721Enumerable-tokenOfOwnerByIndex}."
      },
      "tokenURI(uint256)": {
        "details": "See {IERC721Metadata-tokenURI}."
      },
      "totalSupply()": {
        "details": "See {IERC721Enumerable-totalSupply}."
      },
      "transferFrom(address,address,uint256)": {
        "details": "See {IERC721-transferFrom}."
      },
      "transferOwnership(address)": {
        "details": "Transfers ownership of the contract to a new account (`newOwner`). Can only be called by the current owner."
      }
    },
    "version": 1
  },
  "userdoc": {
    "kind": "user",
    "methods": {},
    "version": 1
  },
  "storageLayout": {
    "storage": [
      {
        "astId": 139,
        "contract": "contracts/ordNfts/WFROG.sol:WFROG",
        "label": "_initialized",
        "offset": 0,
        "slot": "0",
        "type": "t_uint8"
      },
      {
        "astId": 142,
        "contract": "contracts/ordNfts/WFROG.sol:WFROG",
        "label": "_initializing",
        "offset": 1,
        "slot": "0",
        "type": "t_bool"
      },
      {
        "astId": 2462,
        "contract": "contracts/ordNfts/WFROG.sol:WFROG",
        "label": "__gap",
        "offset": 0,
        "slot": "1",
        "type": "t_array(t_uint256)50_storage"
      },
      {
        "astId": 11,
        "contract": "contracts/ordNfts/WFROG.sol:WFROG",
        "label": "_owner",
        "offset": 0,
        "slot": "51",
        "type": "t_address"
      },
      {
        "astId": 131,
        "contract": "contracts/ordNfts/WFROG.sol:WFROG",
        "label": "__gap",
        "offset": 0,
        "slot": "52",
        "type": "t_array(t_uint256)49_storage"
      },
      {
        "astId": 323,
        "contract": "contracts/ordNfts/WFROG.sol:WFROG",
        "label": "_paused",
        "offset": 0,
        "slot": "101",
        "type": "t_bool"
      },
      {
        "astId": 428,
        "contract": "contracts/ordNfts/WFROG.sol:WFROG",
        "label": "__gap",
        "offset": 0,
        "slot": "102",
        "type": "t_array(t_uint256)49_storage"
      },
      {
        "astId": 444,
        "contract": "contracts/ordNfts/WFROG.sol:WFROG",
        "label": "_status",
        "offset": 0,
        "slot": "151",
        "type": "t_uint256"
      },
      {
        "astId": 513,
        "contract": "contracts/ordNfts/WFROG.sol:WFROG",
        "label": "__gap",
        "offset": 0,
        "slot": "152",
        "type": "t_array(t_uint256)49_storage"
      },
      {
        "astId": 2736,
        "contract": "contracts/ordNfts/WFROG.sol:WFROG",
        "label": "__gap",
        "offset": 0,
        "slot": "201",
        "type": "t_array(t_uint256)50_storage"
      },
      {
        "astId": 544,
        "contract": "contracts/ordNfts/WFROG.sol:WFROG",
        "label": "_name",
        "offset": 0,
        "slot": "251",
        "type": "t_string_storage"
      },
      {
        "astId": 546,
        "contract": "contracts/ordNfts/WFROG.sol:WFROG",
        "label": "_symbol",
        "offset": 0,
        "slot": "252",
        "type": "t_string_storage"
      },
      {
        "astId": 550,
        "contract": "contracts/ordNfts/WFROG.sol:WFROG",
        "label": "_owners",
        "offset": 0,
        "slot": "253",
        "type": "t_mapping(t_uint256,t_address)"
      },
      {
        "astId": 554,
        "contract": "contracts/ordNfts/WFROG.sol:WFROG",
        "label": "_balances",
        "offset": 0,
        "slot": "254",
        "type": "t_mapping(t_address,t_uint256)"
      },
      {
        "astId": 558,
        "contract": "contracts/ordNfts/WFROG.sol:WFROG",
        "label": "_tokenApprovals",
        "offset": 0,
        "slot": "255",
        "type": "t_mapping(t_uint256,t_address)"
      },
      {
        "astId": 564,
        "contract": "contracts/ordNfts/WFROG.sol:WFROG",
        "label": "_operatorApprovals",
        "offset": 0,
        "slot": "256",
        "type": "t_mapping(t_address,t_mapping(t_address,t_bool))"
      },
      {
        "astId": 1466,
        "contract": "contracts/ordNfts/WFROG.sol:WFROG",
        "label": "__gap",
        "offset": 0,
        "slot": "257",
        "type": "t_array(t_uint256)44_storage"
      },
      {
        "astId": 1620,
        "contract": "contracts/ordNfts/WFROG.sol:WFROG",
        "label": "_ownedTokens",
        "offset": 0,
        "slot": "301",
        "type": "t_mapping(t_address,t_mapping(t_uint256,t_uint256))"
      },
      {
        "astId": 1624,
        "contract": "contracts/ordNfts/WFROG.sol:WFROG",
        "label": "_ownedTokensIndex",
        "offset": 0,
        "slot": "302",
        "type": "t_mapping(t_uint256,t_uint256)"
      },
      {
        "astId": 1627,
        "contract": "contracts/ordNfts/WFROG.sol:WFROG",
        "label": "_allTokens",
        "offset": 0,
        "slot": "303",
        "type": "t_array(t_uint256)dyn_storage"
      },
      {
        "astId": 1631,
        "contract": "contracts/ordNfts/WFROG.sol:WFROG",
        "label": "_allTokensIndex",
        "offset": 0,
        "slot": "304",
        "type": "t_mapping(t_uint256,t_uint256)"
      },
      {
        "astId": 1975,
        "contract": "contracts/ordNfts/WFROG.sol:WFROG",
        "label": "__gap",
        "offset": 0,
        "slot": "305",
        "type": "t_array(t_uint256)46_storage"
      },
      {
        "astId": 2081,
        "contract": "contracts/ordNfts/WFROG.sol:WFROG",
        "label": "__gap",
        "offset": 0,
        "slot": "351",
        "type": "t_array(t_uint256)50_storage"
      },
      {
        "astId": 3904,
        "contract": "contracts/ordNfts/WFROG.sol:WFROG",
        "label": "executor",
        "offset": 0,
        "slot": "401",
        "type": "t_address"
      }
    ],
    "types": {
      "t_address": {
        "encoding": "inplace",
        "label": "address",
        "numberOfBytes": "20"
      },
      "t_array(t_uint256)44_storage": {
        "base": "t_uint256",
        "encoding": "inplace",
        "label": "uint256[44]",
        "numberOfBytes": "1408"
      },
      "t_array(t_uint256)46_storage": {
        "base": "t_uint256",
        "encoding": "inplace",
        "label": "uint256[46]",
        "numberOfBytes": "1472"
      },
      "t_array(t_uint256)49_storage": {
        "base": "t_uint256",
        "encoding": "inplace",
        "label": "uint256[49]",
        "numberOfBytes": "1568"
      },
      "t_array(t_uint256)50_storage": {
        "base": "t_uint256",
        "encoding": "inplace",
        "label": "uint256[50]",
        "numberOfBytes": "1600"
      },
      "t_array(t_uint256)dyn_storage": {
        "base": "t_uint256",
        "encoding": "dynamic_array",
        "label": "uint256[]",
        "numberOfBytes": "32"
      },
      "t_bool": {
        "encoding": "inplace",
        "label": "bool",
        "numberOfBytes": "1"
      },
      "t_mapping(t_address,t_bool)": {
        "encoding": "mapping",
        "key": "t_address",
        "label": "mapping(address => bool)",
        "numberOfBytes": "32",
        "value": "t_bool"
      },
      "t_mapping(t_address,t_mapping(t_address,t_bool))": {
        "encoding": "mapping",
        "key": "t_address",
        "label": "mapping(address => mapping(address => bool))",
        "numberOfBytes": "32",
        "value": "t_mapping(t_address,t_bool)"
      },
      "t_mapping(t_address,t_mapping(t_uint256,t_uint256))": {
        "encoding": "mapping",
        "key": "t_address",
        "label": "mapping(address => mapping(uint256 => uint256))",
        "numberOfBytes": "32",
        "value": "t_mapping(t_uint256,t_uint256)"
      },
      "t_mapping(t_address,t_uint256)": {
        "encoding": "mapping",
        "key": "t_address",
        "label": "mapping(address => uint256)",
        "numberOfBytes": "32",
        "value": "t_uint256"
      },
      "t_mapping(t_uint256,t_address)": {
        "encoding": "mapping",
        "key": "t_uint256",
        "label": "mapping(uint256 => address)",
        "numberOfBytes": "32",
        "value": "t_address"
      },
      "t_mapping(t_uint256,t_uint256)": {
        "encoding": "mapping",
        "key": "t_uint256",
        "label": "mapping(uint256 => uint256)",
        "numberOfBytes": "32",
        "value": "t_uint256"
      },
      "t_string_storage": {
        "encoding": "bytes",
        "label": "string",
        "numberOfBytes": "32"
      },
      "t_uint256": {
        "encoding": "inplace",
        "label": "uint256",
        "numberOfBytes": "32"
      },
      "t_uint8": {
        "encoding": "inplace",
        "label": "uint8",
        "numberOfBytes": "1"
      }
    }
  }
}