{
  "address": "0x71923bB09CE936f379C2E84Ba7ab569b5A837afd",
  "abi": [
    {
      "anonymous": false,
      "inputs": [
        {
          "indexed": true,
          "internalType": "address",
          "name": "owner",
          "type": "address"
        },
        {
          "indexed": true,
          "internalType": "address",
          "name": "approved",
          "type": "address"
        },
        {
          "indexed": true,
          "internalType": "uint256",
          "name": "tokenId",
          "type": "uint256"
        }
      ],
      "name": "Approval",
      "type": "event"
    },
    {
      "anonymous": false,
      "inputs": [
        {
          "indexed": true,
          "internalType": "address",
          "name": "owner",
          "type": "address"
        },
        {
          "indexed": true,
          "internalType": "address",
          "name": "operator",
          "type": "address"
        },
        {
          "indexed": false,
          "internalType": "bool",
          "name": "approved",
          "type": "bool"
        }
      ],
      "name": "ApprovalForAll",
      "type": "event"
    },
    {
      "anonymous": false,
      "inputs": [
        {
          "indexed": false,
          "internalType": "bytes32",
          "name": "_hashedPayload",
          "type": "bytes32"
        }
      ],
      "name": "CreditCleared",
      "type": "event"
    },
    {
      "anonymous": false,
      "inputs": [
        {
          "indexed": false,
          "internalType": "bytes32",
          "name": "_hashedPayload",
          "type": "bytes32"
        },
        {
          "indexed": false,
          "internalType": "bytes",
          "name": "_payload",
          "type": "bytes"
        }
      ],
      "name": "CreditStored",
      "type": "event"
    },
    {
      "anonymous": false,
      "inputs": [
        {
          "indexed": false,
          "internalType": "uint8",
          "name": "version",
          "type": "uint8"
        }
      ],
      "name": "Initialized",
      "type": "event"
    },
    {
      "anonymous": false,
      "inputs": [
        {
          "indexed": false,
          "internalType": "uint16",
          "name": "_srcChainId",
          "type": "uint16"
        },
        {
          "indexed": false,
          "internalType": "bytes",
          "name": "_srcAddress",
          "type": "bytes"
        },
        {
          "indexed": false,
          "internalType": "uint64",
          "name": "_nonce",
          "type": "uint64"
        },
        {
          "indexed": false,
          "internalType": "bytes",
          "name": "_payload",
          "type": "bytes"
        },
        {
          "indexed": false,
          "internalType": "bytes",
          "name": "_reason",
          "type": "bytes"
        }
      ],
      "name": "MessageFailed",
      "type": "event"
    },
    {
      "anonymous": false,
      "inputs": [
        {
          "indexed": true,
          "internalType": "address",
          "name": "previousOwner",
          "type": "address"
        },
        {
          "indexed": true,
          "internalType": "address",
          "name": "newOwner",
          "type": "address"
        }
      ],
      "name": "OwnershipTransferred",
      "type": "event"
    },
    {
      "anonymous": false,
      "inputs": [
        {
          "indexed": true,
          "internalType": "uint16",
          "name": "_srcChainId",
          "type": "uint16"
        },
        {
          "indexed": true,
          "internalType": "bytes",
          "name": "_srcAddress",
          "type": "bytes"
        },
        {
          "indexed": true,
          "internalType": "address",
          "name": "_toAddress",
          "type": "address"
        },
        {
          "indexed": false,
          "internalType": "uint256[]",
          "name": "_tokenIds",
          "type": "uint256[]"
        }
      ],
      "name": "ReceiveFromChain",
      "type": "event"
    },
    {
      "anonymous": false,
      "inputs": [
        {
          "indexed": false,
          "internalType": "uint16",
          "name": "_srcChainId",
          "type": "uint16"
        },
        {
          "indexed": false,
          "internalType": "bytes",
          "name": "_srcAddress",
          "type": "bytes"
        },
        {
          "indexed": false,
          "internalType": "uint64",
          "name": "_nonce",
          "type": "uint64"
        },
        {
          "indexed": false,
          "internalType": "bytes32",
          "name": "_payloadHash",
          "type": "bytes32"
        }
      ],
      "name": "RetryMessageSuccess",
      "type": "event"
    },
    {
      "anonymous": false,
      "inputs": [
        {
          "indexed": true,
          "internalType": "uint16",
          "name": "_dstChainId",
          "type": "uint16"
        },
        {
          "indexed": true,
          "internalType": "address",
          "name": "_from",
          "type": "address"
        },
        {
          "indexed": true,
          "internalType": "bytes",
          "name": "_toAddress",
          "type": "bytes"
        },
        {
          "indexed": false,
          "internalType": "uint256[]",
          "name": "_tokenIds",
          "type": "uint256[]"
        }
      ],
      "name": "SendToChain",
      "type": "event"
    },
    {
      "anonymous": false,
      "inputs": [
        {
          "indexed": false,
          "internalType": "uint16",
          "name": "_dstChainId",
          "type": "uint16"
        },
        {
          "indexed": false,
          "internalType": "uint256",
          "name": "_dstChainIdToBatchLimit",
          "type": "uint256"
        }
      ],
      "name": "SetDstChainIdToBatchLimit",
      "type": "event"
    },
    {
      "anonymous": false,
      "inputs": [
        {
          "indexed": false,
          "internalType": "uint16",
          "name": "_dstChainId",
          "type": "uint16"
        },
        {
          "indexed": false,
          "internalType": "uint256",
          "name": "_dstChainIdToTransferGas",
          "type": "uint256"
        }
      ],
      "name": "SetDstChainIdToTransferGas",
      "type": "event"
    },
    {
      "anonymous": false,
      "inputs": [
        {
          "indexed": false,
          "internalType": "uint16",
          "name": "_dstChainId",
          "type": "uint16"
        },
        {
          "indexed": false,
          "internalType": "uint16",
          "name": "_type",
          "type": "uint16"
        },
        {
          "indexed": false,
          "internalType": "uint256",
          "name": "_minDstGas",
          "type": "uint256"
        }
      ],
      "name": "SetMinDstGas",
      "type": "event"
    },
    {
      "anonymous": false,
      "inputs": [
        {
          "indexed": false,
          "internalType": "uint256",
          "name": "_minGasToTransferAndStore",
          "type": "uint256"
        }
      ],
      "name": "SetMinGasToTransferAndStore",
      "type": "event"
    },
    {
      "anonymous": false,
      "inputs": [
        {
          "indexed": false,
          "internalType": "address",
          "name": "precrime",
          "type": "address"
        }
      ],
      "name": "SetPrecrime",
      "type": "event"
    },
    {
      "anonymous": false,
      "inputs": [
        {
          "indexed": false,
          "internalType": "uint16",
          "name": "_remoteChainId",
          "type": "uint16"
        },
        {
          "indexed": false,
          "internalType": "bytes",
          "name": "_path",
          "type": "bytes"
        }
      ],
      "name": "SetTrustedRemote",
      "type": "event"
    },
    {
      "anonymous": false,
      "inputs": [
        {
          "indexed": false,
          "internalType": "uint16",
          "name": "_remoteChainId",
          "type": "uint16"
        },
        {
          "indexed": false,
          "internalType": "bytes",
          "name": "_remoteAddress",
          "type": "bytes"
        }
      ],
      "name": "SetTrustedRemoteAddress",
      "type": "event"
    },
    {
      "anonymous": false,
      "inputs": [
        {
          "indexed": true,
          "internalType": "address",
          "name": "from",
          "type": "address"
        },
        {
          "indexed": true,
          "internalType": "address",
          "name": "to",
          "type": "address"
        },
        {
          "indexed": true,
          "internalType": "uint256",
          "name": "tokenId",
          "type": "uint256"
        }
      ],
      "name": "Transfer",
      "type": "event"
    },
    {
      "inputs": [],
      "name": "DEFAULT_PAYLOAD_SIZE_LIMIT",
      "outputs": [
        {
          "internalType": "uint256",
          "name": "",
          "type": "uint256"
        }
      ],
      "stateMutability": "view",
      "type": "function"
    },
    {
      "inputs": [],
      "name": "FUNCTION_TYPE_SEND",
      "outputs": [
        {
          "internalType": "uint16",
          "name": "",
          "type": "uint16"
        }
      ],
      "stateMutability": "view",
      "type": "function"
    },
    {
      "inputs": [
        {
          "internalType": "string",
          "name": "_name",
          "type": "string"
        },
        {
          "internalType": "string",
          "name": "_symbol",
          "type": "string"
        },
        {
          "internalType": "address",
          "name": "_collateral",
          "type": "address"
        },
        {
          "internalType": "uint256",
          "name": "_minGasToTransfer",
          "type": "uint256"
        },
        {
          "internalType": "address",
          "name": "_lzEndpoint",
          "type": "address"
        }
      ],
      "name": "__CustomONFT721Base_init",
      "outputs": [],
      "stateMutability": "nonpayable",
      "type": "function"
    },
    {
      "inputs": [
        {
          "internalType": "address",
          "name": "to",
          "type": "address"
        },
        {
          "internalType": "uint256",
          "name": "tokenId",
          "type": "uint256"
        }
      ],
      "name": "approve",
      "outputs": [],
      "stateMutability": "nonpayable",
      "type": "function"
    },
    {
      "inputs": [
        {
          "internalType": "address",
          "name": "owner",
          "type": "address"
        }
      ],
      "name": "balanceOf",
      "outputs": [
        {
          "internalType": "uint256",
          "name": "",
          "type": "uint256"
        }
      ],
      "stateMutability": "view",
      "type": "function"
    },
    {
      "inputs": [
        {
          "internalType": "uint256[]",
          "name": "tokenIds",
          "type": "uint256[]"
        },
        {
          "internalType": "uint16",
          "name": "targetChain",
          "type": "uint16"
        },
        {
          "internalType": "bytes",
          "name": "adapterParams",
          "type": "bytes"
        }
      ],
      "name": "batchCrossTo",
      "outputs": [],
      "stateMutability": "payable",
      "type": "function"
    },
    {
      "inputs": [
        {
          "internalType": "bytes",
          "name": "_payload",
          "type": "bytes"
        }
      ],
      "name": "clearCredits",
      "outputs": [],
      "stateMutability": "nonpayable",
      "type": "function"
    },
    {
      "inputs": [],
      "name": "collateral",
      "outputs": [
        {
          "internalType": "address",
          "name": "",
          "type": "address"
        }
      ],
      "stateMutability": "view",
      "type": "function"
    },
    {
      "inputs": [
        {
          "internalType": "uint256",
          "name": "tokenId",
          "type": "uint256"
        },
        {
          "internalType": "uint16",
          "name": "targetChain",
          "type": "uint16"
        },
        {
          "internalType": "bytes",
          "name": "adapterParams",
          "type": "bytes"
        }
      ],
      "name": "crossTo",
      "outputs": [],
      "stateMutability": "payable",
      "type": "function"
    },
    {
      "inputs": [
        {
          "internalType": "uint16",
          "name": "",
          "type": "uint16"
        }
      ],
      "name": "dstChainIdToBatchLimit",
      "outputs": [
        {
          "internalType": "uint256",
          "name": "",
          "type": "uint256"
        }
      ],
      "stateMutability": "view",
      "type": "function"
    },
    {
      "inputs": [
        {
          "internalType": "uint16",
          "name": "",
          "type": "uint16"
        }
      ],
      "name": "dstChainIdToTransferGas",
      "outputs": [
        {
          "internalType": "uint256",
          "name": "",
          "type": "uint256"
        }
      ],
      "stateMutability": "view",
      "type": "function"
    },
    {
      "inputs": [
        {
          "internalType": "uint16",
          "name": "_dstChainId",
          "type": "uint16"
        },
        {
          "internalType": "bytes",
          "name": "_toAddress",
          "type": "bytes"
        },
        {
          "internalType": "uint256[]",
          "name": "_tokenIds",
          "type": "uint256[]"
        },
        {
          "internalType": "bool",
          "name": "_useZro",
          "type": "bool"
        },
        {
          "internalType": "bytes",
          "name": "_adapterParams",
          "type": "bytes"
        }
      ],
      "name": "estimateSendBatchFee",
      "outputs": [
        {
          "internalType": "uint256",
          "name": "nativeFee",
          "type": "uint256"
        },
        {
          "internalType": "uint256",
          "name": "zroFee",
          "type": "uint256"
        }
      ],
      "stateMutability": "view",
      "type": "function"
    },
    {
      "inputs": [
        {
          "internalType": "uint16",
          "name": "_dstChainId",
          "type": "uint16"
        },
        {
          "internalType": "bytes",
          "name": "_toAddress",
          "type": "bytes"
        },
        {
          "internalType": "uint256",
          "name": "_tokenId",
          "type": "uint256"
        },
        {
          "internalType": "bool",
          "name": "_useZro",
          "type": "bool"
        },
        {
          "internalType": "bytes",
          "name": "_adapterParams",
          "type": "bytes"
        }
      ],
      "name": "estimateSendFee",
      "outputs": [
        {
          "internalType": "uint256",
          "name": "nativeFee",
          "type": "uint256"
        },
        {
          "internalType": "uint256",
          "name": "zroFee",
          "type": "uint256"
        }
      ],
      "stateMutability": "view",
      "type": "function"
    },
    {
      "inputs": [
        {
          "internalType": "uint16",
          "name": "",
          "type": "uint16"
        },
        {
          "internalType": "bytes",
          "name": "",
          "type": "bytes"
        },
        {
          "internalType": "uint64",
          "name": "",
          "type": "uint64"
        }
      ],
      "name": "failedMessages",
      "outputs": [
        {
          "internalType": "bytes32",
          "name": "",
          "type": "bytes32"
        }
      ],
      "stateMutability": "view",
      "type": "function"
    },
    {
      "inputs": [
        {
          "internalType": "uint16",
          "name": "_srcChainId",
          "type": "uint16"
        },
        {
          "internalType": "bytes",
          "name": "_srcAddress",
          "type": "bytes"
        }
      ],
      "name": "forceResumeReceive",
      "outputs": [],
      "stateMutability": "nonpayable",
      "type": "function"
    },
    {
      "inputs": [
        {
          "internalType": "uint256",
          "name": "tokenId",
          "type": "uint256"
        }
      ],
      "name": "getApproved",
      "outputs": [
        {
          "internalType": "address",
          "name": "",
          "type": "address"
        }
      ],
      "stateMutability": "view",
      "type": "function"
    },
    {
      "inputs": [
        {
          "internalType": "uint16",
          "name": "_version",
          "type": "uint16"
        },
        {
          "internalType": "uint16",
          "name": "_chainId",
          "type": "uint16"
        },
        {
          "internalType": "address",
          "name": "",
          "type": "address"
        },
        {
          "internalType": "uint256",
          "name": "_configType",
          "type": "uint256"
        }
      ],
      "name": "getConfig",
      "outputs": [
        {
          "internalType": "bytes",
          "name": "",
          "type": "bytes"
        }
      ],
      "stateMutability": "view",
      "type": "function"
    },
    {
      "inputs": [
        {
          "internalType": "uint16",
          "name": "_remoteChainId",
          "type": "uint16"
        }
      ],
      "name": "getTrustedRemoteAddress",
      "outputs": [
        {
          "internalType": "bytes",
          "name": "",
          "type": "bytes"
        }
      ],
      "stateMutability": "view",
      "type": "function"
    },
    {
      "inputs": [
        {
          "internalType": "address",
          "name": "_collateral",
          "type": "address"
        },
        {
          "internalType": "address",
          "name": "_lzEndpoint",
          "type": "address"
        }
      ],
      "name": "initialize",
      "outputs": [],
      "stateMutability": "nonpayable",
      "type": "function"
    },
    {
      "inputs": [
        {
          "internalType": "address",
          "name": "owner",
          "type": "address"
        },
        {
          "internalType": "address",
          "name": "operator",
          "type": "address"
        }
      ],
      "name": "isApprovedForAll",
      "outputs": [
        {
          "internalType": "bool",
          "name": "",
          "type": "bool"
        }
      ],
      "stateMutability": "view",
      "type": "function"
    },
    {
      "inputs": [
        {
          "internalType": "uint16",
          "name": "_srcChainId",
          "type": "uint16"
        },
        {
          "internalType": "bytes",
          "name": "_srcAddress",
          "type": "bytes"
        }
      ],
      "name": "isTrustedRemote",
      "outputs": [
        {
          "internalType": "bool",
          "name": "",
          "type": "bool"
        }
      ],
      "stateMutability": "view",
      "type": "function"
    },
    {
      "inputs": [],
      "name": "lzEndpoint",
      "outputs": [
        {
          "internalType": "contract ILayerZeroEndpoint",
          "name": "",
          "type": "address"
        }
      ],
      "stateMutability": "view",
      "type": "function"
    },
    {
      "inputs": [
        {
          "internalType": "uint16",
          "name": "_srcChainId",
          "type": "uint16"
        },
        {
          "internalType": "bytes",
          "name": "_srcAddress",
          "type": "bytes"
        },
        {
          "internalType": "uint64",
          "name": "_nonce",
          "type": "uint64"
        },
        {
          "internalType": "bytes",
          "name": "_payload",
          "type": "bytes"
        }
      ],
      "name": "lzReceive",
      "outputs": [],
      "stateMutability": "nonpayable",
      "type": "function"
    },
    {
      "inputs": [
        {
          "internalType": "uint16",
          "name": "",
          "type": "uint16"
        },
        {
          "internalType": "uint16",
          "name": "",
          "type": "uint16"
        }
      ],
      "name": "minDstGasLookup",
      "outputs": [
        {
          "internalType": "uint256",
          "name": "",
          "type": "uint256"
        }
      ],
      "stateMutability": "view",
      "type": "function"
    },
    {
      "inputs": [],
      "name": "minGasToTransferAndStore",
      "outputs": [
        {
          "internalType": "uint256",
          "name": "",
          "type": "uint256"
        }
      ],
      "stateMutability": "view",
      "type": "function"
    },
    {
      "inputs": [],
      "name": "name",
      "outputs": [
        {
          "internalType": "string",
          "name": "",
          "type": "string"
        }
      ],
      "stateMutability": "view",
      "type": "function"
    },
    {
      "inputs": [
        {
          "internalType": "uint16",
          "name": "_srcChainId",
          "type": "uint16"
        },
        {
          "internalType": "bytes",
          "name": "_srcAddress",
          "type": "bytes"
        },
        {
          "internalType": "uint64",
          "name": "_nonce",
          "type": "uint64"
        },
        {
          "internalType": "bytes",
          "name": "_payload",
          "type": "bytes"
        }
      ],
      "name": "nonblockingLzReceive",
      "outputs": [],
      "stateMutability": "nonpayable",
      "type": "function"
    },
    {
      "inputs": [
        {
          "internalType": "address",
          "name": "",
          "type": "address"
        },
        {
          "internalType": "address",
          "name": "",
          "type": "address"
        },
        {
          "internalType": "uint256",
          "name": "",
          "type": "uint256"
        },
        {
          "internalType": "bytes",
          "name": "",
          "type": "bytes"
        }
      ],
      "name": "onERC721Received",
      "outputs": [
        {
          "internalType": "bytes4",
          "name": "",
          "type": "bytes4"
        }
      ],
      "stateMutability": "nonpayable",
      "type": "function"
    },
    {
      "inputs": [],
      "name": "owner",
      "outputs": [
        {
          "internalType": "address",
          "name": "",
          "type": "address"
        }
      ],
      "stateMutability": "view",
      "type": "function"
    },
    {
      "inputs": [
        {
          "internalType": "uint256",
          "name": "tokenId",
          "type": "uint256"
        }
      ],
      "name": "ownerOf",
      "outputs": [
        {
          "internalType": "address",
          "name": "",
          "type": "address"
        }
      ],
      "stateMutability": "view",
      "type": "function"
    },
    {
      "inputs": [
        {
          "internalType": "uint16",
          "name": "",
          "type": "uint16"
        }
      ],
      "name": "payloadSizeLimitLookup",
      "outputs": [
        {
          "internalType": "uint256",
          "name": "",
          "type": "uint256"
        }
      ],
      "stateMutability": "view",
      "type": "function"
    },
    {
      "inputs": [],
      "name": "precrime",
      "outputs": [
        {
          "internalType": "address",
          "name": "",
          "type": "address"
        }
      ],
      "stateMutability": "view",
      "type": "function"
    },
    {
      "inputs": [],
      "name": "renounceOwnership",
      "outputs": [],
      "stateMutability": "nonpayable",
      "type": "function"
    },
    {
      "inputs": [
        {
          "internalType": "uint16",
          "name": "_srcChainId",
          "type": "uint16"
        },
        {
          "internalType": "bytes",
          "name": "_srcAddress",
          "type": "bytes"
        },
        {
          "internalType": "uint64",
          "name": "_nonce",
          "type": "uint64"
        },
        {
          "internalType": "bytes",
          "name": "_payload",
          "type": "bytes"
        }
      ],
      "name": "retryMessage",
      "outputs": [],
      "stateMutability": "payable",
      "type": "function"
    },
    {
      "inputs": [
        {
          "internalType": "address",
          "name": "from",
          "type": "address"
        },
        {
          "internalType": "address",
          "name": "to",
          "type": "address"
        },
        {
          "internalType": "uint256",
          "name": "tokenId",
          "type": "uint256"
        }
      ],
      "name": "safeTransferFrom",
      "outputs": [],
      "stateMutability": "nonpayable",
      "type": "function"
    },
    {
      "inputs": [
        {
          "internalType": "address",
          "name": "from",
          "type": "address"
        },
        {
          "internalType": "address",
          "name": "to",
          "type": "address"
        },
        {
          "internalType": "uint256",
          "name": "tokenId",
          "type": "uint256"
        },
        {
          "internalType": "bytes",
          "name": "data",
          "type": "bytes"
        }
      ],
      "name": "safeTransferFrom",
      "outputs": [],
      "stateMutability": "nonpayable",
      "type": "function"
    },
    {
      "inputs": [
        {
          "internalType": "address",
          "name": "_from",
          "type": "address"
        },
        {
          "internalType": "uint16",
          "name": "_dstChainId",
          "type": "uint16"
        },
        {
          "internalType": "bytes",
          "name": "_toAddress",
          "type": "bytes"
        },
        {
          "internalType": "uint256[]",
          "name": "_tokenIds",
          "type": "uint256[]"
        },
        {
          "internalType": "address payable",
          "name": "_refundAddress",
          "type": "address"
        },
        {
          "internalType": "address",
          "name": "_zroPaymentAddress",
          "type": "address"
        },
        {
          "internalType": "bytes",
          "name": "_adapterParams",
          "type": "bytes"
        }
      ],
      "name": "sendBatchFrom",
      "outputs": [],
      "stateMutability": "payable",
      "type": "function"
    },
    {
      "inputs": [
        {
          "internalType": "address",
          "name": "_from",
          "type": "address"
        },
        {
          "internalType": "uint16",
          "name": "_dstChainId",
          "type": "uint16"
        },
        {
          "internalType": "bytes",
          "name": "_toAddress",
          "type": "bytes"
        },
        {
          "internalType": "uint256",
          "name": "_tokenId",
          "type": "uint256"
        },
        {
          "internalType": "address payable",
          "name": "_refundAddress",
          "type": "address"
        },
        {
          "internalType": "address",
          "name": "_zroPaymentAddress",
          "type": "address"
        },
        {
          "internalType": "bytes",
          "name": "_adapterParams",
          "type": "bytes"
        }
      ],
      "name": "sendFrom",
      "outputs": [],
      "stateMutability": "payable",
      "type": "function"
    },
    {
      "inputs": [
        {
          "internalType": "address",
          "name": "operator",
          "type": "address"
        },
        {
          "internalType": "bool",
          "name": "approved",
          "type": "bool"
        }
      ],
      "name": "setApprovalForAll",
      "outputs": [],
      "stateMutability": "nonpayable",
      "type": "function"
    },
    {
      "inputs": [
        {
          "internalType": "uint16",
          "name": "_version",
          "type": "uint16"
        },
        {
          "internalType": "uint16",
          "name": "_chainId",
          "type": "uint16"
        },
        {
          "internalType": "uint256",
          "name": "_configType",
          "type": "uint256"
        },
        {
          "internalType": "bytes",
          "name": "_config",
          "type": "bytes"
        }
      ],
      "name": "setConfig",
      "outputs": [],
      "stateMutability": "nonpayable",
      "type": "function"
    },
    {
      "inputs": [
        {
          "internalType": "uint16",
          "name": "_dstChainId",
          "type": "uint16"
        },
        {
          "internalType": "uint256",
          "name": "_dstChainIdToBatchLimit",
          "type": "uint256"
        }
      ],
      "name": "setDstChainIdToBatchLimit",
      "outputs": [],
      "stateMutability": "nonpayable",
      "type": "function"
    },
    {
      "inputs": [
        {
          "internalType": "uint16",
          "name": "_dstChainId",
          "type": "uint16"
        },
        {
          "internalType": "uint256",
          "name": "_dstChainIdToTransferGas",
          "type": "uint256"
        }
      ],
      "name": "setDstChainIdToTransferGas",
      "outputs": [],
      "stateMutability": "nonpayable",
      "type": "function"
    },
    {
      "inputs": [
        {
          "internalType": "uint16",
          "name": "_dstChainId",
          "type": "uint16"
        },
        {
          "internalType": "uint16",
          "name": "_packetType",
          "type": "uint16"
        },
        {
          "internalType": "uint256",
          "name": "_minGas",
          "type": "uint256"
        }
      ],
      "name": "setMinDstGas",
      "outputs": [],
      "stateMutability": "nonpayable",
      "type": "function"
    },
    {
      "inputs": [
        {
          "internalType": "uint256",
          "name": "_minGasToTransferAndStore",
          "type": "uint256"
        }
      ],
      "name": "setMinGasToTransferAndStore",
      "outputs": [],
      "stateMutability": "nonpayable",
      "type": "function"
    },
    {
      "inputs": [
        {
          "internalType": "uint16",
          "name": "_dstChainId",
          "type": "uint16"
        },
        {
          "internalType": "uint256",
          "name": "_size",
          "type": "uint256"
        }
      ],
      "name": "setPayloadSizeLimit",
      "outputs": [],
      "stateMutability": "nonpayable",
      "type": "function"
    },
    {
      "inputs": [
        {
          "internalType": "address",
          "name": "_precrime",
          "type": "address"
        }
      ],
      "name": "setPrecrime",
      "outputs": [],
      "stateMutability": "nonpayable",
      "type": "function"
    },
    {
      "inputs": [
        {
          "internalType": "uint16",
          "name": "_version",
          "type": "uint16"
        }
      ],
      "name": "setReceiveVersion",
      "outputs": [],
      "stateMutability": "nonpayable",
      "type": "function"
    },
    {
      "inputs": [
        {
          "internalType": "uint16",
          "name": "_version",
          "type": "uint16"
        }
      ],
      "name": "setSendVersion",
      "outputs": [],
      "stateMutability": "nonpayable",
      "type": "function"
    },
    {
      "inputs": [
        {
          "internalType": "uint16",
          "name": "_remoteChainId",
          "type": "uint16"
        },
        {
          "internalType": "bytes",
          "name": "_path",
          "type": "bytes"
        }
      ],
      "name": "setTrustedRemote",
      "outputs": [],
      "stateMutability": "nonpayable",
      "type": "function"
    },
    {
      "inputs": [
        {
          "internalType": "uint16",
          "name": "_remoteChainId",
          "type": "uint16"
        },
        {
          "internalType": "bytes",
          "name": "_remoteAddress",
          "type": "bytes"
        }
      ],
      "name": "setTrustedRemoteAddress",
      "outputs": [],
      "stateMutability": "nonpayable",
      "type": "function"
    },
    {
      "inputs": [
        {
          "internalType": "bytes32",
          "name": "",
          "type": "bytes32"
        }
      ],
      "name": "storedCredits",
      "outputs": [
        {
          "internalType": "uint16",
          "name": "srcChainId",
          "type": "uint16"
        },
        {
          "internalType": "address",
          "name": "toAddress",
          "type": "address"
        },
        {
          "internalType": "uint256",
          "name": "index",
          "type": "uint256"
        },
        {
          "internalType": "bool",
          "name": "creditsRemain",
          "type": "bool"
        }
      ],
      "stateMutability": "view",
      "type": "function"
    },
    {
      "inputs": [
        {
          "internalType": "bytes4",
          "name": "interfaceId",
          "type": "bytes4"
        }
      ],
      "name": "supportsInterface",
      "outputs": [
        {
          "internalType": "bool",
          "name": "",
          "type": "bool"
        }
      ],
      "stateMutability": "view",
      "type": "function"
    },
    {
      "inputs": [],
      "name": "symbol",
      "outputs": [
        {
          "internalType": "string",
          "name": "",
          "type": "string"
        }
      ],
      "stateMutability": "view",
      "type": "function"
    },
    {
      "inputs": [
        {
          "internalType": "uint256",
          "name": "tokenId",
          "type": "uint256"
        }
      ],
      "name": "tokenURI",
      "outputs": [
        {
          "internalType": "string",
          "name": "",
          "type": "string"
        }
      ],
      "stateMutability": "view",
      "type": "function"
    },
    {
      "inputs": [
        {
          "internalType": "address",
          "name": "from",
          "type": "address"
        },
        {
          "internalType": "address",
          "name": "to",
          "type": "address"
        },
        {
          "internalType": "uint256",
          "name": "tokenId",
          "type": "uint256"
        }
      ],
      "name": "transferFrom",
      "outputs": [],
      "stateMutability": "nonpayable",
      "type": "function"
    },
    {
      "inputs": [
        {
          "internalType": "address",
          "name": "newOwner",
          "type": "address"
        }
      ],
      "name": "transferOwnership",
      "outputs": [],
      "stateMutability": "nonpayable",
      "type": "function"
    },
    {
      "inputs": [
        {
          "internalType": "uint16",
          "name": "",
          "type": "uint16"
        }
      ],
      "name": "trustedRemoteLookup",
      "outputs": [
        {
          "internalType": "bytes",
          "name": "",
          "type": "bytes"
        }
      ],
      "stateMutability": "view",
      "type": "function"
    }
  ],
  "transactionHash": "0xf31f4af4ecc69d924d9bc68c6af881cc3514aa2acee8ae216f0bbeac9a2182d3",
  "args": [],
  "numDeployments": 4,
  "solcInputHash": "d93c0c34ed60f91374d71b9c6ec74b19",
  "bytecode": "0x608060405234801561001057600080fd5b50615161806100206000396000f3fe6080604052600436106102f55760003560e01c80637f68e53411610191578063b88d4fde116100e2578063d8dfeb4511610090578063d8dfeb45146109e6578063df2a5b3b14610a07578063e985e9c514610a27578063eb8d72b714610a47578063f235364114610a67578063f2fde38b14610a87578063f5ecbdbc14610aa7578063fa25f9b614610ac757600080fd5b8063b88d4fde1461091d578063baf3292d1461093d578063c44618341461095d578063c87b56dd14610973578063cbed8b9c14610993578063d12473a5146109b3578063d1deba1f146109d357600080fd5b80639f38369a1161013f5780639f38369a1461084f578063a22cb4651461086f578063a6c3d1651461088f578063a8f40de5146108af578063ab3ffb93146108c2578063af3fb21c146108d5578063b353aaa7146108fd57600080fd5b80637f68e534146107715780638cfd8f5c146107845780638da5cb5b146107bc5780638ffa1f2a146107da578063950c8a74146107fa57806395d89b411461081a5780639ea5d6b11461082f57600080fd5b80633f1f4fa41161024b5780635b8c41e6116101f95780635b8c41e61461066d5780636352211e146106bc57806366ad5c8a146106dc5780636d22b4e0146106fc57806370a082311461071c578063715018a61461073c5780637533d7881461075157600080fd5b80633f1f4fa41461057c57806342842e0e146105b757806342d65a8d146105d757806348288190146105f7578063485cc9551461060d5780634ac3f4ff1461062d578063519056361461065a57600080fd5b80630df37483116102a85780630df374831461040b57806310ddb1371461042b578063150b7a021461044b57806322a3ecf91461048457806323b872dd146105075780632a205e3d146105275780633d8b38f61461055c57600080fd5b80621d3567146102fa57806301ffc9a71461031c57806306fdde031461035157806307e0db1714610373578063081812fc14610393578063095ea7b3146103cb5780630b4cad4c146103eb575b600080fd5b34801561030657600080fd5b5061031a610315366004613e5d565b610af4565b005b34801561032857600080fd5b5061033c610337366004613f06565b610d10565b60405190151581526020015b60405180910390f35b34801561035d57600080fd5b50610366610d33565b6040516103489190613f7b565b34801561037f57600080fd5b5061031a61038e366004613f8e565b610dc5565b34801561039f57600080fd5b506103b36103ae366004613fa9565b610e32565b6040516001600160a01b039091168152602001610348565b3480156103d757600080fd5b5061031a6103e6366004613fe2565b610e59565b3480156103f757600080fd5b5061031a610406366004613fa9565b610f6f565b34801561041757600080fd5b5061031a61042636600461400e565b610fd3565b34801561043757600080fd5b5061031a610446366004613f8e565b610ff2565b34801561045757600080fd5b5061046b6104663660046140ed565b61102e565b6040516001600160e01b03199091168152602001610348565b34801561049057600080fd5b506104d861049f366004613fa9565b60d26020526000908152604090208054600182015460029092015461ffff821692620100009092046001600160a01b0316919060ff1684565b6040805161ffff90951685526001600160a01b0390931660208501529183015215156060820152608001610348565b34801561051357600080fd5b5061031a610522366004614158565b61103f565b34801561053357600080fd5b506105476105423660046141a9565b611071565b60408051928352602083019190915201610348565b34801561056857600080fd5b5061033c610577366004614237565b611097565b34801561058857600080fd5b506105a9610597366004613f8e565b60686020526000908152604090205481565b604051908152602001610348565b3480156105c357600080fd5b5061031a6105d2366004614158565b611163565b3480156105e357600080fd5b5061031a6105f2366004614237565b61117e565b34801561060357600080fd5b506105a960cf5481565b34801561061957600080fd5b5061031a610628366004614289565b6111e8565b34801561063957600080fd5b506105a9610648366004613f8e565b60d06020526000908152604090205481565b61031a6106683660046142c2565b6112fe565b34801561067957600080fd5b506105a961068836600461437b565b606a602090815260009384526040808520845180860184018051928152908401958401959095209452929052825290205481565b3480156106c857600080fd5b506103b36106d7366004613fa9565b611315565b3480156106e857600080fd5b5061031a6106f7366004613e5d565b61134a565b34801561070857600080fd5b5061031a6107173660046143d8565b611426565b34801561072857600080fd5b506105a961073736600461446c565b611509565b34801561074857600080fd5b5061031a61158f565b34801561075d57600080fd5b5061036661076c366004613f8e565b6115a3565b61031a61077f366004614489565b61163d565b34801561079057600080fd5b506105a961079f3660046144e2565b606760209081526000928352604080842090915290825290205481565b3480156107c857600080fd5b506033546001600160a01b03166103b3565b3480156107e657600080fd5b5061031a6107f5366004614515565b6116c6565b34801561080657600080fd5b506069546103b3906001600160a01b031681565b34801561082657600080fd5b50610366611912565b34801561083b57600080fd5b5061031a61084a36600461400e565b611921565b34801561085b57600080fd5b5061036661086a366004613f8e565b6119d8565b34801561087b57600080fd5b5061031a61088a366004614549565b611aef565b34801561089b57600080fd5b5061031a6108aa366004614237565b611afe565b61031a6108bd366004614575565b611b84565b61031a6108d03660046146af565b611c42565b3480156108e157600080fd5b506108ea600181565b60405161ffff9091168152602001610348565b34801561090957600080fd5b506065546103b3906001600160a01b031681565b34801561092957600080fd5b5061031a6109383660046140ed565b611c51565b34801561094957600080fd5b5061031a61095836600461446c565b611c83565b34801561096957600080fd5b506105a961271081565b34801561097f57600080fd5b5061036661098e366004613fa9565b611cd9565b34801561099f57600080fd5b5061031a6109ae366004614764565b611d3f565b3480156109bf57600080fd5b5061031a6109ce36600461400e565b611db8565b61031a6109e1366004613e5d565b611e68565b3480156109f257600080fd5b50610137546103b3906001600160a01b031681565b348015610a1357600080fd5b5061031a610a223660046147c1565b61207e565b348015610a3357600080fd5b5061033c610a42366004614289565b6120e8565b348015610a5357600080fd5b5061031a610a62366004614237565b612116565b348015610a7357600080fd5b50610547610a823660046147fd565b612170565b348015610a9357600080fd5b5061031a610aa236600461446c565b61222d565b348015610ab357600080fd5b50610366610ac2366004614876565b6122a3565b348015610ad357600080fd5b506105a9610ae2366004613f8e565b60d16020526000908152604090205481565b6065546001600160a01b0316336001600160a01b031614610b5c5760405162461bcd60e51b815260206004820152601e60248201527f4c7a4170703a20696e76616c696420656e64706f696e742063616c6c6572000060448201526064015b60405180910390fd5b61ffff861660009081526066602052604081208054610b7a906148c3565b80601f0160208091040260200160405190810160405280929190818152602001828054610ba6906148c3565b8015610bf35780601f10610bc857610100808354040283529160200191610bf3565b820191906000526020600020905b815481529060010190602001808311610bd657829003601f168201915b50505050509050805186869050148015610c0e575060008151115b8015610c36575080516020820120604051610c2c90889088906148fe565b6040518091039020145b610c915760405162461bcd60e51b815260206004820152602660248201527f4c7a4170703a20696e76616c696420736f757263652073656e64696e6720636f6044820152651b9d1c9858dd60d21b6064820152608401610b53565b610d078787878080601f01602080910402602001604051908101604052809392919081815260200183838082843760009201919091525050604080516020601f8a018190048102820181019092528881528a93509150889088908190840183828082843760009201919091525061234992505050565b50505050505050565b60006001600160e01b031982161580610d2d5750610d2d826123c2565b92915050565b606060d38054610d42906148c3565b80601f0160208091040260200160405190810160405280929190818152602001828054610d6e906148c3565b8015610dbb5780601f10610d9057610100808354040283529160200191610dbb565b820191906000526020600020905b815481529060010190602001808311610d9e57829003601f168201915b5050505050905090565b610dcd612402565b6065546040516307e0db1760e01b815261ffff831660048201526001600160a01b03909116906307e0db17906024015b600060405180830381600087803b158015610e1757600080fd5b505af1158015610e2b573d6000803e3d6000fd5b5050505050565b6000610e3d8261245c565b50600090815260d760205260409020546001600160a01b031690565b6000610e6482611315565b9050806001600160a01b0316836001600160a01b03161415610ed25760405162461bcd60e51b815260206004820152602160248201527f4552433732313a20617070726f76616c20746f2063757272656e74206f776e656044820152603960f91b6064820152608401610b53565b336001600160a01b0382161480610eee5750610eee81336120e8565b610f605760405162461bcd60e51b815260206004820152603d60248201527f4552433732313a20617070726f76652063616c6c6572206973206e6f7420746f60448201527f6b656e206f776e6572206f7220617070726f76656420666f7220616c6c0000006064820152608401610b53565b610f6a8383612481565b505050565b610f77612402565b60008111610f975760405162461bcd60e51b8152600401610b539061490e565b60cf8190556040518181527ffebbc4f8bb9ec2313950c718d43123124b15778efda4c1f1d529de2995b4f34d906020015b60405180910390a150565b610fdb612402565b61ffff909116600090815260686020526040902055565b610ffa612402565b6065546040516310ddb13760e01b815261ffff831660048201526001600160a01b03909116906310ddb13790602401610dfd565b630a85bd0160e11b5b949350505050565b61104a335b826124ef565b6110665760405162461bcd60e51b8152600401610b5390614952565b610f6a83838361254d565b6000806110898787611082886126b1565b8787612170565b915091509550959350505050565b61ffff8316600090815260666020526040812080548291906110b8906148c3565b80601f01602080910402602001604051908101604052809291908181526020018280546110e4906148c3565b80156111315780601f1061110657610100808354040283529160200191611131565b820191906000526020600020905b81548152906001019060200180831161111457829003601f168201915b5050505050905083836040516111489291906148fe565b60405180910390208180519060200120149150509392505050565b610f6a83838360405180602001604052806000815250611c51565b611186612402565b6065546040516342d65a8d60e01b81526001600160a01b03909116906342d65a8d906111ba908690869086906004016149c8565b600060405180830381600087803b1580156111d457600080fd5b505af1158015610d07573d6000803e3d6000fd5b600054610100900460ff16158080156112085750600054600160ff909116105b806112295750611217306126fc565b158015611229575060005460ff166001145b6112455760405162461bcd60e51b8152600401610b53906149e6565b6000805460ff191660011790558015611268576000805461ff0019166101001790555b6112c56040518060400160405280601681526020017526b7b1b5a7a137b932b220b832acb0b1b43a21b63ab160511b815250604051806040016040528060098152602001684d6f636b4f4241594360b81b81525085600186611426565b8015610f6a576000805461ff00191690556040516001815260008051602061510c833981519152906020015b60405180910390a1505050565b610d0787878761130d886126b1565b87878761270b565b600081815260d560205260408120546001600160a01b031680610d2d5760405162461bcd60e51b8152600401610b5390614a34565b3330146113a85760405162461bcd60e51b815260206004820152602660248201527f4e6f6e626c6f636b696e674c7a4170703a2063616c6c6572206d7573742062656044820152650204c7a4170760d41b6064820152608401610b53565b61141e8686868080601f01602080910402602001604051908101604052809392919081815260200183838082843760009201919091525050604080516020601f8901819004810282018101909252878152899350915087908790819084018382808284376000920191909152506128df92505050565b505050505050565b600054610100900460ff16158080156114465750600054600160ff909116105b806114675750611455306126fc565b158015611467575060005460ff166001145b6114835760405162461bcd60e51b8152600401610b53906149e6565b6000805460ff1916600117905580156114a6576000805461ff0019166101001790555b6114b286868585612a36565b61013780546001600160a01b0319166001600160a01b038616179055801561141e576000805461ff00191690556040516001815260008051602061510c8339815191529060200160405180910390a1505050505050565b60006001600160a01b0382166115735760405162461bcd60e51b815260206004820152602960248201527f4552433732313a2061646472657373207a65726f206973206e6f7420612076616044820152683634b21037bbb732b960b91b6064820152608401610b53565b506001600160a01b0316600090815260d6602052604090205490565b611597612402565b6115a16000612b05565b565b606660205260009081526040902080546115bc906148c3565b80601f01602080910402602001604051908101604052809291908181526020018280546115e8906148c3565b80156116355780601f1061160a57610100808354040283529160200191611635565b820191906000526020600020905b81548152906001019060200180831161161857829003601f168201915b505050505081565b611645612b57565b6000336040516020016116589190614a66565b60405160208183030381529060405290506116b56116733390565b85838833600089898080601f0160208091040260200160405190810160405280939291908181526020018383808284376000920191909152506112fe92505050565b506116c06001609d55565b50505050565b6116ce612b57565b8051602080830191909120600081815260d290925260409091206002015460ff1661172f5760405162461bcd60e51b81526020600482015260116024820152701b9bc818dc99591a5d1cc81cdd1bdc9959607a1b6044820152606401610b53565b6000828060200190518101906117459190614ac3565b600084815260d26020526040812080546001909101549294509092506117819161ffff8216916201000090046001600160a01b03169085612bb1565b600084815260d2602052604090206001015490915081116117f65760405162461bcd60e51b815260206004820152602960248201527f6e6f7420656e6f7567682067617320746f2070726f6365737320637265646974604482015268103a3930b739b332b960b91b6064820152608401610b53565b815181141561186e57600083815260d2602052604080822080546001600160b01b031916815560018101929092556002909101805460ff19169055517fd7be02b8dd0d27bd0517a9cb4d7469ce27df4313821ae5ec1ff69acc594ba233906118619085815260200190565b60405180910390a1611902565b60408051608081018252600085815260d26020818152848320805461ffff80821687526001600160a01b03620100008084048216868a019081529989018b8152600160608b01818152998f90529790965297519851169096026001600160b01b03199091169690951695909517939093178455915191830191909155516002909101805491151560ff199092169190911790555b50505061190f6001609d55565b50565b606060d48054610d42906148c3565b611929612402565b600081116119845760405162461bcd60e51b815260206004820152602260248201527f647374436861696e4964546f42617463684c696d6974206d757374206265203e604482015261020360f41b6064820152608401610b53565b61ffff8216600081815260d06020908152604091829020849055815192835282018390527f7315f7654d594ead24a30160ed9ba2d23247f543016b918343591e93d7afdb6d91015b60405180910390a15050565b61ffff81166000908152606660205260408120805460609291906119fb906148c3565b80601f0160208091040260200160405190810160405280929190818152602001828054611a27906148c3565b8015611a745780601f10611a4957610100808354040283529160200191611a74565b820191906000526020600020905b815481529060010190602001808311611a5757829003601f168201915b50505050509050805160001415611acd5760405162461bcd60e51b815260206004820152601d60248201527f4c7a4170703a206e6f20747275737465642070617468207265636f72640000006044820152606401610b53565b611ae8600060148351611ae09190614b93565b839190612c03565b9392505050565b611afa338383612d10565b5050565b611b06612402565b818130604051602001611b1b93929190614baa565b60408051601f1981840301815291815261ffff85166000908152606660209081529190208251611b5093919290910190613cda565b507f8c0400cfe2d1199b1a725c78960bcc2a344d869b80590d0f2bd005db15a572ce8383836040516112f1939291906149c8565b611b8c612b57565b600033604051602001611b9f9190614a66565b6040516020818303038152906040529050611c37611bba3390565b8583898980806020026020016040519081016040528093929190818152602001838360200280828437600092019190915250611bf99250612345915050565b600089898080601f016020809104026020016040519081016040528093929190818152602001838380828437600092019190915250611c4292505050565b50610e2b6001609d55565b610d078787878787878761270b565b611c5b33836124ef565b611c775760405162461bcd60e51b8152600401610b5390614952565b6116c084848484612ddb565b611c8b612402565b606980546001600160a01b0319166001600160a01b0383169081179091556040519081527f5db758e995a17ec1ad84bdef7e8c3293a0bd6179bcce400dff5d4c3d87db726b90602001610fc8565b6060611ce48261245c565b6000611cee612e0e565b90506000815111611d0e5760405180602001604052806000815250611ae8565b80611d1884612e2e565b604051602001611d29929190614bcb565b6040516020818303038152906040529392505050565b611d47612402565b6065546040516332fb62e760e21b81526001600160a01b039091169063cbed8b9c90611d7f9088908890889088908890600401614bfa565b600060405180830381600087803b158015611d9957600080fd5b505af1158015611dad573d6000803e3d6000fd5b505050505050505050565b611dc0612402565b60008111611e1c5760405162461bcd60e51b815260206004820152602360248201527f647374436861696e4964546f5472616e73666572476173206d7573742062652060448201526203e20360ec1b6064820152608401610b53565b61ffff8216600081815260d16020908152604091829020849055815192835282018390527fc46df2983228ac2d9754e94a0d565e6671665dc8ad38602bc8e544f0685a29fb91016119cc565b61ffff86166000908152606a60205260408082209051611e8b90889088906148fe565b90815260408051602092819003830190206001600160401b03871660009081529252902054905080611f0b5760405162461bcd60e51b815260206004820152602360248201527f4e6f6e626c6f636b696e674c7a4170703a206e6f2073746f726564206d65737360448201526261676560e81b6064820152608401610b53565b808383604051611f1c9291906148fe565b604051809103902014611f7b5760405162461bcd60e51b815260206004820152602160248201527f4e6f6e626c6f636b696e674c7a4170703a20696e76616c6964207061796c6f616044820152601960fa1b6064820152608401610b53565b61ffff87166000908152606a60205260408082209051611f9e90899089906148fe565b90815260408051602092819003830181206001600160401b038916600090815290845282902093909355601f88018290048202830182019052868252612036918991899089908190840183828082843760009201919091525050604080516020601f8a018190048102820181019092528881528a9350915088908890819084018382808284376000920191909152506128df92505050565b7fc264d91f3adc5588250e1551f547752ca0cfa8f6b530d243b9f9f4cab10ea8e5878787878560405161206d959493929190614c33565b60405180910390a150505050505050565b612086612402565b61ffff83811660008181526067602090815260408083209487168084529482529182902085905581519283528201929092529081018290527f9d5c7c0b934da8fefa9c7760c98383778a12dfbfc0c3b3106518f43fb9508ac0906060016112f1565b6001600160a01b03918216600090815260d86020908152604080832093909416825291909152205460ff1690565b61211e612402565b61ffff8316600090815260666020526040902061213c908383613d5e565b507ffa41487ad5d6728f0b19276fa1eddc16558578f5109fc39d2dc33c3230470dab8383836040516112f1939291906149c8565b60008060008686604051602001612188929190614ca9565b60408051601f198184030181529082905260655463040a7bb160e41b83529092506001600160a01b0316906340a7bb10906121cf908b90309086908b908b90600401614cce565b604080518083038186803b1580156121e657600080fd5b505afa1580156121fa573d6000803e3d6000fd5b505050506040513d601f19601f8201168201806040525081019061221e9190614d22565b92509250509550959350505050565b612235612402565b6001600160a01b03811661229a5760405162461bcd60e51b815260206004820152602660248201527f4f776e61626c653a206e6577206f776e657220697320746865207a65726f206160448201526564647265737360d01b6064820152608401610b53565b61190f81612b05565b606554604051633d7b2f6f60e21b815261ffff808716600483015285166024820152306044820152606481018390526060916001600160a01b03169063f5ecbdbc9060840160006040518083038186803b15801561230057600080fd5b505afa158015612314573d6000803e3d6000fd5b505050506040513d6000823e601f3d908101601f1916820160405261233c9190810190614d46565b95945050505050565b3390565b6000806123ac5a60966366ad5c8a60e01b898989896040516024016123719493929190614d7a565b60408051601f198184030181529190526020810180516001600160e01b03166001600160e01b03199093169290921790915230929190612eca565b915091508161141e5761141e8686868685612f54565b60006001600160e01b031982166380ac58cd60e01b14806123f357506001600160e01b03198216635b5e139f60e01b145b80610d2d5750610d2d82612fe2565b6033546001600160a01b031633146115a15760405162461bcd60e51b815260206004820181905260248201527f4f776e61626c653a2063616c6c6572206973206e6f7420746865206f776e65726044820152606401610b53565b61246581613017565b61190f5760405162461bcd60e51b8152600401610b5390614a34565b600081815260d76020526040902080546001600160a01b0319166001600160a01b03841690811790915581906124b682611315565b6001600160a01b03167f8c5be1e5ebec7d5bd14f71427d1e84f3dd0314c0f7b2291e5b200ac8c7c3b92560405160405180910390a45050565b6000806124fb83611315565b9050806001600160a01b0316846001600160a01b03161480612522575061252281856120e8565b806110375750836001600160a01b031661253b84610e32565b6001600160a01b031614949350505050565b826001600160a01b031661256082611315565b6001600160a01b0316146125865760405162461bcd60e51b8152600401610b5390614db8565b6001600160a01b0382166125e85760405162461bcd60e51b8152602060048201526024808201527f4552433732313a207472616e7366657220746f20746865207a65726f206164646044820152637265737360e01b6064820152608401610b53565b826001600160a01b03166125fb82611315565b6001600160a01b0316146126215760405162461bcd60e51b8152600401610b5390614db8565b600081815260d76020908152604080832080546001600160a01b03199081169091556001600160a01b0387811680865260d6855283862080546000190190559087168086528386208054600101905586865260d590945282852080549092168417909155905184937fddf252ad1be2c89b69c2b068fc378daa952ba7f163c4a11628f55a4df523b3ef91a4505050565b604080516001808252818301909252606091600091906020808301908036833701905050905082816000815181106126eb576126eb614dfd565b602090810291909101015292915050565b6001600160a01b03163b151590565b60008451116127525760405162461bcd60e51b8152602060048201526013602482015272746f6b656e4964735b5d20697320656d70747960681b6044820152606401610b53565b835160011480612776575061ffff8616600090815260d06020526040902054845111155b6127cd5760405162461bcd60e51b815260206004820152602260248201527f62617463682073697a65206578636565647320647374206261746368206c696d6044820152611a5d60f21b6064820152608401610b53565b60005b8451811015612810576127fe8888888885815181106127f1576127f1614dfd565b6020026020010151613034565b8061280881614e13565b9150506127d0565b5060008585604051602001612826929190614ca9565b604051602081830303815290604052905061286b87600184885160d160008d61ffff1661ffff168152602001908152602001600020546128669190614e2e565b6130be565b612879878286868634613193565b856040516128879190614e4d565b6040518091039020886001600160a01b03168861ffff167fe1b87c47fdeb4f9cbadbca9df3af7aba453bb6e501075d0440d88125b711522a886040516128cd9190614e69565b60405180910390a45050505050505050565b600080828060200190518101906128f69190614ac3565b60148201519193509150600061290e88838386612bb1565b905082518110156129e25784516020808701919091206040805160808101825261ffff808d1682526001600160a01b03808816838701908152838501888152600160608601818152600089815260d2909a529887902095518654935190941662010000026001600160b01b03199093169390941692909217178355519082015592516002909301805493151560ff199094169390931790925590517f10e0b70d256bccc84b7027506978bd8b68984a870788b93b479def144c839ad7906129d89083908990614e7c565b60405180910390a1505b816001600160a01b0316876040516129fa9190614e4d565b60405180910390208961ffff167f5b821db8a46f8ecbe1941ba2f51cfeea9643268b56631f70d45e2a745d990265866040516128cd9190614e69565b600054610100900460ff1615808015612a565750600054600160ff909116105b80612a775750612a65306126fc565b158015612a77575060005460ff166001145b612a935760405162461bcd60e51b8152600401610b53906149e6565b6000805460ff191660011790558015612ab6576000805461ff0019166101001790555b612ac0858561331d565b612aca838361334e565b8015610e2b576000805461ff00191690556040516001815260008051602061510c833981519152906020015b60405180910390a15050505050565b603380546001600160a01b038381166001600160a01b0319831681179093556040519116919082907f8be0079c531659141344cd1fd0a4f28419497f9722a3daafe3b4186f6b6457e090600090a35050565b6002609d541415612baa5760405162461bcd60e51b815260206004820152601f60248201527f5265656e7472616e637947756172643a207265656e7472616e742063616c6c006044820152606401610b53565b6002609d55565b6000825b825181101561233c5760cf545a1015612bcd5761233c565b612bf18686858481518110612be457612be4614dfd565b60200260200101516133fc565b80612bfb81614e13565b915050612bb5565b606081612c1181601f614e95565b1015612c505760405162461bcd60e51b815260206004820152600e60248201526d736c6963655f6f766572666c6f7760901b6044820152606401610b53565b612c5a8284614e95565b84511015612c9e5760405162461bcd60e51b8152602060048201526011602482015270736c6963655f6f75744f66426f756e647360781b6044820152606401610b53565b606082158015612cbd5760405191506000825260208201604052612d07565b6040519150601f8416801560200281840101858101878315602002848b0101015b81831015612cf6578051835260209283019201612cde565b5050858452601f01601f1916604052505b50949350505050565b816001600160a01b0316836001600160a01b03161415612d6e5760405162461bcd60e51b815260206004820152601960248201527822a9219b99189d1030b8383937bb32903a379031b0b63632b960391b6044820152606401610b53565b6001600160a01b03838116600081815260d86020908152604080832094871680845294825291829020805460ff191686151590811790915591519182527f17307eab39ab6107e8899845ad3d59bd9653f200f220920489ca2b5937696c31910160405180910390a3505050565b612de684848461254d565b612df284848484613549565b6116c05760405162461bcd60e51b8152600401610b5390614ead565b60606040518060600160405280603681526020016150d660369139905090565b60606000612e3b8361365a565b60010190506000816001600160401b03811115612e5a57612e5a61402a565b6040519080825280601f01601f191660200182016040528015612e84576020820181803683370190505b5090508181016020015b600019016f181899199a1a9b1b9c1cb0b131b232b360811b600a86061a8153600a8504945084612ebd57612ec2565b612e8e565b509392505050565b6000606060008060008661ffff166001600160401b03811115612eef57612eef61402a565b6040519080825280601f01601f191660200182016040528015612f19576020820181803683370190505b50905060008087516020890160008d8df191503d925086831115612f3b578692505b828152826000602083013e909890975095505050505050565b8180519060200120606a60008761ffff1661ffff16815260200190815260200160002085604051612f859190614e4d565b9081526040805191829003602090810183206001600160401b0388166000908152915220919091557fe183f33de2837795525b4792ca4cd60535bd77c53b7e7030060bfcf5734d6b0c90612af69087908790879087908790614eff565b60006001600160e01b031982166322bac5d960e01b1480610d2d57506301ffc9a760e01b6001600160e01b0319831614610d2d565b600090815260d560205260409020546001600160a01b0316151590565b610137546001600160a01b0316156130b257610137546001600160a01b0316806342842e0e3330856040518463ffffffff1660e01b815260040161307a93929190614f51565b600060405180830381600087803b15801561309457600080fd5b505af11580156130a8573d6000803e3d6000fd5b50505050506116c0565b6116c084848484613732565b60006130c98361381d565b61ffff8087166000908152606760209081526040808320938916835292905220549091508061313a5760405162461bcd60e51b815260206004820152601a60248201527f4c7a4170703a206d696e4761734c696d6974206e6f74207365740000000000006044820152606401610b53565b6131448382614e95565b82101561141e5760405162461bcd60e51b815260206004820152601b60248201527f4c7a4170703a20676173206c696d697420697320746f6f206c6f7700000000006044820152606401610b53565b61ffff8616600090815260666020526040812080546131b1906148c3565b80601f01602080910402602001604051908101604052809291908181526020018280546131dd906148c3565b801561322a5780601f106131ff5761010080835404028352916020019161322a565b820191906000526020600020905b81548152906001019060200180831161320d57829003601f168201915b5050505050905080516000141561329c5760405162461bcd60e51b815260206004820152603060248201527f4c7a4170703a2064657374696e6174696f6e20636861696e206973206e6f742060448201526f61207472757374656420736f7572636560801b6064820152608401610b53565b6132a7878751613879565b60655460405162c5803160e81b81526001600160a01b039091169063c58031009084906132e2908b9086908c908c908c908c90600401614f75565b6000604051808303818588803b1580156132fb57600080fd5b505af115801561330f573d6000803e3d6000fd5b505050505050505050505050565b600054610100900460ff166133445760405162461bcd60e51b8152600401610b5390614fdc565b611afa82826138e7565b600054610100900460ff161580801561336e5750600054600160ff909116105b8061338f575061337d306126fc565b15801561338f575060005460ff166001145b6133ab5760405162461bcd60e51b8152600401610b53906149e6565b6000805460ff1916600117905580156133ce576000805461ff0019166101001790555b600083116133ee5760405162461bcd60e51b8152600401610b539061490e565b60cf8390556112c582613935565b610137546001600160a01b03161561353e57610137546040516331a9108f60e11b8152600481018390526001600160a01b039091169030908290636352211e9060240160206040518083038186803b15801561345757600080fd5b505afa15801561346b573d6000803e3d6000fd5b505050506040513d601f19601f8201168201806040525081019061348f9190615027565b6001600160a01b0316146134d65760405162461bcd60e51b815260206004820152600e60248201526d31b7b63630ba32b930b61032b93960911b6044820152606401610b53565b604051632142170760e11b81526001600160a01b038216906342842e0e9061350690309087908790600401614f51565b600060405180830381600087803b15801561352057600080fd5b505af1158015613534573d6000803e3d6000fd5b5050505050505050565b610f6a8383836139ee565b600061355d846001600160a01b03166126fc565b1561365257604051630a85bd0160e11b81526001600160a01b0385169063150b7a0290613594903390899088908890600401615044565b602060405180830381600087803b1580156135ae57600080fd5b505af19250505080156135de575060408051601f3d908101601f191682019092526135db91810190615081565b60015b613638573d80801561360c576040519150601f19603f3d011682016040523d82523d6000602084013e613611565b606091505b5080516136305760405162461bcd60e51b8152600401610b5390614ead565b805181602001fd5b6001600160e01b031916630a85bd0160e11b149050611037565b506001611037565b60008072184f03e93ff9f4daa797ed6e38ed64bf6a1f0160401b83106136995772184f03e93ff9f4daa797ed6e38ed64bf6a1f0160401b830492506040015b6d04ee2d6d415b85acef810000000083106136c5576d04ee2d6d415b85acef8100000000830492506020015b662386f26fc1000083106136e357662386f26fc10000830492506010015b6305f5e10083106136fb576305f5e100830492506008015b612710831061370f57612710830492506004015b60648310613721576064830492506002015b600a8310610d2d5760010192915050565b61373b33611044565b61379e5760405162461bcd60e51b815260206004820152602e60248201527f4f4e46543732313a2073656e642063616c6c6572206973206e6f74206f776e6560448201526d1c881b9bdc88185c1c1c9bdd995960921b6064820152608401610b53565b836001600160a01b03166137b182611315565b6001600160a01b0316146138125760405162461bcd60e51b815260206004820152602260248201527f4f4e46543732313a2073656e642066726f6d20696e636f7272656374206f776e60448201526132b960f11b6064820152608401610b53565b6116c084308361254d565b60006022825110156138715760405162461bcd60e51b815260206004820152601c60248201527f4c7a4170703a20696e76616c69642061646170746572506172616d73000000006044820152606401610b53565b506022015190565b61ffff82166000908152606860205260409020548061389757506127105b80821115610f6a5760405162461bcd60e51b815260206004820181905260248201527f4c7a4170703a207061796c6f61642073697a6520697320746f6f206c617267656044820152606401610b53565b600054610100900460ff1661390e5760405162461bcd60e51b8152600401610b5390614fdc565b81516139219060d3906020850190613cda565b508051610f6a9060d4906020840190613cda565b600054610100900460ff16158080156139555750600054600160ff909116105b806139765750613964306126fc565b158015613976575060005460ff166001145b6139925760405162461bcd60e51b8152600401610b53906149e6565b6000805460ff1916600117905580156139b5576000805461ff0019166101001790555b6139be82613a4e565b8015611afa576000805461ff00191690556040516001815260008051602061510c833981519152906020016119cc565b6139f781613017565b1580613a235750613a0781613017565b8015613a23575030613a1882611315565b6001600160a01b0316145b613a2c57600080fd5b613a3581613017565b613a4357610f6a8282613b21565b610f6a30838361254d565b600054610100900460ff1615808015613a6e5750600054600160ff909116105b80613a8f5750613a7d306126fc565b158015613a8f575060005460ff166001145b613aab5760405162461bcd60e51b8152600401610b53906149e6565b6000805460ff191660011790558015613ace576000805461ff0019166101001790555b613ad6613b3b565b606580546001600160a01b0319166001600160a01b0384161790558015611afa576000805461ff00191690556040516001815260008051602061510c833981519152906020016119cc565b611afa828260405180602001604052806000815250613b6a565b600054610100900460ff16613b625760405162461bcd60e51b8152600401610b5390614fdc565b6115a1613b9d565b613b748383613bcd565b613b816000848484613549565b610f6a5760405162461bcd60e51b8152600401610b5390614ead565b600054610100900460ff16613bc45760405162461bcd60e51b8152600401610b5390614fdc565b6115a133612b05565b6001600160a01b038216613c235760405162461bcd60e51b815260206004820181905260248201527f4552433732313a206d696e7420746f20746865207a65726f20616464726573736044820152606401610b53565b613c2c81613017565b15613c495760405162461bcd60e51b8152600401610b539061509e565b613c5281613017565b15613c6f5760405162461bcd60e51b8152600401610b539061509e565b6001600160a01b038216600081815260d6602090815260408083208054600101905584835260d590915280822080546001600160a01b0319168417905551839291907fddf252ad1be2c89b69c2b068fc378daa952ba7f163c4a11628f55a4df523b3ef908290a45050565b828054613ce6906148c3565b90600052602060002090601f016020900481019282613d085760008555613d4e565b82601f10613d2157805160ff1916838001178555613d4e565b82800160010185558215613d4e579182015b82811115613d4e578251825591602001919060010190613d33565b50613d5a929150613dd2565b5090565b828054613d6a906148c3565b90600052602060002090601f016020900481019282613d8c5760008555613d4e565b82601f10613da55782800160ff19823516178555613d4e565b82800160010185558215613d4e579182015b82811115613d4e578235825591602001919060010190613db7565b5b80821115613d5a5760008155600101613dd3565b803561ffff81168114613df957600080fd5b919050565b60008083601f840112613e1057600080fd5b5081356001600160401b03811115613e2757600080fd5b602083019150836020828501011115613e3f57600080fd5b9250929050565b80356001600160401b0381168114613df957600080fd5b60008060008060008060808789031215613e7657600080fd5b613e7f87613de7565b955060208701356001600160401b0380821115613e9b57600080fd5b613ea78a838b01613dfe565b9097509550859150613ebb60408a01613e46565b94506060890135915080821115613ed157600080fd5b50613ede89828a01613dfe565b979a9699509497509295939492505050565b6001600160e01b03198116811461190f57600080fd5b600060208284031215613f1857600080fd5b8135611ae881613ef0565b60005b83811015613f3e578181015183820152602001613f26565b838111156116c05750506000910152565b60008151808452613f67816020860160208601613f23565b601f01601f19169290920160200192915050565b602081526000611ae86020830184613f4f565b600060208284031215613fa057600080fd5b611ae882613de7565b600060208284031215613fbb57600080fd5b5035919050565b6001600160a01b038116811461190f57600080fd5b8035613df981613fc2565b60008060408385031215613ff557600080fd5b823561400081613fc2565b946020939093013593505050565b6000806040838503121561402157600080fd5b61400083613de7565b634e487b7160e01b600052604160045260246000fd5b604051601f8201601f191681016001600160401b03811182821017156140685761406861402a565b604052919050565b60006001600160401b038211156140895761408961402a565b50601f01601f191660200190565b600082601f8301126140a857600080fd5b81356140bb6140b682614070565b614040565b8181528460208386010111156140d057600080fd5b816020850160208301376000918101602001919091529392505050565b6000806000806080858703121561410357600080fd5b843561410e81613fc2565b9350602085013561411e81613fc2565b92506040850135915060608501356001600160401b0381111561414057600080fd5b61414c87828801614097565b91505092959194509250565b60008060006060848603121561416d57600080fd5b833561417881613fc2565b9250602084013561418881613fc2565b929592945050506040919091013590565b80358015158114613df957600080fd5b600080600080600060a086880312156141c157600080fd5b6141ca86613de7565b945060208601356001600160401b03808211156141e657600080fd5b6141f289838a01614097565b95506040880135945061420760608901614199565b9350608088013591508082111561421d57600080fd5b5061422a88828901614097565b9150509295509295909350565b60008060006040848603121561424c57600080fd5b61425584613de7565b925060208401356001600160401b0381111561427057600080fd5b61427c86828701613dfe565b9497909650939450505050565b6000806040838503121561429c57600080fd5b82356142a781613fc2565b915060208301356142b781613fc2565b809150509250929050565b600080600080600080600060e0888a0312156142dd57600080fd5b87356142e881613fc2565b96506142f660208901613de7565b955060408801356001600160401b038082111561431257600080fd5b61431e8b838c01614097565b965060608a0135955060808a0135915061433782613fc2565b90935060a08901359061434982613fc2565b90925060c0890135908082111561435f57600080fd5b5061436c8a828b01614097565b91505092959891949750929550565b60008060006060848603121561439057600080fd5b61439984613de7565b925060208401356001600160401b038111156143b457600080fd5b6143c086828701614097565b9250506143cf60408501613e46565b90509250925092565b600080600080600060a086880312156143f057600080fd5b85356001600160401b038082111561440757600080fd5b61441389838a01614097565b9650602088013591508082111561442957600080fd5b5061443688828901614097565b945050604086013561444781613fc2565b925060608601359150608086013561445e81613fc2565b809150509295509295909350565b60006020828403121561447e57600080fd5b8135611ae881613fc2565b6000806000806060858703121561449f57600080fd5b843593506144af60208601613de7565b925060408501356001600160401b038111156144ca57600080fd5b6144d687828801613dfe565b95989497509550505050565b600080604083850312156144f557600080fd5b6144fe83613de7565b915061450c60208401613de7565b90509250929050565b60006020828403121561452757600080fd5b81356001600160401b0381111561453d57600080fd5b61103784828501614097565b6000806040838503121561455c57600080fd5b823561456781613fc2565b915061450c60208401614199565b60008060008060006060868803121561458d57600080fd5b85356001600160401b03808211156145a457600080fd5b818801915088601f8301126145b857600080fd5b8135818111156145c757600080fd5b8960208260051b85010111156145dc57600080fd5b602083019750809650506145f260208901613de7565b9450604088013591508082111561460857600080fd5b5061461588828901613dfe565b969995985093965092949392505050565b60006001600160401b0382111561463f5761463f61402a565b5060051b60200190565b600082601f83011261465a57600080fd5b8135602061466a6140b683614626565b82815260059290921b8401810191818101908684111561468957600080fd5b8286015b848110156146a4578035835291830191830161468d565b509695505050505050565b600080600080600080600060e0888a0312156146ca57600080fd5b87356146d581613fc2565b96506146e360208901613de7565b955060408801356001600160401b03808211156146ff57600080fd5b61470b8b838c01614097565b965060608a013591508082111561472157600080fd5b61472d8b838c01614649565b955060808a0135915061473f82613fc2565b81945061474e60a08b01613fd7565b935060c08a013591508082111561435f57600080fd5b60008060008060006080868803121561477c57600080fd5b61478586613de7565b945061479360208701613de7565b93506040860135925060608601356001600160401b038111156147b557600080fd5b61461588828901613dfe565b6000806000606084860312156147d657600080fd5b6147df84613de7565b92506147ed60208501613de7565b9150604084013590509250925092565b600080600080600060a0868803121561481557600080fd5b61481e86613de7565b945060208601356001600160401b038082111561483a57600080fd5b61484689838a01614097565b9550604088013591508082111561485c57600080fd5b61486889838a01614649565b945061420760608901614199565b6000806000806080858703121561488c57600080fd5b61489585613de7565b93506148a360208601613de7565b925060408501356148b381613fc2565b9396929550929360600135925050565b600181811c908216806148d757607f821691505b602082108114156148f857634e487b7160e01b600052602260045260246000fd5b50919050565b8183823760009101908152919050565b60208082526024908201527f6d696e476173546f5472616e73666572416e6453746f7265206d7573742062656040820152630203e20360e41b606082015260800190565b6020808252602d908201527f4552433732313a2063616c6c6572206973206e6f7420746f6b656e206f776e6560408201526c1c881bdc88185c1c1c9bdd9959609a1b606082015260800190565b81835281816020850137506000828201602090810191909152601f909101601f19169091010190565b61ffff8416815260406020820152600061233c60408301848661499f565b6020808252602e908201527f496e697469616c697a61626c653a20636f6e747261637420697320616c72656160408201526d191e481a5b9a5d1a585b1a5e995960921b606082015260800190565b602080825260189082015277115490cdcc8c4e881a5b9d985b1a59081d1bdad95b88125160421b604082015260600190565b60609190911b6001600160601b031916815260140190565b600082601f830112614a8f57600080fd5b8151614a9d6140b682614070565b818152846020838601011115614ab257600080fd5b611037826020830160208701613f23565b60008060408385031215614ad657600080fd5b82516001600160401b0380821115614aed57600080fd5b614af986838701614a7e565b9350602091508185015181811115614b1057600080fd5b85019050601f81018613614b2357600080fd5b8051614b316140b682614626565b81815260059190911b82018301908381019088831115614b5057600080fd5b928401925b82841015614b6e57835182529284019290840190614b55565b80955050505050509250929050565b634e487b7160e01b600052601160045260246000fd5b600082821015614ba557614ba5614b7d565b500390565b8284823760609190911b6001600160601b0319169101908152601401919050565b60008351614bdd818460208801613f23565b835190830190614bf1818360208801613f23565b01949350505050565b600061ffff808816835280871660208401525084604083015260806060830152614c2860808301848661499f565b979650505050505050565b61ffff86168152608060208201526000614c5160808301868861499f565b6001600160401b0394909416604083015250606001529392505050565b600081518084526020808501945080840160005b83811015614c9e57815187529582019590820190600101614c82565b509495945050505050565b604081526000614cbc6040830185613f4f565b828103602084015261233c8185614c6e565b61ffff861681526001600160a01b038516602082015260a060408201819052600090614cfc90830186613f4f565b84151560608401528281036080840152614d168185613f4f565b98975050505050505050565b60008060408385031215614d3557600080fd5b505080516020909101519092909150565b600060208284031215614d5857600080fd5b81516001600160401b03811115614d6e57600080fd5b61103784828501614a7e565b61ffff85168152608060208201526000614d976080830186613f4f565b6001600160401b03851660408401528281036060840152614c288185613f4f565b60208082526025908201527f4552433732313a207472616e736665722066726f6d20696e636f72726563742060408201526437bbb732b960d91b606082015260800190565b634e487b7160e01b600052603260045260246000fd5b6000600019821415614e2757614e27614b7d565b5060010190565b6000816000190483118215151615614e4857614e48614b7d565b500290565b60008251614e5f818460208701613f23565b9190910192915050565b602081526000611ae86020830184614c6e565b8281526040602082015260006110376040830184613f4f565b60008219821115614ea857614ea8614b7d565b500190565b60208082526032908201527f4552433732313a207472616e7366657220746f206e6f6e20455243373231526560408201527131b2b4bb32b91034b6b83632b6b2b73a32b960711b606082015260800190565b61ffff8616815260a060208201526000614f1c60a0830187613f4f565b6001600160401b03861660408401528281036060840152614f3d8186613f4f565b90508281036080840152614d168185613f4f565b6001600160a01b039384168152919092166020820152604081019190915260600190565b61ffff8716815260c060208201526000614f9260c0830188613f4f565b8281036040840152614fa48188613f4f565b6001600160a01b0387811660608601528616608085015283810360a08501529050614fcf8185613f4f565b9998505050505050505050565b6020808252602b908201527f496e697469616c697a61626c653a20636f6e7472616374206973206e6f74206960408201526a6e697469616c697a696e6760a81b606082015260800190565b60006020828403121561503957600080fd5b8151611ae881613fc2565b6001600160a01b038581168252841660208201526040810183905260806060820181905260009061507790830184613f4f565b9695505050505050565b60006020828403121561509357600080fd5b8151611ae881613ef0565b6020808252601c908201527f4552433732313a20746f6b656e20616c7265616479206d696e7465640000000060408201526060019056fe697066733a2f2f516d65536a53696e4870506e6d586d73704d6a776958794e367a533445397a63636172694752336a7863615774712f7f26b83ff96e1f2b6a682f133852f6798a09c465da95921460cefb3847402498a26469706673582212203e8598b933a9371c5e5c4071fd9fec2dd6b241e05dc8c02282a78840157a519664736f6c63430008090033",
  "devdoc": {
    "kind": "dev",
    "methods": {
      "approve(address,uint256)": {
        "details": "See {IERC721-approve}."
      },
      "balanceOf(address)": {
        "details": "See {IERC721-balanceOf}."
      },
      "estimateSendBatchFee(uint16,bytes,uint256[],bool,bytes)": {
        "details": "estimate send token `_tokenId` to (`_dstChainId`, `_toAddress`) _dstChainId - L0 defined chain id to send tokens too _toAddress - dynamic bytes array which contains the address to whom you are sending tokens to on the dstChain _tokenIds[] - token Ids to transfer _useZro - indicates to use zro to pay L0 fees _adapterParams - flexible bytes array to indicate messaging adapter services in L0"
      },
      "estimateSendFee(uint16,bytes,uint256,bool,bytes)": {
        "details": "estimate send token `_tokenId` to (`_dstChainId`, `_toAddress`) _dstChainId - L0 defined chain id to send tokens too _toAddress - dynamic bytes array which contains the address to whom you are sending tokens to on the dstChain _tokenId - token Id to transfer _useZro - indicates to use zro to pay L0 fees _adapterParams - flexible bytes array to indicate messaging adapter services in L0"
      },
      "getApproved(uint256)": {
        "details": "See {IERC721-getApproved}."
      },
      "isApprovedForAll(address,address)": {
        "details": "See {IERC721-isApprovedForAll}."
      },
      "name()": {
        "details": "See {IERC721Metadata-name}."
      },
      "onERC721Received(address,address,uint256,bytes)": {
        "details": "See {IERC721Receiver-onERC721Received}. Always returns `IERC721Receiver.onERC721Received.selector`."
      },
      "owner()": {
        "details": "Returns the address of the current owner."
      },
      "ownerOf(uint256)": {
        "details": "See {IERC721-ownerOf}."
      },
      "renounceOwnership()": {
        "details": "Leaves the contract without owner. It will not be possible to call `onlyOwner` functions. Can only be called by the current owner. NOTE: Renouncing ownership will leave the contract without an owner, thereby disabling any functionality that is only available to the owner."
      },
      "safeTransferFrom(address,address,uint256)": {
        "details": "See {IERC721-safeTransferFrom}."
      },
      "safeTransferFrom(address,address,uint256,bytes)": {
        "details": "See {IERC721-safeTransferFrom}."
      },
      "sendBatchFrom(address,uint16,bytes,uint256[],address,address,bytes)": {
        "details": "send tokens `_tokenIds[]` to (`_dstChainId`, `_toAddress`) from `_from` `_toAddress` can be any size depending on the `dstChainId`. `_zroPaymentAddress` set to address(0x0) if not paying in ZRO (LayerZero Token) `_adapterParams` is a flexible bytes array to indicate messaging adapter services"
      },
      "sendFrom(address,uint16,bytes,uint256,address,address,bytes)": {
        "details": "send token `_tokenId` to (`_dstChainId`, `_toAddress`) from `_from` `_toAddress` can be any size depending on the `dstChainId`. `_zroPaymentAddress` set to address(0x0) if not paying in ZRO (LayerZero Token) `_adapterParams` is a flexible bytes array to indicate messaging adapter services"
      },
      "setApprovalForAll(address,bool)": {
        "details": "See {IERC721-setApprovalForAll}."
      },
      "symbol()": {
        "details": "See {IERC721Metadata-symbol}."
      },
      "tokenURI(uint256)": {
        "details": "See {IERC721Metadata-tokenURI}."
      },
      "transferFrom(address,address,uint256)": {
        "details": "See {IERC721-transferFrom}."
      },
      "transferOwnership(address)": {
        "details": "Transfers ownership of the contract to a new account (`newOwner`). Can only be called by the current owner."
      }
    },
    "version": 1
  },
  "userdoc": {
    "kind": "user",
    "methods": {},
    "version": 1
  },
  "storageLayout": {
    "storage": [
      {
        "astId": 139,
        "contract": "contracts/mocks/MockOBoredApeYachtClub.sol:MockOBoredApeYachtClub",
        "label": "_initialized",
        "offset": 0,
        "slot": "0",
        "type": "t_uint8"
      },
      {
        "astId": 142,
        "contract": "contracts/mocks/MockOBoredApeYachtClub.sol:MockOBoredApeYachtClub",
        "label": "_initializing",
        "offset": 1,
        "slot": "0",
        "type": "t_bool"
      },
      {
        "astId": 2056,
        "contract": "contracts/mocks/MockOBoredApeYachtClub.sol:MockOBoredApeYachtClub",
        "label": "__gap",
        "offset": 0,
        "slot": "1",
        "type": "t_array(t_uint256)50_storage"
      },
      {
        "astId": 11,
        "contract": "contracts/mocks/MockOBoredApeYachtClub.sol:MockOBoredApeYachtClub",
        "label": "_owner",
        "offset": 0,
        "slot": "51",
        "type": "t_address"
      },
      {
        "astId": 131,
        "contract": "contracts/mocks/MockOBoredApeYachtClub.sol:MockOBoredApeYachtClub",
        "label": "__gap",
        "offset": 0,
        "slot": "52",
        "type": "t_array(t_uint256)49_storage"
      },
      {
        "astId": 4120,
        "contract": "contracts/mocks/MockOBoredApeYachtClub.sol:MockOBoredApeYachtClub",
        "label": "lzEndpoint",
        "offset": 0,
        "slot": "101",
        "type": "t_contract(ILayerZeroEndpoint)5035"
      },
      {
        "astId": 4124,
        "contract": "contracts/mocks/MockOBoredApeYachtClub.sol:MockOBoredApeYachtClub",
        "label": "trustedRemoteLookup",
        "offset": 0,
        "slot": "102",
        "type": "t_mapping(t_uint16,t_bytes_storage)"
      },
      {
        "astId": 4130,
        "contract": "contracts/mocks/MockOBoredApeYachtClub.sol:MockOBoredApeYachtClub",
        "label": "minDstGasLookup",
        "offset": 0,
        "slot": "103",
        "type": "t_mapping(t_uint16,t_mapping(t_uint16,t_uint256))"
      },
      {
        "astId": 4134,
        "contract": "contracts/mocks/MockOBoredApeYachtClub.sol:MockOBoredApeYachtClub",
        "label": "payloadSizeLimitLookup",
        "offset": 0,
        "slot": "104",
        "type": "t_mapping(t_uint16,t_uint256)"
      },
      {
        "astId": 4136,
        "contract": "contracts/mocks/MockOBoredApeYachtClub.sol:MockOBoredApeYachtClub",
        "label": "precrime",
        "offset": 0,
        "slot": "105",
        "type": "t_address"
      },
      {
        "astId": 4675,
        "contract": "contracts/mocks/MockOBoredApeYachtClub.sol:MockOBoredApeYachtClub",
        "label": "failedMessages",
        "offset": 0,
        "slot": "106",
        "type": "t_mapping(t_uint16,t_mapping(t_bytes_memory_ptr,t_mapping(t_uint64,t_bytes32)))"
      },
      {
        "astId": 2330,
        "contract": "contracts/mocks/MockOBoredApeYachtClub.sol:MockOBoredApeYachtClub",
        "label": "__gap",
        "offset": 0,
        "slot": "107",
        "type": "t_array(t_uint256)50_storage"
      },
      {
        "astId": 444,
        "contract": "contracts/mocks/MockOBoredApeYachtClub.sol:MockOBoredApeYachtClub",
        "label": "_status",
        "offset": 0,
        "slot": "157",
        "type": "t_uint256"
      },
      {
        "astId": 513,
        "contract": "contracts/mocks/MockOBoredApeYachtClub.sol:MockOBoredApeYachtClub",
        "label": "__gap",
        "offset": 0,
        "slot": "158",
        "type": "t_array(t_uint256)49_storage"
      },
      {
        "astId": 5263,
        "contract": "contracts/mocks/MockOBoredApeYachtClub.sol:MockOBoredApeYachtClub",
        "label": "minGasToTransferAndStore",
        "offset": 0,
        "slot": "207",
        "type": "t_uint256"
      },
      {
        "astId": 5267,
        "contract": "contracts/mocks/MockOBoredApeYachtClub.sol:MockOBoredApeYachtClub",
        "label": "dstChainIdToBatchLimit",
        "offset": 0,
        "slot": "208",
        "type": "t_mapping(t_uint16,t_uint256)"
      },
      {
        "astId": 5271,
        "contract": "contracts/mocks/MockOBoredApeYachtClub.sol:MockOBoredApeYachtClub",
        "label": "dstChainIdToTransferGas",
        "offset": 0,
        "slot": "209",
        "type": "t_mapping(t_uint16,t_uint256)"
      },
      {
        "astId": 5276,
        "contract": "contracts/mocks/MockOBoredApeYachtClub.sol:MockOBoredApeYachtClub",
        "label": "storedCredits",
        "offset": 0,
        "slot": "210",
        "type": "t_mapping(t_bytes32,t_struct(StoredCredit)5261_storage)"
      },
      {
        "astId": 544,
        "contract": "contracts/mocks/MockOBoredApeYachtClub.sol:MockOBoredApeYachtClub",
        "label": "_name",
        "offset": 0,
        "slot": "211",
        "type": "t_string_storage"
      },
      {
        "astId": 546,
        "contract": "contracts/mocks/MockOBoredApeYachtClub.sol:MockOBoredApeYachtClub",
        "label": "_symbol",
        "offset": 0,
        "slot": "212",
        "type": "t_string_storage"
      },
      {
        "astId": 550,
        "contract": "contracts/mocks/MockOBoredApeYachtClub.sol:MockOBoredApeYachtClub",
        "label": "_owners",
        "offset": 0,
        "slot": "213",
        "type": "t_mapping(t_uint256,t_address)"
      },
      {
        "astId": 554,
        "contract": "contracts/mocks/MockOBoredApeYachtClub.sol:MockOBoredApeYachtClub",
        "label": "_balances",
        "offset": 0,
        "slot": "214",
        "type": "t_mapping(t_address,t_uint256)"
      },
      {
        "astId": 558,
        "contract": "contracts/mocks/MockOBoredApeYachtClub.sol:MockOBoredApeYachtClub",
        "label": "_tokenApprovals",
        "offset": 0,
        "slot": "215",
        "type": "t_mapping(t_uint256,t_address)"
      },
      {
        "astId": 564,
        "contract": "contracts/mocks/MockOBoredApeYachtClub.sol:MockOBoredApeYachtClub",
        "label": "_operatorApprovals",
        "offset": 0,
        "slot": "216",
        "type": "t_mapping(t_address,t_mapping(t_address,t_bool))"
      },
      {
        "astId": 1466,
        "contract": "contracts/mocks/MockOBoredApeYachtClub.sol:MockOBoredApeYachtClub",
        "label": "__gap",
        "offset": 0,
        "slot": "217",
        "type": "t_array(t_uint256)44_storage"
      },
      {
        "astId": 1675,
        "contract": "contracts/mocks/MockOBoredApeYachtClub.sol:MockOBoredApeYachtClub",
        "label": "__gap",
        "offset": 0,
        "slot": "261",
        "type": "t_array(t_uint256)50_storage"
      },
      {
        "astId": 3454,
        "contract": "contracts/mocks/MockOBoredApeYachtClub.sol:MockOBoredApeYachtClub",
        "label": "collateral",
        "offset": 0,
        "slot": "311",
        "type": "t_address"
      }
    ],
    "types": {
      "t_address": {
        "encoding": "inplace",
        "label": "address",
        "numberOfBytes": "20"
      },
      "t_array(t_uint256)44_storage": {
        "base": "t_uint256",
        "encoding": "inplace",
        "label": "uint256[44]",
        "numberOfBytes": "1408"
      },
      "t_array(t_uint256)49_storage": {
        "base": "t_uint256",
        "encoding": "inplace",
        "label": "uint256[49]",
        "numberOfBytes": "1568"
      },
      "t_array(t_uint256)50_storage": {
        "base": "t_uint256",
        "encoding": "inplace",
        "label": "uint256[50]",
        "numberOfBytes": "1600"
      },
      "t_bool": {
        "encoding": "inplace",
        "label": "bool",
        "numberOfBytes": "1"
      },
      "t_bytes32": {
        "encoding": "inplace",
        "label": "bytes32",
        "numberOfBytes": "32"
      },
      "t_bytes_memory_ptr": {
        "encoding": "bytes",
        "label": "bytes",
        "numberOfBytes": "32"
      },
      "t_bytes_storage": {
        "encoding": "bytes",
        "label": "bytes",
        "numberOfBytes": "32"
      },
      "t_contract(ILayerZeroEndpoint)5035": {
        "encoding": "inplace",
        "label": "contract ILayerZeroEndpoint",
        "numberOfBytes": "20"
      },
      "t_mapping(t_address,t_bool)": {
        "encoding": "mapping",
        "key": "t_address",
        "label": "mapping(address => bool)",
        "numberOfBytes": "32",
        "value": "t_bool"
      },
      "t_mapping(t_address,t_mapping(t_address,t_bool))": {
        "encoding": "mapping",
        "key": "t_address",
        "label": "mapping(address => mapping(address => bool))",
        "numberOfBytes": "32",
        "value": "t_mapping(t_address,t_bool)"
      },
      "t_mapping(t_address,t_uint256)": {
        "encoding": "mapping",
        "key": "t_address",
        "label": "mapping(address => uint256)",
        "numberOfBytes": "32",
        "value": "t_uint256"
      },
      "t_mapping(t_bytes32,t_struct(StoredCredit)5261_storage)": {
        "encoding": "mapping",
        "key": "t_bytes32",
        "label": "mapping(bytes32 => struct ONFT721Core.StoredCredit)",
        "numberOfBytes": "32",
        "value": "t_struct(StoredCredit)5261_storage"
      },
      "t_mapping(t_bytes_memory_ptr,t_mapping(t_uint64,t_bytes32))": {
        "encoding": "mapping",
        "key": "t_bytes_memory_ptr",
        "label": "mapping(bytes => mapping(uint64 => bytes32))",
        "numberOfBytes": "32",
        "value": "t_mapping(t_uint64,t_bytes32)"
      },
      "t_mapping(t_uint16,t_bytes_storage)": {
        "encoding": "mapping",
        "key": "t_uint16",
        "label": "mapping(uint16 => bytes)",
        "numberOfBytes": "32",
        "value": "t_bytes_storage"
      },
      "t_mapping(t_uint16,t_mapping(t_bytes_memory_ptr,t_mapping(t_uint64,t_bytes32)))": {
        "encoding": "mapping",
        "key": "t_uint16",
        "label": "mapping(uint16 => mapping(bytes => mapping(uint64 => bytes32)))",
        "numberOfBytes": "32",
        "value": "t_mapping(t_bytes_memory_ptr,t_mapping(t_uint64,t_bytes32))"
      },
      "t_mapping(t_uint16,t_mapping(t_uint16,t_uint256))": {
        "encoding": "mapping",
        "key": "t_uint16",
        "label": "mapping(uint16 => mapping(uint16 => uint256))",
        "numberOfBytes": "32",
        "value": "t_mapping(t_uint16,t_uint256)"
      },
      "t_mapping(t_uint16,t_uint256)": {
        "encoding": "mapping",
        "key": "t_uint16",
        "label": "mapping(uint16 => uint256)",
        "numberOfBytes": "32",
        "value": "t_uint256"
      },
      "t_mapping(t_uint256,t_address)": {
        "encoding": "mapping",
        "key": "t_uint256",
        "label": "mapping(uint256 => address)",
        "numberOfBytes": "32",
        "value": "t_address"
      },
      "t_mapping(t_uint64,t_bytes32)": {
        "encoding": "mapping",
        "key": "t_uint64",
        "label": "mapping(uint64 => bytes32)",
        "numberOfBytes": "32",
        "value": "t_bytes32"
      },
      "t_string_storage": {
        "encoding": "bytes",
        "label": "string",
        "numberOfBytes": "32"
      },
      "t_struct(StoredCredit)5261_storage": {
        "encoding": "inplace",
        "label": "struct ONFT721Core.StoredCredit",
        "members": [
          {
            "astId": 5254,
            "contract": "contracts/mocks/MockOBoredApeYachtClub.sol:MockOBoredApeYachtClub",
            "label": "srcChainId",
            "offset": 0,
            "slot": "0",
            "type": "t_uint16"
          },
          {
            "astId": 5256,
            "contract": "contracts/mocks/MockOBoredApeYachtClub.sol:MockOBoredApeYachtClub",
            "label": "toAddress",
            "offset": 2,
            "slot": "0",
            "type": "t_address"
          },
          {
            "astId": 5258,
            "contract": "contracts/mocks/MockOBoredApeYachtClub.sol:MockOBoredApeYachtClub",
            "label": "index",
            "offset": 0,
            "slot": "1",
            "type": "t_uint256"
          },
          {
            "astId": 5260,
            "contract": "contracts/mocks/MockOBoredApeYachtClub.sol:MockOBoredApeYachtClub",
            "label": "creditsRemain",
            "offset": 0,
            "slot": "2",
            "type": "t_bool"
          }
        ],
        "numberOfBytes": "96"
      },
      "t_uint16": {
        "encoding": "inplace",
        "label": "uint16",
        "numberOfBytes": "2"
      },
      "t_uint256": {
        "encoding": "inplace",
        "label": "uint256",
        "numberOfBytes": "32"
      },
      "t_uint64": {
        "encoding": "inplace",
        "label": "uint64",
        "numberOfBytes": "8"
      },
      "t_uint8": {
        "encoding": "inplace",
        "label": "uint8",
        "numberOfBytes": "1"
      }
    }
  }
}