{
  "address": "0x784C70dDc8FD6C61bBeFC6e8Ff8C15b9725b0c4F",
  "abi": [
    {
      "anonymous": false,
      "inputs": [
        {
          "indexed": true,
          "internalType": "address",
          "name": "owner",
          "type": "address"
        },
        {
          "indexed": true,
          "internalType": "address",
          "name": "approved",
          "type": "address"
        },
        {
          "indexed": true,
          "internalType": "uint256",
          "name": "tokenId",
          "type": "uint256"
        }
      ],
      "name": "Approval",
      "type": "event"
    },
    {
      "anonymous": false,
      "inputs": [
        {
          "indexed": true,
          "internalType": "address",
          "name": "owner",
          "type": "address"
        },
        {
          "indexed": true,
          "internalType": "address",
          "name": "operator",
          "type": "address"
        },
        {
          "indexed": false,
          "internalType": "bool",
          "name": "approved",
          "type": "bool"
        }
      ],
      "name": "ApprovalForAll",
      "type": "event"
    },
    {
      "anonymous": false,
      "inputs": [
        {
          "indexed": false,
          "internalType": "uint8",
          "name": "version",
          "type": "uint8"
        }
      ],
      "name": "Initialized",
      "type": "event"
    },
    {
      "anonymous": false,
      "inputs": [
        {
          "indexed": true,
          "internalType": "address",
          "name": "previousOwner",
          "type": "address"
        },
        {
          "indexed": true,
          "internalType": "address",
          "name": "newOwner",
          "type": "address"
        }
      ],
      "name": "OwnershipTransferred",
      "type": "event"
    },
    {
      "anonymous": false,
      "inputs": [
        {
          "indexed": false,
          "internalType": "address",
          "name": "account",
          "type": "address"
        }
      ],
      "name": "Paused",
      "type": "event"
    },
    {
      "anonymous": false,
      "inputs": [
        {
          "indexed": true,
          "internalType": "address",
          "name": "from",
          "type": "address"
        },
        {
          "indexed": true,
          "internalType": "address",
          "name": "to",
          "type": "address"
        },
        {
          "indexed": true,
          "internalType": "uint256",
          "name": "tokenId",
          "type": "uint256"
        }
      ],
      "name": "Transfer",
      "type": "event"
    },
    {
      "anonymous": false,
      "inputs": [
        {
          "indexed": false,
          "internalType": "address",
          "name": "account",
          "type": "address"
        }
      ],
      "name": "Unpaused",
      "type": "event"
    },
    {
      "inputs": [
        {
          "internalType": "string",
          "name": "_name",
          "type": "string"
        },
        {
          "internalType": "string",
          "name": "_symbol",
          "type": "string"
        },
        {
          "internalType": "address",
          "name": "_executor",
          "type": "address"
        }
      ],
      "name": "__OrdAssetWrapBase_init",
      "outputs": [],
      "stateMutability": "nonpayable",
      "type": "function"
    },
    {
      "inputs": [
        {
          "internalType": "address",
          "name": "to",
          "type": "address"
        },
        {
          "internalType": "uint256",
          "name": "tokenId",
          "type": "uint256"
        }
      ],
      "name": "approve",
      "outputs": [],
      "stateMutability": "nonpayable",
      "type": "function"
    },
    {
      "inputs": [
        {
          "internalType": "address",
          "name": "owner",
          "type": "address"
        }
      ],
      "name": "balanceOf",
      "outputs": [
        {
          "internalType": "uint256",
          "name": "",
          "type": "uint256"
        }
      ],
      "stateMutability": "view",
      "type": "function"
    },
    {
      "inputs": [
        {
          "internalType": "address",
          "name": "to",
          "type": "address"
        },
        {
          "internalType": "uint256",
          "name": "tokenId",
          "type": "uint256"
        }
      ],
      "name": "crossFromOrd",
      "outputs": [],
      "stateMutability": "nonpayable",
      "type": "function"
    },
    {
      "inputs": [
        {
          "internalType": "address",
          "name": "to",
          "type": "address"
        },
        {
          "internalType": "uint256",
          "name": "tokenId",
          "type": "uint256"
        }
      ],
      "name": "crossToOrd",
      "outputs": [],
      "stateMutability": "nonpayable",
      "type": "function"
    },
    {
      "inputs": [],
      "name": "executor",
      "outputs": [
        {
          "internalType": "address",
          "name": "",
          "type": "address"
        }
      ],
      "stateMutability": "view",
      "type": "function"
    },
    {
      "inputs": [
        {
          "internalType": "uint256",
          "name": "tokenId",
          "type": "uint256"
        }
      ],
      "name": "getApproved",
      "outputs": [
        {
          "internalType": "address",
          "name": "",
          "type": "address"
        }
      ],
      "stateMutability": "view",
      "type": "function"
    },
    {
      "inputs": [
        {
          "internalType": "address",
          "name": "_executor",
          "type": "address"
        }
      ],
      "name": "initialize",
      "outputs": [],
      "stateMutability": "nonpayable",
      "type": "function"
    },
    {
      "inputs": [
        {
          "internalType": "address",
          "name": "owner",
          "type": "address"
        },
        {
          "internalType": "address",
          "name": "operator",
          "type": "address"
        }
      ],
      "name": "isApprovedForAll",
      "outputs": [
        {
          "internalType": "bool",
          "name": "",
          "type": "bool"
        }
      ],
      "stateMutability": "view",
      "type": "function"
    },
    {
      "inputs": [],
      "name": "name",
      "outputs": [
        {
          "internalType": "string",
          "name": "",
          "type": "string"
        }
      ],
      "stateMutability": "view",
      "type": "function"
    },
    {
      "inputs": [
        {
          "internalType": "address",
          "name": "",
          "type": "address"
        },
        {
          "internalType": "address",
          "name": "",
          "type": "address"
        },
        {
          "internalType": "uint256",
          "name": "",
          "type": "uint256"
        },
        {
          "internalType": "bytes",
          "name": "",
          "type": "bytes"
        }
      ],
      "name": "onERC721Received",
      "outputs": [
        {
          "internalType": "bytes4",
          "name": "",
          "type": "bytes4"
        }
      ],
      "stateMutability": "nonpayable",
      "type": "function"
    },
    {
      "inputs": [],
      "name": "owner",
      "outputs": [
        {
          "internalType": "address",
          "name": "",
          "type": "address"
        }
      ],
      "stateMutability": "view",
      "type": "function"
    },
    {
      "inputs": [
        {
          "internalType": "uint256",
          "name": "tokenId",
          "type": "uint256"
        }
      ],
      "name": "ownerOf",
      "outputs": [
        {
          "internalType": "address",
          "name": "",
          "type": "address"
        }
      ],
      "stateMutability": "view",
      "type": "function"
    },
    {
      "inputs": [],
      "name": "paused",
      "outputs": [
        {
          "internalType": "bool",
          "name": "",
          "type": "bool"
        }
      ],
      "stateMutability": "view",
      "type": "function"
    },
    {
      "inputs": [],
      "name": "renounceOwnership",
      "outputs": [],
      "stateMutability": "nonpayable",
      "type": "function"
    },
    {
      "inputs": [
        {
          "internalType": "address",
          "name": "from",
          "type": "address"
        },
        {
          "internalType": "address",
          "name": "to",
          "type": "address"
        },
        {
          "internalType": "uint256",
          "name": "tokenId",
          "type": "uint256"
        }
      ],
      "name": "safeTransferFrom",
      "outputs": [],
      "stateMutability": "nonpayable",
      "type": "function"
    },
    {
      "inputs": [
        {
          "internalType": "address",
          "name": "from",
          "type": "address"
        },
        {
          "internalType": "address",
          "name": "to",
          "type": "address"
        },
        {
          "internalType": "uint256",
          "name": "tokenId",
          "type": "uint256"
        },
        {
          "internalType": "bytes",
          "name": "data",
          "type": "bytes"
        }
      ],
      "name": "safeTransferFrom",
      "outputs": [],
      "stateMutability": "nonpayable",
      "type": "function"
    },
    {
      "inputs": [
        {
          "internalType": "address",
          "name": "operator",
          "type": "address"
        },
        {
          "internalType": "bool",
          "name": "approved",
          "type": "bool"
        }
      ],
      "name": "setApprovalForAll",
      "outputs": [],
      "stateMutability": "nonpayable",
      "type": "function"
    },
    {
      "inputs": [
        {
          "internalType": "address",
          "name": "_executor",
          "type": "address"
        }
      ],
      "name": "setExecutor",
      "outputs": [],
      "stateMutability": "nonpayable",
      "type": "function"
    },
    {
      "inputs": [
        {
          "internalType": "bytes4",
          "name": "interfaceId",
          "type": "bytes4"
        }
      ],
      "name": "supportsInterface",
      "outputs": [
        {
          "internalType": "bool",
          "name": "",
          "type": "bool"
        }
      ],
      "stateMutability": "view",
      "type": "function"
    },
    {
      "inputs": [],
      "name": "symbol",
      "outputs": [
        {
          "internalType": "string",
          "name": "",
          "type": "string"
        }
      ],
      "stateMutability": "view",
      "type": "function"
    },
    {
      "inputs": [
        {
          "internalType": "uint256",
          "name": "index",
          "type": "uint256"
        }
      ],
      "name": "tokenByIndex",
      "outputs": [
        {
          "internalType": "uint256",
          "name": "",
          "type": "uint256"
        }
      ],
      "stateMutability": "view",
      "type": "function"
    },
    {
      "inputs": [
        {
          "internalType": "address",
          "name": "owner",
          "type": "address"
        },
        {
          "internalType": "uint256",
          "name": "index",
          "type": "uint256"
        }
      ],
      "name": "tokenOfOwnerByIndex",
      "outputs": [
        {
          "internalType": "uint256",
          "name": "",
          "type": "uint256"
        }
      ],
      "stateMutability": "view",
      "type": "function"
    },
    {
      "inputs": [
        {
          "internalType": "uint256",
          "name": "tokenId",
          "type": "uint256"
        }
      ],
      "name": "tokenURI",
      "outputs": [
        {
          "internalType": "string",
          "name": "",
          "type": "string"
        }
      ],
      "stateMutability": "view",
      "type": "function"
    },
    {
      "inputs": [],
      "name": "totalSupply",
      "outputs": [
        {
          "internalType": "uint256",
          "name": "",
          "type": "uint256"
        }
      ],
      "stateMutability": "view",
      "type": "function"
    },
    {
      "inputs": [
        {
          "internalType": "address",
          "name": "from",
          "type": "address"
        },
        {
          "internalType": "address",
          "name": "to",
          "type": "address"
        },
        {
          "internalType": "uint256",
          "name": "tokenId",
          "type": "uint256"
        }
      ],
      "name": "transferFrom",
      "outputs": [],
      "stateMutability": "nonpayable",
      "type": "function"
    },
    {
      "inputs": [
        {
          "internalType": "address",
          "name": "newOwner",
          "type": "address"
        }
      ],
      "name": "transferOwnership",
      "outputs": [],
      "stateMutability": "nonpayable",
      "type": "function"
    }
  ],
  "transactionHash": "0x24bb0204bb25d94b3104e21e6fc9c153dd594f1c143b88375904f0597fd002e6",
  "args": [],
  "numDeployments": 1,
  "solcInputHash": "50a4f1e6797a1a3426fb0ecec542fb1e",
  "bytecode": "0x608060405234801561001057600080fd5b506120f7806100206000396000f3fe608060405234801561001057600080fd5b50600436106101795760003560e01c80636352211e116100d9578063c34c08e511610087578063c34c08e514610324578063c4d66de814610338578063c87b56dd1461034b578063d48efd691461035e578063e985e9c514610371578063f2fde38b14610384578063f55e5e921461039757600080fd5b80636352211e146102b757806370a08231146102ca578063715018a6146102dd5780638da5cb5b146102e557806395d89b41146102f6578063a22cb465146102fe578063b88d4fde1461031157600080fd5b806318160ddd1161013657806318160ddd1461023a5780631c3c0ea81461024d57806323b872dd146102605780632f745c591461027357806342842e0e146102865780634f6ccce7146102995780635c975abb146102ac57600080fd5b806301ffc9a71461017e57806306fdde03146101a6578063081812fc146101bb578063095ea7b3146101e6578063150b7a02146101fb578063176a728114610227575b600080fd5b61019161018c366004611a3b565b6103aa565b60405190151581526020015b60405180910390f35b6101ae6103d5565b60405161019d9190611ab0565b6101ce6101c9366004611ac3565b610467565b6040516001600160a01b03909116815260200161019d565b6101f96101f4366004611af8565b61048e565b005b61020e610209366004611bae565b6105a9565b6040516001600160e01b0319909116815260200161019d565b6101f9610235366004611c4a565b6105ba565b61012f545b60405190815260200161019d565b6101f961025b366004611cbe565b6106dc565b6101f961026e366004611cd9565b610707565b61023f610281366004611af8565b610738565b6101f9610294366004611cd9565b6107cf565b61023f6102a7366004611ac3565b6107ea565b60655460ff16610191565b6101ce6102c5366004611ac3565b61087f565b61023f6102d8366004611cbe565b6108b4565b6101f961093a565b6033546001600160a01b03166101ce565b6101ae61094e565b6101f961030c366004611d15565b61095d565b6101f961031f366004611bae565b61096c565b610191546101ce906001600160a01b031681565b6101f9610346366004611cbe565b61099e565b6101ae610359366004611ac3565b610aaf565b6101f961036c366004611af8565b610b16565b61019161037f366004611d51565b610b95565b6101f9610392366004611cbe565b610bc4565b6101f96103a5366004611af8565b610c3d565b60006001600160e01b0319821663780e9d6360e01b14806103cf57506103cf82610c58565b92915050565b606060fb80546103e490611d84565b80601f016020809104026020016040519081016040528092919081815260200182805461041090611d84565b801561045d5780601f106104325761010080835404028352916020019161045d565b820191906000526020600020905b81548152906001019060200180831161044057829003601f168201915b5050505050905090565b600061047282610ca8565b50600090815260ff60205260409020546001600160a01b031690565b60006104998261087f565b9050806001600160a01b0316836001600160a01b0316141561050c5760405162461bcd60e51b815260206004820152602160248201527f4552433732313a20617070726f76616c20746f2063757272656e74206f776e656044820152603960f91b60648201526084015b60405180910390fd5b336001600160a01b038216148061052857506105288133610b95565b61059a5760405162461bcd60e51b815260206004820152603d60248201527f4552433732313a20617070726f76652063616c6c6572206973206e6f7420746f60448201527f6b656e206f776e6572206f7220617070726f76656420666f7220616c6c0000006064820152608401610503565b6105a48383610ccd565b505050565b630a85bd0160e11b5b949350505050565b600054610100900460ff16158080156105da5750600054600160ff909116105b806105f45750303b1580156105f4575060005460ff166001145b6106105760405162461bcd60e51b815260040161050390611dbf565b6000805460ff191660011790558015610633576000805461ff0019166101001790555b61063b610d3b565b610643610d6a565b61064d8484610d99565b6001600160a01b0382166106735761019180546001600160a01b03191633179055610690565b61019180546001600160a01b0319166001600160a01b0384161790555b80156106d6576000805461ff0019169055604051600181527f7f26b83ff96e1f2b6a682f133852f6798a09c465da95921460cefb38474024989060200160405180910390a15b50505050565b6106e4610dca565b61019180546001600160a01b0319166001600160a01b0392909216919091179055565b6107113382610e24565b61072d5760405162461bcd60e51b815260040161050390611e0d565b6105a4838383610e82565b6000610743836108b4565b82106107a55760405162461bcd60e51b815260206004820152602b60248201527f455243373231456e756d657261626c653a206f776e657220696e646578206f7560448201526a74206f6620626f756e647360a81b6064820152608401610503565b506001600160a01b0391909116600090815261012d60209081526040808320938352929052205490565b6105a48383836040518060200160405280600081525061096c565b60006107f661012f5490565b82106108595760405162461bcd60e51b815260206004820152602c60248201527f455243373231456e756d657261626c653a20676c6f62616c20696e646578206f60448201526b7574206f6620626f756e647360a01b6064820152608401610503565b61012f828154811061086d5761086d611e5a565b90600052602060002001549050919050565b600081815260fd60205260408120546001600160a01b0316806103cf5760405162461bcd60e51b815260040161050390611e70565b60006001600160a01b03821661091e5760405162461bcd60e51b815260206004820152602960248201527f4552433732313a2061646472657373207a65726f206973206e6f7420612076616044820152683634b21037bbb732b960b91b6064820152608401610503565b506001600160a01b0316600090815260fe602052604090205490565b610942610dca565b61094c6000610ff3565b565b606060fc80546103e490611d84565b610968338383611045565b5050565b6109763383610e24565b6109925760405162461bcd60e51b815260040161050390611e0d565b6106d684848484611111565b600054610100900460ff16158080156109be5750600054600160ff909116105b806109d85750303b1580156109d8575060005460ff166001145b6109f45760405162461bcd60e51b815260040161050390611dbf565b6000805460ff191660011790558015610a17576000805461ff0019166101001790555b610a666040518060400160405280600f81526020016e57726170426974636f696e46726f6760881b815250604051806040016040528060058152602001645746524f4760d81b815250846105ba565b8015610968576000805461ff0019169055604051600181527f7f26b83ff96e1f2b6a682f133852f6798a09c465da95921460cefb38474024989060200160405180910390a15050565b6060610aba82610ca8565b6000610ac4611144565b90506000815111610ae45760405180602001604052806000815250610b0f565b80610aee84611164565b604051602001610aff929190611ea2565b6040516020818303038152906040525b9392505050565b610191546001600160a01b0316336001600160a01b031614610b3757600080fd5b610b3f611201565b610b47611247565b610b50816112a1565b610b6357610b5e82826112be565b610b8b565b30610b6d8261087f565b6001600160a01b031614610b8057600080fd5b610b8b3083836107cf565b6109686001609755565b6001600160a01b0391821660009081526101006020908152604080832093909416825291909152205460ff1690565b610bcc610dca565b6001600160a01b038116610c315760405162461bcd60e51b815260206004820152602660248201527f4f776e61626c653a206e6577206f776e657220697320746865207a65726f206160448201526564647265737360d01b6064820152608401610503565b610c3a81610ff3565b50565b610c45611201565b610c4d611247565b610b8b8230836107cf565b60006001600160e01b031982166380ac58cd60e01b1480610c8957506001600160e01b03198216635b5e139f60e01b145b806103cf57506301ffc9a760e01b6001600160e01b03198316146103cf565b610cb1816112a1565b610c3a5760405162461bcd60e51b815260040161050390611e70565b600081815260ff6020526040902080546001600160a01b0319166001600160a01b0384169081179091558190610d028261087f565b6001600160a01b03167f8c5be1e5ebec7d5bd14f71427d1e84f3dd0314c0f7b2291e5b200ac8c7c3b92560405160405180910390a45050565b600054610100900460ff16610d625760405162461bcd60e51b815260040161050390611ed1565b61094c6112d8565b600054610100900460ff16610d915760405162461bcd60e51b815260040161050390611ed1565b61094c611308565b600054610100900460ff16610dc05760405162461bcd60e51b815260040161050390611ed1565b610968828261133b565b6033546001600160a01b0316331461094c5760405162461bcd60e51b815260206004820181905260248201527f4f776e61626c653a2063616c6c6572206973206e6f7420746865206f776e65726044820152606401610503565b600080610e308361087f565b9050806001600160a01b0316846001600160a01b03161480610e575750610e578185610b95565b806105b25750836001600160a01b0316610e7084610467565b6001600160a01b031614949350505050565b826001600160a01b0316610e958261087f565b6001600160a01b031614610ebb5760405162461bcd60e51b815260040161050390611f1c565b6001600160a01b038216610f1d5760405162461bcd60e51b8152602060048201526024808201527f4552433732313a207472616e7366657220746f20746865207a65726f206164646044820152637265737360e01b6064820152608401610503565b610f2a8383836001611389565b826001600160a01b0316610f3d8261087f565b6001600160a01b031614610f635760405162461bcd60e51b815260040161050390611f1c565b600081815260ff6020908152604080832080546001600160a01b03199081169091556001600160a01b0387811680865260fe855283862080546000190190559087168086528386208054600101905586865260fd90945282852080549092168417909155905184937fddf252ad1be2c89b69c2b068fc378daa952ba7f163c4a11628f55a4df523b3ef91a4505050565b603380546001600160a01b038381166001600160a01b0319831681179093556040519116919082907f8be0079c531659141344cd1fd0a4f28419497f9722a3daafe3b4186f6b6457e090600090a35050565b816001600160a01b0316836001600160a01b031614156110a35760405162461bcd60e51b815260206004820152601960248201527822a9219b99189d1030b8383937bb32903a379031b0b63632b960391b6044820152606401610503565b6001600160a01b0383811660008181526101006020908152604080832094871680845294825291829020805460ff191686151590811790915591519182527f17307eab39ab6107e8899845ad3d59bd9653f200f220920489ca2b5937696c31910160405180910390a3505050565b61111c848484610e82565b611128848484846114bf565b6106d65760405162461bcd60e51b815260040161050390611f61565b606060405180608001604052806042815260200161208060429139905090565b60606000611171836115c9565b600101905060008167ffffffffffffffff81111561119157611191611b22565b6040519080825280601f01601f1916602001820160405280156111bb576020820181803683370190505b5090508181016020015b600019016f181899199a1a9b1b9c1cb0b131b232b360811b600a86061a8153600a85049450846111f4576111f9565b6111c5565b509392505050565b60655460ff161561094c5760405162461bcd60e51b815260206004820152601060248201526f14185d5cd8589b194e881c185d5cd95960821b6044820152606401610503565b6002609754141561129a5760405162461bcd60e51b815260206004820152601f60248201527f5265656e7472616e637947756172643a207265656e7472616e742063616c6c006044820152606401610503565b6002609755565b600090815260fd60205260409020546001600160a01b0316151590565b6109688282604051806020016040528060008152506116a1565b600054610100900460ff166112ff5760405162461bcd60e51b815260040161050390611ed1565b61094c33610ff3565b600054610100900460ff1661132f5760405162461bcd60e51b815260040161050390611ed1565b6065805460ff19169055565b600054610100900460ff166113625760405162461bcd60e51b815260040161050390611ed1565b81516113759060fb90602085019061198c565b5080516105a49060fc90602084019061198c565b60018111156113f85760405162461bcd60e51b815260206004820152603560248201527f455243373231456e756d657261626c653a20636f6e7365637574697665207472604482015274185b9cd9995c9cc81b9bdd081cdd5c1c1bdc9d1959605a1b6064820152608401610503565b816001600160a01b038516611456576114518161012f8054600083815261013060205260408120829055600182018355919091527f232da9e50dad2971456a78fb5cd6ff6b75019984d6e918139ce990999420f9790155565b611479565b836001600160a01b0316856001600160a01b0316146114795761147985826116d4565b6001600160a01b0384166114955761149081611776565b6114b8565b846001600160a01b0316846001600160a01b0316146114b8576114b8848261182b565b5050505050565b60006001600160a01b0384163b156115c157604051630a85bd0160e11b81526001600160a01b0385169063150b7a0290611503903390899088908890600401611fb3565b602060405180830381600087803b15801561151d57600080fd5b505af192505050801561154d575060408051601f3d908101601f1916820190925261154a91810190611ff0565b60015b6115a7573d80801561157b576040519150601f19603f3d011682016040523d82523d6000602084013e611580565b606091505b50805161159f5760405162461bcd60e51b815260040161050390611f61565b805181602001fd5b6001600160e01b031916630a85bd0160e11b1490506105b2565b5060016105b2565b60008072184f03e93ff9f4daa797ed6e38ed64bf6a1f0160401b83106116085772184f03e93ff9f4daa797ed6e38ed64bf6a1f0160401b830492506040015b6d04ee2d6d415b85acef81000000008310611634576d04ee2d6d415b85acef8100000000830492506020015b662386f26fc10000831061165257662386f26fc10000830492506010015b6305f5e100831061166a576305f5e100830492506008015b612710831061167e57612710830492506004015b60648310611690576064830492506002015b600a83106103cf5760010192915050565b6116ab8383611871565b6116b860008484846114bf565b6105a45760405162461bcd60e51b815260040161050390611f61565b600060016116e1846108b4565b6116eb919061200d565b600083815261012e6020526040902054909150808214611741576001600160a01b038416600090815261012d60209081526040808320858452825280832054848452818420819055835261012e90915290208190555b50600091825261012e602090815260408084208490556001600160a01b03909416835261012d81528383209183525290812055565b61012f546000906117899060019061200d565b6000838152610130602052604081205461012f80549394509092849081106117b3576117b3611e5a565b906000526020600020015490508061012f83815481106117d5576117d5611e5a565b6000918252602080832090910192909255828152610130909152604080822084905585825281205561012f80548061180f5761180f612032565b6001900381819060005260206000200160009055905550505050565b6000611836836108b4565b6001600160a01b03909316600090815261012d60209081526040808320868452825280832085905593825261012e9052919091209190915550565b6001600160a01b0382166118c75760405162461bcd60e51b815260206004820181905260248201527f4552433732313a206d696e7420746f20746865207a65726f20616464726573736044820152606401610503565b6118d0816112a1565b156118ed5760405162461bcd60e51b815260040161050390612048565b6118fb600083836001611389565b611904816112a1565b156119215760405162461bcd60e51b815260040161050390612048565b6001600160a01b038216600081815260fe602090815260408083208054600101905584835260fd90915280822080546001600160a01b0319168417905551839291907fddf252ad1be2c89b69c2b068fc378daa952ba7f163c4a11628f55a4df523b3ef908290a45050565b82805461199890611d84565b90600052602060002090601f0160209004810192826119ba5760008555611a00565b82601f106119d357805160ff1916838001178555611a00565b82800160010185558215611a00579182015b82811115611a005782518255916020019190600101906119e5565b50611a0c929150611a10565b5090565b5b80821115611a0c5760008155600101611a11565b6001600160e01b031981168114610c3a57600080fd5b600060208284031215611a4d57600080fd5b8135610b0f81611a25565b60005b83811015611a73578181015183820152602001611a5b565b838111156106d65750506000910152565b60008151808452611a9c816020860160208601611a58565b601f01601f19169290920160200192915050565b602081526000610b0f6020830184611a84565b600060208284031215611ad557600080fd5b5035919050565b80356001600160a01b0381168114611af357600080fd5b919050565b60008060408385031215611b0b57600080fd5b611b1483611adc565b946020939093013593505050565b634e487b7160e01b600052604160045260246000fd5b600067ffffffffffffffff80841115611b5357611b53611b22565b604051601f8501601f19908116603f01168101908282118183101715611b7b57611b7b611b22565b81604052809350858152868686011115611b9457600080fd5b858560208301376000602087830101525050509392505050565b60008060008060808587031215611bc457600080fd5b611bcd85611adc565b9350611bdb60208601611adc565b925060408501359150606085013567ffffffffffffffff811115611bfe57600080fd5b8501601f81018713611c0f57600080fd5b611c1e87823560208401611b38565b91505092959194509250565b600082601f830112611c3b57600080fd5b610b0f83833560208501611b38565b600080600060608486031215611c5f57600080fd5b833567ffffffffffffffff80821115611c7757600080fd5b611c8387838801611c2a565b94506020860135915080821115611c9957600080fd5b50611ca686828701611c2a565b925050611cb560408501611adc565b90509250925092565b600060208284031215611cd057600080fd5b610b0f82611adc565b600080600060608486031215611cee57600080fd5b611cf784611adc565b9250611d0560208501611adc565b9150604084013590509250925092565b60008060408385031215611d2857600080fd5b611d3183611adc565b915060208301358015158114611d4657600080fd5b809150509250929050565b60008060408385031215611d6457600080fd5b611d6d83611adc565b9150611d7b60208401611adc565b90509250929050565b600181811c90821680611d9857607f821691505b60208210811415611db957634e487b7160e01b600052602260045260246000fd5b50919050565b6020808252602e908201527f496e697469616c697a61626c653a20636f6e747261637420697320616c72656160408201526d191e481a5b9a5d1a585b1a5e995960921b606082015260800190565b6020808252602d908201527f4552433732313a2063616c6c6572206973206e6f7420746f6b656e206f776e6560408201526c1c881bdc88185c1c1c9bdd9959609a1b606082015260800190565b634e487b7160e01b600052603260045260246000fd5b602080825260189082015277115490cdcc8c4e881a5b9d985b1a59081d1bdad95b88125160421b604082015260600190565b60008351611eb4818460208801611a58565b835190830190611ec8818360208801611a58565b01949350505050565b6020808252602b908201527f496e697469616c697a61626c653a20636f6e7472616374206973206e6f74206960408201526a6e697469616c697a696e6760a81b606082015260800190565b60208082526025908201527f4552433732313a207472616e736665722066726f6d20696e636f72726563742060408201526437bbb732b960d91b606082015260800190565b60208082526032908201527f4552433732313a207472616e7366657220746f206e6f6e20455243373231526560408201527131b2b4bb32b91034b6b83632b6b2b73a32b960711b606082015260800190565b6001600160a01b0385811682528416602082015260408101839052608060608201819052600090611fe690830184611a84565b9695505050505050565b60006020828403121561200257600080fd5b8151610b0f81611a25565b60008282101561202d57634e487b7160e01b600052601160045260246000fd5b500390565b634e487b7160e01b600052603160045260246000fd5b6020808252601c908201527f4552433732313a20746f6b656e20616c7265616479206d696e7465640000000060408201526060019056fe697066733a2f2f626166796265696679627735756279657034783463647963716e6277756275686b756170696d6f72346d346e3732366b34676f616a63627866776da2646970667358221220120de224ebdcc88f3742915f35ce64de9acfc905c258c9e65ea3b805ee03976764736f6c63430008090033",
  "devdoc": {
    "kind": "dev",
    "methods": {
      "approve(address,uint256)": {
        "details": "See {IERC721-approve}."
      },
      "balanceOf(address)": {
        "details": "See {IERC721-balanceOf}."
      },
      "getApproved(uint256)": {
        "details": "See {IERC721-getApproved}."
      },
      "isApprovedForAll(address,address)": {
        "details": "See {IERC721-isApprovedForAll}."
      },
      "name()": {
        "details": "See {IERC721Metadata-name}."
      },
      "onERC721Received(address,address,uint256,bytes)": {
        "details": "See {IERC721Receiver-onERC721Received}. Always returns `IERC721Receiver.onERC721Received.selector`."
      },
      "owner()": {
        "details": "Returns the address of the current owner."
      },
      "ownerOf(uint256)": {
        "details": "See {IERC721-ownerOf}."
      },
      "paused()": {
        "details": "Returns true if the contract is paused, and false otherwise."
      },
      "renounceOwnership()": {
        "details": "Leaves the contract without owner. It will not be possible to call `onlyOwner` functions. Can only be called by the current owner. NOTE: Renouncing ownership will leave the contract without an owner, thereby disabling any functionality that is only available to the owner."
      },
      "safeTransferFrom(address,address,uint256)": {
        "details": "See {IERC721-safeTransferFrom}."
      },
      "safeTransferFrom(address,address,uint256,bytes)": {
        "details": "See {IERC721-safeTransferFrom}."
      },
      "setApprovalForAll(address,bool)": {
        "details": "See {IERC721-setApprovalForAll}."
      },
      "supportsInterface(bytes4)": {
        "details": "See {IERC165-supportsInterface}."
      },
      "symbol()": {
        "details": "See {IERC721Metadata-symbol}."
      },
      "tokenByIndex(uint256)": {
        "details": "See {IERC721Enumerable-tokenByIndex}."
      },
      "tokenOfOwnerByIndex(address,uint256)": {
        "details": "See {IERC721Enumerable-tokenOfOwnerByIndex}."
      },
      "tokenURI(uint256)": {
        "details": "See {IERC721Metadata-tokenURI}."
      },
      "totalSupply()": {
        "details": "See {IERC721Enumerable-totalSupply}."
      },
      "transferFrom(address,address,uint256)": {
        "details": "See {IERC721-transferFrom}."
      },
      "transferOwnership(address)": {
        "details": "Transfers ownership of the contract to a new account (`newOwner`). Can only be called by the current owner."
      }
    },
    "version": 1
  },
  "userdoc": {
    "kind": "user",
    "methods": {},
    "version": 1
  },
  "storageLayout": {
    "storage": [
      {
        "astId": 139,
        "contract": "contracts/ordNfts/WFROG.sol:WFROG",
        "label": "_initialized",
        "offset": 0,
        "slot": "0",
        "type": "t_uint8"
      },
      {
        "astId": 142,
        "contract": "contracts/ordNfts/WFROG.sol:WFROG",
        "label": "_initializing",
        "offset": 1,
        "slot": "0",
        "type": "t_bool"
      },
      {
        "astId": 2462,
        "contract": "contracts/ordNfts/WFROG.sol:WFROG",
        "label": "__gap",
        "offset": 0,
        "slot": "1",
        "type": "t_array(t_uint256)50_storage"
      },
      {
        "astId": 11,
        "contract": "contracts/ordNfts/WFROG.sol:WFROG",
        "label": "_owner",
        "offset": 0,
        "slot": "51",
        "type": "t_address"
      },
      {
        "astId": 131,
        "contract": "contracts/ordNfts/WFROG.sol:WFROG",
        "label": "__gap",
        "offset": 0,
        "slot": "52",
        "type": "t_array(t_uint256)49_storage"
      },
      {
        "astId": 323,
        "contract": "contracts/ordNfts/WFROG.sol:WFROG",
        "label": "_paused",
        "offset": 0,
        "slot": "101",
        "type": "t_bool"
      },
      {
        "astId": 428,
        "contract": "contracts/ordNfts/WFROG.sol:WFROG",
        "label": "__gap",
        "offset": 0,
        "slot": "102",
        "type": "t_array(t_uint256)49_storage"
      },
      {
        "astId": 444,
        "contract": "contracts/ordNfts/WFROG.sol:WFROG",
        "label": "_status",
        "offset": 0,
        "slot": "151",
        "type": "t_uint256"
      },
      {
        "astId": 513,
        "contract": "contracts/ordNfts/WFROG.sol:WFROG",
        "label": "__gap",
        "offset": 0,
        "slot": "152",
        "type": "t_array(t_uint256)49_storage"
      },
      {
        "astId": 2736,
        "contract": "contracts/ordNfts/WFROG.sol:WFROG",
        "label": "__gap",
        "offset": 0,
        "slot": "201",
        "type": "t_array(t_uint256)50_storage"
      },
      {
        "astId": 544,
        "contract": "contracts/ordNfts/WFROG.sol:WFROG",
        "label": "_name",
        "offset": 0,
        "slot": "251",
        "type": "t_string_storage"
      },
      {
        "astId": 546,
        "contract": "contracts/ordNfts/WFROG.sol:WFROG",
        "label": "_symbol",
        "offset": 0,
        "slot": "252",
        "type": "t_string_storage"
      },
      {
        "astId": 550,
        "contract": "contracts/ordNfts/WFROG.sol:WFROG",
        "label": "_owners",
        "offset": 0,
        "slot": "253",
        "type": "t_mapping(t_uint256,t_address)"
      },
      {
        "astId": 554,
        "contract": "contracts/ordNfts/WFROG.sol:WFROG",
        "label": "_balances",
        "offset": 0,
        "slot": "254",
        "type": "t_mapping(t_address,t_uint256)"
      },
      {
        "astId": 558,
        "contract": "contracts/ordNfts/WFROG.sol:WFROG",
        "label": "_tokenApprovals",
        "offset": 0,
        "slot": "255",
        "type": "t_mapping(t_uint256,t_address)"
      },
      {
        "astId": 564,
        "contract": "contracts/ordNfts/WFROG.sol:WFROG",
        "label": "_operatorApprovals",
        "offset": 0,
        "slot": "256",
        "type": "t_mapping(t_address,t_mapping(t_address,t_bool))"
      },
      {
        "astId": 1466,
        "contract": "contracts/ordNfts/WFROG.sol:WFROG",
        "label": "__gap",
        "offset": 0,
        "slot": "257",
        "type": "t_array(t_uint256)44_storage"
      },
      {
        "astId": 1620,
        "contract": "contracts/ordNfts/WFROG.sol:WFROG",
        "label": "_ownedTokens",
        "offset": 0,
        "slot": "301",
        "type": "t_mapping(t_address,t_mapping(t_uint256,t_uint256))"
      },
      {
        "astId": 1624,
        "contract": "contracts/ordNfts/WFROG.sol:WFROG",
        "label": "_ownedTokensIndex",
        "offset": 0,
        "slot": "302",
        "type": "t_mapping(t_uint256,t_uint256)"
      },
      {
        "astId": 1627,
        "contract": "contracts/ordNfts/WFROG.sol:WFROG",
        "label": "_allTokens",
        "offset": 0,
        "slot": "303",
        "type": "t_array(t_uint256)dyn_storage"
      },
      {
        "astId": 1631,
        "contract": "contracts/ordNfts/WFROG.sol:WFROG",
        "label": "_allTokensIndex",
        "offset": 0,
        "slot": "304",
        "type": "t_mapping(t_uint256,t_uint256)"
      },
      {
        "astId": 1975,
        "contract": "contracts/ordNfts/WFROG.sol:WFROG",
        "label": "__gap",
        "offset": 0,
        "slot": "305",
        "type": "t_array(t_uint256)46_storage"
      },
      {
        "astId": 2081,
        "contract": "contracts/ordNfts/WFROG.sol:WFROG",
        "label": "__gap",
        "offset": 0,
        "slot": "351",
        "type": "t_array(t_uint256)50_storage"
      },
      {
        "astId": 3896,
        "contract": "contracts/ordNfts/WFROG.sol:WFROG",
        "label": "executor",
        "offset": 0,
        "slot": "401",
        "type": "t_address"
      }
    ],
    "types": {
      "t_address": {
        "encoding": "inplace",
        "label": "address",
        "numberOfBytes": "20"
      },
      "t_array(t_uint256)44_storage": {
        "base": "t_uint256",
        "encoding": "inplace",
        "label": "uint256[44]",
        "numberOfBytes": "1408"
      },
      "t_array(t_uint256)46_storage": {
        "base": "t_uint256",
        "encoding": "inplace",
        "label": "uint256[46]",
        "numberOfBytes": "1472"
      },
      "t_array(t_uint256)49_storage": {
        "base": "t_uint256",
        "encoding": "inplace",
        "label": "uint256[49]",
        "numberOfBytes": "1568"
      },
      "t_array(t_uint256)50_storage": {
        "base": "t_uint256",
        "encoding": "inplace",
        "label": "uint256[50]",
        "numberOfBytes": "1600"
      },
      "t_array(t_uint256)dyn_storage": {
        "base": "t_uint256",
        "encoding": "dynamic_array",
        "label": "uint256[]",
        "numberOfBytes": "32"
      },
      "t_bool": {
        "encoding": "inplace",
        "label": "bool",
        "numberOfBytes": "1"
      },
      "t_mapping(t_address,t_bool)": {
        "encoding": "mapping",
        "key": "t_address",
        "label": "mapping(address => bool)",
        "numberOfBytes": "32",
        "value": "t_bool"
      },
      "t_mapping(t_address,t_mapping(t_address,t_bool))": {
        "encoding": "mapping",
        "key": "t_address",
        "label": "mapping(address => mapping(address => bool))",
        "numberOfBytes": "32",
        "value": "t_mapping(t_address,t_bool)"
      },
      "t_mapping(t_address,t_mapping(t_uint256,t_uint256))": {
        "encoding": "mapping",
        "key": "t_address",
        "label": "mapping(address => mapping(uint256 => uint256))",
        "numberOfBytes": "32",
        "value": "t_mapping(t_uint256,t_uint256)"
      },
      "t_mapping(t_address,t_uint256)": {
        "encoding": "mapping",
        "key": "t_address",
        "label": "mapping(address => uint256)",
        "numberOfBytes": "32",
        "value": "t_uint256"
      },
      "t_mapping(t_uint256,t_address)": {
        "encoding": "mapping",
        "key": "t_uint256",
        "label": "mapping(uint256 => address)",
        "numberOfBytes": "32",
        "value": "t_address"
      },
      "t_mapping(t_uint256,t_uint256)": {
        "encoding": "mapping",
        "key": "t_uint256",
        "label": "mapping(uint256 => uint256)",
        "numberOfBytes": "32",
        "value": "t_uint256"
      },
      "t_string_storage": {
        "encoding": "bytes",
        "label": "string",
        "numberOfBytes": "32"
      },
      "t_uint256": {
        "encoding": "inplace",
        "label": "uint256",
        "numberOfBytes": "32"
      },
      "t_uint8": {
        "encoding": "inplace",
        "label": "uint8",
        "numberOfBytes": "1"
      }
    }
  }
}