{
  "address": "0xcAF086C91cC23DB070753B5574F9D05C31bdceD3",
  "abi": [
    {
      "anonymous": false,
      "inputs": [
        {
          "indexed": true,
          "internalType": "address",
          "name": "owner",
          "type": "address"
        },
        {
          "indexed": true,
          "internalType": "address",
          "name": "approved",
          "type": "address"
        },
        {
          "indexed": true,
          "internalType": "uint256",
          "name": "tokenId",
          "type": "uint256"
        }
      ],
      "name": "Approval",
      "type": "event"
    },
    {
      "anonymous": false,
      "inputs": [
        {
          "indexed": true,
          "internalType": "address",
          "name": "owner",
          "type": "address"
        },
        {
          "indexed": true,
          "internalType": "address",
          "name": "operator",
          "type": "address"
        },
        {
          "indexed": false,
          "internalType": "bool",
          "name": "approved",
          "type": "bool"
        }
      ],
      "name": "ApprovalForAll",
      "type": "event"
    },
    {
      "anonymous": false,
      "inputs": [
        {
          "indexed": false,
          "internalType": "bytes32",
          "name": "_hashedPayload",
          "type": "bytes32"
        }
      ],
      "name": "CreditCleared",
      "type": "event"
    },
    {
      "anonymous": false,
      "inputs": [
        {
          "indexed": false,
          "internalType": "bytes32",
          "name": "_hashedPayload",
          "type": "bytes32"
        },
        {
          "indexed": false,
          "internalType": "bytes",
          "name": "_payload",
          "type": "bytes"
        }
      ],
      "name": "CreditStored",
      "type": "event"
    },
    {
      "anonymous": false,
      "inputs": [
        {
          "indexed": false,
          "internalType": "uint8",
          "name": "version",
          "type": "uint8"
        }
      ],
      "name": "Initialized",
      "type": "event"
    },
    {
      "anonymous": false,
      "inputs": [
        {
          "indexed": false,
          "internalType": "uint16",
          "name": "_srcChainId",
          "type": "uint16"
        },
        {
          "indexed": false,
          "internalType": "bytes",
          "name": "_srcAddress",
          "type": "bytes"
        },
        {
          "indexed": false,
          "internalType": "uint64",
          "name": "_nonce",
          "type": "uint64"
        },
        {
          "indexed": false,
          "internalType": "bytes",
          "name": "_payload",
          "type": "bytes"
        },
        {
          "indexed": false,
          "internalType": "bytes",
          "name": "_reason",
          "type": "bytes"
        }
      ],
      "name": "MessageFailed",
      "type": "event"
    },
    {
      "anonymous": false,
      "inputs": [
        {
          "indexed": true,
          "internalType": "address",
          "name": "previousOwner",
          "type": "address"
        },
        {
          "indexed": true,
          "internalType": "address",
          "name": "newOwner",
          "type": "address"
        }
      ],
      "name": "OwnershipTransferred",
      "type": "event"
    },
    {
      "anonymous": false,
      "inputs": [
        {
          "indexed": true,
          "internalType": "uint16",
          "name": "_srcChainId",
          "type": "uint16"
        },
        {
          "indexed": true,
          "internalType": "bytes",
          "name": "_srcAddress",
          "type": "bytes"
        },
        {
          "indexed": true,
          "internalType": "address",
          "name": "_toAddress",
          "type": "address"
        },
        {
          "indexed": false,
          "internalType": "uint256[]",
          "name": "_tokenIds",
          "type": "uint256[]"
        }
      ],
      "name": "ReceiveFromChain",
      "type": "event"
    },
    {
      "anonymous": false,
      "inputs": [
        {
          "indexed": false,
          "internalType": "uint16",
          "name": "_srcChainId",
          "type": "uint16"
        },
        {
          "indexed": false,
          "internalType": "bytes",
          "name": "_srcAddress",
          "type": "bytes"
        },
        {
          "indexed": false,
          "internalType": "uint64",
          "name": "_nonce",
          "type": "uint64"
        },
        {
          "indexed": false,
          "internalType": "bytes32",
          "name": "_payloadHash",
          "type": "bytes32"
        }
      ],
      "name": "RetryMessageSuccess",
      "type": "event"
    },
    {
      "anonymous": false,
      "inputs": [
        {
          "indexed": true,
          "internalType": "uint16",
          "name": "_dstChainId",
          "type": "uint16"
        },
        {
          "indexed": true,
          "internalType": "address",
          "name": "_from",
          "type": "address"
        },
        {
          "indexed": true,
          "internalType": "bytes",
          "name": "_toAddress",
          "type": "bytes"
        },
        {
          "indexed": false,
          "internalType": "uint256[]",
          "name": "_tokenIds",
          "type": "uint256[]"
        }
      ],
      "name": "SendToChain",
      "type": "event"
    },
    {
      "anonymous": false,
      "inputs": [
        {
          "indexed": false,
          "internalType": "uint16",
          "name": "_dstChainId",
          "type": "uint16"
        },
        {
          "indexed": false,
          "internalType": "uint256",
          "name": "_dstChainIdToBatchLimit",
          "type": "uint256"
        }
      ],
      "name": "SetDstChainIdToBatchLimit",
      "type": "event"
    },
    {
      "anonymous": false,
      "inputs": [
        {
          "indexed": false,
          "internalType": "uint16",
          "name": "_dstChainId",
          "type": "uint16"
        },
        {
          "indexed": false,
          "internalType": "uint256",
          "name": "_dstChainIdToTransferGas",
          "type": "uint256"
        }
      ],
      "name": "SetDstChainIdToTransferGas",
      "type": "event"
    },
    {
      "anonymous": false,
      "inputs": [
        {
          "indexed": false,
          "internalType": "uint16",
          "name": "_dstChainId",
          "type": "uint16"
        },
        {
          "indexed": false,
          "internalType": "uint16",
          "name": "_type",
          "type": "uint16"
        },
        {
          "indexed": false,
          "internalType": "uint256",
          "name": "_minDstGas",
          "type": "uint256"
        }
      ],
      "name": "SetMinDstGas",
      "type": "event"
    },
    {
      "anonymous": false,
      "inputs": [
        {
          "indexed": false,
          "internalType": "uint256",
          "name": "_minGasToTransferAndStore",
          "type": "uint256"
        }
      ],
      "name": "SetMinGasToTransferAndStore",
      "type": "event"
    },
    {
      "anonymous": false,
      "inputs": [
        {
          "indexed": false,
          "internalType": "address",
          "name": "precrime",
          "type": "address"
        }
      ],
      "name": "SetPrecrime",
      "type": "event"
    },
    {
      "anonymous": false,
      "inputs": [
        {
          "indexed": false,
          "internalType": "uint16",
          "name": "_remoteChainId",
          "type": "uint16"
        },
        {
          "indexed": false,
          "internalType": "bytes",
          "name": "_path",
          "type": "bytes"
        }
      ],
      "name": "SetTrustedRemote",
      "type": "event"
    },
    {
      "anonymous": false,
      "inputs": [
        {
          "indexed": false,
          "internalType": "uint16",
          "name": "_remoteChainId",
          "type": "uint16"
        },
        {
          "indexed": false,
          "internalType": "bytes",
          "name": "_remoteAddress",
          "type": "bytes"
        }
      ],
      "name": "SetTrustedRemoteAddress",
      "type": "event"
    },
    {
      "anonymous": false,
      "inputs": [
        {
          "indexed": true,
          "internalType": "address",
          "name": "from",
          "type": "address"
        },
        {
          "indexed": true,
          "internalType": "address",
          "name": "to",
          "type": "address"
        },
        {
          "indexed": true,
          "internalType": "uint256",
          "name": "tokenId",
          "type": "uint256"
        }
      ],
      "name": "Transfer",
      "type": "event"
    },
    {
      "inputs": [],
      "name": "DEFAULT_PAYLOAD_SIZE_LIMIT",
      "outputs": [
        {
          "internalType": "uint256",
          "name": "",
          "type": "uint256"
        }
      ],
      "stateMutability": "view",
      "type": "function"
    },
    {
      "inputs": [],
      "name": "FUNCTION_TYPE_SEND",
      "outputs": [
        {
          "internalType": "uint16",
          "name": "",
          "type": "uint16"
        }
      ],
      "stateMutability": "view",
      "type": "function"
    },
    {
      "inputs": [
        {
          "internalType": "string",
          "name": "_name",
          "type": "string"
        },
        {
          "internalType": "string",
          "name": "_symbol",
          "type": "string"
        },
        {
          "internalType": "address",
          "name": "_collateral",
          "type": "address"
        },
        {
          "internalType": "uint256",
          "name": "_minGasToTransfer",
          "type": "uint256"
        },
        {
          "internalType": "address",
          "name": "_lzEndpoint",
          "type": "address"
        }
      ],
      "name": "__CustomONFT721Base_init",
      "outputs": [],
      "stateMutability": "nonpayable",
      "type": "function"
    },
    {
      "inputs": [
        {
          "internalType": "address",
          "name": "to",
          "type": "address"
        },
        {
          "internalType": "uint256",
          "name": "tokenId",
          "type": "uint256"
        }
      ],
      "name": "approve",
      "outputs": [],
      "stateMutability": "nonpayable",
      "type": "function"
    },
    {
      "inputs": [
        {
          "internalType": "address",
          "name": "owner",
          "type": "address"
        }
      ],
      "name": "balanceOf",
      "outputs": [
        {
          "internalType": "uint256",
          "name": "",
          "type": "uint256"
        }
      ],
      "stateMutability": "view",
      "type": "function"
    },
    {
      "inputs": [
        {
          "internalType": "uint256[]",
          "name": "tokenId",
          "type": "uint256[]"
        },
        {
          "internalType": "uint16",
          "name": "targetChain",
          "type": "uint16"
        },
        {
          "internalType": "bytes",
          "name": "adapterParams",
          "type": "bytes"
        }
      ],
      "name": "batchCrossTo",
      "outputs": [],
      "stateMutability": "payable",
      "type": "function"
    },
    {
      "inputs": [
        {
          "internalType": "bytes",
          "name": "_payload",
          "type": "bytes"
        }
      ],
      "name": "clearCredits",
      "outputs": [],
      "stateMutability": "nonpayable",
      "type": "function"
    },
    {
      "inputs": [],
      "name": "collateral",
      "outputs": [
        {
          "internalType": "address",
          "name": "",
          "type": "address"
        }
      ],
      "stateMutability": "view",
      "type": "function"
    },
    {
      "inputs": [
        {
          "internalType": "uint256",
          "name": "tokenId",
          "type": "uint256"
        },
        {
          "internalType": "uint16",
          "name": "targetChain",
          "type": "uint16"
        },
        {
          "internalType": "bytes",
          "name": "adapterParams",
          "type": "bytes"
        }
      ],
      "name": "crossTo",
      "outputs": [],
      "stateMutability": "payable",
      "type": "function"
    },
    {
      "inputs": [
        {
          "internalType": "uint16",
          "name": "",
          "type": "uint16"
        }
      ],
      "name": "dstChainIdToBatchLimit",
      "outputs": [
        {
          "internalType": "uint256",
          "name": "",
          "type": "uint256"
        }
      ],
      "stateMutability": "view",
      "type": "function"
    },
    {
      "inputs": [
        {
          "internalType": "uint16",
          "name": "",
          "type": "uint16"
        }
      ],
      "name": "dstChainIdToTransferGas",
      "outputs": [
        {
          "internalType": "uint256",
          "name": "",
          "type": "uint256"
        }
      ],
      "stateMutability": "view",
      "type": "function"
    },
    {
      "inputs": [
        {
          "internalType": "uint16",
          "name": "_dstChainId",
          "type": "uint16"
        },
        {
          "internalType": "bytes",
          "name": "_toAddress",
          "type": "bytes"
        },
        {
          "internalType": "uint256[]",
          "name": "_tokenIds",
          "type": "uint256[]"
        },
        {
          "internalType": "bool",
          "name": "_useZro",
          "type": "bool"
        },
        {
          "internalType": "bytes",
          "name": "_adapterParams",
          "type": "bytes"
        }
      ],
      "name": "estimateSendBatchFee",
      "outputs": [
        {
          "internalType": "uint256",
          "name": "nativeFee",
          "type": "uint256"
        },
        {
          "internalType": "uint256",
          "name": "zroFee",
          "type": "uint256"
        }
      ],
      "stateMutability": "view",
      "type": "function"
    },
    {
      "inputs": [
        {
          "internalType": "uint16",
          "name": "_dstChainId",
          "type": "uint16"
        },
        {
          "internalType": "bytes",
          "name": "_toAddress",
          "type": "bytes"
        },
        {
          "internalType": "uint256",
          "name": "_tokenId",
          "type": "uint256"
        },
        {
          "internalType": "bool",
          "name": "_useZro",
          "type": "bool"
        },
        {
          "internalType": "bytes",
          "name": "_adapterParams",
          "type": "bytes"
        }
      ],
      "name": "estimateSendFee",
      "outputs": [
        {
          "internalType": "uint256",
          "name": "nativeFee",
          "type": "uint256"
        },
        {
          "internalType": "uint256",
          "name": "zroFee",
          "type": "uint256"
        }
      ],
      "stateMutability": "view",
      "type": "function"
    },
    {
      "inputs": [
        {
          "internalType": "uint16",
          "name": "",
          "type": "uint16"
        },
        {
          "internalType": "bytes",
          "name": "",
          "type": "bytes"
        },
        {
          "internalType": "uint64",
          "name": "",
          "type": "uint64"
        }
      ],
      "name": "failedMessages",
      "outputs": [
        {
          "internalType": "bytes32",
          "name": "",
          "type": "bytes32"
        }
      ],
      "stateMutability": "view",
      "type": "function"
    },
    {
      "inputs": [
        {
          "internalType": "uint16",
          "name": "_srcChainId",
          "type": "uint16"
        },
        {
          "internalType": "bytes",
          "name": "_srcAddress",
          "type": "bytes"
        }
      ],
      "name": "forceResumeReceive",
      "outputs": [],
      "stateMutability": "nonpayable",
      "type": "function"
    },
    {
      "inputs": [
        {
          "internalType": "uint256",
          "name": "tokenId",
          "type": "uint256"
        }
      ],
      "name": "getApproved",
      "outputs": [
        {
          "internalType": "address",
          "name": "",
          "type": "address"
        }
      ],
      "stateMutability": "view",
      "type": "function"
    },
    {
      "inputs": [
        {
          "internalType": "uint16",
          "name": "_version",
          "type": "uint16"
        },
        {
          "internalType": "uint16",
          "name": "_chainId",
          "type": "uint16"
        },
        {
          "internalType": "address",
          "name": "",
          "type": "address"
        },
        {
          "internalType": "uint256",
          "name": "_configType",
          "type": "uint256"
        }
      ],
      "name": "getConfig",
      "outputs": [
        {
          "internalType": "bytes",
          "name": "",
          "type": "bytes"
        }
      ],
      "stateMutability": "view",
      "type": "function"
    },
    {
      "inputs": [
        {
          "internalType": "uint16",
          "name": "_remoteChainId",
          "type": "uint16"
        }
      ],
      "name": "getTrustedRemoteAddress",
      "outputs": [
        {
          "internalType": "bytes",
          "name": "",
          "type": "bytes"
        }
      ],
      "stateMutability": "view",
      "type": "function"
    },
    {
      "inputs": [
        {
          "internalType": "address",
          "name": "_collateral",
          "type": "address"
        },
        {
          "internalType": "address",
          "name": "_lzEndpoint",
          "type": "address"
        }
      ],
      "name": "initialize",
      "outputs": [],
      "stateMutability": "nonpayable",
      "type": "function"
    },
    {
      "inputs": [
        {
          "internalType": "address",
          "name": "owner",
          "type": "address"
        },
        {
          "internalType": "address",
          "name": "operator",
          "type": "address"
        }
      ],
      "name": "isApprovedForAll",
      "outputs": [
        {
          "internalType": "bool",
          "name": "",
          "type": "bool"
        }
      ],
      "stateMutability": "view",
      "type": "function"
    },
    {
      "inputs": [
        {
          "internalType": "uint16",
          "name": "_srcChainId",
          "type": "uint16"
        },
        {
          "internalType": "bytes",
          "name": "_srcAddress",
          "type": "bytes"
        }
      ],
      "name": "isTrustedRemote",
      "outputs": [
        {
          "internalType": "bool",
          "name": "",
          "type": "bool"
        }
      ],
      "stateMutability": "view",
      "type": "function"
    },
    {
      "inputs": [],
      "name": "lzEndpoint",
      "outputs": [
        {
          "internalType": "contract ILayerZeroEndpoint",
          "name": "",
          "type": "address"
        }
      ],
      "stateMutability": "view",
      "type": "function"
    },
    {
      "inputs": [
        {
          "internalType": "uint16",
          "name": "_srcChainId",
          "type": "uint16"
        },
        {
          "internalType": "bytes",
          "name": "_srcAddress",
          "type": "bytes"
        },
        {
          "internalType": "uint64",
          "name": "_nonce",
          "type": "uint64"
        },
        {
          "internalType": "bytes",
          "name": "_payload",
          "type": "bytes"
        }
      ],
      "name": "lzReceive",
      "outputs": [],
      "stateMutability": "nonpayable",
      "type": "function"
    },
    {
      "inputs": [
        {
          "internalType": "uint16",
          "name": "",
          "type": "uint16"
        },
        {
          "internalType": "uint16",
          "name": "",
          "type": "uint16"
        }
      ],
      "name": "minDstGasLookup",
      "outputs": [
        {
          "internalType": "uint256",
          "name": "",
          "type": "uint256"
        }
      ],
      "stateMutability": "view",
      "type": "function"
    },
    {
      "inputs": [],
      "name": "minGasToTransferAndStore",
      "outputs": [
        {
          "internalType": "uint256",
          "name": "",
          "type": "uint256"
        }
      ],
      "stateMutability": "view",
      "type": "function"
    },
    {
      "inputs": [],
      "name": "name",
      "outputs": [
        {
          "internalType": "string",
          "name": "",
          "type": "string"
        }
      ],
      "stateMutability": "view",
      "type": "function"
    },
    {
      "inputs": [
        {
          "internalType": "uint16",
          "name": "_srcChainId",
          "type": "uint16"
        },
        {
          "internalType": "bytes",
          "name": "_srcAddress",
          "type": "bytes"
        },
        {
          "internalType": "uint64",
          "name": "_nonce",
          "type": "uint64"
        },
        {
          "internalType": "bytes",
          "name": "_payload",
          "type": "bytes"
        }
      ],
      "name": "nonblockingLzReceive",
      "outputs": [],
      "stateMutability": "nonpayable",
      "type": "function"
    },
    {
      "inputs": [
        {
          "internalType": "address",
          "name": "",
          "type": "address"
        },
        {
          "internalType": "address",
          "name": "",
          "type": "address"
        },
        {
          "internalType": "uint256",
          "name": "",
          "type": "uint256"
        },
        {
          "internalType": "bytes",
          "name": "",
          "type": "bytes"
        }
      ],
      "name": "onERC721Received",
      "outputs": [
        {
          "internalType": "bytes4",
          "name": "",
          "type": "bytes4"
        }
      ],
      "stateMutability": "nonpayable",
      "type": "function"
    },
    {
      "inputs": [],
      "name": "owner",
      "outputs": [
        {
          "internalType": "address",
          "name": "",
          "type": "address"
        }
      ],
      "stateMutability": "view",
      "type": "function"
    },
    {
      "inputs": [
        {
          "internalType": "uint256",
          "name": "tokenId",
          "type": "uint256"
        }
      ],
      "name": "ownerOf",
      "outputs": [
        {
          "internalType": "address",
          "name": "",
          "type": "address"
        }
      ],
      "stateMutability": "view",
      "type": "function"
    },
    {
      "inputs": [
        {
          "internalType": "uint16",
          "name": "",
          "type": "uint16"
        }
      ],
      "name": "payloadSizeLimitLookup",
      "outputs": [
        {
          "internalType": "uint256",
          "name": "",
          "type": "uint256"
        }
      ],
      "stateMutability": "view",
      "type": "function"
    },
    {
      "inputs": [],
      "name": "precrime",
      "outputs": [
        {
          "internalType": "address",
          "name": "",
          "type": "address"
        }
      ],
      "stateMutability": "view",
      "type": "function"
    },
    {
      "inputs": [
        {
          "internalType": "uint256",
          "name": "tokenId",
          "type": "uint256"
        }
      ],
      "name": "rawOwnerOf",
      "outputs": [
        {
          "internalType": "address",
          "name": "",
          "type": "address"
        }
      ],
      "stateMutability": "view",
      "type": "function"
    },
    {
      "inputs": [],
      "name": "renounceOwnership",
      "outputs": [],
      "stateMutability": "nonpayable",
      "type": "function"
    },
    {
      "inputs": [
        {
          "internalType": "uint16",
          "name": "_srcChainId",
          "type": "uint16"
        },
        {
          "internalType": "bytes",
          "name": "_srcAddress",
          "type": "bytes"
        },
        {
          "internalType": "uint64",
          "name": "_nonce",
          "type": "uint64"
        },
        {
          "internalType": "bytes",
          "name": "_payload",
          "type": "bytes"
        }
      ],
      "name": "retryMessage",
      "outputs": [],
      "stateMutability": "payable",
      "type": "function"
    },
    {
      "inputs": [
        {
          "internalType": "address",
          "name": "from",
          "type": "address"
        },
        {
          "internalType": "address",
          "name": "to",
          "type": "address"
        },
        {
          "internalType": "uint256",
          "name": "tokenId",
          "type": "uint256"
        }
      ],
      "name": "safeTransferFrom",
      "outputs": [],
      "stateMutability": "nonpayable",
      "type": "function"
    },
    {
      "inputs": [
        {
          "internalType": "address",
          "name": "from",
          "type": "address"
        },
        {
          "internalType": "address",
          "name": "to",
          "type": "address"
        },
        {
          "internalType": "uint256",
          "name": "tokenId",
          "type": "uint256"
        },
        {
          "internalType": "bytes",
          "name": "data",
          "type": "bytes"
        }
      ],
      "name": "safeTransferFrom",
      "outputs": [],
      "stateMutability": "nonpayable",
      "type": "function"
    },
    {
      "inputs": [
        {
          "internalType": "address",
          "name": "_from",
          "type": "address"
        },
        {
          "internalType": "uint16",
          "name": "_dstChainId",
          "type": "uint16"
        },
        {
          "internalType": "bytes",
          "name": "_toAddress",
          "type": "bytes"
        },
        {
          "internalType": "uint256[]",
          "name": "_tokenIds",
          "type": "uint256[]"
        },
        {
          "internalType": "address payable",
          "name": "_refundAddress",
          "type": "address"
        },
        {
          "internalType": "address",
          "name": "_zroPaymentAddress",
          "type": "address"
        },
        {
          "internalType": "bytes",
          "name": "_adapterParams",
          "type": "bytes"
        }
      ],
      "name": "sendBatchFrom",
      "outputs": [],
      "stateMutability": "payable",
      "type": "function"
    },
    {
      "inputs": [
        {
          "internalType": "address",
          "name": "_from",
          "type": "address"
        },
        {
          "internalType": "uint16",
          "name": "_dstChainId",
          "type": "uint16"
        },
        {
          "internalType": "bytes",
          "name": "_toAddress",
          "type": "bytes"
        },
        {
          "internalType": "uint256",
          "name": "_tokenId",
          "type": "uint256"
        },
        {
          "internalType": "address payable",
          "name": "_refundAddress",
          "type": "address"
        },
        {
          "internalType": "address",
          "name": "_zroPaymentAddress",
          "type": "address"
        },
        {
          "internalType": "bytes",
          "name": "_adapterParams",
          "type": "bytes"
        }
      ],
      "name": "sendFrom",
      "outputs": [],
      "stateMutability": "payable",
      "type": "function"
    },
    {
      "inputs": [
        {
          "internalType": "address",
          "name": "operator",
          "type": "address"
        },
        {
          "internalType": "bool",
          "name": "approved",
          "type": "bool"
        }
      ],
      "name": "setApprovalForAll",
      "outputs": [],
      "stateMutability": "nonpayable",
      "type": "function"
    },
    {
      "inputs": [
        {
          "internalType": "uint16",
          "name": "_version",
          "type": "uint16"
        },
        {
          "internalType": "uint16",
          "name": "_chainId",
          "type": "uint16"
        },
        {
          "internalType": "uint256",
          "name": "_configType",
          "type": "uint256"
        },
        {
          "internalType": "bytes",
          "name": "_config",
          "type": "bytes"
        }
      ],
      "name": "setConfig",
      "outputs": [],
      "stateMutability": "nonpayable",
      "type": "function"
    },
    {
      "inputs": [
        {
          "internalType": "uint16",
          "name": "_dstChainId",
          "type": "uint16"
        },
        {
          "internalType": "uint256",
          "name": "_dstChainIdToBatchLimit",
          "type": "uint256"
        }
      ],
      "name": "setDstChainIdToBatchLimit",
      "outputs": [],
      "stateMutability": "nonpayable",
      "type": "function"
    },
    {
      "inputs": [
        {
          "internalType": "uint16",
          "name": "_dstChainId",
          "type": "uint16"
        },
        {
          "internalType": "uint256",
          "name": "_dstChainIdToTransferGas",
          "type": "uint256"
        }
      ],
      "name": "setDstChainIdToTransferGas",
      "outputs": [],
      "stateMutability": "nonpayable",
      "type": "function"
    },
    {
      "inputs": [
        {
          "internalType": "uint16",
          "name": "_dstChainId",
          "type": "uint16"
        },
        {
          "internalType": "uint16",
          "name": "_packetType",
          "type": "uint16"
        },
        {
          "internalType": "uint256",
          "name": "_minGas",
          "type": "uint256"
        }
      ],
      "name": "setMinDstGas",
      "outputs": [],
      "stateMutability": "nonpayable",
      "type": "function"
    },
    {
      "inputs": [
        {
          "internalType": "uint256",
          "name": "_minGasToTransferAndStore",
          "type": "uint256"
        }
      ],
      "name": "setMinGasToTransferAndStore",
      "outputs": [],
      "stateMutability": "nonpayable",
      "type": "function"
    },
    {
      "inputs": [
        {
          "internalType": "uint16",
          "name": "_dstChainId",
          "type": "uint16"
        },
        {
          "internalType": "uint256",
          "name": "_size",
          "type": "uint256"
        }
      ],
      "name": "setPayloadSizeLimit",
      "outputs": [],
      "stateMutability": "nonpayable",
      "type": "function"
    },
    {
      "inputs": [
        {
          "internalType": "address",
          "name": "_precrime",
          "type": "address"
        }
      ],
      "name": "setPrecrime",
      "outputs": [],
      "stateMutability": "nonpayable",
      "type": "function"
    },
    {
      "inputs": [
        {
          "internalType": "uint16",
          "name": "_version",
          "type": "uint16"
        }
      ],
      "name": "setReceiveVersion",
      "outputs": [],
      "stateMutability": "nonpayable",
      "type": "function"
    },
    {
      "inputs": [
        {
          "internalType": "uint16",
          "name": "_version",
          "type": "uint16"
        }
      ],
      "name": "setSendVersion",
      "outputs": [],
      "stateMutability": "nonpayable",
      "type": "function"
    },
    {
      "inputs": [
        {
          "internalType": "uint16",
          "name": "_remoteChainId",
          "type": "uint16"
        },
        {
          "internalType": "bytes",
          "name": "_path",
          "type": "bytes"
        }
      ],
      "name": "setTrustedRemote",
      "outputs": [],
      "stateMutability": "nonpayable",
      "type": "function"
    },
    {
      "inputs": [
        {
          "internalType": "uint16",
          "name": "_remoteChainId",
          "type": "uint16"
        },
        {
          "internalType": "bytes",
          "name": "_remoteAddress",
          "type": "bytes"
        }
      ],
      "name": "setTrustedRemoteAddress",
      "outputs": [],
      "stateMutability": "nonpayable",
      "type": "function"
    },
    {
      "inputs": [
        {
          "internalType": "bytes32",
          "name": "",
          "type": "bytes32"
        }
      ],
      "name": "storedCredits",
      "outputs": [
        {
          "internalType": "uint16",
          "name": "srcChainId",
          "type": "uint16"
        },
        {
          "internalType": "address",
          "name": "toAddress",
          "type": "address"
        },
        {
          "internalType": "uint256",
          "name": "index",
          "type": "uint256"
        },
        {
          "internalType": "bool",
          "name": "creditsRemain",
          "type": "bool"
        }
      ],
      "stateMutability": "view",
      "type": "function"
    },
    {
      "inputs": [
        {
          "internalType": "bytes4",
          "name": "interfaceId",
          "type": "bytes4"
        }
      ],
      "name": "supportsInterface",
      "outputs": [
        {
          "internalType": "bool",
          "name": "",
          "type": "bool"
        }
      ],
      "stateMutability": "view",
      "type": "function"
    },
    {
      "inputs": [],
      "name": "symbol",
      "outputs": [
        {
          "internalType": "string",
          "name": "",
          "type": "string"
        }
      ],
      "stateMutability": "view",
      "type": "function"
    },
    {
      "inputs": [
        {
          "internalType": "uint256",
          "name": "tokenId",
          "type": "uint256"
        }
      ],
      "name": "tokenURI",
      "outputs": [
        {
          "internalType": "string",
          "name": "",
          "type": "string"
        }
      ],
      "stateMutability": "view",
      "type": "function"
    },
    {
      "inputs": [
        {
          "internalType": "address",
          "name": "from",
          "type": "address"
        },
        {
          "internalType": "address",
          "name": "to",
          "type": "address"
        },
        {
          "internalType": "uint256",
          "name": "tokenId",
          "type": "uint256"
        }
      ],
      "name": "transferFrom",
      "outputs": [],
      "stateMutability": "nonpayable",
      "type": "function"
    },
    {
      "inputs": [
        {
          "internalType": "address",
          "name": "newOwner",
          "type": "address"
        }
      ],
      "name": "transferOwnership",
      "outputs": [],
      "stateMutability": "nonpayable",
      "type": "function"
    },
    {
      "inputs": [
        {
          "internalType": "uint16",
          "name": "",
          "type": "uint16"
        }
      ],
      "name": "trustedRemoteLookup",
      "outputs": [
        {
          "internalType": "bytes",
          "name": "",
          "type": "bytes"
        }
      ],
      "stateMutability": "view",
      "type": "function"
    }
  ],
  "transactionHash": "0x6bef7b58d18402222a75068363ae78961e9b8f62442f95360328d150c059b07d",
  "args": [],
  "numDeployments": 1,
  "solcInputHash": "87e37c0553d61438e929067e3e863904",
  "bytecode": "0x608060405234801561001057600080fd5b5061518f806100206000396000f3fe6080604052600436106103005760003560e01c80637f81be6911610191578063b88d4fde116100e2578063d8dfeb4511610090578063d8dfeb4514610a11578063df2a5b3b14610a32578063e985e9c514610a52578063eb8d72b714610a72578063f235364114610a92578063f2fde38b14610ab2578063f5ecbdbc14610ad2578063fa25f9b614610af257600080fd5b8063b88d4fde14610948578063baf3292d14610968578063c446183414610988578063c87b56dd1461099e578063cbed8b9c146109be578063d12473a5146109de578063d1deba1f146109fe57600080fd5b80639f38369a1161013f5780639f38369a1461087a578063a22cb4651461089a578063a6c3d165146108ba578063a8f40de5146108da578063ab3ffb93146108ed578063af3fb21c14610900578063b353aaa71461092857600080fd5b80637f81be691461078f5780638cfd8f5c146107af5780638da5cb5b146107e75780638ffa1f2a14610805578063950c8a741461082557806395d89b41146108455780639ea5d6b11461085a57600080fd5b80633f1f4fa4116102565780635b8c41e6116102045780635b8c41e6146106785780636352211e146106c757806366ad5c8a146106e75780636d22b4e01461070757806370a0823114610727578063715018a6146107475780637533d7881461075c5780637f68e5341461077c57600080fd5b80633f1f4fa41461058757806342842e0e146105c257806342d65a8d146105e25780634828819014610602578063485cc955146106185780634ac3f4ff14610638578063519056361461066557600080fd5b80630df37483116102b35780630df374831461041657806310ddb13714610436578063150b7a021461045657806322a3ecf91461048f57806323b872dd146105125780632a205e3d146105325780633d8b38f61461056757600080fd5b80621d35671461030557806301ffc9a71461032757806306fdde031461035c57806307e0db171461037e578063081812fc1461039e578063095ea7b3146103d65780630b4cad4c146103f6575b600080fd5b34801561031157600080fd5b50610325610320366004613ec1565b610b1f565b005b34801561033357600080fd5b50610347610342366004613f6a565b610d3b565b60405190151581526020015b60405180910390f35b34801561036857600080fd5b50610371610d5e565b6040516103539190613fdf565b34801561038a57600080fd5b50610325610399366004613ff2565b610df0565b3480156103aa57600080fd5b506103be6103b936600461400d565b610e5d565b6040516001600160a01b039091168152602001610353565b3480156103e257600080fd5b506103256103f1366004614046565b610e84565b34801561040257600080fd5b5061032561041136600461400d565b610f9a565b34801561042257600080fd5b50610325610431366004614072565b610ffe565b34801561044257600080fd5b50610325610451366004613ff2565b61101d565b34801561046257600080fd5b50610476610471366004614151565b611059565b6040516001600160e01b03199091168152602001610353565b34801561049b57600080fd5b506104e36104aa36600461400d565b60d26020526000908152604090208054600182015460029092015461ffff821692620100009092046001600160a01b0316919060ff1684565b6040805161ffff90951685526001600160a01b0390931660208501529183015215156060820152608001610353565b34801561051e57600080fd5b5061032561052d3660046141bc565b61106a565b34801561053e57600080fd5b5061055261054d36600461420d565b61109c565b60408051928352602083019190915201610353565b34801561057357600080fd5b5061034761058236600461429b565b6110c2565b34801561059357600080fd5b506105b46105a2366004613ff2565b60686020526000908152604090205481565b604051908152602001610353565b3480156105ce57600080fd5b506103256105dd3660046141bc565b61118e565b3480156105ee57600080fd5b506103256105fd36600461429b565b6111a9565b34801561060e57600080fd5b506105b460cf5481565b34801561062457600080fd5b506103256106333660046142ed565b611213565b34801561064457600080fd5b506105b4610653366004613ff2565b60d06020526000908152604090205481565b610325610673366004614326565b611329565b34801561068457600080fd5b506105b46106933660046143df565b606a602090815260009384526040808520845180860184018051928152908401958401959095209452929052825290205481565b3480156106d357600080fd5b506103be6106e236600461400d565b611340565b3480156106f357600080fd5b50610325610702366004613ec1565b611375565b34801561071357600080fd5b5061032561072236600461443c565b611451565b34801561073357600080fd5b506105b46107423660046144d0565b611534565b34801561075357600080fd5b506103256115ba565b34801561076857600080fd5b50610371610777366004613ff2565b6115ce565b61032561078a3660046144ed565b611668565b34801561079b57600080fd5b506103be6107aa36600461400d565b6116d8565b3480156107bb57600080fd5b506105b46107ca366004614546565b606760209081526000928352604080842090915290825290205481565b3480156107f357600080fd5b506033546001600160a01b03166103be565b34801561081157600080fd5b50610325610820366004614579565b6116f9565b34801561083157600080fd5b506069546103be906001600160a01b031681565b34801561085157600080fd5b50610371611945565b34801561086657600080fd5b50610325610875366004614072565b611954565b34801561088657600080fd5b50610371610895366004613ff2565b611a0b565b3480156108a657600080fd5b506103256108b53660046145ad565b611b22565b3480156108c657600080fd5b506103256108d536600461429b565b611b31565b6103256108e83660046145d9565b611bb7565b6103256108fb366004614713565b611c62565b34801561090c57600080fd5b50610915600181565b60405161ffff9091168152602001610353565b34801561093457600080fd5b506065546103be906001600160a01b031681565b34801561095457600080fd5b50610325610963366004614151565b611c71565b34801561097457600080fd5b506103256109833660046144d0565b611ca9565b34801561099457600080fd5b506105b461271081565b3480156109aa57600080fd5b506103716109b936600461400d565b611cff565b3480156109ca57600080fd5b506103256109d93660046147c8565b611d72565b3480156109ea57600080fd5b506103256109f9366004614072565b611deb565b610325610a0c366004613ec1565b611e9b565b348015610a1d57600080fd5b50610137546103be906001600160a01b031681565b348015610a3e57600080fd5b50610325610a4d366004614825565b6120b1565b348015610a5e57600080fd5b50610347610a6d3660046142ed565b61211b565b348015610a7e57600080fd5b50610325610a8d36600461429b565b612149565b348015610a9e57600080fd5b50610552610aad366004614861565b6121a3565b348015610abe57600080fd5b50610325610acd3660046144d0565b612260565b348015610ade57600080fd5b50610371610aed3660046148da565b6122d6565b348015610afe57600080fd5b506105b4610b0d366004613ff2565b60d16020526000908152604090205481565b6065546001600160a01b0316336001600160a01b031614610b875760405162461bcd60e51b815260206004820152601e60248201527f4c7a4170703a20696e76616c696420656e64706f696e742063616c6c6572000060448201526064015b60405180910390fd5b61ffff861660009081526066602052604081208054610ba590614927565b80601f0160208091040260200160405190810160405280929190818152602001828054610bd190614927565b8015610c1e5780601f10610bf357610100808354040283529160200191610c1e565b820191906000526020600020905b815481529060010190602001808311610c0157829003601f168201915b50505050509050805186869050148015610c39575060008151115b8015610c61575080516020820120604051610c579088908890614962565b6040518091039020145b610cbc5760405162461bcd60e51b815260206004820152602660248201527f4c7a4170703a20696e76616c696420736f757263652073656e64696e6720636f6044820152651b9d1c9858dd60d21b6064820152608401610b7e565b610d328787878080601f01602080910402602001604051908101604052809392919081815260200183838082843760009201919091525050604080516020601f8a018190048102820181019092528881528a93509150889088908190840183828082843760009201919091525061237c92505050565b50505050505050565b60006001600160e01b031982161580610d585750610d58826123f5565b92915050565b606060d38054610d6d90614927565b80601f0160208091040260200160405190810160405280929190818152602001828054610d9990614927565b8015610de65780601f10610dbb57610100808354040283529160200191610de6565b820191906000526020600020905b815481529060010190602001808311610dc957829003601f168201915b5050505050905090565b610df8612435565b6065546040516307e0db1760e01b815261ffff831660048201526001600160a01b03909116906307e0db17906024015b600060405180830381600087803b158015610e4257600080fd5b505af1158015610e56573d6000803e3d6000fd5b5050505050565b6000610e688261248f565b50600090815260d760205260409020546001600160a01b031690565b6000610e8f82611340565b9050806001600160a01b0316836001600160a01b03161415610efd5760405162461bcd60e51b815260206004820152602160248201527f4552433732313a20617070726f76616c20746f2063757272656e74206f776e656044820152603960f91b6064820152608401610b7e565b336001600160a01b0382161480610f195750610f19813361211b565b610f8b5760405162461bcd60e51b815260206004820152603d60248201527f4552433732313a20617070726f76652063616c6c6572206973206e6f7420746f60448201527f6b656e206f776e6572206f7220617070726f76656420666f7220616c6c0000006064820152608401610b7e565b610f9583836124b4565b505050565b610fa2612435565b60008111610fc25760405162461bcd60e51b8152600401610b7e90614972565b60cf8190556040518181527ffebbc4f8bb9ec2313950c718d43123124b15778efda4c1f1d529de2995b4f34d906020015b60405180910390a150565b611006612435565b61ffff909116600090815260686020526040902055565b611025612435565b6065546040516310ddb13760e01b815261ffff831660048201526001600160a01b03909116906310ddb13790602401610e28565b630a85bd0160e11b5b949350505050565b611075335b82612522565b6110915760405162461bcd60e51b8152600401610b7e906149b6565b610f95838383612580565b6000806110b487876110ad886126e4565b87876121a3565b915091509550959350505050565b61ffff8316600090815260666020526040812080548291906110e390614927565b80601f016020809104026020016040519081016040528092919081815260200182805461110f90614927565b801561115c5780601f106111315761010080835404028352916020019161115c565b820191906000526020600020905b81548152906001019060200180831161113f57829003601f168201915b505050505090508383604051611173929190614962565b60405180910390208180519060200120149150509392505050565b610f9583838360405180602001604052806000815250611c71565b6111b1612435565b6065546040516342d65a8d60e01b81526001600160a01b03909116906342d65a8d906111e590869086908690600401614a2c565b600060405180830381600087803b1580156111ff57600080fd5b505af1158015610d32573d6000803e3d6000fd5b600054610100900460ff16158080156112335750600054600160ff909116105b8061125457506112423061272f565b158015611254575060005460ff166001145b6112705760405162461bcd60e51b8152600401610b7e90614a4a565b6000805460ff191660011790558015611293576000805461ff0019166101001790555b6112f06040518060400160405280601681526020017526b7b1b5a7a137b932b220b832acb0b1b43a21b63ab160511b815250604051806040016040528060098152602001684d6f636b4f4241594360b81b81525085600186611451565b8015610f95576000805461ff00191690556040516001815260008051602061513a833981519152906020015b60405180910390a1505050565b610d32878787611338886126e4565b87878761273e565b600081815260d560205260408120546001600160a01b031680610d585760405162461bcd60e51b8152600401610b7e90614a98565b3330146113d35760405162461bcd60e51b815260206004820152602660248201527f4e6f6e626c6f636b696e674c7a4170703a2063616c6c6572206d7573742062656044820152650204c7a4170760d41b6064820152608401610b7e565b6114498686868080601f01602080910402602001604051908101604052809392919081815260200183838082843760009201919091525050604080516020601f89018190048102820181019092528781528993509150879087908190840183828082843760009201919091525061291292505050565b505050505050565b600054610100900460ff16158080156114715750600054600160ff909116105b8061149257506114803061272f565b158015611492575060005460ff166001145b6114ae5760405162461bcd60e51b8152600401610b7e90614a4a565b6000805460ff1916600117905580156114d1576000805461ff0019166101001790555b6114dd86868585612a69565b61013780546001600160a01b0319166001600160a01b0386161790558015611449576000805461ff00191690556040516001815260008051602061513a8339815191529060200160405180910390a1505050505050565b60006001600160a01b03821661159e5760405162461bcd60e51b815260206004820152602960248201527f4552433732313a2061646472657373207a65726f206973206e6f7420612076616044820152683634b21037bbb732b960b91b6064820152608401610b7e565b506001600160a01b0316600090815260d6602052604090205490565b6115c2612435565b6115cc6000612b38565b565b606660205260009081526040902080546115e790614927565b80601f016020809104026020016040519081016040528092919081815260200182805461161390614927565b80156116605780601f1061163557610100808354040283529160200191611660565b820191906000526020600020905b81548152906001019060200180831161164357829003601f168201915b505050505081565b60003360405160200161167b9190614aca565b6040516020818303038152906040529050610e566116963390565b85838833600089898080601f01602080910402602001604051908101604052809392919081815260200183838082843760009201919091525061132992505050565b60006116e382612b8a565b156116f157610d5882611340565b506000919050565b611701612ba7565b8051602080830191909120600081815260d290925260409091206002015460ff166117625760405162461bcd60e51b81526020600482015260116024820152701b9bc818dc99591a5d1cc81cdd1bdc9959607a1b6044820152606401610b7e565b6000828060200190518101906117789190614b27565b600084815260d26020526040812080546001909101549294509092506117b49161ffff8216916201000090046001600160a01b03169085612c01565b600084815260d2602052604090206001015490915081116118295760405162461bcd60e51b815260206004820152602960248201527f6e6f7420656e6f7567682067617320746f2070726f6365737320637265646974604482015268103a3930b739b332b960b91b6064820152608401610b7e565b81518114156118a157600083815260d2602052604080822080546001600160b01b031916815560018101929092556002909101805460ff19169055517fd7be02b8dd0d27bd0517a9cb4d7469ce27df4313821ae5ec1ff69acc594ba233906118949085815260200190565b60405180910390a1611935565b60408051608081018252600085815260d26020818152848320805461ffff80821687526001600160a01b03620100008084048216868a019081529989018b8152600160608b01818152998f90529790965297519851169096026001600160b01b03199091169690951695909517939093178455915191830191909155516002909101805491151560ff199092169190911790555b5050506119426001609d55565b50565b606060d48054610d6d90614927565b61195c612435565b600081116119b75760405162461bcd60e51b815260206004820152602260248201527f647374436861696e4964546f42617463684c696d6974206d757374206265203e604482015261020360f41b6064820152608401610b7e565b61ffff8216600081815260d06020908152604091829020849055815192835282018390527f7315f7654d594ead24a30160ed9ba2d23247f543016b918343591e93d7afdb6d91015b60405180910390a15050565b61ffff8116600090815260666020526040812080546060929190611a2e90614927565b80601f0160208091040260200160405190810160405280929190818152602001828054611a5a90614927565b8015611aa75780601f10611a7c57610100808354040283529160200191611aa7565b820191906000526020600020905b815481529060010190602001808311611a8a57829003601f168201915b50505050509050805160001415611b005760405162461bcd60e51b815260206004820152601d60248201527f4c7a4170703a206e6f20747275737465642070617468207265636f72640000006044820152606401610b7e565b611b1b600060148351611b139190614bf7565b839190612c53565b9392505050565b611b2d338383612d60565b5050565b611b39612435565b818130604051602001611b4e93929190614c0e565b60408051601f1981840301815291815261ffff85166000908152606660209081529190208251611b8393919290910190613d3e565b507f8c0400cfe2d1199b1a725c78960bcc2a344d869b80590d0f2bd005db15a572ce83838360405161131c93929190614a2c565b600033604051602001611bca9190614aca565b6040516020818303038152906040529050611449611be53390565b8583898980806020026020016040519081016040528093929190818152602001838360200280828437600092019190915250611c249250612378915050565b600089898080601f016020809104026020016040519081016040528093929190818152602001838380828437600092019190915250611c6292505050565b610d328787878787878761273e565b611c7b3383612522565b611c975760405162461bcd60e51b8152600401610b7e906149b6565b611ca384848484612e2b565b50505050565b611cb1612435565b606980546001600160a01b0319166001600160a01b0383169081179091556040519081527f5db758e995a17ec1ad84bdef7e8c3293a0bd6179bcce400dff5d4c3d87db726b90602001610ff3565b6060611d0a8261248f565b6000611d2160408051602081019091526000815290565b90506000815111611d415760405180602001604052806000815250611b1b565b80611d4b84612e5e565b604051602001611d5c929190614c2f565b6040516020818303038152906040529392505050565b611d7a612435565b6065546040516332fb62e760e21b81526001600160a01b039091169063cbed8b9c90611db29088908890889088908890600401614c5e565b600060405180830381600087803b158015611dcc57600080fd5b505af1158015611de0573d6000803e3d6000fd5b505050505050505050565b611df3612435565b60008111611e4f5760405162461bcd60e51b815260206004820152602360248201527f647374436861696e4964546f5472616e73666572476173206d7573742062652060448201526203e20360ec1b6064820152608401610b7e565b61ffff8216600081815260d16020908152604091829020849055815192835282018390527fc46df2983228ac2d9754e94a0d565e6671665dc8ad38602bc8e544f0685a29fb91016119ff565b61ffff86166000908152606a60205260408082209051611ebe9088908890614962565b90815260408051602092819003830190206001600160401b03871660009081529252902054905080611f3e5760405162461bcd60e51b815260206004820152602360248201527f4e6f6e626c6f636b696e674c7a4170703a206e6f2073746f726564206d65737360448201526261676560e81b6064820152608401610b7e565b808383604051611f4f929190614962565b604051809103902014611fae5760405162461bcd60e51b815260206004820152602160248201527f4e6f6e626c6f636b696e674c7a4170703a20696e76616c6964207061796c6f616044820152601960fa1b6064820152608401610b7e565b61ffff87166000908152606a60205260408082209051611fd19089908990614962565b90815260408051602092819003830181206001600160401b038916600090815290845282902093909355601f88018290048202830182019052868252612069918991899089908190840183828082843760009201919091525050604080516020601f8a018190048102820181019092528881528a93509150889088908190840183828082843760009201919091525061291292505050565b7fc264d91f3adc5588250e1551f547752ca0cfa8f6b530d243b9f9f4cab10ea8e587878787856040516120a0959493929190614c97565b60405180910390a150505050505050565b6120b9612435565b61ffff83811660008181526067602090815260408083209487168084529482529182902085905581519283528201929092529081018290527f9d5c7c0b934da8fefa9c7760c98383778a12dfbfc0c3b3106518f43fb9508ac09060600161131c565b6001600160a01b03918216600090815260d86020908152604080832093909416825291909152205460ff1690565b612151612435565b61ffff8316600090815260666020526040902061216f908383613dc2565b507ffa41487ad5d6728f0b19276fa1eddc16558578f5109fc39d2dc33c3230470dab83838360405161131c93929190614a2c565b600080600086866040516020016121bb929190614d0d565b60408051601f198184030181529082905260655463040a7bb160e41b83529092506001600160a01b0316906340a7bb1090612202908b90309086908b908b90600401614d32565b604080518083038186803b15801561221957600080fd5b505afa15801561222d573d6000803e3d6000fd5b505050506040513d601f19601f820116820180604052508101906122519190614d86565b92509250509550959350505050565b612268612435565b6001600160a01b0381166122cd5760405162461bcd60e51b815260206004820152602660248201527f4f776e61626c653a206e6577206f776e657220697320746865207a65726f206160448201526564647265737360d01b6064820152608401610b7e565b61194281612b38565b606554604051633d7b2f6f60e21b815261ffff808716600483015285166024820152306044820152606481018390526060916001600160a01b03169063f5ecbdbc9060840160006040518083038186803b15801561233357600080fd5b505afa158015612347573d6000803e3d6000fd5b505050506040513d6000823e601f3d908101601f1916820160405261236f9190810190614daa565b95945050505050565b3390565b6000806123df5a60966366ad5c8a60e01b898989896040516024016123a49493929190614dde565b60408051601f198184030181529190526020810180516001600160e01b03166001600160e01b03199093169290921790915230929190612efa565b9150915081611449576114498686868685612f84565b60006001600160e01b031982166380ac58cd60e01b148061242657506001600160e01b03198216635b5e139f60e01b145b80610d585750610d5882613012565b6033546001600160a01b031633146115cc5760405162461bcd60e51b815260206004820181905260248201527f4f776e61626c653a2063616c6c6572206973206e6f7420746865206f776e65726044820152606401610b7e565b61249881612b8a565b6119425760405162461bcd60e51b8152600401610b7e90614a98565b600081815260d76020526040902080546001600160a01b0319166001600160a01b03841690811790915581906124e982611340565b6001600160a01b03167f8c5be1e5ebec7d5bd14f71427d1e84f3dd0314c0f7b2291e5b200ac8c7c3b92560405160405180910390a45050565b60008061252e83611340565b9050806001600160a01b0316846001600160a01b031614806125555750612555818561211b565b806110625750836001600160a01b031661256e84610e5d565b6001600160a01b031614949350505050565b826001600160a01b031661259382611340565b6001600160a01b0316146125b95760405162461bcd60e51b8152600401610b7e90614e1c565b6001600160a01b03821661261b5760405162461bcd60e51b8152602060048201526024808201527f4552433732313a207472616e7366657220746f20746865207a65726f206164646044820152637265737360e01b6064820152608401610b7e565b826001600160a01b031661262e82611340565b6001600160a01b0316146126545760405162461bcd60e51b8152600401610b7e90614e1c565b600081815260d76020908152604080832080546001600160a01b03199081169091556001600160a01b0387811680865260d6855283862080546000190190559087168086528386208054600101905586865260d590945282852080549092168417909155905184937fddf252ad1be2c89b69c2b068fc378daa952ba7f163c4a11628f55a4df523b3ef91a4505050565b6040805160018082528183019092526060916000919060208083019080368337019050509050828160008151811061271e5761271e614e61565b602090810291909101015292915050565b6001600160a01b03163b151590565b60008451116127855760405162461bcd60e51b8152602060048201526013602482015272746f6b656e4964735b5d20697320656d70747960681b6044820152606401610b7e565b8351600114806127a9575061ffff8616600090815260d06020526040902054845111155b6128005760405162461bcd60e51b815260206004820152602260248201527f62617463682073697a65206578636565647320647374206261746368206c696d6044820152611a5d60f21b6064820152608401610b7e565b60005b84518110156128435761283188888888858151811061282457612824614e61565b6020026020010151613047565b8061283b81614e77565b915050612803565b5060008585604051602001612859929190614d0d565b604051602081830303815290604052905061289e87600184885160d160008d61ffff1661ffff168152602001908152602001600020546128999190614e92565b61310a565b6128ac8782868686346131df565b856040516128ba9190614eb1565b6040518091039020886001600160a01b03168861ffff167fe1b87c47fdeb4f9cbadbca9df3af7aba453bb6e501075d0440d88125b711522a886040516129009190614ecd565b60405180910390a45050505050505050565b600080828060200190518101906129299190614b27565b60148201519193509150600061294188838386612c01565b90508251811015612a155784516020808701919091206040805160808101825261ffff808d1682526001600160a01b03808816838701908152838501888152600160608601818152600089815260d2909a529887902095518654935190941662010000026001600160b01b03199093169390941692909217178355519082015592516002909301805493151560ff199094169390931790925590517f10e0b70d256bccc84b7027506978bd8b68984a870788b93b479def144c839ad790612a0b9083908990614ee0565b60405180910390a1505b816001600160a01b031687604051612a2d9190614eb1565b60405180910390208961ffff167f5b821db8a46f8ecbe1941ba2f51cfeea9643268b56631f70d45e2a745d990265866040516129009190614ecd565b600054610100900460ff1615808015612a895750600054600160ff909116105b80612aaa5750612a983061272f565b158015612aaa575060005460ff166001145b612ac65760405162461bcd60e51b8152600401610b7e90614a4a565b6000805460ff191660011790558015612ae9576000805461ff0019166101001790555b612af38585613369565b612afd838361339a565b8015610e56576000805461ff00191690556040516001815260008051602061513a833981519152906020015b60405180910390a15050505050565b603380546001600160a01b038381166001600160a01b0319831681179093556040519116919082907f8be0079c531659141344cd1fd0a4f28419497f9722a3daafe3b4186f6b6457e090600090a35050565b600090815260d560205260409020546001600160a01b0316151590565b6002609d541415612bfa5760405162461bcd60e51b815260206004820152601f60248201527f5265656e7472616e637947756172643a207265656e7472616e742063616c6c006044820152606401610b7e565b6002609d55565b6000825b825181101561236f5760cf545a1015612c1d5761236f565b612c418686858481518110612c3457612c34614e61565b6020026020010151613448565b80612c4b81614e77565b915050612c05565b606081612c6181601f614ef9565b1015612ca05760405162461bcd60e51b815260206004820152600e60248201526d736c6963655f6f766572666c6f7760901b6044820152606401610b7e565b612caa8284614ef9565b84511015612cee5760405162461bcd60e51b8152602060048201526011602482015270736c6963655f6f75744f66426f756e647360781b6044820152606401610b7e565b606082158015612d0d5760405191506000825260208201604052612d57565b6040519150601f8416801560200281840101858101878315602002848b0101015b81831015612d46578051835260209283019201612d2e565b5050858452601f01601f1916604052505b50949350505050565b816001600160a01b0316836001600160a01b03161415612dbe5760405162461bcd60e51b815260206004820152601960248201527822a9219b99189d1030b8383937bb32903a379031b0b63632b960391b6044820152606401610b7e565b6001600160a01b03838116600081815260d86020908152604080832094871680845294825291829020805460ff191686151590811790915591519182527f17307eab39ab6107e8899845ad3d59bd9653f200f220920489ca2b5937696c31910160405180910390a3505050565b612e36848484612580565b612e42848484846135b2565b611ca35760405162461bcd60e51b8152600401610b7e90614f11565b60606000612e6b836136c3565b60010190506000816001600160401b03811115612e8a57612e8a61408e565b6040519080825280601f01601f191660200182016040528015612eb4576020820181803683370190505b5090508181016020015b600019016f181899199a1a9b1b9c1cb0b131b232b360811b600a86061a8153600a8504945084612eed57612ef2565b612ebe565b509392505050565b6000606060008060008661ffff166001600160401b03811115612f1f57612f1f61408e565b6040519080825280601f01601f191660200182016040528015612f49576020820181803683370190505b50905060008087516020890160008d8df191503d925086831115612f6b578692505b828152826000602083013e909890975095505050505050565b8180519060200120606a60008761ffff1661ffff16815260200190815260200160002085604051612fb59190614eb1565b9081526040805191829003602090810183206001600160401b0388166000908152915220919091557fe183f33de2837795525b4792ca4cd60535bd77c53b7e7030060bfcf5734d6b0c90612b299087908790879087908790614f63565b60006001600160e01b031982166322bac5d960e01b1480610d5857506301ffc9a760e01b6001600160e01b0319831614610d58565b610137546001600160a01b0316156130fe57610137546001600160a01b0316806342842e0e3330856040518463ffffffff1660e01b815260040161308d93929190614fb5565b600060405180830381600087803b1580156130a757600080fd5b505af11580156130bb573d6000803e3d6000fd5b505050506130c882612b8a565b6130db576130d6308361379b565b6130f8565b306130e583611340565b6001600160a01b0316146130f857600080fd5b50611ca3565b611ca3848484846137b5565b6000613115836138a0565b61ffff808716600090815260676020908152604080832093891683529290522054909150806131865760405162461bcd60e51b815260206004820152601a60248201527f4c7a4170703a206d696e4761734c696d6974206e6f74207365740000000000006044820152606401610b7e565b6131908382614ef9565b8210156114495760405162461bcd60e51b815260206004820152601b60248201527f4c7a4170703a20676173206c696d697420697320746f6f206c6f7700000000006044820152606401610b7e565b61ffff8616600090815260666020526040812080546131fd90614927565b80601f016020809104026020016040519081016040528092919081815260200182805461322990614927565b80156132765780601f1061324b57610100808354040283529160200191613276565b820191906000526020600020905b81548152906001019060200180831161325957829003601f168201915b505050505090508051600014156132e85760405162461bcd60e51b815260206004820152603060248201527f4c7a4170703a2064657374696e6174696f6e20636861696e206973206e6f742060448201526f61207472757374656420736f7572636560801b6064820152608401610b7e565b6132f38787516138fc565b60655460405162c5803160e81b81526001600160a01b039091169063c580310090849061332e908b9086908c908c908c908c90600401614fd9565b6000604051808303818588803b15801561334757600080fd5b505af115801561335b573d6000803e3d6000fd5b505050505050505050505050565b600054610100900460ff166133905760405162461bcd60e51b8152600401610b7e90615040565b611b2d828261396a565b600054610100900460ff16158080156133ba5750600054600160ff909116105b806133db57506133c93061272f565b1580156133db575060005460ff166001145b6133f75760405162461bcd60e51b8152600401610b7e90614a4a565b6000805460ff19166001179055801561341a576000805461ff0019166101001790555b6000831161343a5760405162461bcd60e51b8152600401610b7e90614972565b60cf8390556112f0826139b8565b610137546001600160a01b0316156135a757610137546040516331a9108f60e11b8152600481018390526001600160a01b039091169030908290636352211e9060240160206040518083038186803b1580156134a357600080fd5b505afa1580156134b7573d6000803e3d6000fd5b505050506040513d601f19601f820116820180604052508101906134db919061508b565b6001600160a01b0316146135225760405162461bcd60e51b815260206004820152600e60248201526d31b7b63630ba32b930b61032b93960911b6044820152606401610b7e565b3061352c83611340565b6001600160a01b03161461353f57600080fd5b604051632142170760e11b81526001600160a01b038216906342842e0e9061356f90309087908790600401614fb5565b600060405180830381600087803b15801561358957600080fd5b505af115801561359d573d6000803e3d6000fd5b5050505050505050565b610f95838383613a71565b60006135c6846001600160a01b031661272f565b156136bb57604051630a85bd0160e11b81526001600160a01b0385169063150b7a02906135fd9033908990889088906004016150a8565b602060405180830381600087803b15801561361757600080fd5b505af1925050508015613647575060408051601f3d908101601f19168201909252613644918101906150e5565b60015b6136a1573d808015613675576040519150601f19603f3d011682016040523d82523d6000602084013e61367a565b606091505b5080516136995760405162461bcd60e51b8152600401610b7e90614f11565b805181602001fd5b6001600160e01b031916630a85bd0160e11b149050611062565b506001611062565b60008072184f03e93ff9f4daa797ed6e38ed64bf6a1f0160401b83106137025772184f03e93ff9f4daa797ed6e38ed64bf6a1f0160401b830492506040015b6d04ee2d6d415b85acef8100000000831061372e576d04ee2d6d415b85acef8100000000830492506020015b662386f26fc10000831061374c57662386f26fc10000830492506010015b6305f5e1008310613764576305f5e100830492506008015b612710831061377857612710830492506004015b6064831061378a576064830492506002015b600a8310610d585760010192915050565b611b2d828260405180602001604052806000815250613ad1565b6137be3361106f565b6138215760405162461bcd60e51b815260206004820152602e60248201527f4f4e46543732313a2073656e642063616c6c6572206973206e6f74206f776e6560448201526d1c881b9bdc88185c1c1c9bdd995960921b6064820152608401610b7e565b836001600160a01b031661383482611340565b6001600160a01b0316146138955760405162461bcd60e51b815260206004820152602260248201527f4f4e46543732313a2073656e642066726f6d20696e636f7272656374206f776e60448201526132b960f11b6064820152608401610b7e565b611ca3843083612580565b60006022825110156138f45760405162461bcd60e51b815260206004820152601c60248201527f4c7a4170703a20696e76616c69642061646170746572506172616d73000000006044820152606401610b7e565b506022015190565b61ffff82166000908152606860205260409020548061391a57506127105b80821115610f955760405162461bcd60e51b815260206004820181905260248201527f4c7a4170703a207061796c6f61642073697a6520697320746f6f206c617267656044820152606401610b7e565b600054610100900460ff166139915760405162461bcd60e51b8152600401610b7e90615040565b81516139a49060d3906020850190613d3e565b508051610f959060d4906020840190613d3e565b600054610100900460ff16158080156139d85750600054600160ff909116105b806139f957506139e73061272f565b1580156139f9575060005460ff166001145b613a155760405162461bcd60e51b8152600401610b7e90614a4a565b6000805460ff191660011790558015613a38576000805461ff0019166101001790555b613a4182613b04565b8015611b2d576000805461ff00191690556040516001815260008051602061513a833981519152906020016119ff565b613a7a81612b8a565b1580613aa65750613a8a81612b8a565b8015613aa6575030613a9b82611340565b6001600160a01b0316145b613aaf57600080fd5b613ab881612b8a565b613ac657610f95828261379b565b610f95308383612580565b613adb8383613bd7565b613ae860008484846135b2565b610f955760405162461bcd60e51b8152600401610b7e90614f11565b600054610100900460ff1615808015613b245750600054600160ff909116105b80613b455750613b333061272f565b158015613b45575060005460ff166001145b613b615760405162461bcd60e51b8152600401610b7e90614a4a565b6000805460ff191660011790558015613b84576000805461ff0019166101001790555b613b8c613ce4565b606580546001600160a01b0319166001600160a01b0384161790558015611b2d576000805461ff00191690556040516001815260008051602061513a833981519152906020016119ff565b6001600160a01b038216613c2d5760405162461bcd60e51b815260206004820181905260248201527f4552433732313a206d696e7420746f20746865207a65726f20616464726573736044820152606401610b7e565b613c3681612b8a565b15613c535760405162461bcd60e51b8152600401610b7e90615102565b613c5c81612b8a565b15613c795760405162461bcd60e51b8152600401610b7e90615102565b6001600160a01b038216600081815260d6602090815260408083208054600101905584835260d590915280822080546001600160a01b0319168417905551839291907fddf252ad1be2c89b69c2b068fc378daa952ba7f163c4a11628f55a4df523b3ef908290a45050565b600054610100900460ff16613d0b5760405162461bcd60e51b8152600401610b7e90615040565b6115cc600054610100900460ff16613d355760405162461bcd60e51b8152600401610b7e90615040565b6115cc33612b38565b828054613d4a90614927565b90600052602060002090601f016020900481019282613d6c5760008555613db2565b82601f10613d8557805160ff1916838001178555613db2565b82800160010185558215613db2579182015b82811115613db2578251825591602001919060010190613d97565b50613dbe929150613e36565b5090565b828054613dce90614927565b90600052602060002090601f016020900481019282613df05760008555613db2565b82601f10613e095782800160ff19823516178555613db2565b82800160010185558215613db2579182015b82811115613db2578235825591602001919060010190613e1b565b5b80821115613dbe5760008155600101613e37565b803561ffff81168114613e5d57600080fd5b919050565b60008083601f840112613e7457600080fd5b5081356001600160401b03811115613e8b57600080fd5b602083019150836020828501011115613ea357600080fd5b9250929050565b80356001600160401b0381168114613e5d57600080fd5b60008060008060008060808789031215613eda57600080fd5b613ee387613e4b565b955060208701356001600160401b0380821115613eff57600080fd5b613f0b8a838b01613e62565b9097509550859150613f1f60408a01613eaa565b94506060890135915080821115613f3557600080fd5b50613f4289828a01613e62565b979a9699509497509295939492505050565b6001600160e01b03198116811461194257600080fd5b600060208284031215613f7c57600080fd5b8135611b1b81613f54565b60005b83811015613fa2578181015183820152602001613f8a565b83811115611ca35750506000910152565b60008151808452613fcb816020860160208601613f87565b601f01601f19169290920160200192915050565b602081526000611b1b6020830184613fb3565b60006020828403121561400457600080fd5b611b1b82613e4b565b60006020828403121561401f57600080fd5b5035919050565b6001600160a01b038116811461194257600080fd5b8035613e5d81614026565b6000806040838503121561405957600080fd5b823561406481614026565b946020939093013593505050565b6000806040838503121561408557600080fd5b61406483613e4b565b634e487b7160e01b600052604160045260246000fd5b604051601f8201601f191681016001600160401b03811182821017156140cc576140cc61408e565b604052919050565b60006001600160401b038211156140ed576140ed61408e565b50601f01601f191660200190565b600082601f83011261410c57600080fd5b813561411f61411a826140d4565b6140a4565b81815284602083860101111561413457600080fd5b816020850160208301376000918101602001919091529392505050565b6000806000806080858703121561416757600080fd5b843561417281614026565b9350602085013561418281614026565b92506040850135915060608501356001600160401b038111156141a457600080fd5b6141b0878288016140fb565b91505092959194509250565b6000806000606084860312156141d157600080fd5b83356141dc81614026565b925060208401356141ec81614026565b929592945050506040919091013590565b80358015158114613e5d57600080fd5b600080600080600060a0868803121561422557600080fd5b61422e86613e4b565b945060208601356001600160401b038082111561424a57600080fd5b61425689838a016140fb565b95506040880135945061426b606089016141fd565b9350608088013591508082111561428157600080fd5b5061428e888289016140fb565b9150509295509295909350565b6000806000604084860312156142b057600080fd5b6142b984613e4b565b925060208401356001600160401b038111156142d457600080fd5b6142e086828701613e62565b9497909650939450505050565b6000806040838503121561430057600080fd5b823561430b81614026565b9150602083013561431b81614026565b809150509250929050565b600080600080600080600060e0888a03121561434157600080fd5b873561434c81614026565b965061435a60208901613e4b565b955060408801356001600160401b038082111561437657600080fd5b6143828b838c016140fb565b965060608a0135955060808a0135915061439b82614026565b90935060a0890135906143ad82614026565b90925060c089013590808211156143c357600080fd5b506143d08a828b016140fb565b91505092959891949750929550565b6000806000606084860312156143f457600080fd5b6143fd84613e4b565b925060208401356001600160401b0381111561441857600080fd5b614424868287016140fb565b92505061443360408501613eaa565b90509250925092565b600080600080600060a0868803121561445457600080fd5b85356001600160401b038082111561446b57600080fd5b61447789838a016140fb565b9650602088013591508082111561448d57600080fd5b5061449a888289016140fb565b94505060408601356144ab81614026565b92506060860135915060808601356144c281614026565b809150509295509295909350565b6000602082840312156144e257600080fd5b8135611b1b81614026565b6000806000806060858703121561450357600080fd5b8435935061451360208601613e4b565b925060408501356001600160401b0381111561452e57600080fd5b61453a87828801613e62565b95989497509550505050565b6000806040838503121561455957600080fd5b61456283613e4b565b915061457060208401613e4b565b90509250929050565b60006020828403121561458b57600080fd5b81356001600160401b038111156145a157600080fd5b611062848285016140fb565b600080604083850312156145c057600080fd5b82356145cb81614026565b9150614570602084016141fd565b6000806000806000606086880312156145f157600080fd5b85356001600160401b038082111561460857600080fd5b818801915088601f83011261461c57600080fd5b81358181111561462b57600080fd5b8960208260051b850101111561464057600080fd5b6020830197508096505061465660208901613e4b565b9450604088013591508082111561466c57600080fd5b5061467988828901613e62565b969995985093965092949392505050565b60006001600160401b038211156146a3576146a361408e565b5060051b60200190565b600082601f8301126146be57600080fd5b813560206146ce61411a8361468a565b82815260059290921b840181019181810190868411156146ed57600080fd5b8286015b8481101561470857803583529183019183016146f1565b509695505050505050565b600080600080600080600060e0888a03121561472e57600080fd5b873561473981614026565b965061474760208901613e4b565b955060408801356001600160401b038082111561476357600080fd5b61476f8b838c016140fb565b965060608a013591508082111561478557600080fd5b6147918b838c016146ad565b955060808a013591506147a382614026565b8194506147b260a08b0161403b565b935060c08a01359150808211156143c357600080fd5b6000806000806000608086880312156147e057600080fd5b6147e986613e4b565b94506147f760208701613e4b565b93506040860135925060608601356001600160401b0381111561481957600080fd5b61467988828901613e62565b60008060006060848603121561483a57600080fd5b61484384613e4b565b925061485160208501613e4b565b9150604084013590509250925092565b600080600080600060a0868803121561487957600080fd5b61488286613e4b565b945060208601356001600160401b038082111561489e57600080fd5b6148aa89838a016140fb565b955060408801359150808211156148c057600080fd5b6148cc89838a016146ad565b945061426b606089016141fd565b600080600080608085870312156148f057600080fd5b6148f985613e4b565b935061490760208601613e4b565b9250604085013561491781614026565b9396929550929360600135925050565b600181811c9082168061493b57607f821691505b6020821081141561495c57634e487b7160e01b600052602260045260246000fd5b50919050565b8183823760009101908152919050565b60208082526024908201527f6d696e476173546f5472616e73666572416e6453746f7265206d7573742062656040820152630203e20360e41b606082015260800190565b6020808252602d908201527f4552433732313a2063616c6c6572206973206e6f7420746f6b656e206f776e6560408201526c1c881bdc88185c1c1c9bdd9959609a1b606082015260800190565b81835281816020850137506000828201602090810191909152601f909101601f19169091010190565b61ffff8416815260406020820152600061236f604083018486614a03565b6020808252602e908201527f496e697469616c697a61626c653a20636f6e747261637420697320616c72656160408201526d191e481a5b9a5d1a585b1a5e995960921b606082015260800190565b602080825260189082015277115490cdcc8c4e881a5b9d985b1a59081d1bdad95b88125160421b604082015260600190565b60609190911b6001600160601b031916815260140190565b600082601f830112614af357600080fd5b8151614b0161411a826140d4565b818152846020838601011115614b1657600080fd5b611062826020830160208701613f87565b60008060408385031215614b3a57600080fd5b82516001600160401b0380821115614b5157600080fd5b614b5d86838701614ae2565b9350602091508185015181811115614b7457600080fd5b85019050601f81018613614b8757600080fd5b8051614b9561411a8261468a565b81815260059190911b82018301908381019088831115614bb457600080fd5b928401925b82841015614bd257835182529284019290840190614bb9565b80955050505050509250929050565b634e487b7160e01b600052601160045260246000fd5b600082821015614c0957614c09614be1565b500390565b8284823760609190911b6001600160601b0319169101908152601401919050565b60008351614c41818460208801613f87565b835190830190614c55818360208801613f87565b01949350505050565b600061ffff808816835280871660208401525084604083015260806060830152614c8c608083018486614a03565b979650505050505050565b61ffff86168152608060208201526000614cb5608083018688614a03565b6001600160401b0394909416604083015250606001529392505050565b600081518084526020808501945080840160005b83811015614d0257815187529582019590820190600101614ce6565b509495945050505050565b604081526000614d206040830185613fb3565b828103602084015261236f8185614cd2565b61ffff861681526001600160a01b038516602082015260a060408201819052600090614d6090830186613fb3565b84151560608401528281036080840152614d7a8185613fb3565b98975050505050505050565b60008060408385031215614d9957600080fd5b505080516020909101519092909150565b600060208284031215614dbc57600080fd5b81516001600160401b03811115614dd257600080fd5b61106284828501614ae2565b61ffff85168152608060208201526000614dfb6080830186613fb3565b6001600160401b03851660408401528281036060840152614c8c8185613fb3565b60208082526025908201527f4552433732313a207472616e736665722066726f6d20696e636f72726563742060408201526437bbb732b960d91b606082015260800190565b634e487b7160e01b600052603260045260246000fd5b6000600019821415614e8b57614e8b614be1565b5060010190565b6000816000190483118215151615614eac57614eac614be1565b500290565b60008251614ec3818460208701613f87565b9190910192915050565b602081526000611b1b6020830184614cd2565b8281526040602082015260006110626040830184613fb3565b60008219821115614f0c57614f0c614be1565b500190565b60208082526032908201527f4552433732313a207472616e7366657220746f206e6f6e20455243373231526560408201527131b2b4bb32b91034b6b83632b6b2b73a32b960711b606082015260800190565b61ffff8616815260a060208201526000614f8060a0830187613fb3565b6001600160401b03861660408401528281036060840152614fa18186613fb3565b90508281036080840152614d7a8185613fb3565b6001600160a01b039384168152919092166020820152604081019190915260600190565b61ffff8716815260c060208201526000614ff660c0830188613fb3565b82810360408401526150088188613fb3565b6001600160a01b0387811660608601528616608085015283810360a085015290506150338185613fb3565b9998505050505050505050565b6020808252602b908201527f496e697469616c697a61626c653a20636f6e7472616374206973206e6f74206960408201526a6e697469616c697a696e6760a81b606082015260800190565b60006020828403121561509d57600080fd5b8151611b1b81614026565b6001600160a01b03858116825284166020820152604081018390526080606082018190526000906150db90830184613fb3565b9695505050505050565b6000602082840312156150f757600080fd5b8151611b1b81613f54565b6020808252601c908201527f4552433732313a20746f6b656e20616c7265616479206d696e7465640000000060408201526060019056fe7f26b83ff96e1f2b6a682f133852f6798a09c465da95921460cefb3847402498a264697066735822122039e23063977f552c9814123544432026b71f4f53191b530b9d3bb3e8b66429a564736f6c63430008090033",
  "devdoc": {
    "kind": "dev",
    "methods": {
      "approve(address,uint256)": {
        "details": "See {IERC721-approve}."
      },
      "balanceOf(address)": {
        "details": "See {IERC721-balanceOf}."
      },
      "estimateSendBatchFee(uint16,bytes,uint256[],bool,bytes)": {
        "details": "estimate send token `_tokenId` to (`_dstChainId`, `_toAddress`) _dstChainId - L0 defined chain id to send tokens too _toAddress - dynamic bytes array which contains the address to whom you are sending tokens to on the dstChain _tokenIds[] - token Ids to transfer _useZro - indicates to use zro to pay L0 fees _adapterParams - flexible bytes array to indicate messaging adapter services in L0"
      },
      "estimateSendFee(uint16,bytes,uint256,bool,bytes)": {
        "details": "estimate send token `_tokenId` to (`_dstChainId`, `_toAddress`) _dstChainId - L0 defined chain id to send tokens too _toAddress - dynamic bytes array which contains the address to whom you are sending tokens to on the dstChain _tokenId - token Id to transfer _useZro - indicates to use zro to pay L0 fees _adapterParams - flexible bytes array to indicate messaging adapter services in L0"
      },
      "getApproved(uint256)": {
        "details": "See {IERC721-getApproved}."
      },
      "isApprovedForAll(address,address)": {
        "details": "See {IERC721-isApprovedForAll}."
      },
      "name()": {
        "details": "See {IERC721Metadata-name}."
      },
      "onERC721Received(address,address,uint256,bytes)": {
        "details": "See {IERC721Receiver-onERC721Received}. Always returns `IERC721Receiver.onERC721Received.selector`."
      },
      "owner()": {
        "details": "Returns the address of the current owner."
      },
      "ownerOf(uint256)": {
        "details": "See {IERC721-ownerOf}."
      },
      "renounceOwnership()": {
        "details": "Leaves the contract without owner. It will not be possible to call `onlyOwner` functions. Can only be called by the current owner. NOTE: Renouncing ownership will leave the contract without an owner, thereby disabling any functionality that is only available to the owner."
      },
      "safeTransferFrom(address,address,uint256)": {
        "details": "See {IERC721-safeTransferFrom}."
      },
      "safeTransferFrom(address,address,uint256,bytes)": {
        "details": "See {IERC721-safeTransferFrom}."
      },
      "sendBatchFrom(address,uint16,bytes,uint256[],address,address,bytes)": {
        "details": "send tokens `_tokenIds[]` to (`_dstChainId`, `_toAddress`) from `_from` `_toAddress` can be any size depending on the `dstChainId`. `_zroPaymentAddress` set to address(0x0) if not paying in ZRO (LayerZero Token) `_adapterParams` is a flexible bytes array to indicate messaging adapter services"
      },
      "sendFrom(address,uint16,bytes,uint256,address,address,bytes)": {
        "details": "send token `_tokenId` to (`_dstChainId`, `_toAddress`) from `_from` `_toAddress` can be any size depending on the `dstChainId`. `_zroPaymentAddress` set to address(0x0) if not paying in ZRO (LayerZero Token) `_adapterParams` is a flexible bytes array to indicate messaging adapter services"
      },
      "setApprovalForAll(address,bool)": {
        "details": "See {IERC721-setApprovalForAll}."
      },
      "symbol()": {
        "details": "See {IERC721Metadata-symbol}."
      },
      "tokenURI(uint256)": {
        "details": "See {IERC721Metadata-tokenURI}."
      },
      "transferFrom(address,address,uint256)": {
        "details": "See {IERC721-transferFrom}."
      },
      "transferOwnership(address)": {
        "details": "Transfers ownership of the contract to a new account (`newOwner`). Can only be called by the current owner."
      }
    },
    "version": 1
  },
  "userdoc": {
    "kind": "user",
    "methods": {},
    "version": 1
  },
  "storageLayout": {
    "storage": [
      {
        "astId": 139,
        "contract": "contracts/mocks/MockOBoredApeYachtClub.sol:MockOBoredApeYachtClub",
        "label": "_initialized",
        "offset": 0,
        "slot": "0",
        "type": "t_uint8"
      },
      {
        "astId": 142,
        "contract": "contracts/mocks/MockOBoredApeYachtClub.sol:MockOBoredApeYachtClub",
        "label": "_initializing",
        "offset": 1,
        "slot": "0",
        "type": "t_bool"
      },
      {
        "astId": 1928,
        "contract": "contracts/mocks/MockOBoredApeYachtClub.sol:MockOBoredApeYachtClub",
        "label": "__gap",
        "offset": 0,
        "slot": "1",
        "type": "t_array(t_uint256)50_storage"
      },
      {
        "astId": 11,
        "contract": "contracts/mocks/MockOBoredApeYachtClub.sol:MockOBoredApeYachtClub",
        "label": "_owner",
        "offset": 0,
        "slot": "51",
        "type": "t_address"
      },
      {
        "astId": 131,
        "contract": "contracts/mocks/MockOBoredApeYachtClub.sol:MockOBoredApeYachtClub",
        "label": "__gap",
        "offset": 0,
        "slot": "52",
        "type": "t_array(t_uint256)49_storage"
      },
      {
        "astId": 4046,
        "contract": "contracts/mocks/MockOBoredApeYachtClub.sol:MockOBoredApeYachtClub",
        "label": "lzEndpoint",
        "offset": 0,
        "slot": "101",
        "type": "t_contract(ILayerZeroEndpoint)4961"
      },
      {
        "astId": 4050,
        "contract": "contracts/mocks/MockOBoredApeYachtClub.sol:MockOBoredApeYachtClub",
        "label": "trustedRemoteLookup",
        "offset": 0,
        "slot": "102",
        "type": "t_mapping(t_uint16,t_bytes_storage)"
      },
      {
        "astId": 4056,
        "contract": "contracts/mocks/MockOBoredApeYachtClub.sol:MockOBoredApeYachtClub",
        "label": "minDstGasLookup",
        "offset": 0,
        "slot": "103",
        "type": "t_mapping(t_uint16,t_mapping(t_uint16,t_uint256))"
      },
      {
        "astId": 4060,
        "contract": "contracts/mocks/MockOBoredApeYachtClub.sol:MockOBoredApeYachtClub",
        "label": "payloadSizeLimitLookup",
        "offset": 0,
        "slot": "104",
        "type": "t_mapping(t_uint16,t_uint256)"
      },
      {
        "astId": 4062,
        "contract": "contracts/mocks/MockOBoredApeYachtClub.sol:MockOBoredApeYachtClub",
        "label": "precrime",
        "offset": 0,
        "slot": "105",
        "type": "t_address"
      },
      {
        "astId": 4601,
        "contract": "contracts/mocks/MockOBoredApeYachtClub.sol:MockOBoredApeYachtClub",
        "label": "failedMessages",
        "offset": 0,
        "slot": "106",
        "type": "t_mapping(t_uint16,t_mapping(t_bytes_memory_ptr,t_mapping(t_uint64,t_bytes32)))"
      },
      {
        "astId": 2202,
        "contract": "contracts/mocks/MockOBoredApeYachtClub.sol:MockOBoredApeYachtClub",
        "label": "__gap",
        "offset": 0,
        "slot": "107",
        "type": "t_array(t_uint256)50_storage"
      },
      {
        "astId": 316,
        "contract": "contracts/mocks/MockOBoredApeYachtClub.sol:MockOBoredApeYachtClub",
        "label": "_status",
        "offset": 0,
        "slot": "157",
        "type": "t_uint256"
      },
      {
        "astId": 385,
        "contract": "contracts/mocks/MockOBoredApeYachtClub.sol:MockOBoredApeYachtClub",
        "label": "__gap",
        "offset": 0,
        "slot": "158",
        "type": "t_array(t_uint256)49_storage"
      },
      {
        "astId": 5189,
        "contract": "contracts/mocks/MockOBoredApeYachtClub.sol:MockOBoredApeYachtClub",
        "label": "minGasToTransferAndStore",
        "offset": 0,
        "slot": "207",
        "type": "t_uint256"
      },
      {
        "astId": 5193,
        "contract": "contracts/mocks/MockOBoredApeYachtClub.sol:MockOBoredApeYachtClub",
        "label": "dstChainIdToBatchLimit",
        "offset": 0,
        "slot": "208",
        "type": "t_mapping(t_uint16,t_uint256)"
      },
      {
        "astId": 5197,
        "contract": "contracts/mocks/MockOBoredApeYachtClub.sol:MockOBoredApeYachtClub",
        "label": "dstChainIdToTransferGas",
        "offset": 0,
        "slot": "209",
        "type": "t_mapping(t_uint16,t_uint256)"
      },
      {
        "astId": 5202,
        "contract": "contracts/mocks/MockOBoredApeYachtClub.sol:MockOBoredApeYachtClub",
        "label": "storedCredits",
        "offset": 0,
        "slot": "210",
        "type": "t_mapping(t_bytes32,t_struct(StoredCredit)5187_storage)"
      },
      {
        "astId": 416,
        "contract": "contracts/mocks/MockOBoredApeYachtClub.sol:MockOBoredApeYachtClub",
        "label": "_name",
        "offset": 0,
        "slot": "211",
        "type": "t_string_storage"
      },
      {
        "astId": 418,
        "contract": "contracts/mocks/MockOBoredApeYachtClub.sol:MockOBoredApeYachtClub",
        "label": "_symbol",
        "offset": 0,
        "slot": "212",
        "type": "t_string_storage"
      },
      {
        "astId": 422,
        "contract": "contracts/mocks/MockOBoredApeYachtClub.sol:MockOBoredApeYachtClub",
        "label": "_owners",
        "offset": 0,
        "slot": "213",
        "type": "t_mapping(t_uint256,t_address)"
      },
      {
        "astId": 426,
        "contract": "contracts/mocks/MockOBoredApeYachtClub.sol:MockOBoredApeYachtClub",
        "label": "_balances",
        "offset": 0,
        "slot": "214",
        "type": "t_mapping(t_address,t_uint256)"
      },
      {
        "astId": 430,
        "contract": "contracts/mocks/MockOBoredApeYachtClub.sol:MockOBoredApeYachtClub",
        "label": "_tokenApprovals",
        "offset": 0,
        "slot": "215",
        "type": "t_mapping(t_uint256,t_address)"
      },
      {
        "astId": 436,
        "contract": "contracts/mocks/MockOBoredApeYachtClub.sol:MockOBoredApeYachtClub",
        "label": "_operatorApprovals",
        "offset": 0,
        "slot": "216",
        "type": "t_mapping(t_address,t_mapping(t_address,t_bool))"
      },
      {
        "astId": 1338,
        "contract": "contracts/mocks/MockOBoredApeYachtClub.sol:MockOBoredApeYachtClub",
        "label": "__gap",
        "offset": 0,
        "slot": "217",
        "type": "t_array(t_uint256)44_storage"
      },
      {
        "astId": 1547,
        "contract": "contracts/mocks/MockOBoredApeYachtClub.sol:MockOBoredApeYachtClub",
        "label": "__gap",
        "offset": 0,
        "slot": "261",
        "type": "t_array(t_uint256)50_storage"
      },
      {
        "astId": 3325,
        "contract": "contracts/mocks/MockOBoredApeYachtClub.sol:MockOBoredApeYachtClub",
        "label": "collateral",
        "offset": 0,
        "slot": "311",
        "type": "t_address"
      }
    ],
    "types": {
      "t_address": {
        "encoding": "inplace",
        "label": "address",
        "numberOfBytes": "20"
      },
      "t_array(t_uint256)44_storage": {
        "base": "t_uint256",
        "encoding": "inplace",
        "label": "uint256[44]",
        "numberOfBytes": "1408"
      },
      "t_array(t_uint256)49_storage": {
        "base": "t_uint256",
        "encoding": "inplace",
        "label": "uint256[49]",
        "numberOfBytes": "1568"
      },
      "t_array(t_uint256)50_storage": {
        "base": "t_uint256",
        "encoding": "inplace",
        "label": "uint256[50]",
        "numberOfBytes": "1600"
      },
      "t_bool": {
        "encoding": "inplace",
        "label": "bool",
        "numberOfBytes": "1"
      },
      "t_bytes32": {
        "encoding": "inplace",
        "label": "bytes32",
        "numberOfBytes": "32"
      },
      "t_bytes_memory_ptr": {
        "encoding": "bytes",
        "label": "bytes",
        "numberOfBytes": "32"
      },
      "t_bytes_storage": {
        "encoding": "bytes",
        "label": "bytes",
        "numberOfBytes": "32"
      },
      "t_contract(ILayerZeroEndpoint)4961": {
        "encoding": "inplace",
        "label": "contract ILayerZeroEndpoint",
        "numberOfBytes": "20"
      },
      "t_mapping(t_address,t_bool)": {
        "encoding": "mapping",
        "key": "t_address",
        "label": "mapping(address => bool)",
        "numberOfBytes": "32",
        "value": "t_bool"
      },
      "t_mapping(t_address,t_mapping(t_address,t_bool))": {
        "encoding": "mapping",
        "key": "t_address",
        "label": "mapping(address => mapping(address => bool))",
        "numberOfBytes": "32",
        "value": "t_mapping(t_address,t_bool)"
      },
      "t_mapping(t_address,t_uint256)": {
        "encoding": "mapping",
        "key": "t_address",
        "label": "mapping(address => uint256)",
        "numberOfBytes": "32",
        "value": "t_uint256"
      },
      "t_mapping(t_bytes32,t_struct(StoredCredit)5187_storage)": {
        "encoding": "mapping",
        "key": "t_bytes32",
        "label": "mapping(bytes32 => struct ONFT721Core.StoredCredit)",
        "numberOfBytes": "32",
        "value": "t_struct(StoredCredit)5187_storage"
      },
      "t_mapping(t_bytes_memory_ptr,t_mapping(t_uint64,t_bytes32))": {
        "encoding": "mapping",
        "key": "t_bytes_memory_ptr",
        "label": "mapping(bytes => mapping(uint64 => bytes32))",
        "numberOfBytes": "32",
        "value": "t_mapping(t_uint64,t_bytes32)"
      },
      "t_mapping(t_uint16,t_bytes_storage)": {
        "encoding": "mapping",
        "key": "t_uint16",
        "label": "mapping(uint16 => bytes)",
        "numberOfBytes": "32",
        "value": "t_bytes_storage"
      },
      "t_mapping(t_uint16,t_mapping(t_bytes_memory_ptr,t_mapping(t_uint64,t_bytes32)))": {
        "encoding": "mapping",
        "key": "t_uint16",
        "label": "mapping(uint16 => mapping(bytes => mapping(uint64 => bytes32)))",
        "numberOfBytes": "32",
        "value": "t_mapping(t_bytes_memory_ptr,t_mapping(t_uint64,t_bytes32))"
      },
      "t_mapping(t_uint16,t_mapping(t_uint16,t_uint256))": {
        "encoding": "mapping",
        "key": "t_uint16",
        "label": "mapping(uint16 => mapping(uint16 => uint256))",
        "numberOfBytes": "32",
        "value": "t_mapping(t_uint16,t_uint256)"
      },
      "t_mapping(t_uint16,t_uint256)": {
        "encoding": "mapping",
        "key": "t_uint16",
        "label": "mapping(uint16 => uint256)",
        "numberOfBytes": "32",
        "value": "t_uint256"
      },
      "t_mapping(t_uint256,t_address)": {
        "encoding": "mapping",
        "key": "t_uint256",
        "label": "mapping(uint256 => address)",
        "numberOfBytes": "32",
        "value": "t_address"
      },
      "t_mapping(t_uint64,t_bytes32)": {
        "encoding": "mapping",
        "key": "t_uint64",
        "label": "mapping(uint64 => bytes32)",
        "numberOfBytes": "32",
        "value": "t_bytes32"
      },
      "t_string_storage": {
        "encoding": "bytes",
        "label": "string",
        "numberOfBytes": "32"
      },
      "t_struct(StoredCredit)5187_storage": {
        "encoding": "inplace",
        "label": "struct ONFT721Core.StoredCredit",
        "members": [
          {
            "astId": 5180,
            "contract": "contracts/mocks/MockOBoredApeYachtClub.sol:MockOBoredApeYachtClub",
            "label": "srcChainId",
            "offset": 0,
            "slot": "0",
            "type": "t_uint16"
          },
          {
            "astId": 5182,
            "contract": "contracts/mocks/MockOBoredApeYachtClub.sol:MockOBoredApeYachtClub",
            "label": "toAddress",
            "offset": 2,
            "slot": "0",
            "type": "t_address"
          },
          {
            "astId": 5184,
            "contract": "contracts/mocks/MockOBoredApeYachtClub.sol:MockOBoredApeYachtClub",
            "label": "index",
            "offset": 0,
            "slot": "1",
            "type": "t_uint256"
          },
          {
            "astId": 5186,
            "contract": "contracts/mocks/MockOBoredApeYachtClub.sol:MockOBoredApeYachtClub",
            "label": "creditsRemain",
            "offset": 0,
            "slot": "2",
            "type": "t_bool"
          }
        ],
        "numberOfBytes": "96"
      },
      "t_uint16": {
        "encoding": "inplace",
        "label": "uint16",
        "numberOfBytes": "2"
      },
      "t_uint256": {
        "encoding": "inplace",
        "label": "uint256",
        "numberOfBytes": "32"
      },
      "t_uint64": {
        "encoding": "inplace",
        "label": "uint64",
        "numberOfBytes": "8"
      },
      "t_uint8": {
        "encoding": "inplace",
        "label": "uint8",
        "numberOfBytes": "1"
      }
    }
  }
}